:020000040800F2
:1000000000020120BDFA0008DD2C0008DF2C0008EA
:10001000E12C0008E32C0008E52C0008000000009B
:100020000000000000000000000000009D0100082A
:10003000E92C000800000000CD010008ED2C0008AC
:10004000D7FA0008D7FA0008D7FA0008D7FA00084C
:10005000D7FA0008D7FA0008292D0008552D000806
:10006000D7FA0008D7FA0008D7FA0008B53D00080B
:10007000BB3D0008C13D0008C73D0008CD3D00085C
:10008000D33D0008D93D0008D7FA0008D7FA000888
:10009000D7FA0008D7FA0008D7FA0008D7FA0008FC
:1000A000D7FA0008D7FA0008D7FA0008D7FA0008EC
:1000B000D7FA00084F2E0008D7FA0008D7FA000830
:1000C000D7FA0008D7FA0008D7FA0008D7FA0008CC
:1000D000D7FA000863440008754400088D440008FE
:1000E000812D0008D7FA0008D7FA0008D7FA0008CF
:1000F000D7FA0008D7FA0008D7FA0008DF3D000851
:10010000D7FA0008D7FA0008D7FA0008D7FA00088B
:10011000A5440008BD440008D7FA0008D7FA000833
:10012000E53D0008E93D0008EF3D0008F53D000809
:10013000FB3D0008F12C0008D7FA0008D7FA0008A8
:10014000D7FA0008D7FA0008D7FA0008D7FA00084B
:10015000013E0008073E00080D3E0008D14400089B
:10016000D7FA0008D7FA0008D7FA0008D7FA00082B
:10017000D7FA0008D7FA0008D7FA0008D7FA00081B
:10018000D7FA0008D7FA0008DFF80CD00FF0A8FF64
:10019000004800479702000800020120194B196827
:1001A0000868B0E8F00F80F309884FF0000080F392
:1001B00011884EF00D0E70470000000002480068E4
:1001C000006880F3088800DF08ED00E0EFF30980A5
:1001D0000C4B1A6820E9F00F106008B54FF0BF0013
:1001E00080F311880FF06DFA4FF0000080F3118852
:1001F000BDE8084019680868B0E8F00F80F3098886
:10020000704700BF2802002001B44FF0BF0080F308
:10021000118801BC704701B44FF0000080F31188D1
:1002200001BC704708B5F74EF74D2021304606F067
:1002300060FD0028F9D0304606F0BDFCA628F4D1B8
:100240002870012409E02021304606F052FD0028E4
:10025000F9D0304606F0AFFC28550C2CF3DD287B96
:100260008628E2D1A878552803D07128DDD1E87915
:10027000DBE7E64800236A46194640690EF000FEB7
:10028000D3E7002005F09BFAFA200FF096F8F8E784
:10029000002005F063BA1FB5DB484FF4E131A03808
:1002A000016000248480C480048184810C21418108
:1002B000FFF7EEFF03F0F6FA03F09BFBD2490020B4
:1002C000A03903F089FAD0490120A03903F084FA5B
:1002D000CD490220A03903F07FFACA4804F031F971
:1002E000CB4804F02EF9CB4804F02BF902F0CCFFF8
:1002F00002F060FE03F07DF9002101200EF092FC77
:10030000C24DE86020B100231A4619460EF029FDBF
:10031000002101200EF086FC286120B100231A463E
:1003200019460EF01EFD002101200EF07BFC6861D5
:1003300020B100231A4619460EF013FD00210120BA
:100340000EF070FCA86120B100231A4619460EF089
:1003500008FD002101200EF065FCE86120B10023BA
:100360001A4619460EF0FDFC0220CDE900040602F3
:10037000029400233246A8A1AA4803940EF0F4FE8A
:100380000125CDE90054002302948022A6A1AFF2FA
:100390000D1003940EF0E8FECDE900540294002302
:1003A0003246A3A1AFF2831003940EF0DDFE0FF0EE
:1003B000C2F8FEE72DE9F05F934DCA274FF006081B
:1003C0004FF036094FF0F90A002410350FF0D6F837
:1003D0008E4E316A401AB0F55C6F6FD8A621297035
:1003E000102169708121A970C1B2E970C0F30722A0
:1003F0002A71C0F307436B71000EA87196F800C014
:10040000BCF1250F71D2DFE80CF0701D1D292E33D1
:1004100038434E5A65717C8792979CA1A6ADB3B9BB
:10042000C0C7CDD3DAEB7013701E1D1D1D1D1D003E
:10043000EC712C724FF0DF0C85F809C04FF0AB0C5B
:1004400085F80AC0FCE0EC712C724FF0DF0C85F8E7
:1004500009C04FF0AB0C85F80AC0F1E0EC712C72CA
:100460006C72AC72ECE0EC712C726C72AC72E7E006
:10047000EC712C726C72AC72E2E04FF0620C85F899
:1004800007C04FF0280C85F808C06C72AC72D7E03A
:100490004FF0BF0C85F807C04FF02B0C85F808C053
:1004A0006C72AC72CCE04FF0350C85F807C04FF0A1
:1004B000390C85F808C06C72AC72C1E0DCE04FF01A
:1004C000920C85F807C04FF03C0C85F808C06C72A0
:1004D000AC72B5E04FF0620C85F807C04FF0280C05
:1004E00085F808C06C72AC72AAE0A5E04FF0BF0CB2
:1004F00085F807C04FF02B0C85F808C06C72AC7201
:100500009EE04FF0CB0C85F807C04FF0300C85F81B
:1005100008C06C72AC7293E04FF0290C85F807C0EC
:100520004FF0340C85F808C06C72AC7288E0EC7146
:100530002C726C72AC7283E0EC712C726C72AC72C7
:100540007EE0EC712C726C72AC7279E0EC712C7202
:100550006C72AC7274E085F8079085F808A06C7234
:10056000AC726DE0EF7185F808806C72AC7267E078
:10057000EC712C726F7285F80A8061E0EC712C725C
:1005800085F8099085F80AA05AE085F8079085F863
:1005900008A06C72AC7253E0EF7185F808806C7241
:1005A000AC724DE0EC712C726F7285F80A8047E0F6
:1005B000EC712C7285F8099085F80AA040E04FF0A4
:1005C000210C85F807C04FF0540C85F808C04FF097
:1005D000940C85F809C04FF0FF0C85F80AC02FE095
:1005E0004FF0210C85F807C04FF0540C85F808C077
:1005F0004FF0940C85F809C04FF0FF0C85F80AC045
:100600001EE0000000100140340300200000002024
:10061000004400400048004044484350436C696532
:100620006E740000EF2F00084C45443400000000B9
:100630005541525400000000EC712C726C72AC7287
:10064000EC724FF0020C85F80CC06C7381311A44C7
:1006500011440844E9790844297A0844697A08442D
:10066000A97A0844801CA8738620E8731022FE49EA
:10067000FE4803F0A6FF53E1A621297010216970FE
:100680008121A970C2B2EA70C0F307232B71C0F3B5
:1006900007416971000EA87196F800C0BCF1250FE2
:1006A00070D2DFE80CF06F1D1D292E3338434E59F0
:1006B00064707B8691969BA0A5B0BBC6D1DCE7F5A4
:1006C000F3F26F136F1E1D1D1D1D1D00EC712C72AA
:1006D0004FF0010C85F809C04FF0C00C85F80AC036
:1006E00003E1EC712C724FF0010C85F809C04FF05A
:1006F000C00C85F80AC0F8E0EC712C726C72AC7218
:10070000F3E0EC712C726C72AC72EEE0EC712C7256
:100710006C72AC72E9E04FF0B80C85F807C04FF08E
:100720001E0C85F808C06C72AC72DEE04FF0470C0E
:1007300085F807C04FF0210C85F808C06C72AC72C8
:10074000D3E04FF0840C85F807C04FF02B0C85F8F0
:1007500008C06C72AC72C8E04FF0140C85F807C08A
:100760004FF02E0C85F808C06C72AC72BDE04FF0F3
:10077000B80C85F807C04FF01E0C85F808C06C72E5
:10078000AC72B2E0ADE04FF0AB0C85F807C04FF0B3
:10079000210C85F808C06C72AC72A6E04FF01E0CFC
:1007A00085F807C04FF0250C85F808C06C72AC7254
:1007B0009BE04FF0AE0C85F807C04FF0270C85F892
:1007C00008C06C72AC7290E0EC712C726C72AC72FE
:1007D0008BE0EC712C726C72AC7286E0EC712C7256
:1007E0006C72AC7281E0EC712C726C72AC727CE059
:1007F0004FF0D60C85F807C04FF0FA0C85F808C00A
:100800006C72AC7271E04FF02A0C85F807C04FF0A3
:10081000050C85F808C06C72AC7266E0EC712C7245
:100820004FF02A0C85F809C04FF0050C85F80AC076
:100830005BE0EC712C724FF0D60C85F809C04FF0DC
:10084000FA0C85F80AC050E04FF0D60C85F807C0C6
:100850004FF0FA0C85F808C06C72AC7245E04FF0AE
:100860002A0C85F807C04FF0050C85F808C06C729B
:10087000AC723AE0EC712C724FF02A0C85F809C08A
:100880004FF0050C85F80AC02FE01BE00BE0FFE7F6
:10089000EC712C724FF0D60C85F809C04FF0FA0CB1
:1008A00085F80AC021E04FF0FF0B85F807B04FF044
:1008B0003F0C85F808C04FF0AF0C85F809C085F8EB
:1008C0000AB012E04FF0FF0B85F807B04FF03F0C75
:1008D00085F808C04FF0AF0C85F809C085F80AB05C
:1008E00003E0EC712C726C72AC72EC724FF0020C83
:1008F00085F80CC06C738132194411440844E979BD
:100900000844297A0844697A0844A97A0844801C72
:10091000A8738620E87310225349544803F051FE0F
:1009200014200EF04AFD00231A46194670690EF095
:10093000F1FA01287FF44AADBDE8F09F2DE9FF5F91
:100940004B4C20784B4D002838D02078FF2835D0EC
:100950002078454E4FF0A60A203E4FF00D0B4FF089
:10096000AA0806F110074FF00B0925287AD2DFE814
:1009700010F079004A01BD013002B20226039C0347
:100980001004840403057605E7055606D3064207DE
:10099000B5072A08990815098809FD09700AE20AAD
:1009A000600BCE0B3E0CAC0C2D0D79003A0079009B
:1009B000CC009B0D0F0E7D0EEF0E6C0F48F2281130
:1009C0002D4805F099FC4FF400612C4805F094FC8B
:1009D000FB212B4805F090FC04B02846BDE8F05FF1
:1009E000002106F033BE0021284606F02FFE4FF40A
:1009F0000041214805F080FC0821214805F07EFCDB
:100A000033211F4805F078FC00235A1E19466069FF
:100A10000EF080FA012825D186F800A086F801B0F2
:100A200086F80280F87839790844797910FB01F06A
:100A3000F070010A3171020C7271030EB37186F805
:100A40000790002737727772B772F772AA30114495
:100A5000084418440B3030738620707302490D220D
:100A600020390FE0CAE000004403002000100140DC
:100A7000000000200004004000000240000C024082
:100A800000100240FE4803F09CFD00235E1E32462B
:100A90001946E0680EF03EFA0128BCD10EF06EFD5A
:100AA0002062F848CDE90107012100234A020091A4
:100AB0000397F5A1AFF203700EF056FB0021284614
:100AC00006F090FC6421284606F0C0FD4FF4AF61AB
:100AD000284606F04DFC01220221284606F0D7FFE9
:100AE0000A200EF06AFC0121284606F07BFC002358
:100AF0003246194620690EF00DFA606800287DD054
:100B000004B0BDE8F05F0EF097BB0021284606F068
:100B10009DFD4FF40041DE4805F0EEFB3B21DD4832
:100B200005F0EAFB00235A1E194660690EF0F2F93F
:100B30000128B2D186F800A086F801B086F80280BC
:100B4000F87839790844797910FB01F0F070010ADE
:100B50003171020C7271030EB37186F80790002791
:100B600037727772B772F772AA301144084418448A
:100B70000B303073862070730D22C749C04803F0D4
:100B800020FD00235E1E32461946E0680EF0C2F9D1
:100B90000128CED10EF0F2FC2062BA48CDE901075F
:100BA000012100234A0200910397B7A1AFF2FB7025
:100BB0000EF0DAFA0021284606F014FC64212846DB
:100BC00006F044FD4FF4AF61284606F0D1FB012248
:100BD0000221284606F05BFF0A200EF0EEFB012101
:100BE000284606F0FFFB00233246194620690EF026
:100BF00091F96068002801D004B000E0E3E1BDE8AD
:100C0000F05F0EF019BB4FF40041A14805F074FBF2
:100C10001A21A04805F070FB21219E4805F06EFBCB
:100C200000235A1E194660690EF074F90128B0D1EC
:100C300086F800A086F801B086F80280F878397945
:100C40000844797910FB01F0F070010A3171020C4F
:100C50007271030EB37186F80790002737727772AE
:100C6000B772F772AA301144084418440B3030733D
:100C7000862070730D228849814803F0A2FC00236E
:100C80005E1E32461946E0680EF044F90128CED1C6
:100C90000EF074FC20627B48CDE90107012100239E
:100CA0004A020091039778A1AFF6F7000EF05CFAC4
:100CB0000021284606F0CAFC40F23251284606F0D0
:100CC00057FB0A200EF079FB0121284606F08AFB2B
:100CD00000233246194620690EF01CF9606800288E
:100CE00089D004B0BDE8F05F0EF0A6BA4FF4004121
:100CF000674805F001FB1B21664805F0FDFA20213D
:100D0000644805F0FBFA00235A1E194660690EF08C
:100D100001F901288BD186F800A086F801B086F889
:100D20000280F87839790844797910FB01F0F07085
:100D3000020A3271010C7171030EB37186F80790CB
:100D4000002737727772B772F772AA3011440844DD
:100D500018440B303073862070730D224E4948487A
:100D600003F02FFC00235E1E32461946E0680EF0A9
:100D7000D1F801288BD10EF001FC20624148CDE969
:100D80000107012100234A02009103973EA1AFF61B
:100D9000DB100EF0E9F96421284606F057FC40F21A
:100DA0003251284606F0E4FA0A200EF006FB012133
:100DB000284606F017FB00233246194620690EF03C
:100DC000A9F8606800288BD004B0BDE8F05F0EF091
:100DD00033BA4FF400412E4805F08EFA13212D4806
:100DE00005F08AFA28212B4805F088FA00235A1EBC
:100DF000194660690EF08EF801288BD186F800A0A4
:100E000086F801B086F80280F87839790844797953
:100E100010FB01F0F070010A3171020C7271030EC7
:100E2000B37186F80790002737727772B772F7723E
:100E3000AA301144084418440B3030738620707374
:100E40000D2215490E4803F0BCFB00235E1E3246FE
:100E50001946E0680EF05EF801288BD10EF08EFB8B
:100E600020620848CDE90107012100234A020091D0
:100E7000039705A1AFF6C3200EF076F964210DE0CB
:100E800000100140080000204649454C4400000085
:100E9000000002400010024024030020284606F013
:100EA000D5FB40F23251284606F062FA0A200EF0D5
:100EB00084FA0121284606F095FA002332461946A5
:100EC00020690EF027F8606800287CD004B0BDE8E7
:100ED000F05F0EF0B1B94FF40041FE4805F00CFA96
:100EE0001B21FD4805F008FA2021FB4805F006FA11
:100EF00000235A1E194660690EF00CF80128ACD187
:100F000086F800A086F801B086F80280F878397972
:100F10000844797910FB01F0F070020A3271010C7B
:100F20007171030EB37186F80790002737727772DC
:100F3000B772F772AA301144084418440B3030736A
:100F4000862070730D22E549E54803F03AFB002343
:100F50005E1E32461946E0680DF0DCFF0128CED156
:100F60000EF00CFB2062DF48CDE9010701210023D0
:100F70004A0203970091AFF2F001AFF6C7300EF0CE
:100F8000F3F86421284606F061FB40F2355128460B
:100F900006F0EEF90A200EF010FA0121284606F0BC
:100FA00021FA00233246194620690DF0B3FF60682C
:100FB00000288AD004B0BDE8F05F0EF03DB94FF4D0
:100FC0000041C44800E051E205F096F90B21C24807
:100FD00005F092F93021C04805F090F900235A1E1F
:100FE000194660690DF096FF012888D186F800A0A7
:100FF00086F801B086F80280F87839790844797962
:1010000010FB01F0F070020A3271010C7171030ED5
:10101000B37186F80790002737727772B772F7724C
:10102000AA301144084418440B3030738620707382
:101030000D22AA49AA4803F0C4FA00235E1E3246D4
:101040001946E0680DF066FF012888D10EF096FA87
:101050002062A448CDE90107012100234A02039739
:101060000091AFF2DC11AFF6B3400EF07DF86421D1
:10107000284606F0EBFA40F23551284606F078F99A
:101080000A200EF09AF90121284606F0ABF9002358
:101090003246194620690DF03DFF6068002888D06F
:1010A00004B0BDE8F05F0EF0C7B84FF400418948C6
:1010B00005F022F91321884805F01EF928218648F9
:1010C00005F01CF900235A1E194660690DF022FF35
:1010D00001288AD186F800A086F801B086F802803F
:1010E000F87839790844797910FB01F0F070020A38
:1010F0003271010C7171030EB37186F807900027ED
:1011000037727772B772F772AA30114408441844E4
:101110000B303073862070730D227049704803F0D5
:1011200050FA00235E1E32461946E0680DF0F2FECA
:1011300001288AD10EF022FA20626A48CDE901071F
:10114000012100234A0203970091AFF2C421AFF6B8
:101150009B500EF009F86421284606F077FA40F219
:10116000DC51284606F004F90A200EF026F9012188
:10117000284606F037F900233246194620690DF05B
:10118000C9FE606800288AD004B0BDE8F05F0EF0A8
:1011900053B84FF400414F4805F0AEF813214E48C4
:1011A00005F0AAF828214C4805F0A8F800235A1E9B
:1011B000194660690DF0AEFE01288AD186F800A0BC
:1011C00086F801B086F80280F87839790844797990
:1011D00010FB01F0F070020A3271010C7171030E04
:1011E000B37186F80790002737727772B772F7727B
:1011F000AA301144084418440B30307386207073B1
:101200000D223649364803F0DCF900235E1E3246D3
:101210001946E0680DF07EFE01288AD10EF0AEF985
:1012200020623048CDE90107012100234A020397DB
:101230000091AFF2AC31AFF683600DF095FF642101
:10124000284606F003FA40F2DC51284606F090F8F2
:101250000A200EF0B2F80121284606F0C3F8002358
:101260003246194620690DF055FE606800288AD084
:1012700004B0BDE8F05F0DF0DFBF4FF4004115484A
:1012800005F03AF83321144805F036F808211248E1
:1012900005F034F800235A1E194660690DF03AFE35
:1012A00001288AD186F800A086F801B086F802806D
:1012B000F87839790844797910FB01F0F070010A67
:1012C0003171020C7271030EB37186F8079000271A
:1012D000377209E0000002400010024024030020A1
:1012E00000100140080000207772B772F772AA3030
:1012F0001144084418440B303073862070730D225B
:10130000FD49FE4803F05DF900235E1E3246194692
:10131000E0680DF0FFFD0128C3D10EF02FF9206227
:10132000F748CDE90107012100234A020397009104
:10133000AFF2AC41AFF683700DF016FF6421284682
:1013400006F084F940F2DC51284606F011F80A2034
:101350000EF033F80121284606F044F80023324607
:10136000194620690DF0D6FD606800287ED004B0D3
:10137000BDE8F05F0DF060BF4FF40041E14804F0BC
:10138000BBFF3321E04804F0B7FF0821DE4804F03A
:10139000B5FF00235A1E194660690DF0BBFD0128F8
:1013A000BAD186F800A086F801B086F80280F878F5
:1013B00039790844797910FB01F0F070010A317134
:1013C000020C7271030EB37186F807900027377212
:1013D0007772B772F772AA301144084418440B3080
:1013E0003073862070730D22C349C44803F0E9F8B6
:1013F00000235E1E32461946E0680DF08BFD012881
:101400008AD10EF0BBF82062BD48CDE90107012169
:1014100000234A0203970091AFF29451BB480DF0AC
:10142000A3FE6421284606F011F940F2DC5128465B
:1014300005F09EFF0A200DF0C0FF0121284605F0AF
:10144000D1FF00233246194620690DF063FD606824
:1014500000288BD004B0BDE8F05F0DF0EDBE4FF476
:101460000041A84804F048FF3B2100E03CE2A648C8
:1014700004F042FF00235A1E194660690DF04AFD30
:1014800001288DD186F800A086F801B086F8028088
:10149000F87839790844797910FB01F0F070010A85
:1014A0003171020C7271030EB37186F80790002738
:1014B00037727772B772F772AA3011440844184431
:1014C0000B303073862070730D228B498B4803F0EC
:1014D00078F800235E1E32461946E0680DF01AFDCA
:1014E00001288DD10EF04AF820628548CDE9010728
:1014F000012100234A0203970091AFF274618348EF
:101500000DF032FE6421284606F0A0F84FF4AF61DA
:10151000284605F02DFF0A200DF04FFF0121284637
:1015200005F060FF00233246194620690DF0F2FCF9
:10153000606800288DD004B0BDE8F05F0DF07CBE7F
:101540004FF400416F4804F0D7FE3B216E4804F091
:10155000D3FE00235A1E194660690DF0DBFC0128FA
:101560008FD186F800A086F801B086F80280F8785E
:1015700039790844797910FB01F0F070020A327170
:10158000010C7171030EB37186F807900027377252
:101590007772B772F772AA301144084418440B30BE
:1015A0003073862070730D225349544803F009F8B4
:1015B00000235E1E32461946E0680DF0ABFC0128A0
:1015C0008FD10DF0DBFF20624D48CDE901070121ED
:1015D00000234A0203970091AFF254714B480DF07B
:1015E000C3FD6421284606F031F84FF4AF61284668
:1015F00005F0BEFE0A200DF0E0FE0121284605F0B0
:10160000F1FE00233246194620690DF083FC606824
:1016100000288FD004B0BDE8F05F0DF00DBE4FF490
:101620000041384804F068FE3B21374804F064FE6E
:1016300000235A1E194660690DF06CFC01288FD1F9
:1016400086F800A086F801B086F80280F87839792B
:101650000844797910FB01F0F070020A3271010C34
:101660007171030EB37186F8079000273772777295
:10167000B772F772AA301144084418440B30307323
:10168000862070730D221C491C4802F09AFF00232B
:101690005E1E32461946E0680DF03CFC01288FD1F1
:1016A0000DF06CFF20621648CDE9010701210023EF
:1016B0004A0203970091AFF6300114480DF054FD33
:1016C0006421284605F0C2FF4FF4AF61284605F0BB
:1016D0004FFE0A200DF071FE0121284605F082FE22
:1016E00000233246194620690DF014FC606800287A
:1016F0008FD004B00CE00000240300200010014053
:10170000080000200000024000100240B50300085D
:10171000BDE8F05F0DF090BD4FF40041FE4804F0CD
:10172000EBFD3B21FD4804F0E7FD00235A1E19465E
:1017300060690DF0EFFB0128B1D186F800A086F8B2
:1017400001B086F80280F87839790844797910FB7D
:1017500001F0F070010A3171020C7271030EB37165
:1017600086F80790002737727772B772F772AA303F
:101770001144084418440B303073862070730D22D6
:10178000E749E84802F01DFF00235E1E3246194675
:10179000E0680DF0BFFB0128CED10DF0EFFE206216
:1017A000E148CDE90107012100234A020397009196
:1017B000AFF62C11DD480DF0D7FC6421284605F06A
:1017C00045FF4FF4AF61284605F0D2FD0A200DF029
:1017D000F4FD0121284605F005FE00233246194696
:1017E00020690DF097FB606800287DD004B0BDE84B
:1017F000F05F0DF021BD4FF40041C74804F07CFDBF
:101800003321C64804F078FD0821C44804F076FD71
:1018100000235A1E194660690DF07CFB01288BD10C
:1018200086F800A086F801B086F80280F878397949
:101830000844797910FB01F0F070020A3271010C52
:101840007171030EB37186F80790002737727772B3
:10185000B772F772AA301144084418440B30307341
:10186000862070730D22AE49AE4802F0AAFE002316
:101870005E1E32461946E0680DF04CFB01288BD104
:101880000DF07CFE2062A848CDE90107012100236C
:101890004A0203970091AFF61021A4480DF064FCB2
:1018A0006421284605F0D2FE4FF47A71284605F0EF
:1018B0005FFD0A200DF081FD0121284605F092FD13
:1018C00000233246194620690DF024FB6068002889
:1018D0008BD004B0BDE8F05F0DF0AEBC4FF400411A
:1018E0008D4804F009FD00E0D2E133218B4804F07B
:1018F00003FD0821894804F001FD00235A1E194602
:1019000060690DF007FB012889D186F800A086F8F0
:1019100001B086F80280F87839790844797910FBAB
:1019200001F0F070010A3171020C7271030EB37193
:1019300086F80790002737727772B772F772AA306D
:101940001144084418440B303073862070730D2204
:101950007349744802F035FE00235E1E3246194674
:10196000E0680DF0D7FA012889D10DF007FE20625A
:101970006D48CDE90107012100234A020397009138
:10198000AFF6FC2169480DF0EFFB6421284605F015
:101990005DFE4FF4FA61284605F0EAFC0A200DF0DE
:1019A0000CFD0121284605F01DFD00233246194695
:1019B00020690DF0AFFA6068002889D004B0BDE856
:1019C000F05F0DF039BC4FF40041534804F094FC33
:1019D0003B21524804F090FC00235A1E19466069CE
:1019E0000DF098FA01288FD186F800A086F801B092
:1019F00086F80280F87839790844797910FB01F08B
:101A0000F070010A3171020C7271030EB37186F825
:101A10000790002737727772B772F772AA301144B5
:101A2000084418440B303073862070730D223C49F3
:101A30003C4802F0C6FD00235E1E32461946E068AF
:101A40000DF068FA01288FD10DF098FD206236481C
:101A5000CDE90107012100234A0203970091AFF667
:101A6000D83132480DF080FB6421284605F0EEFDA8
:101A70004FF47A71284605F07BFC0A200DF09DFC9E
:101A80000121284605F0AEFC0023324619462069A4
:101A90000DF040FA606800288FD004B0BDE8F05F18
:101AA0000DF0CABB4FF400411B4804F025FC3B215C
:101AB0001A4804F021FC00235A1E194660690DF0F3
:101AC00029FA01288FD186F800A086F801B086F89F
:101AD0000280F87839790844797910FB01F0F070C8
:101AE000020A3271010C7171030EB37186F807900E
:101AF000002737727772B772F772AA301144084420
:101B000018440B303073862070730D220449054849
:101B100002F057FD00230BE00000024000100240DD
:101B2000240300200010014008000020B503000835
:101B30005E1E32461946E0680DF0ECF90128C1D16D
:101B40000DF01CFD2062FE48CDE9010701210023B4
:101B50004A0203970091AFF6D041FA480DF004FB1A
:101B60006421284605F072FD4FF4FA61284605F01D
:101B7000FFFB0A200DF021FC0121284605F032FC74
:101B800000233246194620690DF0C4F96068002828
:101B90007ED004B0BDE8F05F0DF04EBB4FF40041C5
:101BA000E94804F0A9FB3321E84804F0A5FB08212B
:101BB000E64804F0A3FB00235A1E194660690DF0A5
:101BC000A9F90128BBD186F800A086F801B086F8F3
:101BD0000280F87839790844797910FB01F0F070C7
:101BE000020A3271010C7171030EB37186F807900D
:101BF000002737727772B772F772AA30114408441F
:101C000018440B303073862070730D22D049D148B0
:101C100002F0D7FC00235E1E32461946E0680DF044
:101C200079F901288BD10DF0A9FC2062C448CDE9D7
:101C30000107012100234A0203970091AFF6B85132
:101C4000C0480DF091FA6421284605F0FFFC40F2EF
:101C50003551284605F08CFB0A200DF0AEFB012122
:101C6000284605F0BFFB00233246194620690DF0D7
:101C700051F9606800288BD004B0BDE8F05F0DF02A
:101C8000DBBA4FF40041B04804F036FB332100E0EA
:101C900048E2AE4804F030FB0821AC4804F02EFBCB
:101CA00000235A1E194660690DF034F9012889D1C4
:101CB00086F800A086F801B086F80280F8783979B5
:101CC0000844797910FB01F0F070020A3271010CBE
:101CD0007171030EB37186F807900027377277721F
:101CE000B772F772AA301144084418440B303073AD
:101CF000862070730D229649964802F062FC0023FC
:101D00005E1E32461946E0680DF004F9012889D1BB
:101D10000DF034FC20628A48CDE90107012100233F
:101D20004A0203970091AFF6A06186480DF01CFAB5
:101D30006421284605F08AFC40F23551284605F01A
:101D400017FB0A200DF039FB0121284605F04AFB5C
:101D500000233246194620690DF0DCF8606800283F
:101D600089D004B0BDE8F05F0DF066BA4FF40041D1
:101D7000754804F0C1FA3321744804F0BDFA082113
:101D8000724804F0BBFA00235A1E194660690DF030
:101D9000C1F801288BD186F800A086F801B086F83A
:101DA0000280F87839790844797910FB01F0F070F5
:101DB000010A3171020C7271030EB37186F807903B
:101DC000002737727772B772F772AA30114408444D
:101DD00018440B303073862070730D225C495D48C7
:101DE00002F0EFFB00235E1E32461946E0680DF05C
:101DF00091F801288BD10DF0C1FB20625048CDE94C
:101E00000107012100234A0203970091AFF6887170
:101E10004C480DF0A9F96421284605F017FC40F262
:101E20003551284605F0A4FA0A200DF0C6FA012122
:101E3000284605F0D7FA00233246194620690DF0EE
:101E400069F8606800288BD004B0BDE8F05F0DF041
:101E5000F3B94FF400413C4804F04EFA33213B48BB
:101E600004F04AFA0821394804F048FA00235A1EBF
:101E7000194660690DF04EF801288BD186F800A054
:101E800086F801B086F80280F878397908447979C3
:101E900010FB01F0F070010A3171020C7271030E37
:101EA000B37186F80790002737727772B772F772AE
:101EB000AA301144084418440B30307386207073E4
:101EC0000D222349234802F07CFB00235E1E32468C
:101ED0001946E0680DF01EF801288BD10DF04EFB7D
:101EE00020621748CDE9010701214A020091002331
:101EF0000397194913480DF037F96421284605F076
:101F0000A5FB40F23551284605F032FA0A200DF0C3
:101F100054FA0121284605F065FA00233246194695
:101F200020690CF0F7FF606800288CD004B0BDE891
:101F3000F05F0DF081B94FF4004103480EE000005E
:101F400008000020B5030008000002400010024015
:101F50002403002000100140880E000804F0CCF992
:101F60003B21FE4804F0C8F900235A1E1946606957
:101F70000CF0D0FF0128B0D186F800A086F801B09F
:101F800086F80280F87839790844797910FB01F0F5
:101F9000F070010A3171020C7271030EB37186F890
:101FA0000790002737727772B772F772AA30114420
:101FB000084418440B303073862070730D22E849B2
:101FC000E84802F0FEFA00235E1E32461946E06839
:101FD0000CF0A0FF0128CED10DF0D0FA2062E2482B
:101FE000CDE9010701214A02009100230397DF494F
:101FF000DF480DF0B9F86421284605F027FB40F2D0
:102000003551284605F0B4F90A200DF0D6F9012122
:10201000284605F0E7F900233246194620690CF0FE
:1020200079FF606800287DD004B0BDE8F05F0DF056
:1020300003B94FF40041CF4804F05EF93B21C74893
:1020400004F05AF900235A1E194660690CF062FF29
:10205000012890D186F800A086F801B086F80280A9
:10206000F87839790844797910FB01F0F070020AA8
:102070003271010C7171030EB37186F8079000275D
:1020800037727772B772F772AA3011440844184455
:102090000B303073862070730D22B149B14802F0C5
:1020A00090FA00235E1E32461946E0680CF032FFBB
:1020B000012890D10DF062FA2062AB48CDE901070A
:1020C00001214A02009100230397A849A8480DF076
:1020D0004BF86421284605F0B9FA40F235512846FC
:1020E00005F046F90A200DF068F90121284605F0AF
:1020F00079F900233246194620690CF00BFF60681D
:10210000002890D004B0BDE8F05F0DF095B84FF412
:102110000041984804F0F0F83B21904804F0ECF8B6
:10212000002300E0CCE15A1E194660690CF0F2FE73
:1021300001288ED186F800A086F801B086F80280CA
:10214000F87839790844797910FB01F0F070020AC7
:102150003271010C7171030EB37186F8079000277C
:1021600037727772B772F772AA3011440844184474
:102170000B303073862070730D227949794802F054
:1021800020FA00235E1E32461946E0680CF0C2FEBB
:1021900001288ED10DF0F2F920627348CDE90107D4
:1021A00001214A02009100230397704970480CF006
:1021B000DBFF6421284605F049FA40F235512846F4
:1021C00005F0D6F80A200DF0F8F80121284605F0B0
:1021D00009F900233246194620690CF09BFE60681D
:1021E00000288ED004B0BDE8F05F0DF025B84FF4A4
:1021F0000041604804F080F83B21584804F07CF826
:1022000000235A1E194660690CF084FE012890D103
:1022100086F800A086F801B086F80280F87839794F
:102220000844797910FB01F0F070010A3171020C59
:102230007271030EB37186F80790002737727772B8
:10224000B772F772AA301144084418440B30307347
:10225000862070730D224249424802F0B2F90023F1
:102260005E1E32461946E0680CF054FE012890D1FB
:102270000DF084F920623C48CDE9010701214A02B2
:10228000009100230397394939480CF06DFF642110
:10229000284605F0DBF940F23551284605F068F88C
:1022A0000A200DF08AF80121284605F09BF800234A
:1022B0003246194620690CF02DFE6068002890D047
:1022C00004B0BDE8F05F0CF0B7BF4FF400412948FF
:1022D00004F012F83321214804F00EF808211F48B9
:1022E00004F00CF800235A1E194660690CF012FE27
:1022F00001288CD186F800A086F801B086F802800B
:10230000F87839790844797910FB01F0F070020A05
:102310003271010C7171030EB37186F807900027BA
:1023200037727772B772F772AA30114408441844B2
:102330000B303073862070730D220949094802F072
:1023400040F900235E1E32461946E0680CF0E2FDBB
:1023500001288CD10DF012F920620DE0001002402E
:10236000240300200010014008000020880E00080F
:10237000B503000800000240FE48CDE90107012135
:102380004A02009100230397FB49FC480CF0ECFE45
:102390006421284605F05AF940F23551284604F0E8
:1023A000E7FF0A200DF009F80121284605F01AF888
:1023B00000233246194620690CF0ACFD6068002805
:1023C0007ED004B0BDE8F05F0CF036BF4FF40041A2
:1023D000EB4803F091FF3B21EA4803F08DFF002317
:1023E0005A1E194660690CF095FD0128B1D186F896
:1023F00000A086F801B086F80280F87839790844A0
:10240000797910FB01F0F070010A3171020C7271E0
:10241000030EB37186F80790002737727772B77290
:10242000F772AA301144084418440B3030738620E8
:1024300070730D22D449D54802F0C3F800235E1E04
:1024400032461946E0680CF065FD0128CED10DF04A
:1024500095F82062C748CDE9010701214A020091A1
:1024600000230397C449C5480CF07EFE642128462A
:1024700005F0ECF840F23551284604F079FF0A20C7
:102480000CF09BFF0121284604F0ACFF00233246EC
:10249000194620690CF03EFD6068002890D004B019
:1024A000BDE8F05F0CF0C8BE4FF40041B44803F043
:1024B00025FF0821B34803F021FF3321B14800E094
:1024C00035E203F019FF00235A1E194660690CF02B
:1024D00021FD01288AD186F800A086F801B086F88F
:1024E0000280F87839790844797910FB01F0F070AE
:1024F000020A3271010C7171030EB37186F80790F4
:10250000002737727772B772F772AA301144084405
:1025100018440B303073862070730D229A499B4803
:1025200002F04FF800235E1E32461946E0680CF0B8
:10253000F1FC01288AD10DF021F820628D48CDE907
:10254000010701214A020091002303978A498B4821
:102550000CF00AFE0021284605F078F840F23251CE
:10256000284604F005FF0A200CF027FF0121284629
:1025700004F038FF00233246194620690CF0CAFCEB
:10258000606800288AD004B0BDE8F05F0CF054BE4B
:102590004FF400417A4803F0B1FE3B21794803F043
:1025A000ABFE00235A1E194660690CF0B3FC0128EB
:1025B00090D186F800A086F801B086F80280F878FD
:1025C00039790844797910FB01F0F070010A317112
:1025D000020C7271030EB37186F8079000273772F0
:1025E0007772B772F772AA301144084418440B305E
:1025F0003073862070730D226349644801F0E1FF57
:1026000000235E1E32461946E0680CF083FC012868
:1026100090D10CF0B3FF20625648CDE901070121AB
:102620004A02009100230397534954480CF09CFD43
:102630000021284605F00AF840F23251284604F0FD
:1026400097FE0A200CF0B9FE0121284604F0CAFECC
:1026500000233246194620690CF05CFC60680028B3
:1026600090D004B0BDE8F05F0CF0E6BD4FF400413F
:10267000434803F041FE0821424803F03FFE332166
:10268000404803F039FE00235A1E194660690CF0D9
:1026900041FC01288CD186F800A086F801B086F8AC
:1026A0000280F87839790844797910FB01F0F070EC
:1026B000010A3171020C7271030EB37186F8079032
:1026C000002737727772B772F772AA301144084444
:1026D00018440B303073862070730D222A492B4822
:1026E00001F06FFF00235E1E32461946E0680CF0D1
:1026F00011FC01288CD10CF041FF20621D48CDE96E
:10270000010701214A020091002303971A491B483F
:102710000CF02AFD6421284604F098FF40F2355160
:10272000284604F025FE0A200CF047FE0121284629
:1027300004F058FE00233246194620690CF0EAFBEB
:10274000606800288CD004B0BDE8F05F0CF074BD68
:102750004FF400410A4803F0CFFD3B21094803F044
:10276000CBFD00235A1E194660690CF0D3FB0128EB
:1027700090D10DE008000020880E0008B503000885
:10278000000002400010024024030020001001401D
:1027900086F800A086F801B086F80280F8783979CA
:1027A0000844797910FB01F0F070020A3271010CD3
:1027B0007171030EB37186F8079000273772777234
:1027C000B772F772AA301144084418440B303073C2
:1027D000862070730D22CF49CF4801F0F2FE00230E
:1027E0005E1E32461946E0680CF094FB0128BFD10A
:1027F0000CF0C4FE2062C948CDE9010701214A025C
:10280000009100230397C649C6480CF0ADFC642133
:10281000284604F01BFF40F23551284604F0A8FD7D
:102820000A200CF0CAFD0121284604F0DBFD00233C
:102830003246194620690CF06DFB6068002876D09E
:1028400004B0BDE8F05F0CF0F7BC4FF40041B648AF
:1028500003F052FD0221B54803F050FD3921B34881
:1028600003F04AFD00235A1E194660690CF052FB22
:1028700001285CD186F800A086F801B086F80280B5
:10288000F87839790844797910FB01F0F070010A81
:102890003171030C7371020EB27186F80790002734
:1028A00037727772B772F772AA301944084410442D
:1028B0000B303073862070730D229649964801F0D4
:1028C00080FE00235E1E32461946E0680CF022FBB3
:1028D00001282CD10CF052FE20629048CDE901076E
:1028E00001214A020091002303978D498D480CF085
:1028F0003BFC0021284604F0A9FE40F23251284654
:1029000004F036FD0A200CF058FD0121284604F0A1
:1029100069FD00233246194620690CF0FBFA606815
:10292000002804D004B0BDE8F05F0CF085BCBDE821
:10293000FF9F7FB51446002C7DD076486289211D0B
:1029400080380DF0CDF87348744D8038083D00781C
:1029500028702878002874D02878FF2871D028782B
:1029600001286ED0287802286BD02878032868D0F8
:102970002878042865D02878052862D02878062889
:102980005FD0287807285CD02878082859D0287884
:10299000092856D028780A2853D028780B2850D0F8
:1029A00028780C284DD028780D284AD028780E2871
:1029B00047D028780F2844D02878102841D028788C
:1029C00011283ED0287812283BD02878132838D0F8
:1029D0002878142835D02878152832D02878162859
:1029E0002FD0287817282CD02878182829D0287894
:1029F000192826D028781A2823D028781B2820D0F8
:102A000028781D281DD028781F281AD0287820283B
:102A100017D02878212814D02878222811D0287897
:102A200023280ED0287824280BD02878F02808D026
:102A3000204604B001E020E003E0BDE8704007F06C
:102A400057BBA86808B10CF0F7FB686808B10CF038
:102A5000F3FB324A0020121FCDE901200121034679
:102A60004A020091039032A135480CF07DFB04B07E
:102A70002046BDE8704007F03BBB7FBD70B5044603
:102A8000254DE1B2284604F092F84021284604F092
:102A900030F90028F9D0204670BD0FB410B5C0B091
:102AA000044644AB4FF480716846439A0DF0AAFB8C
:102AB00082B26946204601F084FD40B010BC5DF84A
:102AC00014FB0FB430B5C1B045AB4FF4807101A811
:102AD000449A0DF097FB05460022A9B2104607F074
:102AE00030FB184C206040682A4601A90CF0F8FF22
:102AF00021684D81144800901448154A03881548F0
:102B0000006806F0C2FF206807F0F2FA41B030BC5E
:102B10005DF814FB24030020001001400800002091
:102B2000880E0008B50300080000024000100240B3
:102B300050524F4345535320434F4D4D414E440057
:102B40003D0900084400002054030020DA0C01086D
:102B5000400000203C0000200CB5002201920092B1
:102B60005549086840F4803008604FF4A043086875
:102B700000F4003000900198401C0190009810B9BA
:102B800001989842F3D10868800302D50120009093
:102B900000E000920098012831D147484030026897
:102BA00042F0805202604548026842F440420260AE
:102BB0004148083002680260026842F40042026044
:102BC000026842F4A0520260021F3D4B13600A6883
:102BD00042F080720A600A689201FCD5394A40F2DC
:102BE00005611160016821F003010160016841F095
:102BF000020101600168C1F381010229FAD10CBD13
:102C000010B52D48016841F0010101602A4A0021F8
:102C10000832116002682C4B1A400260031D2B4AD7
:102C20001A60026822F48022026023480C3001609E
:102C3000FFF792FF26494FF00060086010BD70B5A5
:102C40001D4E0836306800F00C00224B2249002847
:102C50000FD05D1004280ED008280ED00B6030680D
:102C60001D4AC0F30310121D105C0A68C2400A60BE
:102C700070BD0B60F3E70D60F1E70F4A121D10689D
:102C8000C0F38054106800F03F0034B1B5FBF0F0A1
:102C90001368C3F38813584305E0B3FBF0F01368DF
:102CA000C3F3881358431268C2F30142521C520006
:102CB000B0FBF2F00860D2E700380240007000403C
:102CC00008484006003C0240FFFFF6FE103000249A
:102CD00008ED00E00024F400240000207047FEE727
:102CE000FEE7FEE7FEE77047704770470CF056BE00
:102CF00008B500200090402005F02EFC012806D1E8
:102D0000A34800236A46194600680CF0B9F8402031
:102D100005F040FC4FF4803005F03CFC00980028A2
:102D200001D00CF024FE08BD10B5012002F093FF85
:102D300000280ED0012002F09CFF0121954803F0ED
:102D4000C7FAC1439448426922F0200242EA411185
:102D5000416110BD10B5022002F07DFF00280ED0A9
:102D6000022002F086FF02218A4803F0B1FAC14333
:102D70008948426922F0080242EAC101416110BD5E
:102D8000F8B54FF48066304602F065FF834C844D01
:102D900068B1304602F06DFF3146284603F098FADC
:102DA0006169C04321F0800141EAC01060614FF4C5
:102DB0000066304602F04FFF78B1304602F059FF0E
:102DC0003146284603F084FAC24372481430016841
:102DD00021F4006141EAC22101604FF4805630467F
:102DE00002F039FF70B1304602F043FF3146284609
:102DF00003F06EFAC1436848426922F4807242EAE5
:102E0000012141614FF40056304602F024FF0028B2
:102E10001CD000200090304602F02BFF314628469F
:102E200003F056FA6169C04321F0400141EA801085
:102E300060613146284603F04BFA012806D1594813
:102E400000236A46194600680CF01AF8F8BD38B538
:102E5000554D0221284604F030FE00281AD00221E8
:102E6000284604F036FE514C226840F2E65140F20A
:102E700042430E2A0ED2DFE802F0070E1720273059
:102E800039424B545D666E76284604F071FA20682C
:102E9000401C206038BD4FF4C861284604F068FA31
:102EA0002068401C206038BD40F22261284604F0B2
:102EB0005FFA2068401C206038BD284604F058FAAC
:102EC0002068401C206038BD40F2BE51284604F006
:102ED0004FFA2068401C206038BD40F264512846FB
:102EE00004F046FA2068401C206038BD40F21451BE
:102EF000284604F03DFA2068401C206038BD40F2AE
:102F0000BA41284604F034FA2068401C206038BDDD
:102F10004FF49161284604F02BFA2068401C206091
:102F200038BD40F26A41284604F022FA2068401C6D
:102F3000206038BD40F29241284604F019FA20681A
:102F4000401C206038BD1946284604F011FA20685C
:102F5000401C206038BD1946284604F009FA206854
:102F6000401C206038BD40F23551284604F000FA7C
:102F70000021216000220221284604F088FD0C482F
:102F800000236A46194600680BF07AFF38BD00003E
:102F90001C020020000C0240000002400010024011
:102FA000000802400C00002000040040380000200F
:102FB0001000002000B587B00021084606F030FC64
:102FC00000200690059004903849394ACDE9012146
:102FD000009004AB05AA06A9364807F009F8354861
:102FE00007F029F8334807F061F807B000BD0EB5C7
:102FF0000024324E2F4FDFF8C080351F43F23909CD
:1030000014B1012C4ED104E02A480AF054FA0124EC
:1030100048E07868B8B1022426480AF080F94046B2
:103020000AF0CEFD306006F0E8FD28604A462449EB
:1030300006F0FCFC00222349286806F0C7FD0020AA
:103040000CF0FAF82EE0386AC07C05282AD903244F
:1030500018480AF064F9184872300AF0B1FD02907D
:103060006FF0FF000AF0ACFD019017480AF0A8FDD0
:1030700000906B4601AA02A90E4806F0A9FF40463F
:103080000AF09EFD306006F0B8FD28604A460C4903
:1030900006F0CCFC00220B49286806F097FD0020C2
:1030A0000CF0CAF8FA200CF088F9A9E7D1960008CC
:1030B0003BE90008540300206101A8C04000002043
:1030C00068CF0108332900080100A8C000B5AFB0DF
:1030D00001214FF0606003F072FA04F0B7FD05F0D3
:1030E0002EFA05F032FA0128FBD0684604F0BAFD4A
:1030F00001200090002007904FF400710A910B907E
:103100000E90119013901490159049000991209001
:10311000C90321910A11239225902690042028901A
:10312000299180032A9080012B9040122C9040001E
:103130002E900021684604F032FE664908600121A5
:10314000654805F014FA2FB000BD08B54FF4A06033
:1031500003F00EFE3D208DF8000002208DF80100E6
:1031600000208DF8020001208DF80300684603F06E
:1031700004FE08BDFEB50121072003F020FA01215D
:10318000880303F04CFA012003F002FC8620009033
:1031900003208DF8050002248DF8044000258DF8E9
:1031A00006508DF807504D4E6946304603F03CF806
:1031B0000B220121304603F0AFF80B2202213046EA
:1031C00003F0AAF80B220721304603F0A5F84FF4CC
:1031D00070500090424E6946304603F025F80B22AD
:1031E0000A21304603F098F80B221146304603F0CE
:1031F00093F80B220C21304603F08EF80B220D21A0
:10320000304603F089F832200090364E6946304649
:1032100003F00AF80B220121304603F07DF80B225F
:103220000421304603F078F80B220521304603F0E4
:1032300073F80420009001208DF804008DF80650EA
:103240008DF807008DF80540274E6946304602F09C
:10325000EBFF0421304603F051F8029544F6206458
:1032600002E00299491C02910299A142F9D304217A
:10327000304603F041F8029502E00298401C0290AB
:103280000298A042F9D3FEBD10B5FFF773FFFFF718
:103290005CFFFFF71BFF0F480068002819D14FF4AF
:1032A000784001F063FE01F070FEC0880FA100EBD2
:1032B000800080B201F012FF01F067FEC0884FF677
:1032C000FF7100EB400001EA40000DA101F006FF94
:1032D000FEE710BD48000020400001000000024051
:1032E0000004024000080240001002402020204557
:1032F000746865726E657420496E697420202000C0
:103300002020202020206661696C65642020202018
:10331000202000000020344900EB400201EBC202F3
:10332000127D22B1401C0A28F6DB0020704700EB1A
:10333000400001EBC00001220275704700212A4ABB
:1033400001EB410302EBC303834206D101EB4101D0
:1033500002EBC101002008757047491C0A29EFDB08
:10336000704770B50646FFF7D5FF0546280001D027
:103370001E4C07E0002070BD304661680CF0F3FB86
:1033800038B12468002CF7D12846FFF7D7FF00207A
:1033900070BDA0682860E0686860E068A8600020F0
:1033A000E860207C2874284670BDC7E770B50546E4
:1033B0000B46D5E90110884202D14FF0FF3070BDB5
:1033C0000C1A944200DD144629682246014418462E
:1033D0000CF086FBA8682044A860204670BDD0E9A8
:1033E0000110081A704700008C0300203CB6010849
:1033F00010B5ADF5047D04460020019002900390C5
:103400004FF4007104A80CF084FB7F480268521C42
:1034100002607EA101A80CF0E1FE01A904A80CF055
:1034200083FB7BA104A80CF07FFB86A104A80CF011
:103430007BFB04A80CF090FB04A908440CF0EBF80B
:103440008EA104A80CF070FB9AA104A80CF06CFBF0
:10345000A7480CF081FB02460123A549204605F050
:10346000FBFA04A80CF078FB0246012304A92046CD
:1034700005F0F2FA0DF5047D10BD7CB50646304628
:1034800005F05EFA0546280049D0307A002846D17A
:103490006A4601A9284606F03CF8BDF80000052858
:1034A0003DD3052293A101980CF078FB002836D17A
:1034B0001B2292A101980CF071FB002836D01E222D
:1034C00095A101980CF06AFB00283DD01D229AA11D
:1034D00001980CF063FB002844D018229EA10198AB
:1034E0000CF05CFB00284BD01322A2A101980CF039
:1034F00055FB002848D00622A3A101980CF04EFBF2
:10350000002841D0A2A0FFF72CFF04460023D4E9F5
:103510000012304605F0A0FA2046FFF746FF30467D
:1035200005F0B5FA284605F08AFF7CBD74A0FFF7C8
:1035300018FF04460023D4E90012304605F08CFA47
:103540002046FFF732FFEAE774A0FFF70AFF0446C0
:103550000023D4E90012304605F07EFA2046FFF73A
:1035600024FFDCE775A0FFF7FCFE04460023D4E946
:103570000012304605F070FA2046FFF716FFCEE73E
:103580003046FFF735FFCAE77BA0FFF7EAFE0446A7
:103590000023D4E90012304605F05EFA2046FFF71A
:1035A00004FFBCE770B500221146102005F01AF99F
:1035B0000446CCB150220021204605F061F920B12B
:1035C000BDE8704075A00CF0F9BDFF21204605F064
:1035D00090F9204605F09EF905462846FFF74DFF75
:1035E000284605F020F9F4E7BDE8704071A00CF022
:1035F000E5BD08B5032000904FF4FA73002273492B
:1036000073A00BF094FA08BD4C0000202564000064
:103610003C7072653E3C62723E4E616D65202020BA
:1036200020202020202020537461746520205072B7
:10363000696F726974792020537461636B20202054
:103640004E756D003C62723E2D2D2D2D2D2D2D2D94
:103650002D2D2D2D2D2D2D2D2D2D2D2D2D2D2D2D9A
:103660002D2D2D2D2D2D2D2D2D2D2D2D2D2D2D2D8A
:103670002D2D2D2D2D3C62723E0000003C62723ECD
:103680003C62723E2D2D2D2D2D2D2D2D2D2D2D2DD0
:103690002D2D2D2D2D2D2D2D2D2D2D2D2D2D2D2D5A
:1036A0002D2D2D2D2D2D2D2D2D2D2D2D2D2D2D2D4A
:1036B0002D0000003C62723E42203A20426C6F6353
:1036C0006B65642C2052203A2052656164792C206D
:1036D00044203A2044656C657465642C2053203A7C
:1036E0002053757370656E6465643C62723E0000C1
:1036F00050B60108474554202F000000474554208C
:103700002F53544D3332463478375F66696C657396
:103710002F53542E67696600474554202F53544D4C
:103720003332463478375F66696C65732F73746D16
:1037300033322E6A70670000474554202F53544D92
:103740003332463478375F66696C65732F6C6F6708
:103750006F2E6A7067000000474554202F53544D68
:103760003332463478375441534B532E68746D6C62
:1037700000000000474554202F53544D3332463447
:1037800078372E68746D6C00474554202F20000058
:103790002F3430342E68746D6C00000063616E202D
:1037A0006E6F742062696E64206E6574636F6E6EF6
:1037B0000000000063616E206E6F742063726561AB
:1037C0007465206E6574636F6E6E0000A535000829
:1037D00048545450000000002DE9FC4104460E46B8
:1037E000FE49FE48103150F8240051F824100843D7
:1037F000012102F0E4FEF9481038ECB350F824003F
:10380000012102F000FFF548F54F203810F8142090
:10381000103830F8141057F8240002F07DFDEF48FE
:1038200007F11008183810F81420103830F8141068
:1038300058F8240002F070FD00208DF806000120E9
:103840008DF8070002258DF80450E448403830F820
:10385000140000908DF8055057F82400694602F0D6
:10386000E3FC8DF80450DD48383830F8140000903F
:1038700058F82400694600E00FE002F0D5FCA7F1FB
:103880001005314655F8240003F0ECF855F82400F3
:10389000012103F060F9BDE8FC810068012102F01C
:1038A000BEFEB0E72DE9F04186B00121084602F0E6
:1038B00086FE0121042002F082FE0121082002F090
:1038C0007EFE0121102002F07AFE48F228170497AC
:1038D00001258DF8145000248DF816408DF81750EE
:1038E00002268DF81560DFF8FC8204A9404602F03C
:1038F0009BFC3946404602F0FFFCEF0204978DF82E
:1039000014508DF816408DF817508DF81560DFF8BB
:10391000D88204A9404602F087FC3946404602F0AE
:10392000EBFCFB2004908DF814508DF816408DF8B8
:1039300017508DF81560AD4E04A9304602F074FCA6
:10394000FB21304602F0D8FC4FF4705004908DF803
:1039500014408DF8174004A9A54802F065FC032027
:1039600004908DF814408DF8174004A9404602F0E9
:103970005BFC0A21022002F0F8FF0B21022002F07A
:10398000F4FF0C21022002F0F0FF0D21022002F0D2
:10399000ECFF0021032002F0E8FF0121032002F0E8
:1039A000E4FF43F6034002908DF80C4010208DF8A0
:1039B0000D008DF80E5002A802F0FCF88DF80540BD
:1039C0008DF806408DF8075006208DF8040001A8F8
:1039D00003F0D3F907208DF8040001A803F0CDF916
:1039E00028208DF8040001A803F0C7F906B0BDE84F
:1039F000F081F0B58BB00121022002F0E0FD102033
:103A0000099002268DF8286003208DF829000024F3
:103A10008DF82A4001258DF82B50764F09A938469C
:103A200002F002FC02220421384602F075FC01215A
:103A3000022002F0E8FD06A803F086FC6E4844F67A
:103A400020610068B0FBF1F0401EADF81800ADF841
:103A50001A4040F234500790ADF82040674F06A955
:103A6000384603F041FC0121384603F09FFC6021F9
:103A7000ADF80410ADF806500394ADF8106001A93C
:103A8000384603F0BBFC0821384603F007FE01214D
:103A9000384603F0A7FC1D208DF800008DF801408A
:103AA0008DF802408DF80350684603F066F90BB0BC
:103AB000F0BD30B585B00121042002F080FD012168
:103AC000082002F07CFD0121880302F0A8FD0024FB
:103AD0008DF810408DF812404FF4705003908DF81F
:103AE000134003258DF8115003A9414802F09CFBB7
:103AF0008DF810408DF8124003958DF813408DF825
:103B0000115003A9384802F08FFB0A21022002F06D
:103B10002CFF0B21022002F028FF0C21022002F0D2
:103B200024FF0D21022002F020FF0021032002F0DB
:103B30001CFF0121032002F018FF01258DF80A5017
:103B40008DF8084010208DF809008001019001A82F
:103B500002F030F8E802019001A802F02BF82803E7
:103B6000019001A802F026F86803019001A802F074
:103B700021F8019501A802F01DF80220019001A88A
:103B800002F018F88DF801408DF802408DF80350CE
:103B900028208DF80000684603F0EFF806208DF825
:103BA0000000684603F0E9F807208DF80000684639
:103BB00003F0E3F805B030BD08B5012240F225510D
:103BC0000F4803F07BF825208DF8000000208DF8C9
:103BD00001008DF80200012014E00000CCBC0108B7
:103BE0006000002000000240000C02400010024073
:103BF00000080240000402402400002000040040AD
:103C0000001001408DF80300684603F0B6F808BDC7
:103C100010B5804A1823904205D27F4A7F4C204439
:103C2000B0FBF3F006E07B4A083A7A4C6442204449
:103C3000B0FBF3F0042801D3121D001F784B01F0F4
:103C40003D01185C8140116010BD3D21E0E77149E4
:103C50001822884206D270490839704B1844B0FBCC
:103C6000F2F006E06B4910396A4B5B421844B0FB36
:103C7000F2F0042801D3091D001F0968684A105C8E
:103C8000C14001F03D00704738B504463D21204653
:103C9000FFF7BEFF624A5F4B1820121D01219C42B4
:103CA00009D25E4B2344B3FBF0F08DF80110125C97
:103CB0008DF800200AE0574B5B422344B3FBF0F041
:103CC0008DF801100244127A8DF800208DF803104F
:103CD0008DF80200684603F050F8206840F01E009E
:103CE0002060606940F08000606138BD10B5044616
:103CF0003D212046FFF78CFF4949464A1820091DFF
:103D0000944205D2454A2244B2FBF0F0085605E041
:103D1000404A52422244B2FBF0F00856012100F022
:103D20001F0291404009800000F1E020C0F880119E
:103D3000206820F01E002060606900F08000606153
:103D400010BD7047704770477047704770B50546A3
:103D50003D212846FFF77BFF84B23D212846FFF72F
:103D600057FFA00605D52868C00602D52846FFF7EC
:103D7000E8FFE00605D52868000702D52846FFF7CA
:103D8000E1FF200705D52868400702D52846FFF740
:103D9000DAFF600705D52868800702D52846FFF7B7
:103DA000D3FFE00705D06869000602D52846FFF773
:103DB000CCFF70BD18480830C8E717482030C5E769
:103DC00015483830C2E714485030BFE71248683011
:103DD000BCE711488030B9E70F489830B6E70E4885
:103DE000B030B3E70B48B1E70A481830AEE70948EE
:103DF0003030ABE707484830A8E706486030A5E711
:103E000004487830A2E7034890309FE70148A83083
:103E10009CE700001064024008600240F09FFDBF74
:103E2000ECBC01080146F64A914200D10020F54A57
:103E3000914200D10120F44A914200D10220F34A7C
:103E4000914200D10420F24A914200D10520F14A6A
:103E5000914200D10620704770477CB50446082681
:103E60000325002C07D1CDE9005601230022C021F3
:103E7000E94800F07CFC012C08D1CDE90056012373
:103E800000224FF48441E54800F071FC032C03D17B
:103E90000821E048FFF7E0FF7CBD7CB50446002C1C
:103EA00011D108250326CDE900650123002219035D
:103EB000D94800F05CFCCDE9006501230022042113
:103EC000D74800F054FC032C03D10821D048FFF759
:103ED000C3FF7CBD7CB5044608260325002C07D112
:103EE000CDE90056012300220321CE4800F03FFC1B
:103EF000012C08D1CDE90056012300224FF4406186
:103F0000C54800F034FC032C03D10821BF48FFF75B
:103F1000A3FF7CBD2DE9FC410446072603254FF491
:103F20004067002C07D1CDE9005601230022394615
:103F3000BD4800F01CFC012C07D1CDE9005601233F
:103F400000223946B44800F012FC022C08D1CDE919
:103F50000056012300224FF44071B14800F007FCE5
:103F6000032C03D10721A848FFF776FFBDE8FC81A9
:103F70007CB5044607260325002C07D1CDE9005661
:103F8000012300220C21A74800F0F1FB012C07D1EE
:103F9000CDE90056012300226021A14800F0E7FB93
:103FA000032C03D107219748FFF756FF7CBD7CB552
:103FB000044607260325002C07D1CDE9005601232E
:103FC00000226902974800F0D2FB012C07D1CDE90D
:103FD000005601230022C021934800F0C8FB032CA7
:103FE00003D107218648FFF737FF7CBD0146844A8D
:103FF000914200D18D48834A914201D18B481030C3
:10400000814A914201D189482030804A914201D1B0
:10401000864830307E4A914201D1844840307D4A02
:10402000914201D18148503070472DE9FF4F87B050
:104030000446DDE9159ADDF8508016461F462046F5
:10404000FFF7D4FF054603966D48DFF8E4B18442DC
:104050000BD1DBF8000040F01000CBF8000008980E
:10406000FFF7A5FF25208DF80800714E6548361F23
:10407000844209D1306840F4003030600898FFF77E
:1040800077FF26208DF808005F48844209D1306808
:1040900040F4802030600898FFF73CFF27208DF81F
:1040A00008005A48844209D1306840F4002030604A
:1040B0000898FFF70FFF34208DF808005448844219
:1040C00009D1306840F4801030600898FFF7E5FEB1
:1040D00035208DF808004F4884420BD1DBF80000F2
:1040E00040F02000CBF800000898FFF7B6FE47200C
:1040F0008DF80800204602F061FC01268DF80B6067
:1041000006208DF809002046FFF78CFE8DF80A0086
:1041100002A802F032FEADF81870ADF81680ADF8C6
:104120001490ADF812A01798ADF810000020287375
:1041300040F6FF7001900198411E0191FBD203A946
:10414000204602F08FFCA08940F02000A0812E7351
:10415000A08940F40050A0810BB0BDE8F08F2DE99C
:10416000FF4104460F469046254800250C26844210
:1041700008D1CDE9006502950023424639460395F2
:10418000FFF753FF1F48844208D1CDE9006502952F
:104190000023424639460395FFF747FF1A488442F9
:1041A00008D1CDE9006502950023424639460395C2
:1041B000FFF73BFF1548844208D1CDE90065029521
:1041C0000023424639460395FFF72FFF10488442EB
:1041D00008D1CDE900650295002342463946039592
:1041E000FFF723FF0B48844208D1CDE90065029513
:1041F0000023424639460395FFF717FFBDE8FF81CC
:10420000001001400044004000480040004C0040C5
:104210000050004000140140000802400018024015
:10422000000C024000000240000402408000002018
:10423000443802402DE9FF4704460F469046994610
:10424000A94800250C26844208D1CDE900650295D5
:104250004B46424639460395FFF7E7FEA3488442A2
:1042600008D1CDE9006502954B4642463946039593
:10427000FFF7DBFE9E48844208D1CDE90065029538
:104280004B46424639460395FFF7CFFE9948844294
:1042900008D1CDE9006502954B4642463946039563
:1042A000FFF7C3FE9448844208D1CDE9006502952A
:1042B0004B46424639460395FFF7B7FE8F48844286
:1042C00008D1CDE9006502954B4642463946039533
:1042D000FFF7ABFEBDE8FF8710B50023FFF786FEB2
:1042E000C18819B902894489A2420DD042898388C4
:1042F0009A4201D100224281036842899B56521C96
:10430000428109B1491EC180D8B210BD10B50C461A
:10431000FFF76CFEC38842890DE08188914200D18D
:1043200000220168895CA14201D1012010BD521C0C
:1043300092B25B1E9BB2002BEFD1002010BD2DE985
:10434000F04180460F46164600244046FFF74EFED9
:104350000546E88840B1697B4046FFF7D7FF30B992
:10436000E888A988884202D00020BDE8F081761E46
:1043700008E04046FFF7B0FF3855697B884203D01C
:10438000641CA4B2B442F4DB0021641CA0B2395412
:10439000EBE700B5FFF72AFEC18829B901894089FA
:1043A000814201D1012000BD002000BD00B5FFF712
:1043B0001DFEC1888088814201D1012000BD0020FE
:1043C00000BD00B5FFF712FE0021C18001814181CF
:1043D00000BD00B50B46FFF709FE437300BD10B5E5
:1043E00003460C461846FFF701FE007B00280BD061
:1043F00007E019880906FCD59880641C1888000617
:10440000FCD520780028F4D110BD70B504460D46C7
:1044100016462046FFF7EAFD007B00280DD000235A
:1044200009E020880006FCD5E85CA0802088000612
:10443000FCD55B1C9BB2B342F3D370BDC3888288AA
:1044400093420DD20389934201D100220281038954
:104450000268D1540189491C0181C188491CC1806D
:10446000704721480188890603D58088C1B2244855
:10447000E4E770471D480088800606D51B48001DEC
:104480000088C1B21E481030D8E77047184800882D
:10449000800606D51648001D0088C1B21848203095
:1044A000CCE7704713480088800606D51148001DE8
:1044B0000088C1B212483030C0E770470E4801880A
:1044C000890604D58088C1B20D484030B6E77047F0
:1044D0000A480088800606D50848001D0088C1B239
:1044E00007485030AAE770470010014000440040E0
:1044F00000480040004C00400050004000140140C3
:10450000800000200146584A914200D15748584A3D
:10451000914201D155480830564A914201D1534841
:104520001030554A914201D150481830534A9142B7
:1045300001D14E482030524A914201D14B48283097
:10454000704710B5FFF7DEFF4E4B42684E499A4266
:1045500004D30A6842F480020A6003E00A6842F465
:1045600000120A604068FFF770FB48484021C160B4
:10457000002141614FF480628261C1610162416248
:104580008162C162032202634163816310BD70B521
:1045900006460C4615463046FFF7B4FF44600560FA
:1045A0003046BDE87040CCE710B5FFF7ABFF406880
:1045B00010BD10B5FFF7A6FF4068BDE8104002F03F
:1045C00035BC2DE9F04105460F4616462846FFF753
:1045D00099FF04466068406810B10020BDE8F08192
:1045E0002A48216801600661291D41608760606872
:1045F000FFF72BFB2549606802F0A3FC60680168A7
:1046000041F001010160A88A40F08000A8820120E9
:10461000E4E770B505460C4620460BF09DFA82B2E1
:1046200021462846BDE87040CBE710B50446204639
:10463000FFF768FF4068406808B1012010BD20887E
:1046400040F3C010401C10BD10B5FFF75BFF406881
:10465000BDE81040FFF718BB10B5FFF753FF4068E7
:10466000BDE81040FFF742BB00100140E000002011
:104670000044004000480040004C00400050004012
:104680000014014010640240303802403C05002014
:10469000AC490844C0F38F2070472DE9F04F044621
:1046A000DDE9099A88462046FFF7F2FFC7B20020ED
:1046B0004FF0030E0125854015EA080F32D0A24EB7
:1046C00036F81710294326F81710D4F80CC0460006
:1046D0000EFA06F12CEA010C09FA06FB4CEA0B0C67
:1046E000C4F80CC0D4F800C002FA06FB2CEA010C96
:1046F0004CEA0B0CC4F800C0012A01D0022A11D1E7
:10470000D4F804C0ADB22CEA050C03FA00F5ADB242
:104710004CEA050CC4F804C0A5688D430AFA06F1FA
:104720000D43A560401CC0B21028C3D3BDE8F08F74
:1047300000B5FFF7ADFF01218140844802681143B5
:10474000016000BD2DE9FC410746DDE908650C4626
:104750009046002C09D03846FFF7EAFFCDE9006506
:10476000424621463846FFF798FFBDE8FC812DE917
:10477000FC4F0746DDE90BB80E4692469946002EDF
:1047800022D03846FFF7D4FF002301210F2201FA7F
:1047900003F030420DD0D80807EB8004206A5D0793
:1047A000ED0E02FA05FC20EA0C0008FA05F5284394
:1047B00020625B1C102BEAD3CDE9009B53460222FA
:1047C00031463846FFF769FFBDE8FC8F2DE9F0411F
:1047D00005460F462846FFF75BFFC4B200225A4841
:1047E0004FF0010C03210CFA02F33B420CD02E686F
:1047F0004FEA420801FA08F846EA08062E6030F847
:1048000014609E4320F81460521CD2B2102AEAD3DE
:10481000BDE8F081F0B500220125032605FA02F378
:104820000B4205D00368570006FA07F4A343036060
:10483000521CD2B2102AF1D3F0BDF0B500220127EC
:10484000032507FA02F40C4209D00668530005FA62
:1048500003FC26EA0C0607FA03F426430660521C02
:10486000D2B2102AEDD3F0BDF0B500220125032607
:1048700005FA02F30B4205D00368570006FA07F465
:1048800023430360521CD2B2102AF1D3F0BDF0B51D
:10489000002201270324022607FA02F30B4209D063
:1048A0000568530004FA03FC25EA0C0506FA03F335
:1048B0001D430560521CD2B2102AEDD3F0BDF0B5F5
:1048C00000230127032507FA03F40C4209D0C66828
:1048D0005C0005FA04FC26EA0C0602FA04F42643FE
:1048E000C6605B1CDBB2102BEDD3F0BD41F480320F
:1048F000C261C161C261C169C0697047002102E043
:10490000491C89B240080128FAD80846704700B50A
:10491000FFF7BEFE012181400C4802688A43026015
:1049200000BD00B5FFF7B4FE074931F8100000BD27
:1049300000B5FFF7ADFE044931F81000C04380B266
:1049400000BD00000000FEBF7805002030380240A6
:1049500070477CB5FFF7FCFF0121042001F040FA0D
:10496000042001F08FF94CF20370009000208DF8C4
:1049700004008DF80700FB4D6946284601F054FC01
:1049800000221146284601F0C7FC002201212846DA
:1049900001F0C2FC00220821284601F0BDFC0022E3
:1049A0000921284601F0B8FC00220A21284601F01E
:1049B000B3FC00220E21284601F0AEFC00220F219C
:1049C000284601F0A9FC4FF680700090E64C69463D
:1049D000204601F029FC00220721204601F09CFC22
:1049E00000220821204601F097FC002209212046E0
:1049F00001F092FC00220A21204601F08DFC0022E9
:104A00000B21204601F088FC00220C21204601F0F9
:104A100083FC00220D21204601F07EFC00220E21A5
:104A2000204601F079FC00220F21204601F074FCA1
:104A30004FF23F010091CD4E6946304601F0F4FB44
:104A400000221146304601F067FC00220121304669
:104A500001F062FC00220221304601F05DFC0022E0
:104A60000321304601F058FC00220421304601F0B9
:104A700053FC00220521304601F04EFC00220C219F
:104A8000304601F049FC00220D21304601F044FC83
:104A900000220E21304601F03FFC00220F2130465B
:104AA00001F03AFC3F210091B14E6946304601F0D9
:104AB000BBFB00221146304601F02EFC00220121F2
:104AC000304601F029FC00220221304601F024FC8E
:104AD00000220321304601F01FFC00220421304651
:104AE00001F01AFC00220521304601F015FC4FF4BC
:104AF000605100916946284601F096FB00220B2187
:104B0000284601F009FC00220C21284601F004FC93
:104B100000220D21284601F0FFFB3021009169465B
:104B2000284601F081FB00220421284601F0F4FB15
:104B300000220521284601F0EFFB2115009169466E
:104B4000304601F071FB00220C21304601F0E4FBFD
:104B5000032100916946204601F066FB00221146C0
:104B6000204601F0D9FB00220121204601F0D4FBB0
:104B70007CBD2DE9FC4101213A2001F020FD4CF2E1
:104B80003370009002208DF804008DF80500002499
:104B90008DF806408DF80740724F6946384601F09F
:104BA00043FB0C220021384601F0B6FB0C22012108
:104BB000384601F0B1FB0C220421384601F0ACFB71
:104BC0000C220521384601F0A7FB0C2208213846AB
:104BD00001F0A2FB0C220921384601F09DFB0C22BA
:104BE0000A21384601F098FB0C220E21384601F0CC
:104BF00093FB0C220F21384601F08EFB4FF680709C
:104C00000090594E6946304601F00EFB0C220721F8
:104C1000304601F081FB0C220821304601F07CFB7C
:104C20000C220921304601F077FB0C220A21304684
:104C300001F072FB0C220B21304601F06DFB0C22BF
:104C40001146304601F068FB0C220D21304601F080
:104C500063FB0C220E21304601F05EFB0C220F217B
:104C6000304601F059FB082500956946304601F0B1
:104C7000DBFA0C220321304601F04EFB802000902D
:104C80006946384601F0D0FA0C220A21384601F074
:104C900043FB009501258DF804508DF805408DF8F3
:104CA00006408DF807406946384601F0BDFA6E03AC
:104CB00000968DF804508DF805508DF806408DF85B
:104CC00007406946384601F0AFFA3146384601F0F0
:104CD00013FBBDE8FC8100B597B00121084601F047
:104CE00086FC01200190002002900921039104908C
:104CF000059006900790089009900A9010210B915A
:104D00000C900D900E900F9010900902119112903E
:104D10001390149001A81590169008A800F0CAFFEF
:104D20000121002001F05CF817B000BD1149486076
:104D300070471149088070474FF0C04210800E48FC
:104D40000180704701B581B042F21071019848436B
:104D5000009002E00098401E009000980028F9D1D1
:104D60000CBD0000000C0240001002400014024084
:104D700000180240100100200000106010B5FFF77D
:104D8000F8FEFFF7A8FF0520FFF7DCFFFE4C082127
:104D9000204601F0B3FA0A20FFF7D4FF082120468D
:104DA00001F0AAFA01211020FFF7C6FFB2211E2050
:104DB000FFF7C2FF06212820FFF7BEFF01210020D8
:104DC000FFF7BAFF43F2EF010120FFF7B5FF4FF401
:104DD000C0610220FFF7B0FF00211020FFF7ACFFF9
:104DE0000520FFF7AFFF46F630011120FFF7A4FFC3
:104DF00040F699111220FFF79FFF4FF460512620D3
:104E0000FFF79AFF33210720FFF796FF05210C20BB
:104E1000FFF792FF00213020FFF78EFF40F20331B1
:104E20003120FFF789FF40F207413220FFF784FF6E
:104E300040F2013319463320FFF77EFF1946342034
:104E4000FFF77AFF40F203413520FFF775FF40F28C
:104E500007713620FFF770FF21153720FFF76CFF31
:104E60004FF420613A20FFF767FFA1143B20FFF7C2
:104E700063FF0A210D20FFF75FFF4FF438510E202A
:104E8000FFF75AFF4FF46F414420FFF755FF002111
:104E90004520FFF751FF40F23F114620FFF74CFF3E
:104EA00000214E20FFF748FF00214F20FFF744FF6D
:104EB00000212220FFF740FF00224FF4963300200C
:104EC000FFF737FF521C9A42F9D3BDE81040AF48B4
:104ED0002CE700B50B4601464E20FFF72DFF194683
:104EE0004F205DF804EB27E74FF0C0410880A84849
:104EF000008870474FF0C041222008807047A448C6
:104F00000088704700B500210846FFF7E2FFFFF771
:104F1000F1FF00209E494FF478424FF4C8430A80C5
:104F2000401C9842FBD34FF4FC624FF4484301E02D
:104F30000A80401C9842FBD31F224FF4963301E0B5
:104F40000A80401C9842FBD300BD03B5BDF8001099
:104F50008E4808380180BDF80410418000E78B4A74
:104F6000083A1388038050880880704701B5BDF85F
:104F7000000086490839088008BD01B5BDF8000069
:104F800082490839488008BD704780480838406821
:104F900070472DE9F041054688461646002429460B
:104FA0004046FFF796FF794F083F29E0FFF7A2FF41
:104FB00000231AE00C21B0FBF1F1C90080228A40E5
:104FC00036F814101A410A4201D10C2805D90122E1
:104FD0009A40114205D10C2803D97888FFF7A9FE21
:104FE00002E03888FFF7A5FE5B1C7868808898424D
:104FF000E0D86D1CADB229464046FFF76AFF641C3D
:105000007868C088A042D1D8BDE8F08110B4203AB9
:10501000D3B25E4A083A52681468D2885A4304EB05
:10502000420210BCB5E7F0B507460024574D4FF4D7
:10503000A076083D202221463846FFF7E7FF686842
:105040008188081984B2B442F4D3F0BD30B5054666
:10505000002400210846FFF73CFFFFF74BFF4C49B7
:105060004FF496300D80641C8442FBD330BD2DE993
:10507000F04380460D461646994600242946404690
:10508000FFF727FF414F083FB9F1000F16D1FFF797
:1050900031FF03E03888FFF74CFE641CB442F9D3BB
:1050A000BDE8F083FFF726FF3888FFF742FE6D1C4E
:1050B000ADB229464046FFF70CFF641CB442F1D361
:1050C000EEE7B0F5A07F08D2002906DBEF2904DC6B
:1050D000002389B280B20122C9E770472DE9F0416F
:1050E00080460D460024294E4FF4A077083E0AE082
:1050F00021464046FFF78AFF70688088204484B2CA
:10510000BC4281D26D1C2A78002AF1D17CE770B5AF
:1051100004460D46164621464520FFF70DFEA2190E
:10512000B2F5A07F05D340F23F114620FFF704FE01
:1051300003E091B24620FFF7FFFDEA18F02A02D300
:105140004FF46F4200E01202224391B24420FFF775
:10515000F3FD29462046BDE87040BAE67047F0B539
:1051600004460F4615461E46012332463946204660
:10517000FFF77DFF6019401E80B201233246394699
:10518000FFF775FF002305E0000C02401801002026
:10519000000010602A4639462046FFF768FFB8191C
:1051A00081B22A462046BDE8F04000235FE72DE9A2
:1051B000FC4F804689460320A0EB4206002415469A
:1051C00074E008EB040009EB050A01901FFA8AF16C
:1051D00080B2FFF77EFEFFF78DFEFE4F3888FFF7A7
:1051E000A8FD0198A9EB050B1FFA8BF180B2FFF720
:1051F00070FEFFF77FFE3888FFF79BFD1FFA8AF1EC
:10520000A8EB040A1FFA8AF0FFF763FEFFF772FEAD
:105210003888FFF78EFD1FFA8BF11FFA8AF0FFF72F
:1052200058FEFFF767FE3888FFF783FD09EB04009F
:1052300081B208EB050A00901FFA8AF0FFF749FED9
:10524000FFF758FE3888FFF774FDA9EB040B1FFA2F
:105250008BF11FFA8AF0FFF73CFEFFF74BFE388810
:10526000FFF767FD0098A8EB050A81B21FFA8AF0E4
:10527000FFF72FFEFFF73EFE3888FFF75AFD1FFAB3
:105280008BF11FFA8AF0FFF724FEFFF733FE388810
:10529000FFF74FFD002E03DA06EB8406B61D04E08F
:1052A000601B06EB80060A366D1E641CAC4288D972
:1052B000BDE8FC8FF0B50646002440F23F11002007
:1052C000FFF707FEFFF716FEC24D01234FF41667E6
:1052D000002256F8241003FA02F0014203D1688834
:1052E000FFF727FD02E02888FFF723FD521C202A44
:1052F000EFD3641CBC42EBD3F0BD70472DE9F04303
:105300000746894690461C46B24E3088FFF72EFE6F
:105310000023424649463846FFF7A9FE09EB040040
:1053200081B2002342463846FFF7A1FE0123224600
:1053300049463846FFF79BFE07EB0800401E80B247
:10534000012322464946FFF792FE641EA5B209F1E9
:1053500001091FFA89F47088FFF708FE07E021466B
:10536000641CA4B2002342463846FFF780FE6D1E3F
:10537000ADB2F4D23088BDE8F043F7E52DE9F74F40
:105380000746884602980321A1EB40060024029DAF
:1053900090484088FFF7EAFD4FF6FF7935E09DB170
:1053A00009EA450208EB050A381B93461FFA8AF101
:1053B00080B20023FFF75BFE38195A461FFA8AF1C4
:1053C00080B20023FFF753FE9CB109EA440208EBC8
:1053D000040A781B93461FFA8AF180B20023FFF774
:1053E00046FE78195A461FFA8AF180B20023FFF769
:1053F0003EFE002E03DA06EB8406B61D04E0601BB9
:1054000006EB80060A366D1E641CAC42C7D9714893
:105410000088FFF7ABFD029A03B041463846BDE86D
:10542000F04FC4E62DE9FC5F84460C460027A2EB52
:105430000C00002801DCACEB020000B2191B0029B3
:1054400000DCE11A09B20FFA8CF526B24FF0FF3BEF
:10545000624503D34FF00109CA4601E0D946DA4656
:10546000A34204D34FF0010B0122019201E0CDF8D9
:1054700004B088420ADB4FF000090022019200EBE1
:10548000D072521014B20091804623E04FF0000A0F
:10549000D34601EBD172521014B20090884619E045
:1054A00031462846FFF70DFE0098204404B24445DB
:1054B00008DBA4EB080004B205EB090005B206EB1B
:1054C0000B0006B205EB0A0005B20198304406B2A3
:1054D0007F1C3FB24745E3DDBDE8FC9F70B5044645
:1054E0000D46022D0DD308E020886188241D89B265
:1054F0006388228880B2FFF795FF6D1E2D042D0C66
:10550000F2D170BD2DE9F04704460F469146A04602
:10551000022F25D3B4F90050B4F9026010E0241D25
:10552000B1B26088304483B22088284482B2A8B2E5
:10553000FFF778FF2088284405B26088304406B21F
:105540007F1E3F043F0CEAD1B9F1000F08D0B3B27F
:10555000AAB2B8F80210B8F80000BDE8F04761E759
:10556000BDE8F08770B504460D4629462046FFF792
:10557000B5FF04EB8500001F6188438802882088FE
:10558000BDE870404EE70022BCE70122BAE72DE9F2
:10559000F34FE9B00446B4F800A0D34665880195FE
:1055A000012013E004EB80014988514500D28A466E
:1055B000594500D98B4634F82020AA4200D215461E
:1055C00001998A4200D90192401C80B26A998842AE
:1055D000E8D301E0100100205F484088FFF7C6FCD7
:1055E0000295AEE04FF000096A98401E1FFA80F85D
:1055F00000254FE002980AF0F1FA0646679168909C
:105600000F4634F925000AF0D8FA32463B460AF034
:10561000F3FA0AD234F92800679F689E0AF0CDFA9F
:1056200032463B460AF000FB15D934F92800679F43
:10563000689E0AF0C2FA32463B460AF0DDFA26D2EC
:1056400034F92500679F689E0AF0B7FA32463B4658
:105650000AF0EAFA1BD804EB8800029BB0F90210AA
:1056600004EB8500B0F902000A1A34F925105B1A20
:105670005A4334F92830591A92FBF1F10144484653
:1056800003AA09F101091FFA89F922F81010A846A6
:105690006D1CADB26A988542ACD30020A9F101051A
:1056A00003AF0FE0411C37F8102037F811309A4251
:1056B00007D927F8103027F8112018B1401E80B202
:1056C00000E088B2A842EDDB002534E037F8150091
:1056D000584532D26E1C37F81610514529D950451D
:1056E00001D227F815A037F81600584501D927F838
:1056F00016B0DFF86480B8F80200FFF737FC37F81F
:10570000161037F815000023081A82B20298FFF726
:10571000AEFCB8F80000FFF729FC029837F9161024
:1057200000B20646FFF7CDFC37F915103046FFF7FB
:10573000C8FCAD1CADB24D45C8D30298401C80B228
:105740000290DDE901108842FFF44CAF0248008866
:105750006BB0BDE8F04F09E4100100201CB5044611
:10576000FE48012150F8240000F029FFFB482038B2
:1057700030F81400009001208DF8040000218DF80D
:1057800006108DF8070002208DF80500F4486946E0
:1057900050F8240000F048FD1CBDF049F04A2039C3
:1057A00031F8101052F8200001837047EB49EC4AA1
:1057B000203931F8101052F8200041837047E84931
:1057C00051F820104A69E54B203B33F81000424065
:1057D0004A61704770B586B004460E46DF48012125
:1057E0003C3850F8240000F0EAFE0121880300F064
:1057F00016FF00258DF814508DF81750D748403803
:1058000030F814000490D64804A91C3850F824003D
:1058100000F00AFD012E25D1D0484338015D401E1D
:10582000005D01F0A2F8CD483E3830F81400029037
:105830008DF80C5008208DF80D0001258DF80E50C4
:1058400002A800F0B7F9C5484238005D8DF80400A1
:105850000F208DF805008DF806008DF8075001A87F
:1058600001F08BFA06B070BDBC49BD4A40391C3A04
:1058700031F8101052F8200000F02ABD2DE9FC414B
:1058800004460E46B548B5491038083950F824008A
:1058900051F824100843012100F091FEAF48012186
:1058A000183850F8240000F0BAFEAC48AC4F283845
:1058B000103F10F81420083830F8141057F824005E
:1058C00000F02AFDA54807F10808243810F8142034
:1058D000083830F8141058F8240000F01DFD00209E
:1058E0008DF8060001208DF8070002258DF8045080
:1058F0009A48383830F8140000908DF8055057F861
:105900002400694600F090FC8DF804509348343828
:1059100030F81400009058F82400694600F084FC28
:10592000A7F10805314655F8240001F09BF855F819
:105930002400012101F00FF9BDE8FC817CB50020B5
:1059400000F04EFF002000F04EFF00F021FF00218C
:105950004FF4006000F063FE824C002208212046D4
:1059600000F0DAFC00220921204600F0D5FC0022DC
:105970000A21204600F0D0FC00220B21204600F036
:10598000CBFC00220C21204600F0C6FC764D002204
:105990000221284600F0C0FC4FF470610091002104
:1059A0008DF804108DF807106946204600F03CFC85
:1059B000042100916946284600F036FCA1140091AC
:1059C0006946204600F030FC7CBD2DE9FC410121F8
:1059D0000E2000F0F4FD634E0C220821304600F04A
:1059E0009BFC0C220921304600F096FC0C220A2177
:1059F000304600F091FC0C220B21304600F08CFC6C
:105A00000C221146304600F087FC574F0C22022131
:105A1000384600F081FC4FF47060009001248DF84E
:105A2000054002208DF8040000258DF806508DF801
:105A300007406946304600F0F7FB042100916946B3
:105A4000384600F0F1FB200300908DF807506946BE
:105A5000304600F0E9FBE00300908DF804508DF82B
:105A600007406946414800F0DFFB0121C80200F011
:105A7000D6FD0121880500F0A2FD5DE730B58FB0AD
:105A800004463B4D4FF0FA51284601F002FB00213D
:105A9000284601F08FFA284601F0C8F94FF000605F
:105AA000009034480190029440200390002004901C
:105AB00005902915069189000791890008910990A0
:105AC0004FF440300A9004200B9003200C904802C1
:105AD0000D9080100E906946284601F032FA01229E
