:020000040800F2
:1000000000020120B1FA00081D2D00081F2D000874
:10001000212D0008232D0008252D000800000000D8
:100020000000000000000000000000009D0100082A
:10003000292D000800000000CD0100082D2D00082A
:10004000CBFA0008CBFA0008CBFA0008CBFA00087C
:10005000CBFA0008CBFA0008692D0008952D00089E
:10006000CBFA0008CBFA0008CBFA0008A93D00083B
:10007000AF3D0008B53D0008BB3D0008C13D00088C
:10008000C73D0008CD3D0008CBFA0008CBFA0008B8
:10009000CBFA0008CBFA0008CBFA0008CBFA00082C
:1000A000CBFA0008CBFA0008CBFA0008CBFA00081C
:1000B000CBFA00088F2E0008CBFA0008CBFA000814
:1000C000CBFA0008CBFA0008CBFA0008CBFA0008FC
:1000D000CBFA00085744000869440008814400082E
:1000E000C12D0008CBFA0008CBFA0008CBFA0008B3
:1000F000CBFA0008CBFA0008CBFA0008D33D000881
:10010000CBFA0008CBFA0008CBFA0008CBFA0008BB
:1001100099440008B1440008CBFA0008CBFA000863
:10012000D93D0008DD3D0008E33D0008E93D000839
:10013000EF3D0008312D0008CBFA0008CBFA00088B
:10014000CBFA0008CBFA0008CBFA0008CBFA00087B
:10015000F53D0008FB3D0008013E0008C5440008CD
:10016000CBFA0008CBFA0008CBFA0008CBFA00085B
:10017000CBFA0008CBFA0008CBFA0008CBFA00084B
:10018000CBFA0008CBFA0008DFF80CD00FF0A2FF82
:1001900000480047BF02000800020120194B1968FF
:1001A0000868B0E8F00F80F309884FF0000080F392
:1001B00011884EF00D0E70470000000002480068E4
:1001C000006880F3088800DF08ED00E0EFF30980A5
:1001D0000C4B1A6820E9F00F106008B54FF0BF0013
:1001E00080F311880FF067FA4FF0000080F3118858
:1001F000BDE8084019680868B0E8F00F80F3098886
:10020000704700BF2802002001B44FF0BF0080F308
:10021000118801BC704701B44FF0000080F31188D1
:1002200001BC704708B5FD4EFD4D2021304606F05B
:100230005AFD0028F9D0304606F0B7FCA628F4D1C4
:100240002870012409E02021304606F04CFD0028EA
:10025000F9D0304606F0A9FC28550C2CF3DD287B9C
:100260008628E2D1A878552803D07128DDD1E87915
:10027000DBE7EC4800236A46194640690EF0FAFDB8
:10028000D3E7002005F095FAFA200FF090F8F8E790
:100290000FB410B5C0B0044644AB4FF4807168464B
:1002A000439A0FF0A9FF82B26946204604F083F911
:1002B00040B010BC5DF814FB002005F049BA1FB532
:1002C000D7484FF4E131A038016000248480C48015
:1002D000048184810C214181FFF7EEFF03F0C2FA13
:1002E00003F081FBCE490020A03903F055FACC4938
:1002F0000120A03903F050FAC9490220A03903F0C7
:100300004BFAC64D284604F016F9C74804F013F915
:10031000C64804F010F9C6A12846FFF7B9FF02F05D
:1003200093FF02F067FE03F044F9002101200EF074
:1003300073FCBC4DE86020B100231A4619460EF04C
:100340000AFD002101200EF067FC286120B1002386
:100350001A4619460EF0FFFC002101200EF05CFC4D
:10036000686120B100231A4619460EF0F4FC002102
:1003700001200EF051FCA86120B100231A46194655
:100380000EF0E9FC002101200EF046FCE86120B1EE
:1003900000231A4619460EF0DEFC0125CDE9005473
:1003A000002302948022ABA1AFF2291003940EF037
:1003B000D5FECDE90054002302946A02A7A1AFF252
:1003C0009B1003940EF0CAFE0FF0AFF8FEE72DE984
:1003D000F05F934DCA274FF006084FF036094FF0F3
:1003E000F90A002410350FF0C3F88E4E316A401A16
:1003F000B0F55C6F6FD8A62129701021697081213A
:10040000A970C1B2E970C0F307222A71C0F3074393
:100410006B71000EA87196F800C0BCF1250F71D267
:10042000DFE80CF0701D1D292E3338434E5A6571DC
:100430007C8792979CA1A6ADB3B9C0C7CDD3DAEBA8
:100440007013701E1D1D1D1D1D00EC712C724FF0D0
:10045000DF0C85F809C04FF0AB0C85F80AC005E148
:10046000EC712C724FF0DF0C85F809C04FF0AB0C2B
:1004700085F80AC0FAE0EC712C726C72AC72F5E08F
:10048000EC712C726C72AC72F0E0EC712C726C72CC
:10049000AC72EBE04FF0620C85F807C04FF0280C0F
:1004A00085F808C06C72AC72E0E04FF0BF0C85F8C4
:1004B00007C04FF02B0C85F808C06C72AC72D5E009
:1004C0004FF0350C85F807C04FF0390C85F808C09F
:1004D0006C72AC72CAE0E5E04FF0920C85F807C090
:1004E0004FF03C0C85F808C06C72AC72BEE04FF067
:1004F000620C85F807C04FF0280C85F808C06C72B4
:10050000AC72B3E0AEE04FF0BF0C85F807C04FF01F
:100510002B0C85F808C06C72AC72A7E04FF0CB0CC6
:1005200085F807C04FF0300C85F808C06C72AC72CB
:100530009CE04FF0290C85F807C04FF0340C85F88B
:1005400008C06C72AC7291E0EC712C726C72AC727F
:100550008CE0EC712C726C72AC7287E0EC712C72D6
:100560006C72AC7282E0EC712C726C72AC727DE0D9
:1005700085F8079085F808A06C72AC7276E0EF7190
:1005800085F808806C72AC7270E0EC712C726F723E
:1005900085F80A806AE0EC712C7285F8099085F87C
:1005A0000AA063E085F8079085F808A06C72AC7229
:1005B0005CE0EF7185F808806C72AC7256E0EC710B
:1005C0002C726F7285F80A8050E0EC712C7285F8FD
:1005D000099085F80AA049E04FF0210C85F807C082
:1005E0004FF0540C85F808C04FF0940C85F809C002
:1005F0004FF0FF0C85F80AC038E04FF0210C85F869
:1006000007C04FF0540C85F808C04FF0940C85F8E3
:1006100009C04FF0FF0C85F80AC027E00010014028
:100620003403002000000020004400400048004047
:100630000A0D53657269616C20636F6D6D756E692B
:10064000636174696F6E20636F6D706C6574652192
:100650000A0D00004C45443400000000554152543E
:1006600000000000EC712C726C72AC72EC724FF0F6
:10067000020C85F80CC06C7381311A441144084493
:10068000E9790844297A0844697A0844A97A08442F
:10069000801CA8738620E8731022FE49FE4803F0F0
:1006A0008AFF53E1A6212970102169708121A97068
:1006B000C2B2EA70C0F307232B71C0F3074169711E
:1006C000000EA87196F800C0BCF1250F70D2DFE8CB
:1006D0000CF06F1D1D292E3338434E5964707B86F4
:1006E00091969BA0A5B0BBC6D1DCE7F5F3F26F13E2
:1006F0006F1E1D1D1D1D1D00EC712C724FF0010C95
:1007000085F809C04FF0C00C85F80AC003E1EC7110
:100710002C724FF0010C85F809C04FF0C00C85F821
:100720000AC0F8E0EC712C726C72AC72F3E0EC7100
:100730002C726C72AC72EEE0EC712C726C72AC725A
:10074000E9E04FF0B80C85F807C04FF01E0C85F8B3
:1007500008C06C72AC72DEE04FF0470C85F807C041
:100760004FF0210C85F808C06C72AC72D3E04FF0EA
:10077000840C85F807C04FF02B0C85F808C06C720C
:10078000AC72C8E04FF0140C85F807C04FF02E0C87
:1007900085F808C06C72AC72BDE04FF0B80C85F8FB
:1007A00007C04FF01E0C85F808C06C72AC72B2E046
:1007B000ADE04FF0AB0C85F807C04FF0210C85F889
:1007C00008C06C72AC72A6E04FF01E0C85F807C032
:1007D0004FF0250C85F808C06C72AC729BE04FF0AE
:1007E000AE0C85F807C04FF0270C85F808C06C7276
:1007F000AC7290E0EC712C726C72AC728BE0EC71AC
:100800002C726C72AC7286E0EC712C726C72AC72F1
:1008100081E0EC712C726C72AC727CE04FF0D60C03
:1008200085F807C04FF0FA0C85F808C06C72AC72FE
:1008300071E04FF02A0C85F807C04FF0050C85F8E1
:1008400008C06C72AC7266E0EC712C724FF02A0C2E
:1008500085F809C04FF0050C85F80AC05BE0EC7123
:100860002C724FF0D60C85F809C04FF0FA0C85F8C1
:100870000AC050E04FF0D60C85F807C04FF0FA0CD4
:1008800085F808C06C72AC7245E04FF02A0C85F810
:1008900007C04FF0050C85F808C06C72AC723AE0E6
:1008A000EC712C724FF02A0C85F809C04FF0050C42
:1008B00085F80AC02FE01BE00BE0FFE7EC712C721B
:1008C0004FF0D60C85F809C04FF0FA0C85F80AC035
:1008D00021E04FF0FF0B85F807B04FF03F0C85F893
:1008E00008C04FF0AF0C85F809C085F80AB012E0D7
:1008F0004FF0FF0B85F807B04FF03F0C85F808C0AC
:100900004FF0AF0C85F809C085F80AB003E0EC7130
:100910002C726C72AC72EC724FF0020C85F80CC049
:100920006C738132194411440844E9790844297AE6
:100930000844697A0844A97A0844801CA873862070
:10094000E87310225349544803F035FE14200EF08A
:100950002EFD00231A46194670690EF0D5FA0128BB
:100960007FF441ADBDE8F09F2DE9FF5F4B4C20784F
:100970004B4D002838D02078FF2835D02078454EC0
:10098000DFF820A1203E4FF0A60B4FF0AA0806F199
:1009900010074FF00B0925287AD2DFE810F0790014
:1009A0006F01D8014202CA024103BA033004A7040E
:1009B0002B05A1051306830602077207EA076008E4
:1009C000D0084F09C5093D0AB30A380BA60B170C0E
:1009D000860CF50C7B0D79003F007900E200EA0DF2
:1009E000550EB80E210F950F48F228112E4805F02C
:1009F0007DFC4FF400612D4805F078FCFB212C486C
:100A000005F074FC00220221284607F03AF804B0F1
:100A10002846BDE8F05F002106F012BE204D0022FE
:100A20000221284607F02DF80021284606F008FE8E
:100A30000025CAF800504FF400411B4805F056FC51
:100A4000DFF86CA00821504605F052FC13215046F7
:100A500005F04CFC2021504605F04AFC00234FF0E5
:100A6000FF3A5246194660690EF04EFA01280FD13E
:100A700086F800B00D20707086F80280F878397919
:100A80000844797910FB01F0F070010A317111E02E
:100A9000DFE00000440300200010014000000020BF
:100AA000000400403800002000000240000C02401A
:100AB00000100240020C7271030EB37186F80790A9
:100AC00035727572B572F572AA3011440844184433
:100AD0000B303073862070730D22FE49FE4803F000
:100AE0006AFD002352461946E0680EF00DFA01280F
:100AF000BDD10EF03DFD2062F848CDE90105012190
:100B000000234A0200910395F5A1AFF23D700EF06B
:100B100025FBF54D0021284606F05EFC4FF4AF6141
:100B2000284606F01FFC6421284606F089FD0122B4
:100B30000221284606F0A5FF0A200EF038FC01210C
:100B4000284606F049FC00235246194620690EF05B
:100B5000DBF9606800287CD004B0BDE8F05F0EF0DF
:100B600065BBE14D00220221284606F08AFF0021E4
:100B7000284606F065FD0025CAF800504FF40041F4
:100B8000DA4805F0B3FBDFF868A31B21504605F0F7
:100B9000ADFB2021504605F0ABFB00234FF0FF3AA0
:100BA0005246194660690EF0AFF90128A0D186F8C7
:100BB00000B00D20707086F80280F878397908440A
:100BC000797910FB01F0F070010A3171020C727139
:100BD000030EB37186F8079035727572B572F572AF
:100BE000AA301144084418440B30307386207073C7
:100BF0000D22B849B84803F0DEFC002352461946DE
:100C0000E0680EF081F90128D0D10EF0B1FC20622D
:100C10000120B2498DE8230000234202B0A1AFF6C3
:100C2000510003950EF09AFAAF4D0021284606F0C8
:100C3000D3FB4FF4AF61284606F094FB64212846AD
:100C400006F0FEFC01220221284606F01AFF0A20C7
:100C500000E08CE00EF0ABFB0121284606F0BCFB67
:100C600000235246194620690EF04EF960680028AC
:100C70007DD004B0BDE8F05F0EF0D8BA9A4D0022E6
:100C80000221284606F0FDFE0021284606F0D8FC89
:100C90000025CAF800504FF40041944805F026FBA7
:100CA000DFF84CA21A21504605F020FB21215046C6
:100CB00005F01EFB00234FF0FF3A524619466069CB
:100CC0000EF022F901289FD186F800B00D20707037
:100CD00086F80280F87839790844797910FB01F0B8
:100CE000F070030A3371010C7171020EB27186F853
:100CF000079035727572B572F572AA3019440844BE
:100D000010440B303073862070730D227149724885
:100D100003F051FC002352461946E0680EF0F4F847
:100D20000128D0D10EF024FC20626F4D40F23551E5
:100D3000284606F017FB0021284606F081FC606873
:100D4000002895D004B0BDE8F05F0EF06FBA002225
:100D50000221284606F095FE0021284606F070FC88
:100D60000020CAF800004FF40041604800E059E15B
:100D700005F0BCFADFF878A11B21504605F0B6FA61
:100D80002021504605F0B4FA00234FF0FF3A5246B6
:100D9000194660690EF0B8F8012894D186F800B0C1
:100DA0000D20707086F80280F878397908447979D6
:100DB00010FB01F0F070020A3271030C7371010E26
:100DC000B17186F80790002737727772B772F772A1
:100DD000AA301A44104408440B30307386207073D4
:100DE0000D223C493C4803F0E6FB002352461946DD
:100DF000E0680EF089F8012893D10EF0B9FB20626B
:100E000040F23251284606F0ADFA6421284606F039
:100E100017FC6068002894D004B0BDE8F05F0EF0C5
:100E200005BA314D00220221284606F02AFE002193
:100E3000284606F005FC0025CAF800504FF4004192
:100E40002A4805F053FADFF8A8A01321504605F010
:100E50004DFA2821504605F04BFA00234FF0FF3A97
:100E60005246194660690EF04FF8012895D186F870
:100E700000B00D20707086F80280F8783979084447
:100E8000797910FB01F0F070010A3171020C727176
:100E9000030EB37186F8079035727572B572F572EC
:100EA000AA301144084418440B3030738620707304
:100EB0000D220849084803F07EFB002352461946DC
:100EC000E0680EF021F8012896D10EF051FB206267
:100ED00002480FE024030020001001400800002019
:100EE0004649454C44000000000400400000024018
:100EF00000100240CDE90105012100234A020395BB
:100F00000091AFF22401AFF639300EF027F9FF4D12
:100F100040F23551284606F025FA6421284606F0AD
:100F20008FFB606800287DD004B0BDE8F05F0EF054
:100F30007DB9F64D00220221284606F0A2FD0021CF
:100F4000284606F07DFB0025CAF800504FF400410A
:100F5000EF4805F0CBF9DFF8BCA31B21504605F0A4
:100F6000C5F92021504605F0C3F900234FF0FF3AA0
:100F70005246194660690DF0C7FF0128A4D186F8D2
:100F800000B00D20707086F80280F8783979084436
:100F9000797910FB01F0F070020A3271010C717165
:100FA000030EB37186F8079035727572B572F572DB
:100FB000AA301144084418440B30307386207073F3
:100FC0000D22D549D54803F0F6FA002352461946BA
:100FD000E0680DF099FF0128D0D10EF0C9FA206227
:100FE000CF48CDE90105012100234A020395009174
:100FF000AFF21411AFF629400EF0B0F8C34D40F235
:101000003551284606F0AEF96421284606F018FB53
:101010006068002887D004B0BDE8F05F0EF006B924
:10102000002200E060E2B94D0221284606F029FDC9
:101030000021284606F004FB0025CAF800504FF4B2
:101040000041B34805F052F9DFF8C8A20B21504621
:1010500005F04CF93021504605F04AF900234FF0D5
:10106000FF3A5246194660690DF04EFF012885D1BE
:1010700086F800B00D20707086F80280F878397913
:101080000844797910FB01F0F070010A3171020C0B
:101090007271030EB37186F8079035727572B5726E
:1010A000F572AA301144084418440B30307386207E
:1010B00070730D229849994803F07DFA0023524637
:1010C0001946E0680DF020FF012885D10EF050FA96
:1010D00020629348CDE90105012100234A020395CE
:1010E0000091AFF20421AFF619500EF037F8874D9A
:1010F00040F23551284606F035F96421284606F0BD
:101100009FFA6068002885D004B0BDE8F05F0EF05B
:101110008DB87E4D00220221284606F0B2FC002147
:10112000284606F08DFA0025CAF800504FF4004119
:10113000774805F0DBF8DFF8DCA11321504605F015
:10114000D5F82821504605F0D3F800234FF0FF3A98
:101150005246194660690DF0D7FE012887D186F8FE
:1011600000B00D20707086F80280F8783979084454
:10117000797910FB01F0F070010A3171020C727183
:10118000030EB37186F8079035727572B572F572F9
:10119000AA301144084418440B3030738620707311
:1011A0000D225D495D4803F006FA002352461946B8
:1011B000E0680DF0A9FE012887D10EF0D9F9206270
:1011C000012057498DE8230000234202AFF2F021AD
:1011D000AFF6056003950DF0C1FF4C4D40F2DC51B8
:1011E000284606F0BFF86421284606F029FA606810
:1011F000002888D004B0BDE8F05F0EF017B8434D6A
:1012000000220221284606F03CFC0021284606F078
:1012100017FA0025CAF800504FF400413C4805F089
:1012200065F8DFF8F0A01321504605F05FF828219B
:10123000504605F05DF800234FF0FF3A524619463C
:1012400060690DF061FE012888D186F800B00D209C
:10125000707086F80280F87839790844797910FB43
:1012600001F0F070010A3171020C7271030EB3715A
:1012700086F8079035727572B572F572AA3011440E
:10128000084418440B303073862070730D222249B5
:10129000224803F090F9002352461946E0680DF009
:1012A00033FE012888D10EF063F920621C48CDE995
:1012B0000105012100234A0203950091AFF2E031BC
:1012C000AFF6F5600DF04AFF104D40F2DC512846B4
:1012D00006F048F86421284606F0B2F96068002854
:1012E00087D004B0BDE8F05F0DF0A0BF074D00222D
:1012F0000221284606F0C5FB0021284606F0A0F989
:101300000025CAF800504FF400410BE000040040F3
:1013100000000240001002402403002000100140A1
:1013200008000020FE4804F0E1FFDFF8F8A33321B5
:10133000504604F0DBFF0821504604F0D9FF00239B
:101340004FF0FF3A5246194660690DF0DDFD012865
:10135000A8D186F800B00D20707086F80280F87869
:1013600039790844797910FB01F0F070020A327182
:10137000010C7171030EB37186F8079035727572A6
:10138000B572F572AA301144084418440B3030731A
:10139000862070730D22E449E44803F00CF9002321
:1013A00052461946E0680DF0AFFD0128D0D10EF08D
:1013B000DFF82062DE48CDE90105012100234A0261
:1013C00003950091AFF2E841AFF6FD700DF0C6FE57
:1013D000D84D40F2DC51284605F0C4FF6421284670
:1013E00006F02EF9606800287ED004B0BDE8F05FFA
:1013F0000DF01CBFCF4D00220221284606F041FB14
:101400000021284606F01CF90025CAF800504FF4C8
:101410000041C34804F06AFFDFF808A333215046B7
:1014200004F064FF0821504604F062FF00234FF0EF
:10143000FF3A5246194660690DF066FD012887D1D2
:1014400086F800B00D20707086F80280F87839793F
:101450000844797910FB01F0F070010A3171020C37
:101460007271030EB37186F8079035727572B5729A
:10147000F572AA301144084418440B3030738620AA
:1014800070730D22A849A94803F095F8002352462D
:101490001946E0680DF038FD012887D10EF068F894
:1014A0002062A348CDE90105012100234A020395EA
:1014B0000091AFF2D451A0480DF050FE9D4D40F286
:1014C000DC51284605F04EFF6421284606F0B8F8A6
:1014D0006068002888D004B0BDE8F05F0DF0A6BEBB
:1014E00000220221934D00E0D4E1284606F0C9FA1B
:1014F0000021284606F0A4F80025CAF800504FF451
:101500000041874804F0F2FE3B21864804F0EEFEDD
:1015100000234FF0FF3A5246194660690DF0F4FC83
:1015200001288CD186F800B00D20707086F80280FA
:10153000F87839790844797910FB01F0F070020AE3
:101540003271010C7171030EB37186F80790357218
:101550007572B572F572AA301144084418440B3004
:101560003073862070730D226F49704803F023F8A2
:10157000002352461946E0680DF0C6FC01288CD1C4
:101580000DF0F6FF20626A48CDE901050121002334
:101590004A0203950091AFF2B86167480DF0DEFD95
:1015A000644D4FF4AF61284605F0DCFE6421284607
:1015B00006F046F8606800288CD004B0BDE8F05F03
:1015C0000DF034BE5B4D00220221284606F059FA88
:1015D0000021284606F034F80025CAF800504FF4E0
:1015E00000414F4804F082FE3B214E4804F07EFE4D
:1015F00000234FF0FF3A5246194660690DF084FC13
:1016000001288ED186F800B00D20707086F8028017
:10161000F87839790844797910FB01F0F070020A02
:101620003271010C7171030EB37186F80790357237
:101630007572B572F572AA301144084418440B3023
:101640003073862070730D223749384802F0B3FF9B
:10165000002352461946E0680DF056FC01288ED151
:101660000DF086FF20623248CDE9010501210023FB
:101670004A0203950091AFF298712F480DF06EFD6C
:101680002C4D4FF4AF61284605F06CFE64212846CE
:1016900005F0D6FF606800288ED004B0BDE8F05F8A
:1016A0000DF0C4BD234D00220221284606F0E9F9C1
:1016B0000021284605F0C4FF0025CAF800504FF469
:1016C0000041174804F012FE3B21164804F00EFEBC
:1016D00000234FF0FF3A5246194660690DF014FCA2
:1016E00001288ED186F800B00D20707086F8028037
:1016F000F87839790844797910FB01F0F070020A22
:101700003271010C7171030EB37186F80790357256
:101710007572B572F572AA301144084418440DE090
:10172000000002400010024024030020001001408D
:101730000800002000040040CF0300080B30307385
:10174000862070730D22FE49FE4802F034FF00230C
:1017500052461946E0680DF0D7FB0128C1D10DF0C3
:1017600007FF2062F848CDE90105012100234A0264
:1017700003950091AFF69801F4480DF0EFFCF44D9D
:101780004FF4AF61284605F0EDFD6421284605F0D1
:1017900057FF606800287DD004B0BDE8F05F0DF011
:1017A00045BDEB4D00220221284606F06AF90021D2
:1017B000284605F045FF0025CAF800504FF40041C7
:1017C000E44804F093FD3B21E34804F08FFD00233F
:1017D0004FF0FF3A5246194660690DF095FB01281B
:1017E000BCD186F800B00D20707086F80280F878C1
:1017F00039790844797910FB01F0F070020A3271EE
:10180000010C7171030EB37186F807903572757211
:10181000B572F572AA301144084418440B30307385
:10182000862070730D22C649C64802F0C4FE00230C
:1018300052461946E0680DF067FB01288ED10DF085
:1018400097FE2062C048CDE90105012100234A022C
:1018500003950091AFF67811BC480DF07FFCBC4DAC
:101860004FF4AF61284605F07DFD6421284605F060
:10187000E7FE606800288ED004B0BDE8F05F0DF090
:10188000D5BCB34D00220221284606F0FAF800210B
:10189000284600E04CE205F0D3FE0025CAF80050CF
:1018A0004FF40041AB4804F021FDDFF8ACA2332136
:1018B000504604F01BFD0821504604F019FD00239A
:1018C0004FF0FF3A5246194660690DF01DFB0128A2
:1018D00086D186F800B00D20707086F80280F87806
:1018E00039790844797910FB01F0F070020A3271FD
:1018F000010C7171030EB37186F807903572757221
:10190000B572F572AA301144084418440B30307394
:10191000862070730D228A498A4802F04CFE00230B
:1019200052461946E0680DF0EFFA012886D10DF015
:101930001FFE20628448CDE90105012100234A02EF
:1019400003950091AFF6682180480DF007FC804DAB
:101950004FF47A71284605F005FD6421284605F00C
:101960006FFE6068002886D004B0BDE8F05F0DF01F
:101970005DBC774D00220221284606F082F8002146
:10198000284605F05DFE0025CAF800504FF40041DE
:10199000704804F0ABFCDFF8C0A13321504604F0DE
:1019A000A5FC0821504604F0A3FC00234FF0FF3AA9
:1019B0005246194660690DF0A7FA012888D186F8C9
:1019C00000B00D20707086F80280F87839790844EC
:1019D000797910FB01F0F070010A3171020C72711B
:1019E000030EB37186F8079035727572B572F57291
:1019F000AA301144084418440B30307386207073A9
:101A00000D224F494F4802F0D6FD00235246194699
:101A1000E0680DF079FA012888D10DF0A9FD206267
:101A20004948CDE90105012100234A0203950091AF
:101A3000AFF6543145480DF091FB454D4FF4FA6136
:101A4000284605F08FFC6421284605F0F9FD606802
:101A5000002888D004B0BDE8F05F0DF0E7BB3C4D36
:101A600000220221284606F00CF80021284605F045
:101A7000E7FD0025CAF800504FF40041354804F056
:101A800035FC3B21344804F031FC00234FF0FF3A91
:101A90005246194660690DF037FA01288ED186F852
:101AA00000B00D20707086F80280F878397908440B
:101AB000797910FB01F0F070010A3171020C72713A
:101AC000030EB37186F8079035727572B572F572B0
:101AD000AA301144084418440B30307386207073C8
:101AE0000D221749174802F066FD00235246194699
:101AF000E0680DF009FA01288ED10DF039FD206261
:101B00001148CDE90105012100234A020395009106
:101B1000AFF634410D480DF021FB0D4D4FF47A71B5
:101B2000284605F01FFC6421284605F089FD606801
:101B300000288ED004B0BDE8F05F0DF077BB0DE05B
:101B4000240300200010014008000020CF030008FB
:101B5000000400400000024000100240FF4D00223F
:101B60000221284605F08DFF0021284605F068FD7A
:101B70000025CAF800504FF40041F94804F0B6FBC4
:101B80003B21F84804F0B2FB00234FF0FF3A5246E5
:101B9000194660690DF0B8F90128ADD186F800B09A
:101BA0000D20707086F80280F878397908447979C8
:101BB00010FB01F0F070010A3171020C7271030E1A
:101BC000B37186F8079035727572B572F572AA30E6
:101BD0001144084418440B303073862070730D2272
:101BE000E149E24802F0E7FC002352461946E0686A
:101BF0000DF08AF90128D0D10DF0BAFC2062DC4842
:101C0000CDE90105012100234A0203950091AFF6B9
:101C10003051D8480DF0A2FAD04D4FF4FA61284661
:101C200005F0A0FB6421284605F00AFD6068002845
:101C30007ED004B0BDE8F05F0DF0F8BAC74D0022C9
:101C40000221284605F01DFF0021284605F0F8FC7A
:101C50000025CAF800504FF40041C14804F046FB8B
:101C6000DFF800A33321504604F040FB0821504622
:101C700004F03EFB00234FF0FF3A524619466069DC
:101C80000DF042F9012888D186F800B00D2070705F
:101C900086F80280F87839790844797910FB01F0E8
:101CA000F070010A3171020C7271030EB37186F883
:101CB000079035727572B572F572AA3011440844F6
:101CC00018440B303073862070730D22A649A74844
:101CD00002F071FC002352461946E0680DF014F939
:101CE000012888D10DF044FC2062A148CDE901050E
:101CF000012100234A0203950091AFF61C619D4823
:101D00000DF02CFA954D40F23551284605F02AFB8E
:101D10006421284605F094FC6068002888D004B04F
:101D2000BDE8F05F0DF082BA002202218B4D00E089
:101D3000E6E1284605F0A5FE0021284605F080FCD6
:101D40000025CAF800504FF40041854804F0CEFA4F
:101D5000DFF810A23321504604F0C8FA082150469B
:101D600004F0C6FA00234FF0FF3A52461946606964
:101D70000DF0CAF8012886D186F800B00D207070E9
:101D800086F80280F87839790844797910FB01F0F7
:101D9000F070010A3171020C7271030EB37186F892
:101DA000079035727572B572F572AA301144084405
:101DB00018440B303073862070730D226A496B48CB
:101DC00002F0F9FB002352461946E0680DF09CF83A
:101DD000012886D10DF0CCFB20626548CDE90105D4
:101DE000012100234A0203950091AFF60C7161486E
:101DF0000DF0B4F9594D40F23551284605F0B2FACC
:101E00006421284605F01CFC6068002886D004B0D8
:101E1000BDE8F05F0DF00ABA504D002202212846BD
:101E200005F02FFE0021284605F00AFC0025CAF81F
:101E300000504FF400414A4804F058FADFF824A15A
:101E40003321504604F052FA0821504604F050FA6B
:101E500000234FF0FF3A5246194660690DF054F8DE
:101E6000012888D186F800B00D20707086F80280B5
:101E7000F87839790844797910FB01F0F070010A9B
:101E80003171020C7271030EB37186F807903572CE
:101E90007572B572F572AA301144084418440B30BB
:101EA0003073862070730D222F49304802F083FB77
:101EB000002352461946E0680DF026F8012888D123
:101EC0000DF056FB20622A48CDE9010501210023CF
:101ED0004A0203950091AFF6F87126480DF03EF9DD
:101EE0001E4D40F23551284605F03CFA6421284643
:101EF00005F0A6FB6068002888D004B0BDE8F05F5C
:101F00000DF094B9154D00220221284605F0B9FDC7
:101F10000021284605F094FB0025CAF800504FF434
:101F200000410F4804F0E2F9DFF838A033215046B1
:101F300004F0DCF90821504604F0DAF900234FF0F0
:101F4000FF3A5246194660690CF0DEFF012888D13D
:101F500086F800B00D2070700EE000000004004014
:101F60000000024000100240240300200010014045
:101F700008000020CF03000886F80280F87839793D
:101F80000844797910FB01F0F070020A3271010CFB
:101F90007171030EB37186F8079035727572B57260
:101FA000F572AA301144084418440B30307386206F
:101FB00070730D22FD49FE4802F0FDFA00235246DF
:101FC0001946E0680CF0A0FF0128C0D10DF0D0FA4E
:101FD0002062F848CDE9010501214A020091002361
:101FE0000395F549F5480DF0B9F8F54D40F2355136
:101FF000284605F0B7F96421284605F021FB606802
:1020000000287DD004B0BDE8F05F0DF00FB9EC4DB5
:1020100000220221284605F034FD0021284605F063
:102020000FFB0025CAF800504FF40041E54804F0CA
:102030005DF93B21E44804F059F900234FF0FF3AE1
:102040005246194660690CF05FFF0128BDD186F841
:1020500000B00D20707086F80280F8783979084455
:10206000797910FB01F0F070020A3271010C717184
:10207000030EB37186F8079035727572B572F572FA
:10208000AA301144084418440B3030738620707312
:102090000D22C649C64802F08EFA00235246194660
:1020A000E0680CF031FF01288FD10DF061FA206259
:1020B0000120C0498DE8230042020023BE49BF48E9
:1020C00003950DF04BF8BE4D40F23551284605F012
:1020D00049F96421284605F0B3FA6068002890D0D9
:1020E00004B0BDE8F05F0DF0A1B8B54D00220221AB
:1020F000284605F0C6FC0021284605F0A1FA00E0BC
:1021000042E20025CAF800504FF40041AD4804F007
:10211000EDF83B21AC4804F0E9F800234FF0FF3A1A
:102120005246194660690CF0EFFE01288ED186F800
:1021300000B00D20707086F80280F8783979084474
:10214000797910FB01F0F070010A3171020C7271A3
:10215000030EB37186F8079035727572B572F57219
:10216000AA301144084418440B3030738620707331
:102170000D228E498E4802F01EFA0023524619465F
:10218000E0680CF0C1FE01288ED10DF0F1F920625B
:102190008848CDE9010501214A02009100230395F9
:1021A000854986480CF0DAFF854D40F235512846C6
:1021B00005F0D8F86421284605F042FA6068002846
:1021C0008DD004B0BDE8F05F0DF030B87C4D00223A
:1021D0000221284605F055FC0021284605F030FA7A
:1021E0000025CAF800504FF40041764804F07EF80C
:1021F0003B21754804F07AF800234FF0FF3A52462D
:10220000194660690CF080FE01288FD186F800B075
:102210000D20707086F80280F87839790844797951
:1022200010FB01F0F070010A3171020C7271030EA3
:10223000B37186F8079035727572B572F572AA306F
:102240001144084418440B303073862070730D22FB
:102250005649574802F0AFF9002352461946E06844
:102260000CF052FE01288FD10DF082F92062514806
:10227000CDE9010501214A020091002303954E4951
:102280004E480CF06BFF4E4D40F23551284605F09C
:1022900069F86421284605F0D3F9606800288FD0DA
:1022A00004B0BDE8F05F0CF0C1BF454D0022022133
:1022B000284605F0E6FB0021284605F0C1F9002577
:1022C000CAF800504FF400413E4804F00FF83B219B
:1022D0003D4804F00BF800234FF0FF3A52461946F0
:1022E00060690CF011FE01288FD186F800B00D2036
:1022F000707086F80280F87839790844797910FB93
:1023000001F0F070020A3271010C7171030EB371A9
:1023100086F8079035727572B572F572AA3011445D
:10232000084418440B303073862070730D221F4907
:102330001F4802F040F9002352461946E0680CF0AD
:10234000E3FD01288FD10DF013F920621948CDE982
:10235000010501214A0200910023039516491748FF
:102360000CF0FCFE164D40F23551284604F0FAFF01
:102370006421284605F064F9606800288FD004B015
:10238000BDE8F05F0CF052BF0D4D0022022128463F
:1023900005F077FB0021284605F052F90025CAF820
:1023A00000504FF40041074810E0000024030020D3
:1023B0000010014008000020E00E0008CF030008D4
:1023C00000040040000002400010024003F08EFFB5
:1023D000DFF85CA43321504603F088FF0821504603
:1023E00003F086FF00234FF0FF3A5246194660691A
:1023F0000CF08AFD0128A5D186F800B00D20707080
:1024000086F80280F87839790844797910FB01F070
:10241000F070020A3271010C7171030EB37186F80B
:10242000079035727572B572F572AA30114408447E
:1024300018440B303073862070730D22FD49FE481E
:1024400002F0B9F8002352461946E0680CF05CFD32
:102450000128D0D10DF08CF820620120F7498DE8D9
:10246000230042020023F649F64803950CF076FE5D
:10247000F54D40F23551284604F074FF642128469A
:1024800005F0DEF8606800287ED004B0BDE8F05F9B
:102490000CF0CCBEEC4D00220221284605F0F1FAEA
:1024A0000021284605F0CCF80025CAF800504FF46A
:1024B0000041E64803F01AFF3B21DD4803F016FF18
:1024C00000234FF0FF3A5246194660690CF01CFD9C
:1024D000012890D186F800B00D20707086F8028037
:1024E000F87839790844797910FB01F0F070020A24
:1024F0003271010C7171030EB37186F80790357259
:102500007572B572F572AA301144084418440B3044
:102510003073862070730D22C649C74802F04BF80D
:10252000002352461946E0680CF0EEFC012890D1D9
:102530000DF01EF82062C148CDE9010501214A02D3
:10254000009100230395BE49BE480CF007FEBE4D26
:1025500040F23551284604F005FF6421284605F075
:102560006FF8606800288FD004B0BDE8F05F0CF011
:102570005DBEB54D00220221284605F082FA0021F9
:10258000284605F05DF800E007E20025CAF8005093
:102590004FF40041AD4803F0ABFEDFF894A20821F0
:1025A000504603F0A5FE3321504603F09FFE002362
:1025B0004FF0FF3A5246194660690CF0A5FC01281D
:1025C00087D186F800B00D20707086F80280F87808
:1025D00039790844797910FB01F0F070020A327100
:1025E000030C7371010EB17186F807903572757224
:1025F000B572F572AA301A44104408440B30307397
:10260000862070730D228B498B4801F0D4FF002384
:1026100052461946E0680CF077FC012887D10CF08F
:10262000A7FF2062884D40F23551284604F09AFEFB
:102630000021284605F004F86068002893D004B013
:10264000BDE8F05F0CF0F2BD7F4D0022022128466C
:1026500005F017FA0021284604F0F2FF0025CAF819
:1026600000504FF40041794803F042FE3B2170488E
:1026700003F03CFE00234FF0FF3A524619466069D2
:102680000CF042FC01289BD186F800B00D20707040
:1026900086F80280F87839790844797910FB01F0DE
:1026A000F070010A3171020C7271030EB37186F879
:1026B000079035727572B572F572AA3011440844EC
:1026C00018440B303073862070730D2259495A48D4
:1026D00001F071FF002352461946E0680CF014FC2B
:1026E00001289BD10CF044FF2062574D40F2355138
:1026F000284604F037FE0021284604F0A1FF606858
:1027000000289BD004B0BDE8F05F0CF08FBD4E4DAB
:1027100000220221284605F0B4F90021284604F0E1
:102720008FFF0025CAF800504FF40041474803F0DE
:10273000DDFDDFF8FCA00821504603F0D9FD332170
:10274000504603F0D3FD00234FF0FF3A524619469E
:1027500060690CF0D9FB012895D186F800B00D20F6
:10276000707086F80280F87839790844797910FB1E
:1027700001F0F070010A3171020C7271030EB37135
:1027800086F8079035727572B572F572AA301144E9
:10279000084418440B303073862070730D2225498D
:1027A000254801F008FF002352461946E0680CF066
:1027B000ABFB012895D10CF0DBFE2062224D40F2EC
:1027C0003551284604F0CEFD6421284604F038FF38
:1027D0006068002895D004B0BDE8F05F0CF026BD1D
:1027E000194D00220221284605F04BF90021284608
:1027F00004F026FF0025CAF800504FF400411348AA
:1028000003F074FD3B210A4803F070FD00234FF0F4
:10281000FF3A5246194660690CF076FB01289BD1BD
:1028200086F800B00D20707086F80280F8780FE00E
:102830000010024024030020001001400800002086
:10284000E00E0008CF030008000400400000024032
:1028500039790844797910FB01F0F070010A31717F
:10286000020C7271030EB37186F80790357275729F
:10287000B572F572AA301144084418440B30307315
:10288000862070730D22B449B44801F094FE0023F1
:1028900052461946E0680CF037FB01287DD10CF058
:1028A00067FE2062AE4D40F23551284604F05AFDD5
:1028B0006421284604F0C4FE606800286DD004B08E
:1028C000BDE8F05F0CF0B2BCA54D00220221284605
:1028D00005F0D7F80021284604F0B2FE0025CAF81A
:1028E00000504FF400419F4803F000FDDFF878A24C
:1028F0000221504603F0FCFC3921504603F0F6FC5F
:1029000000234FF0FF3A5246194660690CF0FCFA7A
:10291000012842D186F800B00D20707086F8028040
:10292000F87839790844797910FB01F0F070010AE0
:102930003171020C7271030EB37186F80790357213
:102940007572B572F572AA301144084418440B3000
:102950003073862070730D227F49804801F02BFE72
:10296000002352461946E0680CF0CEFA012814D133
:102970000CF0FEFD20627A4D40F23551284604F0FD
:10298000F1FC0021284604F05BFE6068002804D0BA
:1029900004B0BDE8F05F0CF049BCBDE8FF9F7FB517
:1029A0001446002C7ED06C486289211D80380DF0C1
:1029B00091F869486D4D8038007828702878002893
:1029C00074D02878FF2871D0287801286ED0287814
:1029D00002286BD02878032868D02878042865D08E
:1029E0002878052862D0287806285FD0287807281C
:1029F0005CD02878082859D02878092856D028781B
:102A00000A2853D028780B2850D028780C284DD08D
:102A100028780D284AD028780E2847D028780F2803
:102A200044D02878102841D0287811283ED0287822
:102A300012283BD02878132838D02878142835D08D
:102A40002878152832D0287816282FD028781728EB
:102A50002CD02878182829D02878192826D028782A
:102A60001A2823D028781B2820D028781D281DD08C
:102A700028781F281AD02878202817D028782128CD
:102A800014D02878222811D0287823280ED028782E
:102A900024280BD02878F02808D004B02046BDE8C0
:102AA000704001E01EE001E007F01CBBA86808B11F
:102AB0000CF0BCFB686808B10CF0B8FB2B4A002096
:102AC000121DCDE90120012103464A020091039025
:102AD00027A12B480CF042FB04B02046BDE8704013
:102AE00007F000BB7FBD70B504461C4DE1B228461F
:102AF00004F057F84021284604F0F5F80028F9D0F2
:102B0000204670BD0FB430B5C1B045AB4FF48071F5
:102B100001A8449A0DF070FB05460022A9B21046A8
:102B200007F009FB174C206040682A4601A90CF009
:102B3000D1FF21684D81144800901448144A03883D
:102B40001448006806F09BFF206807F0CBFA41B0FC
:102B500030BC5DF814FB000024030020001001408D
:102B6000000400400000024000100240000000206D
:102B700050524F4345535320434F4D4D414E440017
:102B8000690900084400002054030020CE0C01080D
:102B9000400000203C0000200CB500220192009271
:102BA0005549086840F4803008604FF4A043086835
:102BB00000F4003000900198401C0190009810B97A
:102BC00001989842F3D10868800302D50120009053
:102BD00000E000920098012831D147484030026857
:102BE00042F0805202604548026842F4404202606E
:102BF0004148083002680260026842F40042026004
:102C0000026842F4A0520260021F3D4B13600A6842
:102C100042F080720A600A689201FCD5394A40F29B
:102C200005611160016821F003010160016841F054
:102C3000020101600168C1F381010229FAD10CBDD2
:102C400010B52D48016841F0010101602A4A0021B8
:102C50000832116002682C4B1A400260031D2B4A97
:102C60001A60026822F48022026023480C3001605E
:102C7000FFF792FF26494FF00060086010BD70B565
:102C80001D4E0836306800F00C00224B2249002807
:102C90000FD05D1004280ED008280ED00B603068CD
:102CA0001D4AC0F30310121D105C0A68C2400A607E
:102CB00070BD0B60F3E70D60F1E70F4A121D10685D
:102CC000C0F38054106800F03F0034B1B5FBF0F061
:102CD0001368C3F38813584305E0B3FBF0F013689F
:102CE000C3F3881358431268C2F30142521C5200C6
:102CF000B0FBF2F00860D2E70038024000700040FC
:102D000008484006003C0240FFFFF6FE1030002459
:102D100008ED00E00024F400240000207047FEE7E6
:102D2000FEE7FEE7FEE77047704770470CF030BEE5
:102D300008B500200090402005F008FC012806D1CD
:102D4000A34800236A46194600680CF093F8402017
:102D500005F01AFC4FF4803005F016FC00980028AE
:102D600001D00CF0FEFD08BD10B5012002F06DFF92
:102D700000280ED0012002F076FF0121954803F0D3
:102D8000A1FAC1439448426922F0200242EA41116B
:102D9000416110BD10B5022002F057FF00280ED08F
:102DA000022002F060FF02218A4803F08BFAC1433F
:102DB0008948426922F0080242EAC101416110BD1E
:102DC000F8B54FF48066304602F03FFF834C844DE7
:102DD00068B1304602F047FF3146284603F072FAE8
:102DE0006169C04321F0800141EAC01060614FF485
:102DF0000066304602F029FF78B1304602F033FF1A
:102E00003146284603F05EFAC24372481430016826
:102E100021F4006141EAC22101604FF4805630463E
:102E200002F013FF70B1304602F01DFF3146284614
:102E300003F048FAC1436848426922F4807242EACA
:102E4000012141614FF40056304602F0FEFE002899
:102E50001CD000200090304602F005FF3146284685
:102E600003F030FA6169C04321F0400141EA80106B
:102E700060613146284603F025FA012806D15948F9
:102E800000236A46194600680BF0F4FFF8BD38B518
:102E9000554D0221284604F00AFE00281AD00221CE
:102EA000284604F010FE514C226840F2E65140F2F0
:102EB00042430E2A0ED2DFE802F0070E1720273019
:102EC00039424B545D666E76284604F04BFA206812
:102ED000401C206038BD4FF4C861284604F042FA17
:102EE0002068401C206038BD40F22261284604F072
:102EF00039FA2068401C206038BD284604F032FAB8
:102F00002068401C206038BD40F2BE51284604F0C5
:102F100029FA2068401C206038BD40F264512846E0
:102F200004F020FA2068401C206038BD40F21451A3
:102F3000284604F017FA2068401C206038BD40F293
:102F4000BA41284604F00EFA2068401C206038BDC3
:102F50004FF49161284604F005FA2068401C206077
:102F600038BD40F26A41284604F0FCF92068401C54
:102F7000206038BD40F29241284604F0F3F9206801
:102F8000401C206038BD1946284604F0EBF9206843
:102F9000401C206038BD1946284604F0E3F920683B
:102FA000401C206038BD40F23551284604F0DAF963
:102FB0000021216000220221284604F062FD0C4815
:102FC00000236A46194600680BF054FF38BD000024
:102FD0001C020020000C02400000024000100240D1
:102FE000000802400C0000200004004038000020CF
:102FF0001000002010B586B00021084606F00AFC3B
:103000001A480AF0D7FD05906FF0FF000AF0D2FDD4
:1030100004901648801E0AF0CDFD03901549002249
:10302000CDE900211248029003AB04AA05A9124879
:1030300006F0D8FF104806F0F8FF0F4807F030F808
:103040000E480AF0B7FD0E49086006F0D0FD0C4CA2
:10305000241F206043F239020A4906F0E1FC0022F5
:103060000949206806F0ACFD06B010BD030AA8C0EF
:10307000C59600082FE90008540300200201A8C0EB
:10308000400000205CCF01089F29000800B5AFB0C8
:1030900001214FF0606003F08CFA04F0D1FD05F0DF
:1030A00048FA05F04CFA0128FBD0684604F0D4FD3C
:1030B00001200090002007904FF400710A910B90BE
:1030C0000E90119013901490159049000991209042
:1030D000C90321910A11239225902690042028905B
:1030E000299180032A9080012B9040122C9040005F
:1030F0002E900021684604F04CFE664908600121CC
:10310000654805F02EFA2FB000BD08B54FF4A06059
:1031100003F028FE3D208DF8000002208DF801000C
:1031200000208DF8020001208DF80300684603F0AE
:103130001EFE08BDFEB50121072003F03AFA012169
:10314000880303F066FA012003F01CFC862000903F
:1031500003208DF8050002248DF8044000258DF829
:1031600006508DF807504D4E6946304603F056F82C
:103170000B220121304603F0C9F80B220221304610
:1031800003F0C4F80B220721304603F0BFF84FF4D8
:1031900070500090424E6946304603F03FF80B22D3
:1031A0000A21304603F0B2F80B221146304603F0F4
:1031B000ADF80B220C21304603F0A8F80B220D21AC
:1031C000304603F0A3F832200090364E6946304670
:1031D00003F024F80B220121304603F097F80B226C
:1031E0000421304603F092F80B220521304603F00B
:1031F0008DF80420009001208DF804008DF8065011
:103200008DF807008DF80540274E6946304603F0DB
:1032100005F80421304603F06BF8029544F620646B
:1032200002E00299491C02910299A142F9D30421BA
:10323000304603F05BF8029502E00298401C0290D1
:103240000298A042F9D3FEBD10B5FFF773FFFFF758
:103250005CFFFFF71BFF0F480068002819D14FF4EF
:10326000784001F07DFE01F08AFEC0880FA100EBDE
:10327000800080B201F02CFF01F081FEC0884FF683
:10328000FF7100EB400001EA40000DA101F020FFBA
:10329000FEE710BD48000020400001000000024091
:1032A0000004024000080240001002402020204597
:1032B000746865726E657420496E69742020200000
:1032C0002020202020206661696C65642020202059
:1032D000202000000020344900EB400201EBC20234
:1032E000127D22B1401C0A28F6DB0020704700EB5B
:1032F000400001EBC00001220275704700212A4AFC
:1033000001EB410302EBC303834206D101EB410110
:1033100002EBC101002008757047491C0A29EFDB48
:10332000704770B50646FFF7D5FF0546280001D067
:103330001E4C07E0002070BD304661680CF00DFCAB
:1033400038B12468002CF7D12846FFF7D7FF0020BA
:1033500070BDA0682860E0686860E068A860002030
:10336000E860207C2874284670BDC7E770B5054624
:103370000B46D5E90110884202D14FF0FF3070BDF5
:103380000C1A944200DD144629682246014418466E
:103390000CF0A0FBA8682044A860204670BDD0E9CE
:1033A0000110081A704700008C03002030B6010895
:1033B00010B5ADF5047D0446002001900290039005
:1033C0004FF4007104A80CF09EFB7F480268521C69
:1033D00002607EA101A80CF0FBFE01A904A80CF07C
:1033E0009DFB7BA104A80CF099FB86A104A80CF01E
:1033F00095FB04A80CF0AAFB04A908440CF005F9FD
:103400008EA104A80CF08AFB9AA104A80CF086FBFC
:10341000A7480CF09BFB02460123A549204605F076
:1034200015FB04A80CF092FB0246012304A92046D8
:1034300005F00CFB0DF5047D10BD7CB5064630464D
:1034400005F078FA0546280049D0307A002846D1A0
:103450006A4601A9284606F056F8BDF8000005287E
:103460003DD3052293A101980CF092FB002836D1A0
:103470001B2292A101980CF08BFB002836D01E2253
:1034800095A101980CF084FB00283DD01D229AA143
:1034900001980CF07DFB002844D018229EA10198D1
:1034A0000CF076FB00284BD01322A2A101980CF05F
:1034B0006FFB002848D00622A3A101980CF068FBFE
:1034C000002841D0A2A0FFF72CFF04460023D4E936
:1034D0000012304605F0BAFA2046FFF746FF3046A4
:1034E00005F0CFFA284605F0A4FF7CBD74A0FFF7D5
:1034F00018FF04460023D4E90012304605F0A6FA6E
:103500002046FFF732FFEAE774A0FFF70AFF044600
:103510000023D4E90012304605F098FA2046FFF760
:1035200024FFDCE775A0FFF7FCFE04460023D4E986
:103530000012304605F08AFA2046FFF716FFCEE764
:103540003046FFF735FFCAE77BA0FFF7EAFE0446E7
:103550000023D4E90012304605F078FA2046FFF740
:1035600004FFBCE770B500221146102005F034F9C5
:103570000446CCB150220021204605F07BF920B151
:10358000BDE8704075A00CF013BEFF21204605F089
:10359000AAF9204605F0B8F905462846FFF74DFF81
:1035A000284605F03AF9F4E7BDE8704071A00CF048
:1035B000FFBD08B5032000904FF4FA730022734951
:1035C00073A00BF0AEFA08BD4C000020256400008B
:1035D0003C7072653E3C62723E4E616D65202020FB
:1035E00020202020202020537461746520205072F8
:1035F000696F726974792020537461636B20202095
:103600004E756D003C62723E2D2D2D2D2D2D2D2DD4
:103610002D2D2D2D2D2D2D2D2D2D2D2D2D2D2D2DDA
:103620002D2D2D2D2D2D2D2D2D2D2D2D2D2D2D2DCA
:103630002D2D2D2D2D3C62723E0000003C62723E0D
:103640003C62723E2D2D2D2D2D2D2D2D2D2D2D2D10
:103650002D2D2D2D2D2D2D2D2D2D2D2D2D2D2D2D9A
:103660002D2D2D2D2D2D2D2D2D2D2D2D2D2D2D2D8A
:103670002D0000003C62723E42203A20426C6F6393
:103680006B65642C2052203A2052656164792C20AD
:1036900044203A2044656C657465642C2053203ABC
:1036A0002053757370656E6465643C62723E000001
:1036B00044B60108474554202F00000047455420D8
:1036C0002F53544D3332463478375F66696C6573D7
:1036D0002F53542E67696600474554202F53544D8D
:1036E0003332463478375F66696C65732F73746D57
:1036F00033322E6A70670000474554202F53544DD3
:103700003332463478375F66696C65732F6C6F6748
:103710006F2E6A7067000000474554202F53544DA8
:103720003332463478375441534B532E68746D6CA2
:1037300000000000474554202F53544D3332463487
:1037400078372E68746D6C00474554202F20000098
:103750002F3430342E68746D6C00000063616E206D
:103760006E6F742062696E64206E6574636F6E6E36
:103770000000000063616E206E6F742063726561EB
:103780007465206E6574636F6E6E000065350008A9
:1037900048545450000000002DE9FC4104460E46F8
:1037A000FE49FE48103150F8240051F82410084317
:1037B000012102F0FEFEF9481038ECB350F8240065
:1037C000012102F01AFFF548F54F203810F81420B7
:1037D000103830F8141057F8240002F097FDEF4825
:1037E00007F11008183810F81420103830F81410A9
:1037F00058F8240002F08AFD00208DF80600012010
:103800008DF8070002258DF80450E448403830F860
:10381000140000908DF8055057F82400694602F016
:10382000FDFC8DF80450DD48383830F81400009065
:1038300058F82400694600E00FE002F0EFFCA7F121
:103840001005314655F8240003F006F955F8240018
:10385000012103F07AF9BDE8FC810068012102F042
:10386000D8FEB0E72DE9F04385B00121084602F00B
:10387000A0FE0121042002F09CFE0121082002F09C
:1038800098FE0121102002F094FE0121880302F02D
:10389000C0FE48F22817039701258DF81050002428
:1038A0008DF812408DF8135002268DF81160DFF864
:1038B000F48203A9404602F0B1FC3946404602F0CA
:1038C00015FDEF0203978DF810508DF812408DF81A
:1038D00013508DF81160DFF8D08203A9404602F042
:1038E0009DFC3946404602F001FDFB2003908DF817
:1038F00010508DF812408DF813508DF81160DFF8DC
:10390000AC9203A9484602F089FCFB21484602F02C
:10391000EDFC4FF4705003908DF810408DF813407B
:1039200003A9A34802F07AFC032003908DF810400D
:103930008DF8134003A9404602F070FC0A210220D2
:1039400003F00DF80B21022003F009F80C210220EE
:1039500003F005F80D21022003F001F800210320F7
:1039600002F0FDFF0121032002F0F9FF8DF808406D
:1039700010208DF809008DF80A50019501A802F079
:1039800013F9019601A802F00FF9A802019001A80D
:1039900002F00AF9019701A802F006F92803019044
:1039A00001A802F001F96803019001A802F0FCF8F7
:1039B0008DF801408DF802408DF8035006208DF8F7
:1039C0000000684603F0D3F907208DF80000684630
:1039D00003F0CDF928208DF80000684603F0C7F900
:1039E00005B0BDE8F083F0B58BB00121022002F0F4
:1039F000E0FD1020099002268DF8286003208DF844
:103A0000290000248DF82A4001258DF82B50694F9C
:103A100009A9384602F002FC02220421384602F0CD
:103A200075FC0121022002F0E8FD06A803F086FCE7
:103A3000614844F620610068B0FBF1F0401EADF82B
:103A40001800ADF81A4040F234500790ADF820400D
:103A50005A4F06A9384603F041FC0121384603F0CD
:103A60009FFC6021ADF80410ADF806500394ADF84A
:103A7000106001A9384603F0BBFC0821384603F06A
:103A800007FE0121384603F0A7FC1D208DF8000039
:103A90008DF801408DF802408DF80350684603F020
:103AA00066F90BB0F0BD30B585B00121042002F0FD
:103AB00080FD0121082002F07CFD0121880302F035
:103AC000A8FD00248DF810408DF812404FF470507E
:103AD00003908DF8134003258DF8115003A9344845
:103AE00002F09CFB8DF810408DF8124003958DF884
:103AF00013408DF8115003A92B4802F08FFB0A21C7
:103B0000022002F02CFF0B21022002F028FF0C21E2
:103B1000022002F024FF0D21022002F020FF0021EC
:103B2000032002F01CFF0121032002F018FF0125F1
:103B30008DF80A508DF8084010208DF8090080019A
:103B4000019001A802F030F8E802019001A802F00B
:103B50002BF82803019001A802F026F868030190D1
:103B600001A802F021F8019501A802F01DF8022039
:103B7000019001A802F018F88DF801408DF802407C
:103B80008DF8035028208DF80000684603F0EFF808
:103B900006208DF80000684612E00000C0BC010855
:103BA0006000002000000240000C024000100240B3
:103BB00000080240000402402400002000040040ED
:103BC00003F0D5F807208DF80000684603F0CFF821
:103BD00005B030BD08B5012240F22551084803F078
:103BE00067F825208DF8000000208DF801008DF881
:103BF000020001208DF80300684603F0B8F808BD04
:103C00000010014010B5804A1823904205D27F4A27
:103C10007F4C2044B0FBF3F006E07B4A083A7A4C34
:103C200064422044B0FBF3F0042801D3121D001FAE
:103C3000784B01F03D01185C8140116010BD3D21C1
:103C4000E0E771491822884206D270490839704B62
:103C50001844B0FBF2F006E06B4910396A4B5B4246
:103C60001844B0FBF2F0042801D3091D001F0968B5
:103C7000684A105CC14001F03D00704738B5044609
:103C80003D212046FFF7BEFF624A5F4B1820121D00
:103C900001219C4209D25E4B2344B3FBF0F08DF826
:103CA0000110125C8DF800200AE0574B5B42234460
:103CB000B3FBF0F08DF801100244127A8DF8002069
:103CC0008DF803108DF80200684603F050F8206864
:103CD00040F01E002060606940F08000606138BDE7
:103CE00010B504463D212046FFF78CFF4949464A5E
:103CF0001820091D944205D2454A2244B2FBF0F037
:103D0000085605E0404A52422244B2FBF0F0085601
:103D1000012100F01F0291404009800000F1E020E5
:103D2000C0F88011206820F01E002060606900F05B
:103D30008000606110BD70477047704770477047E2
:103D400070B505463D212846FFF77BFF84B23D2133
:103D50002846FFF757FFA00605D52868C00602D5FC
:103D60002846FFF7E8FFE00605D52868000702D5DA
:103D70002846FFF7E1FF200705D52868400702D550
:103D80002846FFF7DAFF600705D52868800702D5C7
:103D90002846FFF7D3FFE00705D06869000602D583
:103DA0002846FFF7CCFF70BD18480830C8E7174811
:103DB0002030C5E715483830C2E714485030BFE717
:103DC00012486830BCE711488030B9E70F48983096
:103DD000B6E70E48B030B3E70B48B1E70A481830F1
:103DE000AEE709483030ABE707484830A8E7064857
:103DF0006030A5E704487830A2E7034890309FE799
:103E00000148A8309CE700001064024008600240AE
:103E1000F09FFDBFE0BC01080146F64A914200D187
:103E20000020F54A914200D10120F44A914200D18C
:103E30000220F34A914200D10420F24A914200D17B
:103E40000520F14A914200D10620704770477CB5A9
:103E5000044608260325002C07D1CDE9005601238E
:103E60000022C021E94800F07CFC012C08D1CDE9FA
:103E70000056012300224FF48441E54800F071FC14
:103E8000032C03D10821E048FFF7E0FF7CBD7CB59F
:103E90000446002C11D108250326CDE90065012335
:103EA00000221903D94800F05CFCCDE9006501232C
:103EB00000220421D74800F054FC032C03D1082130
:103EC000D048FFF7C3FF7CBD7CB504460826032518
:103ED000002C07D1CDE90056012300220321CE4852
:103EE00000F03FFC012C08D1CDE90056012300224F
:103EF0004FF44061C54800F034FC032C03D1082185
:103F0000BF48FFF7A3FF7CBD2DE9FC41044607260F
:103F100003254FF44067002C07D1CDE9005601235B
:103F200000223946BD4800F01CFC012C07D1CDE928
:103F30000056012300223946B44800F012FC022C3E
:103F400008D1CDE90056012300224FF44071B14859
:103F500000F007FC032C03D10721A848FFF776FFE8
:103F6000BDE8FC817CB5044607260325002C07D15B
:103F7000CDE90056012300220C21A74800F0F1FBF7
:103F8000012C07D1CDE90056012300226021A14870
:103F900000F0E7FB032C03D107219748FFF756FFFA
:103FA0007CBD7CB5044607260325002C07D1CDE94E
:103FB0000056012300226902974800F0D2FB012C31
:103FC00007D1CDE9005601230022C021934800F01B
:103FD000C8FB032C03D107218648FFF737FF7CBDC0
:103FE0000146844A914200D18D48834A914201D1D1
:103FF0008B481030814A914201D189482030804A53
:10400000914201D1864830307E4A914201D18448A4
:1040100040307D4A914201D18148503070472DE9AE
:10402000FF4F87B00446DDE9159ADDF8508016464B
:104030001F462046FFF7D4FF054603966D48DFF87C
:10404000E4B184420BD1DBF8000040F01000CBF863
:1040500000000898FFF7A5FF25208DF80800714E95
:104060006548361F844209D1306840F40030306022
:104070000898FFF777FF26208DF808005F488442F4
:1040800009D1306840F4802030600898FFF73CFF89
:1040900027208DF808005A48844209D1306840F43E
:1040A000002030600898FFF70FFF34208DF80800DB
:1040B0005448844209D1306840F480103060089838
:1040C000FFF7E5FE35208DF808004F4884420BD1FC
:1040D000DBF8000040F02000CBF800000898FFF764
:1040E000B6FE47208DF80800204602F061FC01264C
:1040F0008DF80B6006208DF809002046FFF78CFE36
:104100008DF80A0002A802F032FEADF81870ADF882
:104110001680ADF81490ADF812A01798ADF8100005
:104120000020287340F6FF7001900198411E019114
:10413000FBD203A9204602F08FFCA08940F02000AA
:10414000A0812E73A08940F40050A0810BB0BDE87F
:10415000F08F2DE9FF4104460F4690462548002583
:104160000C26844208D1CDE9006502950023424621
:1041700039460395FFF753FF1F48844208D1CDE924
:10418000006502950023424639460395FFF747FF35
:104190001A48844208D1CDE90065029500234246C1
:1041A00039460395FFF73BFF1548844208D1CDE916
:1041B000006502950023424639460395FFF72FFF1D
:1041C0001048844208D1CDE900650295002342469B
:1041D00039460395FFF723FF0B48844208D1CDE908
:1041E000006502950023424639460395FFF717FF05
:1041F000BDE8FF810010014000440040004800403D
:10420000004C0040005000400014014000080240F3
:1042100000180240000C024000000240000402406E
:1042200080000020443802402DE9FF4704460F4635
:1042300090469946A94800250C26844208D1CDE92C
:10424000006502954B46424639460395FFF7E7FE67
:10425000A348844208D1CDE9006502954B46424609
:1042600039460395FFF7DBFE9E48844208D1CDE92D
:10427000006502954B46424639460395FFF7CFFE4F
:104280009948844208D1CDE9006502954B464246E3
:1042900039460395FFF7C3FE9448844208D1CDE91F
:1042A000006502954B46424639460395FFF7B7FE37
:1042B0008F48844208D1CDE9006502954B464246BD
:1042C00039460395FFF7ABFEBDE8FF8710B5002325
:1042D000FFF786FEC18819B902894489A2420DD030
:1042E000428983889A4201D100224281036842892F
:1042F0009B56521C428109B1491EC180D8B210BDE3
:1043000010B50C46FFF76CFEC38842890DE081882A
:10431000914200D100220168895CA14201D10120B3
:1043200010BD521C92B25B1E9BB2002BEFD100203D
:1043300010BD2DE9F04180460F4616460024404648
:10434000FFF74EFE0546E88840B1697B4046FFF71F
:10435000D7FF30B9E888A988884202D00020BDE89C
:10436000F081761E08E04046FFF7B0FF3855697BC4
:10437000884203D0641CA4B2B442F4DB0021641C64
:10438000A0B23954EBE700B5FFF72AFEC18829B97E
:1043900001894089814201D1012000BD002000BD7A
:1043A00000B5FFF71DFEC1888088814201D1012040
:1043B00000BD002000BD00B5FFF712FE0021C18046
:1043C0000181418100BD00B50B46FFF709FE437333
:1043D00000BD10B503460C461846FFF701FE007BF2
:1043E00000280BD007E019880906FCD59880641CCA
:1043F00018880006FCD520780028F4D110BD70B5CF
:1044000004460D4616462046FFF7EAFD007B0028CD
:104410000DD0002309E020880006FCD5E85CA080D0
:1044200020880006FCD55B1C9BB2B342F3D370BD61
:10443000C388828893420DD20389934201D100221E
:10444000028103890268D1540189491C0181C18814
:10445000491CC180704721480188890603D580889E
:10446000C1B22448E4E770471D480088800606D59D
:104470001B48001D0088C1B21E481030D8E77047A5
:1044800018480088800606D51648001D0088C1B26D
:1044900018482030CCE7704713480088800606D5BE
:1044A0001148001D0088C1B212483030C0E7704783
:1044B0000E480188890604D58088C1B20D48403075
:1044C000B6E770470A480088800606D50848001DF0
:1044D0000088C1B207485030AAE770470010014079
:1044E0000044004000480040004C004000500040A4
:1044F00000140140800000200146584A914200D13A
:104500005748584A914201D155480830564A91427D
:1045100001D153481030554A914201D150481830CA
:10452000534A914201D14E482030524A914201D122
:104530004B482830704710B5FFF7DEFF4E4B4268FE
:104540004E499A4204D30A6842F480020A6003E0AA
:104550000A6842F400120A604068FFF770FB48489E
:104560004021C160002141614FF480628261C161DC
:10457000016241628162C16203220263416381631D
:1045800010BD70B506460C4615463046FFF7B4FF21
:10459000446005603046BDE87040CCE710B5FFF7D9
:1045A000ABFF406810BD10B5FFF7A6FF4068BDE83F
:1045B000104002F035BC2DE9F04105460F46164685
:1045C0002846FFF799FF04466068406810B1002054
:1045D000BDE8F0812A48216801600661291D41601B
:1045E00087606068FFF72BFB2549606802F0A3FC39
:1045F0006068016841F001010160A88A40F0800014
:10460000A8820120E4E770B505460C4620460BF071
:104610009DFA82B221462846BDE87040CBE710B52E
:1046200004462046FFF768FF4068406808B1012053
:1046300010BD208840F3C010401C10BD10B5FFF71E
:104640005BFF4068BDE81040FFF718BB10B5FFF7EF
:1046500053FF4068BDE81040FFF742BB0010014027
:10466000E00000200044004000480040004C0040B2
:1046700000500040001401401064024030380240F5
:104680003C050020AC490844C0F38F2070472DE959
:10469000F04F0446DDE9099A88462046FFF7F2FF0D
:1046A000C7B200204FF0030E0125854015EA080F20
:1046B00032D0A24E36F81710294326F81710D4F836
:1046C0000CC046000EFA06F12CEA010C09FA06FBB2
:1046D0004CEA0B0CC4F80CC0D4F800C002FA06FB7C
:1046E0002CEA010C4CEA0B0CC4F800C0012A01D0E2
:1046F000022A11D1D4F804C0ADB22CEA050C03FA99
:1047000000F5ADB24CEA050CC4F804C0A5688D43B1
:104710000AFA06F10D43A560401CC0B21028C3D3AD
:10472000BDE8F08F00B5FFF7ADFF0121814084485F
:1047300002681143016000BD2DE9FC410746DDE937
:1047400008650C469046002C09D03846FFF7EAFF72
:10475000CDE90065424621463846FFF798FFBDE89F
:10476000FC812DE9FC4F0746DDE90BB80E46924669
:104770009946002E22D03846FFF7D4FF00230121AE
:104780000F2201FA03F030420DD0D80807EB800465
:10479000206A5D07ED0E02FA05FC20EA0C0008FA1B
:1047A00005F5284320625B1C102BEAD3CDE9009B62
:1047B0005346022231463846FFF769FFBDE8FC8FB9
:1047C0002DE9F04105460F462846FFF75BFFC4B2CE
:1047D00000225A484FF0010C03210CFA02F33B422D
:1047E0000CD02E684FEA420801FA08F846EA08069B
:1047F0002E6030F814609E4320F81460521CD2B230
:10480000102AEAD3BDE8F081F0B500220125032685
:1048100005FA02F30B4205D00368570006FA07F4C5
:10482000A3430360521CD2B2102AF1D3F0BDF0B5FD
:1048300000220127032507FA02F40C4209D006687A
:10484000530005FA03FC26EA0C0607FA03F4264394
:104850000660521CD2B2102AEDD3F0BDF0B5002292
:104860000125032605FA02F30B4205D00368570021
:1048700006FA07F423430360521CD2B2102AF1D384
:10488000F0BDF0B5002201270324022607FA02F347
:104890000B4209D00568530004FA03FC25EA0C0515
:1048A00006FA03F31D430560521CD2B2102AEDD361
:1048B000F0BDF0B500230127032507FA03F40C42ED
:1048C00009D0C6685C0005FA04FC26EA0C0602FA68
:1048D00004F42643C6605B1CDBB2102BEDD3F0BDA5
:1048E00041F48032C261C161C261C169C06970476F
:1048F000002102E0491C89B240080128FAD8084684
:10490000704700B5FFF7BEFE012181400C480268E8
:104910008A43026000BD00B5FFF7B4FE074931F8D5
:10492000100000BD00B5FFF7ADFE044931F81000DE
:10493000C04380B200BD00000000FEBF780500202B
:104940003038024070477CB5FFF7FCFF012104209E
:1049500001F040FA042001F08FF94CF2037000904E
:1049600000208DF804008DF80700FB4D69462846AD
:1049700001F054FC00221146284601F0C7FC002239
:104980000121284601F0C2FC00220821284601F03E
:10499000BDFC00220921284601F0B8FC00220A21B2
:1049A000284601F0B3FC00220E21284601F0AEFC9F
:1049B00000220F21284601F0A9FC4FF680700090DC
:1049C000E64C6946204601F029FC002207212046DA
:1049D00001F09CFC00220821204601F097FC0022F7
:1049E0000921204601F092FC00220A21204601F014
:1049F0008DFC00220B21204601F088FC00220C21B6
:104A0000204601F083FC00220D21204601F07EFCAF
:104A100000220E21204601F079FC00220F212046C1
:104A200001F074FC4FF23F010091CD4E69463046D3
:104A300001F0F4FB00221146304601F067FC002231
:104A40000121304601F062FC00220221304601F0D3
:104A50005DFC00220321304601F058FC00220421B5
:104A6000304601F053FC00220521304601F04EFC97
:104A700000220C21304601F049FC00220D21304675
:104A800001F044FC00220E21304601F03FFC0022E0
:104A90000F21304601F03AFC3F210091B14E6946AA
:104AA000304601F0BBFB00221146304601F02EFCDF
:104AB00000220121304601F029FC0022022130466B
:104AC00001F024FC00220321304601F01FFC0022EB
:104AD0000421304601F01AFC00220521304601F085
:104AE00015FC4FF4605100916946284601F096FB91
:104AF00000220B21284601F009FC00220C21284647
:104B000001F004FC00220D21284601F0FFFB3021BA
:104B100000916946284601F081FB002204212846C5
:104B200001F0F4FB00220521284601F0EFFB2115DE
:104B300000916946304601F071FB00220C2130469D
:104B400001F0E4FB032100916946204601F066FB79
:104B500000221146204601F0D9FB00220121204607
:104B600001F0D4FB7CBD2DE9FC4101213A2001F08C
:104B700020FD4CF23370009002208DF804008DF877
:104B8000050000248DF806408DF80740724F6946F5
:104B9000384601F043FB0C220021384601F0B6FBF9
:104BA0000C220121384601F0B1FB0C2204213846C9
:104BB00001F0ACFB0C220521384601F0A7FB0C22CA
:104BC0000821384601F0A2FB0C220921384601F0E9
:104BD0009DFB0C220A21384601F098FB0C220E2185
:104BE000384601F093FB0C220F21384601F08EFB72
:104BF0004FF680700090594E6946304601F00EFB2A
:104C00000C220721304601F081FB0C22082130469E
:104C100001F07CFB0C220921304601F077FB0C22CD
:104C20000A21304601F072FB0C220B21304601F0C4
:104C30006DFB0C221146304601F068FB0C220D2161
:104C4000304601F063FB0C220E21304601F05EFB82
:104C50000C220F21304601F059FB082500956946CA
:104C6000304601F0DBFA0C220321304601F04EFB06
:104C7000802000906946384601F0D0FA0C220A21C3
:104C8000384601F043FB009501258DF804508DF85E
:104C900005408DF806408DF807406946384601F01A
:104CA000BDFA6E0300968DF804508DF805508DF80E
:104CB00006408DF807406946384601F0AFFA3146A4
:104CC000384601F013FBBDE8FC8100B597B0012127
:104CD000084601F086FC0120019000200290092185
:104CE00003910490059006900790089009900A900F
:104CF00010210B910C900D900E900F9010900902C6
:104D0000119112901390149001A81590169008A874
:104D100000F0CAFF0121002001F05CF817B000BDCF
:104D20001149486070471149088070474FF0C042F0
:104D300010800E480180704701B581B042F21071B9
:104D400001984843009002E00098401E00900098AF
:104D50000028F9D10CBD0000000C024000100240F8
:104D600000140240001802401001002000001060F2
:104D700010B5FFF7F8FEFFF7A8FF0520FFF7DCFFEF
:104D8000FE4C0821204601F0B3FA0A20FFF7D4FFB9
:104D90000821204601F0AAFA01211020FFF7C6FFE2
:104DA000B2211E20FFF7C2FF06212820FFF7BEFF19
:104DB00001210020FFF7BAFF43F2EF010120FFF7C6
:104DC000B5FF4FF4C0610220FFF7B0FF00211020B3
:104DD000FFF7ACFF0520FFF7AFFF46F630011120CB
:104DE000FFF7A4FF40F699111220FFF79FFF4FF441
:104DF00060512620FFF79AFF33210720FFF796FF27
:104E000005210C20FFF792FF00213020FFF78EFFD5
:104E100040F203313120FFF789FF40F20741322091
:104E2000FFF784FF40F2013319463320FFF77EFF7E
:104E300019463420FFF77AFF40F203413520FFF78F
:104E400075FF40F207713620FFF770FF21153720FC
:104E5000FFF76CFF4FF420613A20FFF767FFA114C2
:104E60003B20FFF763FF0A210D20FFF75FFF4FF4A0
:104E700038510E20FFF75AFF4FF46F414420FFF7DF
:104E800055FF00214520FFF751FF40F23F1146201A
:104E9000FFF74CFF00214E20FFF748FF00214F2075
:104EA000FFF744FF00212220FFF740FF00224FF4CC
:104EB00096330020FFF737FF521C9A42F9D3BDE822
:104EC0001040AF482CE700B50B4601464E20FFF7D7
:104ED0002DFF19464F205DF804EB27E74FF0C04146
:104EE0000880A848008870474FF0C0412220088001
:104EF0007047A4480088704700B500210846FFF7B6
:104F0000E2FFFFF7F1FF00209E494FF478424FF493
:104F1000C8430A80401C9842FBD34FF4FC624FF414
:104F2000484301E00A80401C9842FBD31F224FF403
:104F3000963301E00A80401C9842FBD300BD03B5C4
:104F4000BDF800108E4808380180BDF8041041807B
:104F500000E78B4A083A138803805088088070471E
:104F600001B5BDF8000086490839088008BD01B5C3
:104F7000BDF8000082490839488008BD7047804864
:104F80000838406870472DE9F041054688461646C6
:104F9000002429464046FFF796FF794F083F29E055
:104FA000FFF7A2FF00231AE00C21B0FBF1F1C900CA
:104FB00080228A4036F814101A410A4201D10C2886
:104FC00005D901229A40114205D10C2803D97888CD
:104FD000FFF7A9FE02E03888FFF7A5FE5B1C7868A2
:104FE00080889842E0D86D1CADB229464046FFF754
:104FF0006AFF641C7868C088A042D1D8BDE8F081FF
:1050000010B4203AD3B25E4A083A52681468D28883
:105010005A4304EB420210BCB5E7F0B50746002442
:10502000574D4FF4A076083D202221463846FFF721
:10503000E7FF68688188081984B2B442F4D3F0BDF0
:1050400030B50546002400210846FFF73CFFFFF776
:105050004BFF4C494FF496300D80641C8442FBD3C7
:1050600030BD2DE9F04380460D4616469946002492
:1050700029464046FFF727FF414F083FB9F1000F8F
:1050800016D1FFF731FF03E03888FFF74CFE641CB0
:10509000B442F9D3BDE8F083FFF726FF3888FFF765
:1050A00042FE6D1CADB229464046FFF70CFF641C62
:1050B000B442F1D3EEE7B0F5A07F08D2002906DBB9
:1050C000EF2904DC002389B280B20122C9E77047CE
:1050D0002DE9F04180460D460024294E4FF4A0777B
:1050E000083E0AE021464046FFF78AFF7068808844
:1050F000204484B2BC4281D26D1C2A78002AF1D1AE
:105100007CE770B504460D46164621464520FFF75C
:105110000DFEA219B2F5A07F05D340F23F11462043
:10512000FFF704FE03E091B24620FFF7FFFDEA1807
:10513000F02A02D34FF46F4200E01202224391B2F0
:105140004420FFF7F3FD29462046BDE87040BAE64B
:105150007047F0B504460F4615461E4601233246F9
:1051600039462046FFF77DFF6019401E80B20123BB
:1051700032463946FFF775FF002305E0000C024078
:1051800018010020000010602A4639462046FFF72B
:1051900068FFB81981B22A462046BDE8F0400023D6
:1051A0005FE72DE9FC4F804689460320A0EB4206CD
:1051B0000024154674E008EB040009EB050A019091
:1051C0001FFA8AF180B2FFF77EFEFFF78DFEFE4FD9
:1051D0003888FFF7A8FD0198A9EB050B1FFA8BF1A2
:1051E00080B2FFF770FEFFF77FFE3888FFF79BFD68
:1051F0001FFA8AF1A8EB040A1FFA8AF0FFF763FE90
:10520000FFF772FE3888FFF78EFD1FFA8BF11FFA49
:105210008AF0FFF758FEFFF767FE3888FFF783FD37
:1052200009EB040081B208EB050A00901FFA8AF02E
:10523000FFF749FEFFF758FE3888FFF774FDA9EB2A
:10524000040B1FFA8BF11FFA8AF0FFF73CFEFFF701
:105250004BFE3888FFF767FD0098A8EB050A81B27E
:105260001FFA8AF0FFF72FFEFFF73EFE3888FFF7A0
:105270005AFD1FFA8BF11FFA8AF0FFF724FEFFF7A1
:1052800033FE3888FFF74FFD002E03DA06EB840665
:10529000B61D04E0601B06EB80060A366D1E641C1A
:1052A000AC4288D9BDE8FC8FF0B50646002440F238
:1052B0003F110020FFF707FEFFF716FEC24D012346
:1052C0004FF41667002256F8241003FA02F0014248
:1052D00003D16888FFF727FD02E02888FFF723FD48
:1052E000521C202AEFD3641CBC42EBD3F0BD7047A4
:1052F0002DE9F0430746894690461C46B24E308859
:10530000FFF72EFE0023424649463846FFF7A9FE26
:1053100009EB040081B2002342463846FFF7A1FEA4
:105320000123224649463846FFF79BFE07EB08005B
:10533000401E80B2012322464946FFF792FE641EBA
:10534000A5B209F101091FFA89F47088FFF708FE78
:1053500007E02146641CA4B2002342463846FFF70A
:1053600080FE6D1EADB2F4D23088BDE8F043F7E5A3
:105370002DE9F74F0746884602980321A1EB400626
:105380000024029D90484088FFF7EAFD4FF6FF7920
:1053900035E09DB109EA450208EB050A381B934642
:1053A0001FFA8AF180B20023FFF75BFE38195A46D4
:1053B0001FFA8AF180B20023FFF753FE9CB109EA7D
:1053C000440208EB040A781B93461FFA8AF180B264
:1053D0000023FFF746FE78195A461FFA8AF180B279
:1053E0000023FFF73EFE002E03DA06EB8406B61D0F
:1053F00004E0601B06EB80060A366D1E641CAC429E
:10540000C7D971480088FFF7ABFD029A03B0414647
:105410003846BDE8F04FC4E62DE9FC5F84460C46F3
:105420000027A2EB0C00002801DCACEB020000B26C
:10543000191B002900DCE11A09B20FFA8CF526B21B
:105440004FF0FF3B624503D34FF00109CA4601E02C
:10545000D946DA46A34204D34FF0010B0122019250
:1054600001E0CDF804B088420ADB4FF000090022C9
:10547000019200EBD072521014B20091804623E0EA
:105480004FF0000AD34601EBD172521014B20090D3
:10549000884619E031462846FFF70DFE0098204463
:1054A00004B2444508DBA4EB080004B205EB090094
:1054B00005B206EB0B0006B205EB0A0005B2019837
:1054C000304406B27F1C3FB24745E3DDBDE8FC9F98
:1054D00070B504460D46022D0DD308E02088618882
:1054E000241D89B26388228880B2FFF795FF6D1E64
:1054F0002D042D0CF2D170BD2DE9F04704460F4666
:105500009146A046022F25D3B4F90050B4F90260A9
:1055100010E0241DB1B26088304483B22088284452
:1055200082B2A8B2FFF778FF2088284405B26088CD
:10553000304406B27F1E3F043F0CEAD1B9F1000FA0
:1055400008D0B3B2AAB2B8F80210B8F80000BDE8AB
:10555000F04761E7BDE8F08770B504460D4629467F
:105560002046FFF7B5FF04EB8500001F61884388E4
:1055700002882088BDE870404EE70022BCE7012287
:10558000BAE72DE9F34FE9B00446B4F800A0D346DA
:1055900065880195012013E004EB8001498851459D
:1055A00000D28A46594500D98B4634F82020AA42B9
:1055B00000D2154601998A4200D90192401C80B25E
:1055C0006A998842E8D301E0100100205F484088D2
:1055D000FFF7C6FC0295AEE04FF000096A98401E46
:1055E0001FFA80F800254FE002980AF0F1FA06460B
:1055F000679168900F4634F925000AF0D8FA3246D0
:105600003B460AF0F3FA0AD234F92800679F689EF5
:105610000AF0CDFA32463B460AF000FB15D934F9C0
:105620002800679F689E0AF0C2FA32463B460AF09D
:10563000DDFA26D234F92500679F689E0AF0B7FA92
:1056400032463B460AF0EAFA1BD804EB8800029B7C
:10565000B0F9021004EB8500B0F902000A1A34F91F
:1056600025105B1A5A4334F92830591A92FBF1F18C
:105670000144484603AA09F101091FFA89F922F8F1
:105680001010A8466D1CADB26A988542ACD30020BC
:10569000A9F1010503AF0FE0411C37F8102037F8DE
:1056A00011309A4207D927F8103027F8112018B185
:1056B000401E80B200E088B2A842EDDB002534E055
:1056C00037F81500584532D26E1C37F81610514580
:1056D00029D9504501D227F815A037F816005845AA
:1056E00001D927F816B0DFF86480B8F80200FFF798
:1056F00037FC37F8161037F815000023081A82B265
:105700000298FFF7AEFCB8F80000FFF729FC0298FA
:1057100037F9161000B20646FFF7CDFC37F9151021
:105720003046FFF7C8FCAD1CADB24D45C8D302985A
:10573000401C80B20290DDE901108842FFF44CAFBA
:10574000024800886BB0BDE8F04F09E4100100206A
:105750001CB50446FE48012150F8240000F029FF42
:10576000FB48203830F81400009001208DF8040028
:1057700000218DF806108DF8070002208DF8050035
:10578000F448694650F8240000F048FD1CBDF0497B
:10579000F04A203931F8101052F820000183704788
:1057A000EB49EC4A203931F8101052F820004183BF
:1057B0007047E84951F820104A69E54B203B33F81F
:1057C000100042404A61704770B586B004460E46EC
:1057D000DF4801213C3850F8240000F0EAFE0121A6
:1057E000880300F016FF00258DF814508DF817502F
:1057F000D748403830F814000490D64804A91C3823
:1058000050F8240000F00AFD012E25D1D04843387D
:10581000015D401E005D01F0A2F8CD483E3830F831
:10582000140002908DF80C5008208DF80D00012511
:105830008DF80E5002A800F0B7F9C5484238005D57
:105840008DF804000F208DF805008DF806008DF806
:10585000075001A801F08BFA06B070BDBC49BD4AE3
:1058600040391C3A31F8101052F8200000F02ABDDF
:105870002DE9FC4104460E46B548B54910380839B3
:1058800050F8240051F824100843012100F091FE43
:10589000AF480121183850F8240000F0BAFEAC4897
:1058A000AC4F2838103F10F81420083830F8141086
:1058B00057F8240000F02AFDA54807F1080824380D
:1058C00010F81420083830F8141058F8240000F0AC
:1058D0001DFD00208DF8060001208DF8070002252F
:1058E0008DF804509A48383830F8140000908DF83C
:1058F000055057F82400694600F090FC8DF80450DC
:105900009348343830F81400009058F82400694661
:1059100000F084FCA7F10805314655F8240001F099
:105920009BF855F82400012101F00FF9BDE8FC8136
:105930007CB5002000F04EFF002000F04EFF00F08C
:1059400021FF00214FF4006000F063FE824C002232
:105950000821204600F0DAFC00220921204600F050
:10596000D5FC00220A21204600F0D0FC00220B21A9
:10597000204600F0CBFC00220C21204600F0C6FCA3
:10598000764D00220221284600F0C0FC4FF47061E1
:10599000009100218DF804108DF80710694620460B
:1059A00000F03CFC042100916946284600F036FCDA
:1059B000A11400916946204600F030FC7CBD2DE921
:1059C000FC4101210E2000F0F4FD634E0C22082161
:1059D000304600F09BFC0C220921304600F096FC7A
:1059E0000C220A21304600F091FC0C220B2130469B
:1059F00000F08CFC0C221146304600F087FC574F1B
:105A00000C220221384600F081FC4FF470600090B7
:105A100001248DF8054002208DF8040000258DF842
:105A200006508DF807406946304600F0F7FB042128
:105A300000916946384600F0F1FB200300908DF894
:105A400007506946304600F0E9FBE00300908DF80E
:105A500004508DF807406946414800F0DFFB012102
:105A6000C80200F0D6FD0121880500F0A2FD5DE727
:105A700030B58FB004463B4D4FF0FA51284601F047
:105A800002FB0021284601F08FFA284601F0C8F9F0
:105A90004FF0006000903448019002944020039041
:105AA000002004900590291506918900079189002E
:105AB000089109904FF440300A9004200B90032085
:105AC0000C9048020D9080100E906946284601F017
:105AD00032FA01221021284601F0E6FA2021284658
