:020000040800F2
:1000000000020120A1FB0008B92D0008BB2D00084B
:10001000BD2D0008BF2D0008C12D00080000000004
:100020000000000000000000000000009D0100082A
:10003000C52D000800000000CD010008C92D0008F2
:10004000BBFB0008BBFB0008BBFB0008BBFB0008B8
:10005000BBFB0008BBFB0008052E0008312E000882
:10006000BBFB0008BBFB0008BBFB0008993E000877
:100070009F3E0008A53E0008AB3E0008B13E0008C8
:10008000B73E0008BD3E0008BBFB0008BBFB0008F4
:10009000BBFB0008BBFB0008BBFB0008BBFB000868
:1000A000BBFB0008BBFB0008BBFB0008BBFB000858
:1000B000BBFB00082B2F0008BBFB0008BBFB0008A4
:1000C000BBFB0008BBFB0008BBFB0008BBFB000838
:1000D000BBFB00084745000859450008714500086A
:1000E0005D2E0008BBFB0008BBFB0008BBFB000843
:1000F000BBFB0008BBFB0008BBFB0008C33E0008BD
:10010000BBFB0008BBFB0008BBFB0008BBFB0008F7
:1001100089450008A1450008BBFB0008BBFB00089F
:10012000C93E0008CD3E0008D33E0008D93E000875
:10013000DF3E0008CD2D0008BBFB0008BBFB00081C
:10014000BBFB0008BBFB0008BBFB0008BBFB0008B7
:10015000E53E0008EB3E0008F13E0008B54500080A
:10016000BBFB0008BBFB0008BBFB0008BBFB000897
:10017000BBFB0008BBFB0008BBFB0008BBFB000887
:10018000BBFB0008BBFB0008DFF80CD010F01AF82E
:10019000004800471503000800020120194B1968A8
:1001A0000868B0E8F00F80F309884FF0000080F392
:1001B00011884EF00D0E70470000000002480068E4
:1001C000006880F3088800DF08ED00E0EFF30980A5
:1001D0000C4B1A6820E9F00F106008B54FF0BF0013
:1001E00080F311880FF0DFFA4FF0000080F31188E0
:1001F000BDE8084019680868B0E8F00F80F3098886
:10020000704700BF2802002001B44FF0BF0080F308
:10021000118801BC704701B44FF0000080F31188D1
:1002200001BC704710B5FB4C0421204606F0C2F813
:100230000821204606F0BEF81021204606F0BAF844
:100240008021204606F0B6F8F34C0821204606F03F
:10025000B1F82021204606F0ADF8A115204606F0A1
:10026000A9F861152046BDE8104006F0A3B8FFF7D5
:10027000D9FF14200FF013F9F9E708B5E74EE84D60
:100280002021304606F0A7FD0028F9D0304606F0C0
:1002900004FDA628F4D12870012409E0202130466D
:1002A00006F099FD0028F9D0304606F0F6FC2855F6
:1002B0000C2CF3DD287B8628E2D1A878552803D0C2
:1002C0007128DDD1E879DBE7D64800236A46194674
:1002D00040690EF047FED3E7002005F0E2FAFA206D
:1002E0000FF0DDF8F8E70FB410B5C0B0044644AB2A
:1002F0004FF480716846439A0FF0F6FF82B2694668
:10030000204604F0D0F940B010BC5DF814FB00208A
:1003100005F096BA1FB5C2484FF4E131A03801602C
:1003200000248480C480048184810C214181FFF7F2
:10033000EEFF03F0E5FA03F0CFFBB9490020A03946
:1003400003F078FAB6490120A03903F073FAB449F2
:100350000220A03903F06EFAB04D284604F063F98C
:10036000B14804F060F9B14804F05DF9B0A1284645
:10037000FFF7B9FF02F0B6FF02F08AFE03F067F95B
:10038000002101200EF0C0FCA64DE86020B1002342
:100390001A4619460EF057FD002101200EF0B4FC5C
:1003A000286120B100231A4619460EF04CFD0021A9
:1003B00001200EF0A9FC686120B100231A461946FD
:1003C0000EF041FD002101200EF09EFCA86120B13D
:1003D00000231A4619460EF036FD002101200EF0CA
:1003E00093FCE86120B100231A4619460EF02BFD5C
:1003F0000125CDE9005400230294802295A1AFF29B
:10040000271003940EF022FFCDE9005400236E0262
:100410000294324691A1AFF29D1003940EF016FFA4
:10042000CDE900540294002332468EA1AFF2C110F0
:1004300003940EF00BFF0FF0F0F8FEE72DE9F05FEC
:10044000774DCA274FF006084FF036094FF0F90AEA
:10045000002410350FF004F9724E316A401AB0F5DD
:100460005C6F6FD8A6212970102169708121A97055
:10047000C1B2E970C0F307222A71C0F307436B7160
:10048000000EA87196F800C0BCF1250F71D2DFE80C
:100490000CF0701D1D292E3338434E5A65717C8730
:1004A00092979CA1A6ADB3B9F2F9FFEEEDC070131F
:1004B000701E1D1D1D1D1D00EC712C724FF0DF0CF8
:1004C00085F809C04FF0AB0C85F80AC013E1EC7158
:1004D0002C724FF0DF0C85F809C04FF0AB0C85F89B
:1004E0000AC008E1EC712C726C72AC7203E1EC7121
:1004F0002C726C72AC72FEE0EC712C726C72AC728D
:10050000F9E04FF0620C85F807C04FF0280C85F831
:1005100008C06C72AC72EEE04FF0BF0C85F807C0FB
:100520004FF02B0C85F808C06C72AC72E3E04FF012
:10053000350C85F807C04FF0390C85F808C06C728F
:10054000AC72D8E0F6E04FF0920C85F807C04FF09F
:100550003C0C85F808C06C72AC72CCE04FF0620CB9
:1005600085F807C04FF0280C85F808C06C72AC7293
:10057000C1E0BCE04FF0BF0C85F807C04FF02B0C7A
:1005800085F808C06C72AC72B5E04FF0CB0C85F802
:1005900007C04FF0300C85F808C06C72AC72AAE04E
:1005A0004FF0290C85F807C04FF0340C85F808C0CF
:1005B0006C72AC729FE0EC712C726C72AC729AE04F
:1005C000EC712C726C72AC7295E0EC712C726C72E6
:1005D000AC7290E0EC712C726C72AC728BE085F8AE
:1005E000079085F808A06C72AC7284E0EF7185F812
:1005F00008806C72AC727EE0EC712C726F7285F8C0
:100600000A8078E0EC712C7285F8099085F80AA0D0
:1006100071E05BE0000C0240000402400010014069
:100620003403002000000020004400400048004047
:100630000A0D53657269616C20636F6D6D756E692B
:10064000636174696F6E20636F6D706C6574652192
:100650000A0D00004C45443400000000554152543E
:100660000000000047434F4D000000001DE015E072
:100670000EE007E0FFE785F8079085F808A06C72A8
:10068000AC7238E0EF7185F808806C72AC7232E0C1
:10069000EC712C726F7285F80A802CE0EC712C7270
:1006A00085F8099085F80AA025E04FF0210C85F81F
:1006B00007C04FF0540C85F808C04FF0940C85F833
:1006C00009C04FF0FF0C85F80AC014E04FF0210C70
:1006D00085F807C04FF0540C85F808C04FF0940C13
:1006E00085F809C04FF0FF0C85F80AC003E0EC71F3
:1006F0002C726C72AC72EC724FF0020C85F80CC06C
:100700004FF0010C85F80DC081311A4411440844A2
:10071000E9790844297A0844697A0844A97A08449E
:10072000C01CA8738620E8731022FE49FE4803F01F
:10073000BAFF53E1A6212970102169708121A970A7
:10074000C1B2E970C0F307222A71C0F307436B718D
:10075000000EA87196F800C0BCF1250F70D2DFE83A
:100760000CF06F1D1D292E3338434E5964707B8663
:1007700091969BA0A5B0BBC6D1DCE7F5F3F26F1351
:100780006F1E1D1D1D1D1D00EC712C724FF0010C04
:1007900085F809C04FF0C00C85F80AC003E1EC7180
:1007A0002C724FF0010C85F809C04FF0C00C85F891
:1007B0000AC0F8E0EC712C726C72AC72F3E0EC7170
:1007C0002C726C72AC72EEE0EC712C726C72AC72CA
:1007D000E9E04FF0B80C85F807C04FF01E0C85F823
:1007E00008C06C72AC72DEE04FF0470C85F807C0B1
:1007F0004FF0210C85F808C06C72AC72D3E04FF05A
:10080000840C85F807C04FF02B0C85F808C06C727B
:10081000AC72C8E04FF0140C85F807C04FF02E0CF6
:1008200085F808C06C72AC72BDE04FF0B80C85F86A
:1008300007C04FF01E0C85F808C06C72AC72B2E0B5
:10084000ADE04FF0AB0C85F807C04FF0210C85F8F8
:1008500008C06C72AC72A6E04FF01E0C85F807C0A1
:100860004FF0250C85F808C06C72AC729BE04FF01D
:10087000AE0C85F807C04FF0270C85F808C06C72E5
:10088000AC7290E0EC712C726C72AC728BE0EC711B
:100890002C726C72AC7286E0EC712C726C72AC7261
:1008A00081E0EC712C726C72AC727CE04FF0D60C73
:1008B00085F807C04FF0FA0C85F808C06C72AC726E
:1008C00071E04FF02A0C85F807C04FF0050C85F851
:1008D00008C06C72AC7266E0EC712C724FF02A0C9E
:1008E00085F809C04FF0050C85F80AC05BE0EC7193
:1008F0002C724FF0D60C85F809C04FF0FA0C85F831
:100900000AC050E04FF0D60C85F807C04FF0FA0C43
:1009100085F808C06C72AC7245E04FF02A0C85F87F
:1009200007C04FF0050C85F808C06C72AC723AE055
:10093000EC712C724FF02A0C85F809C04FF0050CB1
:1009400085F80AC02FE01BE00BE0FFE7EC712C728A
:100950004FF0D60C85F809C04FF0FA0C85F80AC0A4
:1009600021E04FF0FF0B85F807B04FF03F0C85F802
:1009700008C04FF0AF0C85F809C085F80AB012E046
:100980004FF0FF0B85F807B04FF03F0C85F808C01B
:100990004FF0AF0C85F809C085F80AB003E0EC71A0
:1009A0002C726C72AC72EC724FF0020C85F80CC0B9
:1009B0006C7381311A4411440844E9790844297A56
:1009C0000844697A0844A97A0844801CA8738620E0
:1009D000E87310225349544803F065FE14200EF0CA
:1009E0005EFD00231A46194670690EF005FB0128CA
:1009F0007FF430ADBDE8F09F2DE9FF5F4B4C2078D0
:100A00004B4D002838D02078FF2835D02078454E2F
:100A1000DFF820A1203E4FF0A60B4FF0AA0806F108
:100A200010074FF00B0925287AD2DFE810F0790083
:100A30007001DD014802D6024D03C6033C04C10427
:100A40003705AD051F068E060D077C07F3076808FE
:100A5000D7085609CC09440AB90A3F0BAE0B1E0C45
:100A60008C0CFB0C810D79003F007900E200F00D49
:100A70005B0EBE0E270F9B0F48F228112E4805F083
:100A8000ADFC4FF400612D4805F0A8FCFB212C487B
:100A900005F0A4FC00220221284607F06AF804B001
:100AA0002846BDE8F05F002106F042BE204D00223E
:100AB0000221284607F05DF80021284606F038FE9E
:100AC0000025CAF800504FF400411B4805F086FC91
:100AD000DFF86CA00821504605F082FC1321504637
:100AE00005F07CFC2021504605F07AFC00234FF0F5
:100AF000FF3A5246194660690EF07EFA01280FD17E
:100B000086F800B00D20707086F80280F878397988
:100B10000844797910FB01F0F070010A317111E09D
:100B2000E0E000004403002000100140000000202D
:100B3000000400403800002000000240000C024089
:100B400000100240020C7271030EB37186F8079018
:100B500035727572B572F572AA30114408441844A2
:100B60000B303073862070730D22FE49FE4803F06F
:100B70009AFD002352461946E0680EF03DFA01281E
:100B8000BDD10EF06DFD2062F848CDE901050121CF
:100B900000234A0200910395F5A1AFF25F700EF0B9
:100BA00055FBF54D0021284606F08EFC4FF4AF6151
:100BB000284606F04FFC6421284606F0B9FD0122C4
:100BC0000221284606F0D5FF0A200EF068FC01211C
:100BD000284606F079FC00235246194620690EF09B
:100BE0000BFA606800287DD004B0BDE8F05F0EF01D
:100BF00095BBE14D00220221284606F0BAFF0021F4
:100C0000284606F095FD0025CAF800504FF4004133
:100C1000DA4805F0E3FBDFF868A31B21504605F036
:100C2000DDFB2021504605F0DBFB00234FF0FF3AAF
:100C30005246194660690EF0DFF90128A0D186F806
:100C400000B00D20707086F80280F8783979084479
:100C5000797910FB01F0F070020A3271010C7171A8
:100C6000030EB37186F8079035727572B572F5721E
:100C7000AA301144084418440B3030738620707336
:100C80000D22B849B84803F00EFD0023524619461C
:100C9000E0680EF0B1F90128D0D10EF0E1FC20623D
:100CA000B248CDE90105012100234A0200910395D4
:100CB000AFA1AFF677000EF0C9FAAF4D002128467C
:100CC00006F002FC4FF4AF61284606F0C3FB642136
:100CD000284606F02DFD01220221284606F049FF94
:100CE0000A2000E08CE00EF0DAFB0121284606F035
:100CF000EBFB00235246194620690EF07DF960682F
:100D000000287DD004B0BDE8F05F0EF007BB9DA1C8
:100D10009548FFF7E8FA984D00220221284606F090
:100D200028FF0021284606F003FD0025CAF80050E0
:100D30004FF40041914805F051FBDFF844A21A211D
:100D4000504605F04BFB2121504605F049FB00239E
:100D50004FF0FF3A5246194660690EF04DF90128EE
:100D60009AD186F800B00D20707086F80280F8786D
:100D700039790844797910FB01F0F070020A327178
:100D8000010C7171030EB37186F80790357275729C
:100D9000B572F572AA301144084418440B30307310
:100DA000862070730D226F496F4803F07CFC00238E
:100DB00052461946E0680EF01FF90128D0D10EF016
:100DC0004FFC20626C4D40F23551284606F042FB44
:100DD0000021284606F0ACFC6068002891D004B0E1
:100DE000BDE8F05F0EF09ABA634D0022022128465A
:100DF00006F0BFFE0021284606F09AFC002500E020
:100E000064E1CAF800504FF400415C4805F0E6FA8E
:100E1000DFF86CA11B21504605F0E0FA2021504676
:100E200005F0DEFA00234FF0FF3A5246194660699A
:100E30000EF0E2F8012893D186F800B00D20707012
:100E400086F80280F87839790844797910FB01F046
:100E5000F070010A3171020C7271030EB37186F8E1
:100E6000079035727572B572F572AA301144084454
:100E700018440B303073862070730D2239493A487C
:100E800003F011FC002352461946E0680EF0B4F856
:100E9000012893D10EF0E4FB2062374D40F232512D
:100EA000284606F0D7FA6421284606F041FC60681F
:100EB000002893D004B0BDE8F05F0EF02FBA2E4D9D
:100EC00000220221284606F054FE0021284606F0A2
:100ED0002FFC0025CAF800504FF40041274805F0C8
:100EE0007DFADFF89CA01321504605F077FA2821FF
:100EF000504605F075FA00234FF0FF3A5246194666
:100F000060690EF079F8012895D186F800B00D20BF
:100F1000707086F80280F87839790844797910FB86
:100F200001F0F070010A3171020C7271030EB3719D
:100F300086F8079035727572B572F572AA30114451
:100F4000084418440B303073862070730D22054915
:100F5000054803F0A8FB002352461946E0680EF04E
:100F60004BF815E024030020001001400800002089
:100F70004649454C44000000000400400000024087
:100F8000001002400A0D474F4F440A0D00000000B8
:100F90000128B9D10EF064FB2062FE48CDE90105BD
:100FA000012100234A0203950091AFF23C01AFF604
:100FB00073300EF04BF9F84D40F23551284606F0EB
:100FC00049FA6421284606F0B3FB606800287DD00A
:100FD00004B0BDE8F05F0EF0A1B9EF4D0022022190
:100FE000284606F0C6FD0021284606F0A1FB002594
:100FF000CAF800504FF40041E84805F0EFF9DFF877
:10100000A0A31B21504605F0E9F92021504605F028
:10101000E7F900234FF0FF3A5246194660690DF098
:10102000EBFF0128B5D186F800B00D20707086F86E
:101030000280F87839790844797910FB01F0F07072
:10104000010A3171020C7271030EB37186F80790B8
:1010500035727572B572F572AA301144084418449D
:101060000B303073862070730D22CE49CE4803F0CA
:101070001AFB002352461946E0680DF0BDFF012817
:1010800087D10EF0EDFA2062C248CDE901050121B9
:1010900000234A0203950091AFF22C11AFF6634092
:1010A0000EF0D4F8BC4D40F23551284606F0D2F986
:1010B0006421284606F03CFB6068002887D004B015
:1010C000BDE8F05F0EF02AB9002200E060E2B24D08
:1010D0000221284606F04DFD0021284606F028FB97
:1010E0000025CAF800504FF40041AC4805F076F9ED
:1010F000DFF8ACA20B21504605F070F930215046C4
:1011000005F06EF900234FF0FF3A52461946606928
:101110000DF072FF012885D186F800B00D207070A7
:1011200086F80280F87839790844797910FB01F063
:10113000F070020A3271010C7171030EB37186F8FE
:10114000079035727572B572F572AA301144084471
:1011500018440B303073862070730D2291499248E9
:1011600003F0A1FA002352461946E0680DF044FF4F
:10117000012885D10EF074FA20628648CDE9010578
:10118000012100234A0203950091AFF21C21AFF622
:1011900053500EF05BF8804D40F23551284606F072
:1011A00059F96421284606F0C3FA6068002885D002
:1011B00004B0BDE8F05F0EF0B1B8774D0022022117
:1011C000284606F0D6FC0021284606F0B1FA002594
:1011D000CAF800504FF40041704805F0FFF8DFF8FE
:1011E000C0A11321504605F0F9F82821504605F01A
:1011F000F7F800234FF0FF3A5246194660690DF0A8
:10120000FBFE012887D186F800B00D20707086F8AB
:101210000280F87839790844797910FB01F0F07090
:10122000010A3171020C7271030EB37186F80790D6
:1012300035727572B572F572AA30114408441844BB
:101240000B303073862070730D225649564803F0D8
:101250002AFA002352461946E0680DF0CDFE012817
:1012600087D10EF0FDF9206201204A498DE8230064
:1012700000234202AFF20831AFF63F6003950DF054
:10128000E5FF454D40F2DC51284606F0E3F86421C5
:10129000284606F04DFA6068002888D004B0BDE802
:1012A000F05F0EF03BB83C4D00220221284606F0CC
:1012B00060FC0021284606F03BFA0025CAF80050E1
:1012C0004FF40041354805F089F8DFF8D4A0132128
:1012D000504605F083F82821504605F081F8002398
:1012E0004FF0FF3A5246194660690DF085FE01281D
:1012F00088D186F800B00D20707086F80280F878EA
:1013000039790844797910FB01F0F070010A3171E4
:10131000020C7271030EB37186F807903572757204
:10132000B572F572AA301144084418440B3030737A
:10133000862070730D221B491B4803F0B4F900236B
:1013400052461946E0680DF057FE012888D10EF08C
:1013500087F920620F48CDE90105012100234A02E7
:1013600003950091AFF2F831AFF62F700DF06EFFDC
:10137000094D40F2DC51284606F06CF864212846FD
:1013800006F0D6F96068002887D004B0BDE8F05FA9
:101390000CE00000080000200004004000000240B3
:1013A0000010024024030020001001400DF0B6BFE1
:1013B000FF4D00220221284606F0DBFB00212846D3
:1013C00006F0B6F90025CAF800504FF40041F9487C
:1013D00005F004F8DFF8E0A33321504604F0FEFFE7
:1013E0000821504604F0FCFF00234FF0FF3A52461C
:1013F000194660690DF000FE0128A7D186F800B0FB
:101400000D20707086F80280F8783979084479796F
:1014100010FB01F0F070010A3171020C7271030EC1
:10142000B37186F8079035727572B572F572AA308D
:101430001144084418440B303073862070730D2219
:10144000DE49DF4803F02FF9002352461946E068D1
:101450000DF0D2FD0128D0D10EF002F92062D9485A
:10146000CDE90105012100234A0203950091AFF265
:101470000051D5480DF0EAFECD4D40F2DC51284632
:1014800005F0E8FF6421284606F052F9606800285C
:101490007ED004B0BDE8F05F0DF040BFC44D002227
:1014A0000221284606F065FB0021284606F040F997
:1014B0000025CAF800504FF40041BE4804F08EFFEA
:1014C000DFF8F4A23321504604F088FF082150468B
:1014D00004F086FF00234FF0FF3A52461946606938
:1014E0000DF08AFD012888D186F800B00D207070BB
:1014F00086F80280F87839790844797910FB01F090
:10150000F070010A3171020C7271030EB37186F82A
:10151000079035727572B572F572AA30114408449D
:1015200018440B303073862070730D22A349A448F1
:1015300003F0B9F8002352461946E0680DF05CFD4F
:10154000012888D10EF08CF820629E48CDE9010573
:10155000012100234A0203950091AFF2EC519A4811
:101560000DF074FE924D40F2DC51284605F072FFFA
:101570006421284606F0DCF86068002888D004B0B2
:10158000BDE8F05F0DF0CABE00220221884D00E0E8
:10159000D4E1284606F0EDFA0021284606F0C8F806
:1015A0000025CAF800504FF40041824804F016FFAD
:1015B0003B21814804F012FF00234FF0FF3A5246CE
:1015C000194660690DF018FD01288CD186F800B02D
:1015D0000D20707086F80280F8783979084479799E
:1015E00010FB01F0F070020A3271010C7171030EF0
:1015F000B37186F8079035727572B572F572AA30BC
:101600001144084418440B303073862070730D2247
:101610006A496B4803F047F8002352461946E068D0
:101620000DF0EAFC01288CD10EF01AF82062654812
:10163000CDE90105012100234A0203950091AFF293
:10164000D06161480DF002FE594D4FF4AF6128465C
:1016500005F000FF6421284606F06AF8606800285B
:101660008CD004B0BDE8F05F0DF058BE504D0022A4
:101670000221284606F07DFA0021284606F058F897
:101680000025CAF800504FF400414A4804F0A6FE75
:101690003B21494804F0A2FE00234FF0FF3A524696
:1016A000194660690DF0A8FC01288ED186F800B0BB
:1016B0000D20707086F80280F878397908447979BD
:1016C00010FB01F0F070020A3271010C7171030E0F
:1016D000B37186F8079035727572B572F572AA30DB
:1016E0001144084418440B303073862070730D2267
:1016F0003249334802F0D7FF002352461946E068CA
:101700000DF07AFC01288ED10DF0AAFF2062012095
:101710002C498DE8230000234202AFF2AC712A4825
:1017200003950DF093FD224D4FF4AF61284605F06F
:1017300091FE6421284605F0FBFF606800288FD0E9
:1017400004B0BDE8F05F0DF0E9BD194D00220221A3
:10175000284606F00EFA0021284605F0E9FF00258C
:10176000CAF800504FF40041124804F037FE3B2104
:10177000114804F033FE00234FF0FF3A5246194659
:1017800060690DF039FC01288FD186F800B00D207A
:10179000707086F80280F87839790844797910FBFE
:1017A00001F0F070010A3171020C7271030E0DE04C
:1017B000000400400000024000100240240300200A
:1017C00000100140080000203D040008B37186F8B5
:1017D000079035727572B572F572AA3011440844DB
:1017E00018440B303073862070730D22FD49FE487B
:1017F00002F059FF002352461946E0680DF0FCFB49
:101800000128C1D10DF02CFF2062F848CDE9010577
:10181000012100234A0203950091AFF6AC01F44880
:101820000DF014FDF34D4FF4AF61284605F012FEA4
:101830006421284605F07CFF606800287ED004B053
:10184000BDE8F05F0DF06ABDEA4D00220221284696
:1018500006F08FF90021284605F06AFF0025CAF836
:1018600000504FF40041E44804F0B8FD3B21E34848
:1018700004F0B4FD00234FF0FF3A52461946606968
:101880000DF0BAFB0128BCD186F800B00D207070B5
:1018900086F80280F87839790844797910FB01F0EC
:1018A000F070010A3171020C7271030EB37186F887
:1018B000079035727572B572F572AA3011440844FA
:1018C00018440B303073862070730D22C549C6480A
:1018D00002F0E9FE002352461946E0680DF08CFB49
:1018E00001288ED10DF0BCFE20620120BF498DE899
:1018F000230000234202AFF68811BD4803950DF086
:10190000A5FCBC4D4FF4AF61284605F0A3FD642152
:10191000284605F00DFF606800288FD004B0BDE8B0
:10192000F05F0DF0FBBCB34D00220221284606F00B
:1019300020F90021284605F0FBFE00E046E20025E4
:10194000CAF800504FF40041AB4804F047FDDFF8FF
:10195000ACA23321504604F041FD0821504604F06A
:101960003FFD00234FF0FF3A5246194660690DF0E3
:1019700043FB012887D186F800B00D20707086F8EF
:101980000280F87839790844797910FB01F0F07019
:10199000010A3171020C7271030EB37186F807905F
:1019A00035727572B572F572AA3011440844184444
:1019B0000B303073862070730D228A498A4802F0FA
:1019C00072FE002352461946E0680DF015FB01280F
:1019D00087D10DF045FE2062012084498DE8230067
:1019E00000234202AFF67821814803950DF02EFCCA
:1019F000804D4FF47A71284605F02CFD642128466D
:101A000005F096FE6068002887D004B0BDE8F05F5E
:101A10000DF084BC774D00220221284606F0A9F87B
:101A20000021284605F084FE0025CAF800504FF436
:101A30000041714804F0D2FCDFF8C0A133215046C8
:101A400004F0CCFC0821504604F0CAFC00234FF0FF
:101A5000FF3A5246194660690DF0CEFA012889D145
:101A600086F800B00D20707086F80280F878397919
:101A70000844797910FB01F0F070010A3171020C11
:101A80007271030EB37186F8079035727572B57274
:101A9000F572AA301144084418440B303073862084
:101AA00070730D224F49504802F0FDFD002352464D
:101AB0001946E0680DF0A0FA012889D10DF0D0FD9B
:101AC0002062012049498DE8230000234202AFF63D
:101AD0006031474803950DF0B9FB464D4FF4FA616C
:101AE000284605F0B7FC6421284605F021FE606811
:101AF000002889D004B0BDE8F05F0DF00FBC3D4D6B
:101B000000220221284606F034F80021284605F07C
:101B10000FFE0025CAF800504FF40041364804F08B
:101B20005DFC3B21354804F059FC00234FF0FF3A9F
:101B30005246194660690DF05FFA01288FD186F888
:101B400000B00D20707086F80280F878397908446A
:101B5000797910FB01F0F070010A3171020C727199
:101B6000030EB37186F8079035727572B572F5720F
:101B7000AA301144084418440B3030738620707327
:101B80000D221849184802F08EFD002352461946CE
:101B9000E0680DF031FA01288FD10DF061FD20626F
:101BA000012012498DE8230000234202AFF6404194
:101BB0000F4803950DF04AFB0E4D4FF47A712846FD
:101BC00005F048FC6421284605F0B2FD6068002855
:101BD0008FD004B0BDE8F05F0DF0A0BB0022022161
:101BE000044D0DE0240300200010014008000020F7
:101BF0003D040008000400400000024000100240C4
:101C0000284605F0B6FF0021284605F091FD002585
:101C1000CAF800504FF40041FE4804F0DFFB3B21BE
:101C2000FD4804F0DBFB00234FF0FF3A5246194613
:101C300060690DF0E1F90128AED186F800B00D2001
:101C4000707086F80280F87839790844797910FB49
:101C500001F0F070010A3171020C7271030EB37160
:101C600086F8079035727572B572F572AA30114414
:101C7000084418440B303073862070730D22E749F6
:101C8000E74802F010FD002352461946E0680DF0C7
:101C9000B3F90128D0D10DF0E3FC2062E148CDE991
:101CA0000105012100234A0203950091AFF640513E
:101CB000DD480DF0CBFADD4D4FF4FA61284605F012
:101CC000C9FB6421284605F033FD606800287DD0FB
:101CD00004B0BDE8F05F0DF021BBD44D002202211D
:101CE000284605F046FF0021284605F021FD002585
:101CF000CAF800504FF40041C64804F06FFBDFF80B
:101D000018A33321504604F069FB0821504604F023
:101D100067FB00234FF0FF3A5246194660690DF009
:101D20006BF9012888D186F800B00D20707086F814
:101D30000280F87839790844797910FB01F0F07065
:101D4000010A3171020C7271030EB37186F80790AB
:101D500035727572B572F572AA3011440844184490
:101D60000B303073862070730D22AC49AC4802F002
:101D70009AFC002352461946E0680DF03DF901280F
:101D800088D10DF06DFC2062A648CDE90105012146
:101D900000234A0203950091AFF62C61A2480DF092
:101DA00055FAA24D40F23551284605F053FB642107
:101DB000284605F0BDFC6068002888D004B0BDE866
:101DC000F05F0DF0ABBA0022022100E0E8E1974D90
:101DD000284605F0CEFE0021284605F0A9FC002586
:101DE000CAF800504FF400418A4804F0F7FADFF8CF
:101DF00028A23321504604F0F1FA0821504604F09D
:101E0000EFFA00234FF0FF3A5246194660690DF091
:101E1000F3F8012886D186F800B00D20707086F89E
:101E20000280F87839790844797910FB01F0F07074
:101E3000020A3271010C7171030EB37186F80790BA
:101E400035727572B572F572AA301144084418449F
:101E50000B303073862070730D227049704802F089
:101E600022FC002352461946E0680DF0C5F801280F
:101E700086D10DF0F5FB20626A48CDE9010501210C
:101E800000234A0203950091AFF61C7166480DF0DD
:101E9000DDF9664D40F23551284605F0DBFA642144
:101EA000284605F045FC6068002886D004B0BDE8EF
:101EB000F05F0DF033BA5D4D00220221284605F097
:101EC00058FE0021284605F033FC0025CAF80050D2
:101ED0004FF400414F4804F081FADFF83CA1332170
:101EE000504604F07BFA0821504604F079FA0023AA
:101EF0004FF0FF3A5246194660690DF07DF801280F
:101F000088D186F800B00D20707086F80280F878CD
:101F100039790844797910FB01F0F070010A3171C8
:101F2000020C7271030EB37186F8079035727572E8
:101F3000B572F572AA301144084418440B3030735E
:101F4000862070730D223549354802F0ACFB002322
:101F500052461946E0680DF04FF8012888D10DF07F
:101F60007FFB20622F48CDE9010501214A02009143
:101F7000002303952E492C480DF068F92B4D40F2B3
:101F80003551284605F066FA6421284605F0D0FB55
:101F90006068002889D004B0BDE8F05F0DF0BEB9DC
:101FA000224D00220221284605F0E3FD00212846AB
:101FB00005F0BEFB0025CAF800504FF4004115485B
:101FC00004F00CFADFF850A03321504604F006FA72
:101FD0000821504604F004FA00234FF0FF3A52461D
:101FE000194660690DF008F8012889D186F800B01B
:101FF0000D20707086F80280F87839790844797974
:1020000010FB01F0F070010A3171020C7271030EC5
:10201000B3710FE0000002400010024024030020D2
:1020200000100140080000203D04000800040040AA
:10203000700F000886F8079035727572B572F572E8
:10204000AA301144084418440B3030738620707352
:102050000D22FE49FE4802F026FB00235246194697
:10206000E0680CF0C9FF0128BFD10DF0F9FA206239
:10207000F848CDE9010501214A02009100230395AA
:10208000F549F6480DF0E2F8F54D40F23551284695
:1020900005F0E0F96421284605F04AFB6068002855
:1020A0007ED004B0BDE8F05F0DF038B9EC4D0022F1
:1020B0000221284605F05DFD0021284605F038FB89
:1020C0000025CAF800504FF40041E64804F086F9B4
:1020D0003B21E54804F082F900234FF0FF3A5246D5
:1020E000194660690CF088FF0128BDD186F800B060
:1020F0000D20707086F80280F87839790844797973
:1021000010FB01F0F070020A3271010C7171030EC4
:10211000B37186F8079035727572B572F572AA3090
:102120001144084418440B303073862070730D221C
:10213000C649C74802F0B7FA002352461946E0687C
:102140000CF05AFF01288FD10DF08AFA2062C148A5
:10215000CDE9010501214A02009100230395BE4902
:10216000BE480DF073F8BE4D40F23551284605F0DB
:1021700071F96421284605F0DBFA606800288FD0E9
:1021800004B0BDE8F05F0DF0C9B8B54D00220221E2
:10219000284605F0EEFC0021284605F0C9FA00E0CB
:1021A00040E20025CAF800504FF40041AD4804F069
:1021B00015F93B21AC4804F011F900234FF0FF3A28
:1021C0005246194660690CF017FF01288DD186F838
:1021D00000B00D20707086F80280F87839790844D4
:1021E000797910FB01F0F070020A3271010C717103
:1021F000030EB37186F8079035727572B572F57279
:10220000AA301144084418440B3030738620707390
:102210000D228E498E4802F046FA00235246194696
:10222000E0680CF0E9FE01288DD10DF019FA20626A
:10223000012088498DE8230042020023864987480F
:1022400003950DF003F8864D40F23551284605F010
:1022500001F96421284605F06BFA606800288ED0E9
:1022600004B0BDE8F05F0DF059B87D4D00220221A9
:10227000284605F07EFC0021284605F059FA002585
:10228000CAF800504FF40041764804F0A7F83B210B
:10229000754804F0A3F800234FF0FF3A5246194660
:1022A00060690CF0A9FE012890D186F800B00D20DD
:1022B000707086F80280F87839790844797910FBD3
:1022C00001F0F070010A3171020C7271030EB371EA
:1022D00086F8079035727572B572F572AA3011449E
:1022E000084418440B303073862070730D22574910
:1022F000574802F0D8F9002352461946E0680CF01E
:102300007BFE012890D10DF0ABF9206201205149EC
:102310008DE82300420200234F49504803950CF0FA
:1023200095FF4F4D40F23551284605F093F8642152
:10233000284605F0FDF96068002890D004B0BDE89B
:10234000F05F0CF0EBBF464D00220221284605F05D
:1023500010FC0021284605F0EBF90025CAF80050D2
:102360004FF400413F4804F039F83B213E4804F067
:1023700035F800234FF0FF3A5246194660690CF0D9
:102380003BFE012890D186F800B00D20707086F8D1
:102390000280F87839790844797910FB01F0F070FF
:1023A000010A3171020C7271030EB37186F8079045
:1023B00035727572B572F572AA301144084418442A
:1023C0000B303073862070730D222049204802F0B4
:1023D0006AF9002352461946E0680CF00DFE012808
:1023E00090D10DF03DF920621A48CDE90105012197
:1023F0004A02009100230395174918480CF026FF64
:10240000174D40F23551284605F024F8642128463E
:1024100005F08EF9606800288FD004B0BDE8F05F49
:102420000CF07CBF0E4D00220221284605F0A1FBD6
:102430000021284605F07CF90025CAF800504FF429
:102440000041084803F0CAFF33210FE024030020B5
:102450000010014008000020700F00083D04000833
:10246000000400400000024000100240DFF85CA4BD
:10247000504603F0B3FF0821504603F0B1FF00239C
:102480004FF0FF3A5246194660690CF0B5FD01283D
:10249000A6D186F800B00D20707086F80280F8781A
:1024A00039790844797910FB01F0F070010A317133
:1024B000020C7271030EB37186F807903572757253
:1024C000B572F572AA301144084418440B303073C9
:1024D000862070730D22FE49FE4802F0E4F80023C6
:1024E00052461946E0680CF087FD0128D0D10DF066
:1024F000B7F82062F848CDE9010501214A020091B0
:1025000000230395F549F6480CF0A0FEF54D40F286
:102510003551284604F09EFF6421284605F008F94D
:10252000606800287ED004B0BDE8F05F0CF0F6BE15
:10253000EC4D00220221284605F01BFB0021284615
:1025400005F0F6F80025CAF800504FF40041E648BF
:1025500003F044FF3B21DD4803F040FF00234FF030
:10256000FF3A5246194660690CF046FD01288FD1AA
:1025700086F800B00D20707086F80280F8783979FE
:102580000844797910FB01F0F070020A3271010CF5
:102590007171030EB37186F8079035727572B5725A
:1025A000F572AA301144084418440B303073862069
:1025B00070730D22C649C74802F075F800235246D1
:1025C0001946E0680CF018FD01288FD10DF048F88D
:1025D0002062C148CDE9010501214A020091002392
:1025E0000395BE49BE480CF031FEBE4D40F2355158
:1025F000284604F02FFF6421284605F099F860680A
:1026000000288FD004B0BDE8F05F0CF087BEB54D58
:1026100000220221284605F0ACFA0021284605F0E8
:1026200087F800E007E20025CAF800504FF40041A7
:10263000AD4803F0D5FEDFF894A20821504603F020
:10264000CFFE3321504603F0C9FE00234FF0FF3A7E
:102650005246194660690CF0CFFC012887D186F8F4
:1026600000B00D20707086F80280F878397908443F
:10267000797910FB01F0F070020A3271030C73716A
:10268000010EB17186F8079035727572B572F572E8
:10269000AA301A44104408440B30307386207073FB
:1026A0000D228B498B4801F0FEFF0023524619464C
:1026B000E0680CF0A1FC012887D10CF0D1FF20626A
:1026C000884D40F23551284604F0C4FE00212846CA
:1026D00005F02EF86068002893D004B0BDE8F05FE4
:1026E0000CF01CBE7F4D00220221284605F041FA65
:1026F0000021284605F01CF80025CAF800504FF4C8
:102700000041794803F06CFE3B21704803F066FEFF
:1027100000234FF0FF3A5246194660690CF06CFCFA
:1027200001289BD186F800B00D20707086F80280D9
:10273000F87839790844797910FB01F0F070020AD1
:102740003271030C7371010EB17186F80790357206
:102750007572B572F572AA301A44104408440B30F1
:102760003073862070730D2259495A4801F09BFF3F
:10277000002352461946E0680CF03EFC01289BD12C
:102780000CF06EFF2062574D40F23551284604F0A0
:1027900061FE0021284604F0CBFF606800289BD032
:1027A00004B0BDE8F05F0CF0B9BD4E4D002202212F
:1027B000284605F0DEF90021284604F0B9FF00257F
:1027C000CAF800504FF40041474803F007FEDFF815
:1027D000FCA00821504603F003FE3321504603F0CD
:1027E000FDFD00234FF0FF3A5246194660690CF098
:1027F00003FC012895D186F800B00D20707086F892
:102800000280F87839790844797910FB01F0F0708A
:10281000010A3171020C7271030EB37186F80790D0
:1028200035727572B572F572AA30114408441844B5
:102830000B303073862070730D222549254801F036
:1028400032FF002352461946E0680CF0D5FB012800
:1028500095D10CF005FF2062224D40F235512846FB
:1028600004F0F8FD6421284604F062FF6068002847
:1028700095D004B0BDE8F05F0CF050BD194D0022BA
:102880000221284605F075F90021284604F050FF82
:102890000025CAF800504FF40041134803F09EFD94
:1028A0003B210A4803F09AFD00234FF0FF3A5246BD
:1028B000194660690CF0A0FB01289BD186F800B096
:1028C0000D20707086F80280F8780FE0001002404A
:1028D000240300200010014008000020700F0008B1
:1028E0003D0400080004004000000240397908441B
:1028F000797910FB01F0F070010A3171020C7271EC
:10290000030EB37186F8079035727572B572F57261
:10291000AA301144084418440B3030738620707379
:102920000D22B449B44801F0BEFE002352461946B8
:10293000E0680CF061FB01287DD10CF091FE206273
:10294000AE4D40F23551284604F084FD64212846FE
:1029500004F0EEFE606800286DD004B0BDE8F05FC2
:102960000CF0DCBCA54D00220221284605F001F93F
:102970000021284604F0DCFE0025CAF800504FF480
:1029800000419F4803F02AFDDFF878A2022150465B
:1029900003F026FD3921504603F020FD00234FF0BF
:1029A000FF3A5246194660690CF026FB012842D1D5
:1029B00086F800B00D20707086F80280F8783979BA
:1029C0000844797910FB01F0F070020A3271010CB1
:1029D0007171030EB37186F8079035727572B57216
:1029E000F572AA301144084418440B303073862025
:1029F00070730D227F49804801F055FE0023524636
:102A00001946E0680CF0F8FA012814D10CF028FE01
:102A100020627A4D40F23551284604F01BFD00211A
:102A2000284604F085FE6068002804D004B0BDE8A4
:102A3000F05F0CF073BCBDE8FF9F7FB51446002C1F
:102A40007ED06C486289803861680DF0BBF86948B7
:102A50006D4D8038007828702878002874D0287848
:102A6000FF2871D0287801286ED0287802286BD0F2
:102A70002878032868D02878042865D02878052885
:102A800062D0287806285FD0287807285CD028787C
:102A9000082859D02878092856D028780A2853D0F1
:102AA00028780B2850D028780C284DD028780D286D
:102AB0004AD028780E2847D028780F2844D0287884
:102AC000102841D0287811283ED0287812283BD0F1
:102AD0002878132838D02878142835D02878152855
:102AE00032D0287816282FD0287817282CD028788C
:102AF000182829D02878192826D028781A2823D0F1
:102B000028781B2820D028781D281DD028781F2839
:102B10001AD02878202817D02878212814D028788F
:102B2000222811D0287823280ED0287824280BD0EA
:102B30002878F02808D004B02046BDE8704001E0B5
:102B40001EE001E007F046BBA86808B10CF0E6FB08
:102B5000686808B10CF0E2FB2B490020091DCDE9A3
:102B600001100122034600920390520227A12B4834
:102B70000CF06CFB04B02046BDE8704007F02ABBA7
:102B80007FBD70B504461C4DE1B2284604F081F8C3
:102B90004021284604F01FF90028F9D0204670BDD6
:102BA0000FB430B5C1B045AB4FF4807101A8449A61
:102BB0000DF09AFB05460022A9B2104607F033FB40
:102BC000174C206040682A4601A90CF0FBFF2168E1
:102BD0004D81144800901448144A03881448006832
:102BE00006F0C5FF206807F0F5FA41B030BC5DF88B
:102BF00014FB0000240300200010014000040040EA
:102C000000000240001002400000002050524F43DC
:102C100045535320434F4D4D414E4400F9090008A0
:102C20004400002054030020BE0D01084000002095
:102C30003C0000200CB50022019200925549086822
:102C400040F4803008604FF4A043086800F400307E
:102C500000900198401C0190009810B9019898428A
:102C6000F3D10868800302D50120009000E00092B3
:102C70000098012831D147484030026842F0805224
:102C800002604548026842F4404202604148083010
:102C900002680260026842F400420260026842F484
:102CA000A0520260021F3D4B13600A6842F080721E
:102CB0000A600A689201FCD5394A40F20561116048
:102CC000016821F003010160016841F00201016027
:102CD0000168C1F381010229FAD10CBD10B52D485C
:102CE000016841F0010101602A4A002108321160A7
:102CF00002682C4B1A400260031D2B4A1A600268BE
:102D000022F48022026023480C300160FFF792FF1A
:102D100026494FF00060086010BD70B51D4E0836A2
:102D2000306800F00C00224B224900280FD05D10C3
:102D300004280ED008280ED00B6030681D4AC0F35E
:102D40000310121D105C0A68C2400A6070BD0B605F
:102D5000F3E70D60F1E70F4A121D1068C0F38054CD
:102D6000106800F03F0034B1B5FBF0F01368C3F316
:102D70008813584305E0B3FBF0F01368C3F38813DE
:102D800058431268C2F30142521C5200B0FBF2F0E9
:102D90000860D2E700380240007000400848400652
:102DA000003C0240FFFFF6FE1030002408ED00E07A
:102DB0000024F400240000207047FEE7FEE7FEE751
:102DC000FEE77047704770470CF05ABE08B5002008
:102DD0000090402005F032FC012806D1A3480023D2
:102DE0006A46194600680CF0BDF8402005F044FC26
:102DF0004FF4803005F040FC0098002801D00CF022
:102E000028FE08BD10B5012002F097FF00280ED063
:102E1000012002F0A0FF0121954803F0CBFAC14345
:102E20009448426922F0200242EA4111416110BDFA
:102E300010B5022002F081FF00280ED0022002F01F
:102E40008AFF02218A4803F0B5FAC14389484269E2
:102E500022F0080242EAC101416110BDF8B54FF409
:102E60008066304602F069FF834C844D68B130467D
:102E700002F071FF3146284603F09CFA6169C043B5
:102E800021F0800141EAC01060614FF400663046D5
:102E900002F053FF78B1304602F05DFF314628461C
:102EA00003F088FAC24372481430016821F40061CB
:102EB00041EAC22101604FF48056304602F03DFFE6
:102EC00070B1304602F047FF3146284603F072FAEF
:102ED000C1436848426922F4807242EA012141619B
:102EE0004FF40056304602F028FF00281CD0002086
:102EF0000090304602F02FFF3146284603F05AFA80
:102F00006169C04321F0400141EA801060613146AF
:102F1000284603F04FFA012806D1594800236A4693
:102F2000194600680CF01EF8F8BD38B5554D022161
:102F3000284604F034FE00281AD00221284604F066
:102F40003AFE514C226840F2E65140F242430E2ACA
:102F50000ED2DFE802F0070E1720273039424B541B
:102F60005D666E76284604F075FA2068401C206085
:102F700038BD4FF4C861284604F06CFA2068401C44
:102F8000206038BD40F22261284604F063FA2068D0
:102F9000401C206038BD284604F05CFA2068401CC4
:102FA000206038BD40F2BE51284604F053FA206834
:102FB000401C206038BD40F26451284604F04AFAB3
:102FC0002068401C206038BD40F21451284604F0AF
:102FD00041FA2068401C206038BD40F2BA412846C2
:102FE00004F038FA2068401C206038BD4FF491612D
:102FF000284604F02FFA2068401C206038BD40F2BB
:103000006A41284604F026FA2068401C206038BD3A
:1030100040F29241284604F01DFA2068401C2060CE
:1030200038BD1946284604F015FA2068401C206077
:1030300038BD1946284604F00DFA2068401C20606F
:1030400038BD40F23551284604F004FA00212160D1
:1030500000220221284604F08CFD0C4800236A4619
:10306000194600680BF07EFF38BD00001C020020EE
:10307000000C024000000240001002400008024024
:103080000C00002000040040380000201000002048
:1030900010B586B00021084606F034FC1B480AF043
:1030A00001FE05906FF0FF000AF0FCFD0490174848
:1030B000801E0AF0F7FD039016490022CDE9002199
:1030C0001348029003AB04AA05A9134807F002F8BD
:1030D000114807F022F8104807F05AF80B48401E34
:1030E0000AF0E0FD0D49086006F0F9FD0B4C241FC5
:1030F000206043F239020A4906F00AFD002209491C
:10310000206806F0D5FD06B010BD00000301A8C080
:10311000B59700081FEA0008540300204000002073
:103120004CD001083B2A000800B5AFB001214FF098
:10313000606003F0B6FA04F0FBFD05F072FA05F0EA
:1031400076FA0128FBD0684604F0FEFD01200090CD
:10315000002007904FF400710A910B900E9011908F
:10316000139014901590490009912090C903219162
:103170000A112392259026900420289029918003FB
:103180002A9080012B9040122C9040002E9000211C
:10319000684604F076FE664908600121654805F03E
:1031A00058FA2FB000BD08B54FF4A06003F052FEEE
:1031B0003D208DF8000002208DF8010000208DF8E0
:1031C000020001208DF80300684603F048FE08BDA8
:1031D000FEB50121072003F064FA0121880303F002
:1031E00090FA012003F046FC8620009003208DF821
:1031F000050002248DF8044000258DF806508DF856
:1032000007504D4E6946304603F080F80B220121ED
:10321000304603F0F3F80B220221304603F0EEF8BB
:103220000B220721304603F0E9F84FF4705000906C
:10323000424E6946304603F069F80B220A213046B7
:1032400003F0DCF80B221146304603F0D7F80B22CE
:103250000C21304603F0D2F80B220D21304603F04A
:10326000CDF832200090364E6946304603F04EF8D5
:103270000B220121304603F0C1F80B220421304615
:1032800003F0BCF80B220521304603F0B7F8042008
:10329000009001208DF804008DF806508DF807008D
:1032A0008DF80540274E6946304603F02FF804217B
:1032B000304603F095F8029544F6206402E0029946
:1032C000491C02910299A142F9D30421304603F02E
:1032D00085F8029502E00298401C02900298A042F4
:1032E000F9D3FEBD10B5FFF773FFFFF75CFFFFF7E3
:1032F0001BFF0F480068002819D14FF4784001F0F7
:10330000A7FE01F0B4FEC0880FA100EB800080B2E0
:1033100001F056FF01F0ABFEC0884FF6FF7100EBE5
:10332000400001EA40000DA101F04AFFFEE710BD98
:10333000480000204000010000000240000402405C
:103340000008024000100240202020457468657289
:103350006E657420496E6974202020002020202092
:1033600020206661696C65642020202020200000F8
:103370000020344900EB400201EBC202127D22B171
:10338000401C0A28F6DB0020704700EB400001EBF0
:10339000C00001220275704700212A4A01EB410357
:1033A00002EBC303834206D101EB410102EBC101F1
:1033B000002008757047491C0A29EFDB704770B57B
:1033C0000646FFF7D5FF0546280001D01E4C07E052
:1033D000002070BD304661680CF037FC38B12468BD
:1033E000002CF7D12846FFF7D7FF002070BDA0685A
:1033F0002860E0686860E068A8600020E860207CE1
:103400002874284670BDC7E770B505460B46D5E958
:103410000110884202D14FF0FF3070BD0C1A944267
:1034200000DD144629682246014418460CF0CAFB08
:10343000A8682044A860204670BDD0E90110081A91
:10344000704700008C03002020B7010810B5ADF5CF
:10345000047D044600200190029003904FF4007117
:1034600004A80CF0C8FB7F480268521C02607EA1D1
:1034700001A80CF025FF01A904A80CF0C7FB7BA153
:1034800004A80CF0C3FB86A104A80CF0BFFB04A8A1
:103490000CF0D4FB04A908440CF02FF98EA104A869
:1034A0000CF0B4FB9AA104A80CF0B0FBA7480CF0F8
:1034B000C5FB02460123A549204605F03FFB04A8B1
:1034C0000CF0BCFB0246012304A9204605F036FBA4
:1034D0000DF5047D10BD7CB50646304605F0A2FA18
:1034E0000546280049D0307A002846D16A4601A90D
:1034F000284606F080F8BDF8000005283DD30522D7
:1035000093A101980CF0BCFB002836D11B2292A19C
:1035100001980CF0B5FB002836D01E2295A1019829
:103520000CF0AEFB00283DD01D229AA101980CF0B2
:10353000A7FB002844D018229EA101980CF0A0FB04
:1035400000284BD01322A2A101980CF099FB00286F
:1035500048D00622A3A101980CF092FB002841D08C
:10356000A2A0FFF72CFF04460023D4E90012304646
:1035700005F0E4FA2046FFF746FF304605F0F9FA79
:10358000284605F0CEFF7CBD74A0FFF718FF044667
:103590000023D4E90012304605F0D0FA2046FFF7A8
:1035A00032FFEAE774A0FFF70AFF04460023D4E9DC
:1035B0000012304605F0C2FA2046FFF724FFDCE790
:1035C00075A0FFF7FCFE04460023D4E90012304644
:1035D00005F0B4FA2046FFF716FFCEE73046FFF7B6
:1035E00035FFCAE77BA0FFF7EAFE04460023D4E9D3
:1035F0000012304605F0A2FA2046FFF704FFBCE7B0
:1036000070B500221146102005F05EF90446CCB1D9
:1036100050220021204605F0A5F920B1BDE87040F8
:1036200075A00CF03DBEFF21204605F0D4F92046E0
:1036300005F0E2F905462846FFF74DFF284605F05C
:1036400064F9F4E7BDE8704071A00CF029BE08B53C
:10365000032000904FF4FA730022734973A00BF01B
:10366000D8FA08BD4C000020256400003C7072654B
:103670003E3C62723E4E616D65202020202020205D
:10368000202020537461746520205072696F726924
:1036900074792020537461636B2020204E756D0077
:1036A0003C62723E2D2D2D2D2D2D2D2D2D2D2D2DB0
:1036B0002D2D2D2D2D2D2D2D2D2D2D2D2D2D2D2D3A
:1036C0002D2D2D2D2D2D2D2D2D2D2D2D2D2D2D2D2A
:1036D0002D3C62723E0000003C62723E3C62723ED3
:1036E0002D2D2D2D2D2D2D2D2D2D2D2D2D2D2D2D0A
:1036F0002D2D2D2D2D2D2D2D2D2D2D2D2D2D2D2DFA
:103700002D2D2D2D2D2D2D2D2D2D2D2D2D00000070
:103710003C62723E42203A20426C6F636B65642CBF
:103720002052203A2052656164792C2044203A20AE
:1037300044656C657465642C2053203A205375737E
:1037400070656E6465643C62723E000034B70108C7
:10375000474554202F000000474554202F53544D17
:103760003332463478375F66696C65732F53542E55
:1037700067696600474554202F53544D3332463411
:1037800078375F66696C65732F73746D33322E6A98
:1037900070670000474554202F53544D3332463450
:1037A00078375F66696C65732F6C6F676F2E6A7010
:1037B00067000000474554202F53544D33324634A0
:1037C00078375441534B532E68746D6C00000000E1
:1037D000474554202F53544D3332463478372E68A2
:1037E000746D6C00474554202F2000002F34303476
:1037F0002E68746D6C00000063616E206E6F742023
:1038000062696E64206E6574636F6E6E0000000006
:1038100063616E206E6F7420637265617465206EE3
:103820006574636F6E6E0000013600084854545092
:10383000000000002DE9FC4104460E46FE49FE480A
:10384000103150F8240051F824100843012102F0EF
:1038500028FFF9481038ECB350F82400012102F099
:1038600044FFF548F54F203810F81420103830F890
:10387000141057F8240002F0C1FDEF4807F11008BA
:10388000183810F81420103830F8141058F82400A4
:1038900002F0B4FD00208DF8060001208DF807002D
:1038A00002258DF80450E448403830F814000090A8
:1038B0008DF8055057F82400694602F027FD8DF871
:1038C0000450DD48383830F81400009058F82400CF
:1038D000694600E00FE002F019FDA7F1100531463E
:1038E00055F8240003F030F955F82400012103F0C5
:1038F000A4F9BDE8FC810068012102F002FFB0E7F5
:103900002DE9F04385B00121084602F0CAFE0121ED
:10391000042002F0C6FE0121082002F0C2FE0121AF
:10392000102002F0BEFE0121880302F0EAFE48F2F8
:103930002816039601258DF8105000248DF81240AA
:103940008DF8135002278DF81170DFF8F48203A967
:10395000404602F0DBFC3146404602F03FFD4FF4AA
:103960000068CDF80C808DF810508DF812408DF85D
:1039700013508DF81170B34E03A9304602F0C6FC07
:103980004146304602F02AFDFB2003908DF810508E
:103990008DF812408DF813508DF81170DFF8A89251
:1039A00003A9484602F0B2FCFB21484602F016FD8E
:1039B0004FF44A7003908DF810408DF8134003A91E
:1039C000A24802F0A3FC4FF4705003908DF8104011
:1039D0008DF8134003A99E4802F098FC9F200390A5
:1039E0008DF810408DF8134003A9304602F08EFC8C
:1039F0000A21022003F02BF80B21022003F027F804
:103A00000C21022003F023F80D21022003F01FF8FF
:103A10000021032003F01BF80121032003F017F815
:103A20008DF8084010268DF809608DF80A50019530
:103A300001A802F031F98DF808408DF809608DF881
:103A40000A50019701A802F027F98DF808408DF877
:103A500009608DF80A50A802019001A802F01CF933
:103A60008DF808408DF809608DF80A50CDF8048073
:103A700001A802F011F98DF808408DF809608DF861
:103A80000A502803019001A802F006F98DF80840B9
:103A90008DF809608DF80A506803019001A802F0C2
:103AA000FBF88DF801408DF802408DF80350062098
:103AB0008DF80000684603F0D2F907208DF8000069
:103AC000684603F0CCF928208DF80000684603F022
:103AD000C6F905B0BDE8F083F0B58BB00121022036
:103AE00002F0DFFD1020099002268DF828600320E7
:103AF0008DF8290000248DF82A4001258DF82B50DF
:103B0000524F09A9384602F001FC0222042138462E
:103B100002F074FC0121022002F0E7FD06A803F088
:103B200085FC4C4844F620610068B0FBF1F0401E73
:103B3000ADF81800ADF81A4040F234500790ADF8D7
:103B40002040454F06A9384603F040FC0121384685
:103B500003F09EFC6021ADF80410ADF8065003940C
:103B6000ADF8106001A9384603F0BAFC08213846C8
:103B700003F006FE0121384603F0A6FC1D208DF857
:103B800000008DF801408DF802408DF80350684622
:103B900003F065F90BB0F0BD30B585B0012104200C
:103BA00002F07FFD0121082002F07BFD0121880346
:103BB00002F0A7FD00248DF810408DF812404FF45C
:103BC000705003908DF8134003258DF8115003A910
:103BD0001F4802F09BFB8DF810408DF812400395B2
:103BE0008DF813408DF8115003A9164802F08EFB92
:103BF0000A21022002F02BFF0B21022002F027FFF6
:103C00000C21022002F023FF0D21022002F01FFFF1
:103C10000021032002F01BFF0121032002F017FF07
:103C200001258DF80A508DF8084010208DF8090004
:103C30008001019001A811E0B0BD010860000020E2
:103C400000000240000C024000100240000402404C
:103C500000080240240000200004004002F01CF88C
:103C6000E802019001A802F017F82803019001A8CA
:103C700002F012F86803019001A802F00DF8019516
:103C800001A802F009F80220019001A802F004F84E
:103C90008DF801408DF802408DF8035028208DF8F2
:103CA0000000684603F0DBF806208DF80000684647
:103CB00003F0D5F807208DF80000684603F0CFF830
:103CC00005B030BD08B5012240F22551084803F087
:103CD00067F825208DF8000000208DF801008DF890
:103CE000020001208DF80300684603F0B8F808BD13
:103CF0000010014010B5804A1823904205D27F4A37
:103D00007F4C2044B0FBF3F006E07B4A083A7A4C43
:103D100064422044B0FBF3F0042801D3121D001FBD
:103D2000784B01F03D01185C8140116010BD3D21D0
:103D3000E0E771491822884206D270490839704B71
:103D40001844B0FBF2F006E06B4910396A4B5B4255
:103D50001844B0FBF2F0042801D3091D001F0968C4
:103D6000684A105CC14001F03D00704738B5044618
:103D70003D212046FFF7BEFF624A5F4B1820121D0F
:103D800001219C4209D25E4B2344B3FBF0F08DF835
:103D90000110125C8DF800200AE0574B5B4223446F
:103DA000B3FBF0F08DF801100244127A8DF8002078
:103DB0008DF803108DF80200684603F050F8206873
:103DC00040F01E002060606940F08000606138BDF6
:103DD00010B504463D212046FFF78CFF4949464A6D
:103DE0001820091D944205D2454A2244B2FBF0F046
:103DF000085605E0404A52422244B2FBF0F0085611
:103E0000012100F01F0291404009800000F1E020F4
:103E1000C0F88011206820F01E002060606900F06A
:103E20008000606110BD70477047704770477047F1
:103E300070B505463D212846FFF77BFF84B23D2142
:103E40002846FFF757FFA00605D52868C00602D50B
:103E50002846FFF7E8FFE00605D52868000702D5E9
:103E60002846FFF7E1FF200705D52868400702D55F
:103E70002846FFF7DAFF600705D52868800702D5D6
:103E80002846FFF7D3FFE00705D06869000602D592
:103E90002846FFF7CCFF70BD18480830C8E7174820
:103EA0002030C5E715483830C2E714485030BFE726
:103EB00012486830BCE711488030B9E70F489830A5
:103EC000B6E70E48B030B3E70B48B1E70A48183000
:103ED000AEE709483030ABE707484830A8E7064866
:103EE0006030A5E704487830A2E7034890309FE7A8
:103EF0000148A8309CE700001064024008600240BE
:103F0000F09FFDBFD0BD01080146F64A914200D1A5
:103F10000020F54A914200D10120F44A914200D19B
:103F20000220F34A914200D10420F24A914200D18A
:103F30000520F14A914200D10620704770477CB5B8
:103F4000044608260325002C07D1CDE9005601239D
:103F50000022C021E94800F07CFC012C08D1CDE909
:103F60000056012300224FF48441E54800F071FC23
:103F7000032C03D10821E048FFF7E0FF7CBD7CB5AE
:103F80000446002C11D108250326CDE90065012344
:103F900000221903D94800F05CFCCDE9006501233B
:103FA00000220421D74800F054FC032C03D108213F
:103FB000D048FFF7C3FF7CBD7CB504460826032527
:103FC000002C07D1CDE90056012300220321CE4861
:103FD00000F03FFC012C08D1CDE90056012300225E
:103FE0004FF44061C54800F034FC032C03D1082194
:103FF000BF48FFF7A3FF7CBD2DE9FC41044607261F
:1040000003254FF44067002C07D1CDE9005601236A
:1040100000223946BD4800F01CFC012C07D1CDE937
:104020000056012300223946B44800F012FC022C4D
:1040300008D1CDE90056012300224FF44071B14868
:1040400000F007FC032C03D10721A848FFF776FFF7
:10405000BDE8FC817CB5044607260325002C07D16A
:10406000CDE90056012300220C21A74800F0F1FB06
:10407000012C07D1CDE90056012300226021A1487F
:1040800000F0E7FB032C03D107219748FFF756FF09
:104090007CBD7CB5044607260325002C07D1CDE95D
:1040A0000056012300226902974800F0D2FB012C40
:1040B00007D1CDE9005601230022C021934800F02A
:1040C000C8FB032C03D107218648FFF737FF7CBDCF
:1040D0000146844A914200D18D48834A914201D1E0
:1040E0008B481030814A914201D189482030804A62
:1040F000914201D1864830307E4A914201D18448B4
:1041000040307D4A914201D18148503070472DE9BD
:10411000FF4F87B00446DDE9159ADDF8508016465A
:104120001F462046FFF7D4FF054603966D48DFF88B
:10413000E4B184420BD1DBF8000040F01000CBF872
:1041400000000898FFF7A5FF25208DF80800714EA4
:104150006548361F844209D1306840F40030306031
:104160000898FFF777FF26208DF808005F48844203
:1041700009D1306840F4802030600898FFF73CFF98
:1041800027208DF808005A48844209D1306840F44D
:10419000002030600898FFF70FFF34208DF80800EA
:1041A0005448844209D1306840F480103060089847
:1041B000FFF7E5FE35208DF808004F4884420BD10B
:1041C000DBF8000040F02000CBF800000898FFF773
:1041D000B6FE47208DF80800204602F061FC01265B
:1041E0008DF80B6006208DF809002046FFF78CFE45
:1041F0008DF80A0002A802F032FEADF81870ADF892
:104200001680ADF81490ADF812A01798ADF8100014
:104210000020287340F6FF7001900198411E019123
:10422000FBD203A9204602F08FFCA08940F02000B9
:10423000A0812E73A08940F40050A0810BB0BDE88E
:10424000F08F2DE9FF4104460F4690462548002592
:104250000C26844208D1CDE9006502950023424630
:1042600039460395FFF753FF1F48844208D1CDE933
:10427000006502950023424639460395FFF747FF44
:104280001A48844208D1CDE90065029500234246D0
:1042900039460395FFF73BFF1548844208D1CDE925
:1042A000006502950023424639460395FFF72FFF2C
:1042B0001048844208D1CDE90065029500234246AA
:1042C00039460395FFF723FF0B48844208D1CDE917
:1042D000006502950023424639460395FFF717FF14
:1042E000BDE8FF810010014000440040004800404C
:1042F000004C004000500040001401400008024003
:1043000000180240000C024000000240000402407D
:1043100080000020443802402DE9FF4704460F4644
:1043200090469946A94800250C26844208D1CDE93B
:10433000006502954B46424639460395FFF7E7FE76
:10434000A348844208D1CDE9006502954B46424618
:1043500039460395FFF7DBFE9E48844208D1CDE93C
:10436000006502954B46424639460395FFF7CFFE5E
:104370009948844208D1CDE9006502954B464246F2
:1043800039460395FFF7C3FE9448844208D1CDE92E
:10439000006502954B46424639460395FFF7B7FE46
:1043A0008F48844208D1CDE9006502954B464246CC
:1043B00039460395FFF7ABFEBDE8FF8710B5002334
:1043C000FFF786FEC18819B902894489A2420DD03F
:1043D000428983889A4201D100224281036842893E
:1043E0009B56521C428109B1491EC180D8B210BDF2
:1043F00010B50C46FFF76CFEC38842890DE081883A
:10440000914200D100220168895CA14201D10120C2
:1044100010BD521C92B25B1E9BB2002BEFD100204C
:1044200010BD2DE9F04180460F4616460024404657
:10443000FFF74EFE0546E88840B1697B4046FFF72E
:10444000D7FF30B9E888A988884202D00020BDE8AB
:10445000F081761E08E04046FFF7B0FF3855697BD3
:10446000884203D0641CA4B2B442F4DB0021641C73
:10447000A0B23954EBE700B5FFF72AFEC18829B98D
:1044800001894089814201D1012000BD002000BD89
:1044900000B5FFF71DFEC1888088814201D101204F
:1044A00000BD002000BD00B5FFF712FE0021C18055
:1044B0000181418100BD00B50B46FFF709FE437342
:1044C00000BD10B503460C461846FFF701FE007B01
:1044D00000280BD007E019880906FCD59880641CD9
:1044E00018880006FCD520780028F4D110BD70B5DE
:1044F00004460D4616462046FFF7EAFD007B0028DD
:104500000DD0002309E020880006FCD5E85CA080DF
:1045100020880006FCD55B1C9BB2B342F3D370BD70
:10452000C388828893420DD20389934201D100222D
:10453000028103890268D1540189491C0181C18823
:10454000491CC180704721480188890603D58088AD
:10455000C1B22448E4E770471D480088800606D5AC
:104560001B48001D0088C1B21E481030D8E77047B4
:1045700018480088800606D51648001D0088C1B27C
:1045800018482030CCE7704713480088800606D5CD
:104590001148001D0088C1B212483030C0E7704792
:1045A0000E480188890604D58088C1B20D48403084
:1045B000B6E770470A480088800606D50848001DFF
:1045C0000088C1B207485030AAE770470010014088
:1045D0000044004000480040004C004000500040B3
:1045E00000140140800000200146584A914200D149
:1045F0005748584A914201D155480830564A91428D
:1046000001D153481030554A914201D150481830D9
:10461000534A914201D14E482030524A914201D131
:104620004B482830704710B5FFF7DEFF4E4B42680D
:104630004E499A4204D30A6842F480020A6003E0B9
:104640000A6842F400120A604068FFF770FB4848AD
:104650004021C160002141614FF480628261C161EB
:10466000016241628162C16203220263416381632C
:1046700010BD70B506460C4615463046FFF7B4FF30
:10468000446005603046BDE87040CCE710B5FFF7E8
:10469000ABFF406810BD10B5FFF7A6FF4068BDE84E
:1046A000104002F035BC2DE9F04105460F46164694
:1046B0002846FFF799FF04466068406810B1002063
:1046C000BDE8F0812A48216801600661291D41602A
:1046D00087606068FFF72BFB2549606802F0A3FC48
:1046E0006068016841F001010160A88A40F0800023
:1046F000A8820120E4E770B505460C4620460BF081
:104700009DFA82B221462846BDE87040CBE710B53D
:1047100004462046FFF768FF4068406808B1012062
:1047200010BD208840F3C010401C10BD10B5FFF72D
:104730005BFF4068BDE81040FFF718BB10B5FFF7FE
:1047400053FF4068BDE81040FFF742BB0010014036
:10475000E00000200044004000480040004C0040C1
:104760000050004000140140106402403038024004
:104770003C050020AC490844C0F38F2070472DE968
:10478000F04F0446DDE9099A88462046FFF7F2FF1C
:10479000C7B200204FF0030E0125854015EA080F2F
:1047A00032D0A24E36F81710294326F81710D4F845
:1047B0000CC046000EFA06F12CEA010C09FA06FBC1
:1047C0004CEA0B0CC4F80CC0D4F800C002FA06FB8B
:1047D0002CEA010C4CEA0B0CC4F800C0012A01D0F1
:1047E000022A11D1D4F804C0ADB22CEA050C03FAA8
:1047F00000F5ADB24CEA050CC4F804C0A5688D43C1
:104800000AFA06F10D43A560401CC0B21028C3D3BC
:10481000BDE8F08F00B5FFF7ADFF0121814084486E
:1048200002681143016000BD2DE9FC410746DDE946
:1048300008650C469046002C09D03846FFF7EAFF81
:10484000CDE90065424621463846FFF798FFBDE8AE
:10485000FC812DE9FC4F0746DDE90BB80E46924678
:104860009946002E22D03846FFF7D4FF00230121BD
:104870000F2201FA03F030420DD0D80807EB800474
:10488000206A5D07ED0E02FA05FC20EA0C0008FA2A
:1048900005F5284320625B1C102BEAD3CDE9009B71
:1048A0005346022231463846FFF769FFBDE8FC8FC8
:1048B0002DE9F04105460F462846FFF75BFFC4B2DD
:1048C00000225A484FF0010C03210CFA02F33B423C
:1048D0000CD02E684FEA420801FA08F846EA0806AA
:1048E0002E6030F814609E4320F81460521CD2B23F
:1048F000102AEAD3BDE8F081F0B500220125032695
:1049000005FA02F30B4205D00368570006FA07F4D4
:10491000A3430360521CD2B2102AF1D3F0BDF0B50C
:1049200000220127032507FA02F40C4209D0066889
:10493000530005FA03FC26EA0C0607FA03F42643A3
:104940000660521CD2B2102AEDD3F0BDF0B50022A1
:104950000125032605FA02F30B4205D00368570030
:1049600006FA07F423430360521CD2B2102AF1D393
:10497000F0BDF0B5002201270324022607FA02F356
:104980000B4209D00568530004FA03FC25EA0C0524
:1049900006FA03F31D430560521CD2B2102AEDD370
:1049A000F0BDF0B500230127032507FA03F40C42FC
:1049B00009D0C6685C0005FA04FC26EA0C0602FA77
:1049C00004F42643C6605B1CDBB2102BEDD3F0BDB4
:1049D00041F48032C261C161C261C169C06970477E
:1049E000002102E0491C89B240080128FAD8084693
:1049F000704700B5FFF7BEFE012181400C480268F8
:104A00008A43026000BD00B5FFF7B4FE074931F8E4
:104A1000100000BD00B5FFF7ADFE044931F81000ED
:104A2000C04380B200BD00000000FEBF780500203A
:104A30003038024070477CB5FFF7FCFF01210420AD
:104A400001F040FA042001F08FF94CF2037000905D
:104A500000208DF804008DF80700FB4D69462846BC
:104A600001F054FC00221146284601F0C7FC002248
:104A70000121284601F0C2FC00220821284601F04D
:104A8000BDFC00220921284601F0B8FC00220A21C1
:104A9000284601F0B3FC00220E21284601F0AEFCAE
:104AA00000220F21284601F0A9FC4FF680700090EB
:104AB000E64C6946204601F029FC002207212046E9
:104AC00001F09CFC00220821204601F097FC002206
:104AD0000921204601F092FC00220A21204601F023
:104AE0008DFC00220B21204601F088FC00220C21C5
:104AF000204601F083FC00220D21204601F07EFCBF
:104B000000220E21204601F079FC00220F212046D0
:104B100001F074FC4FF23F010091CD4E69463046E2
:104B200001F0F4FB00221146304601F067FC002240
:104B30000121304601F062FC00220221304601F0E2
:104B40005DFC00220321304601F058FC00220421C4
:104B5000304601F053FC00220521304601F04EFCA6
:104B600000220C21304601F049FC00220D21304684
:104B700001F044FC00220E21304601F03FFC0022EF
:104B80000F21304601F03AFC3F210091B14E6946B9
:104B9000304601F0BBFB00221146304601F02EFCEE
:104BA00000220121304601F029FC0022022130467A
:104BB00001F024FC00220321304601F01FFC0022FA
:104BC0000421304601F01AFC00220521304601F094
:104BD00015FC4FF4605100916946284601F096FBA0
:104BE00000220B21284601F009FC00220C21284656
:104BF00001F004FC00220D21284601F0FFFB3021CA
:104C000000916946284601F081FB002204212846D4
:104C100001F0F4FB00220521284601F0EFFB2115ED
:104C200000916946304601F071FB00220C213046AC
:104C300001F0E4FB032100916946204601F066FB88
:104C400000221146204601F0D9FB00220121204616
:104C500001F0D4FB7CBD2DE9FC4101213A2001F09B
:104C600020FD4CF23370009002208DF804008DF886
:104C7000050000248DF806408DF80740724F694604
:104C8000384601F043FB0C220021384601F0B6FB08
:104C90000C220121384601F0B1FB0C2204213846D8
:104CA00001F0ACFB0C220521384601F0A7FB0C22D9
:104CB0000821384601F0A2FB0C220921384601F0F8
:104CC0009DFB0C220A21384601F098FB0C220E2194
:104CD000384601F093FB0C220F21384601F08EFB81
:104CE0004FF680700090594E6946304601F00EFB39
:104CF0000C220721304601F081FB0C2208213046AE
:104D000001F07CFB0C220921304601F077FB0C22DC
:104D10000A21304601F072FB0C220B21304601F0D3
:104D20006DFB0C221146304601F068FB0C220D2170
:104D3000304601F063FB0C220E21304601F05EFB91
:104D40000C220F21304601F059FB082500956946D9
:104D5000304601F0DBFA0C220321304601F04EFB15
:104D6000802000906946384601F0D0FA0C220A21D2
:104D7000384601F043FB009501258DF804508DF86D
:104D800005408DF806408DF807406946384601F029
:104D9000BDFA6E0300968DF804508DF805508DF81D
:104DA00006408DF807406946384601F0AFFA3146B3
:104DB000384601F013FBBDE8FC8100B597B0012136
:104DC000084601F086FC0120019000200290092194
:104DD00003910490059006900790089009900A901E
:104DE00010210B910C900D900E900F9010900902D5
:104DF000119112901390149001A81590169008A884
:104E000000F0CAFF0121002001F05CF817B000BDDE
:104E10001149486070471149088070474FF0C042FF
:104E200010800E480180704701B581B042F21071C8
:104E300001984843009002E00098401E00900098BE
:104E40000028F9D10CBD0000000C02400010024007
:104E50000014024000180240100100200000106001
:104E600010B5FFF7F8FEFFF7A8FF0520FFF7DCFFFE
:104E7000FE4C0821204601F0B3FA0A20FFF7D4FFC8
:104E80000821204601F0AAFA01211020FFF7C6FFF1
:104E9000B2211E20FFF7C2FF06212820FFF7BEFF28
:104EA00001210020FFF7BAFF43F2EF010120FFF7D5
:104EB000B5FF4FF4C0610220FFF7B0FF00211020C2
:104EC000FFF7ACFF0520FFF7AFFF46F630011120DA
:104ED000FFF7A4FF40F699111220FFF79FFF4FF450
:104EE00060512620FFF79AFF33210720FFF796FF36
:104EF00005210C20FFF792FF00213020FFF78EFFE5
:104F000040F203313120FFF789FF40F207413220A0
:104F1000FFF784FF40F2013319463320FFF77EFF8D
:104F200019463420FFF77AFF40F203413520FFF79E
:104F300075FF40F207713620FFF770FF211537200B
:104F4000FFF76CFF4FF420613A20FFF767FFA114D1
:104F50003B20FFF763FF0A210D20FFF75FFF4FF4AF
:104F600038510E20FFF75AFF4FF46F414420FFF7EE
:104F700055FF00214520FFF751FF40F23F11462029
:104F8000FFF74CFF00214E20FFF748FF00214F2084
:104F9000FFF744FF00212220FFF740FF00224FF4DB
:104FA00096330020FFF737FF521C9A42F9D3BDE831
:104FB0001040AF482CE700B50B4601464E20FFF7E6
:104FC0002DFF19464F205DF804EB27E74FF0C04155
:104FD0000880A848008870474FF0C0412220088010
:104FE0007047A4480088704700B500210846FFF7C5
:104FF000E2FFFFF7F1FF00209E494FF478424FF4A3
:10500000C8430A80401C9842FBD34FF4FC624FF423
:10501000484301E00A80401C9842FBD31F224FF412
:10502000963301E00A80401C9842FBD300BD03B5D3
:10503000BDF800108E4808380180BDF8041041808A
:1050400000E78B4A083A138803805088088070472D
:1050500001B5BDF8000086490839088008BD01B5D2
:10506000BDF8000082490839488008BD7047804873
:105070000838406870472DE9F041054688461646D5
:10508000002429464046FFF796FF794F083F29E064
:10509000FFF7A2FF00231AE00C21B0FBF1F1C900D9
:1050A00080228A4036F814101A410A4201D10C2895
:1050B00005D901229A40114205D10C2803D97888DC
:1050C000FFF7A9FE02E03888FFF7A5FE5B1C7868B1
:1050D00080889842E0D86D1CADB229464046FFF763
:1050E0006AFF641C7868C088A042D1D8BDE8F0810E
:1050F00010B4203AD3B25E4A083A52681468D28893
:105100005A4304EB420210BCB5E7F0B50746002451
:10511000574D4FF4A076083D202221463846FFF730
:10512000E7FF68688188081984B2B442F4D3F0BDFF
:1051300030B50546002400210846FFF73CFFFFF785
:105140004BFF4C494FF496300D80641C8442FBD3D6
:1051500030BD2DE9F04380460D46164699460024A1
:1051600029464046FFF727FF414F083FB9F1000F9E
:1051700016D1FFF731FF03E03888FFF74CFE641CBF
:10518000B442F9D3BDE8F083FFF726FF3888FFF774
:1051900042FE6D1CADB229464046FFF70CFF641C71
:1051A000B442F1D3EEE7B0F5A07F08D2002906DBC8
:1051B000EF2904DC002389B280B20122C9E77047DD
:1051C0002DE9F04180460D460024294E4FF4A0778A
:1051D000083E0AE021464046FFF78AFF7068808853
:1051E000204484B2BC4281D26D1C2A78002AF1D1BD
:1051F0007CE770B504460D46164621464520FFF76C
:105200000DFEA219B2F5A07F05D340F23F11462052
:10521000FFF704FE03E091B24620FFF7FFFDEA1816
:10522000F02A02D34FF46F4200E01202224391B2FF
:105230004420FFF7F3FD29462046BDE87040BAE65A
:105240007047F0B504460F4615461E460123324608
:1052500039462046FFF77DFF6019401E80B20123CA
:1052600032463946FFF775FF002305E0000C024087
:1052700018010020000010602A4639462046FFF73A
:1052800068FFB81981B22A462046BDE8F0400023E5
:105290005FE72DE9FC4F804689460320A0EB4206DC
:1052A0000024154674E008EB040009EB050A0190A0
:1052B0001FFA8AF180B2FFF77EFEFFF78DFEFE4FE8
:1052C0003888FFF7A8FD0198A9EB050B1FFA8BF1B1
:1052D00080B2FFF770FEFFF77FFE3888FFF79BFD77
:1052E0001FFA8AF1A8EB040A1FFA8AF0FFF763FE9F
:1052F000FFF772FE3888FFF78EFD1FFA8BF11FFA59
:105300008AF0FFF758FEFFF767FE3888FFF783FD46
:1053100009EB040081B208EB050A00901FFA8AF03D
:10532000FFF749FEFFF758FE3888FFF774FDA9EB39
:10533000040B1FFA8BF11FFA8AF0FFF73CFEFFF710
:105340004BFE3888FFF767FD0098A8EB050A81B28D
:105350001FFA8AF0FFF72FFEFFF73EFE3888FFF7AF
:105360005AFD1FFA8BF11FFA8AF0FFF724FEFFF7B0
:1053700033FE3888FFF74FFD002E03DA06EB840674
:10538000B61D04E0601B06EB80060A366D1E641C29
:10539000AC4288D9BDE8FC8FF0B50646002440F247
:1053A0003F110020FFF707FEFFF716FEC24D012355
:1053B0004FF41667002256F8241003FA02F0014257
:1053C00003D16888FFF727FD02E02888FFF723FD57
:1053D000521C202AEFD3641CBC42EBD3F0BD7047B3
:1053E0002DE9F0430746894690461C46B24E308868
:1053F000FFF72EFE0023424649463846FFF7A9FE36
:1054000009EB040081B2002342463846FFF7A1FEB3
:105410000123224649463846FFF79BFE07EB08006A
:10542000401E80B2012322464946FFF792FE641EC9
:10543000A5B209F101091FFA89F47088FFF708FE87
:1054400007E02146641CA4B2002342463846FFF719
:1054500080FE6D1EADB2F4D23088BDE8F043F7E5B2
:105460002DE9F74F0746884602980321A1EB400635
:105470000024029D90484088FFF7EAFD4FF6FF792F
:1054800035E09DB109EA450208EB050A381B934651
:105490001FFA8AF180B20023FFF75BFE38195A46E3
:1054A0001FFA8AF180B20023FFF753FE9CB109EA8C
:1054B000440208EB040A781B93461FFA8AF180B273
:1054C0000023FFF746FE78195A461FFA8AF180B288
:1054D0000023FFF73EFE002E03DA06EB8406B61D1E
:1054E00004E0601B06EB80060A366D1E641CAC42AD
:1054F000C7D971480088FFF7ABFD029A03B0414657
:105500003846BDE8F04FC4E62DE9FC5F84460C4602
:105510000027A2EB0C00002801DCACEB020000B27B
:10552000191B002900DCE11A09B20FFA8CF526B22A
:105530004FF0FF3B624503D34FF00109CA4601E03B
:10554000D946DA46A34204D34FF0010B012201925F
:1055500001E0CDF804B088420ADB4FF000090022D8
:10556000019200EBD072521014B20091804623E0F9
:105570004FF0000AD34601EBD172521014B20090E2
:10558000884619E031462846FFF70DFE0098204472
:1055900004B2444508DBA4EB080004B205EB0900A3
:1055A00005B206EB0B0006B205EB0A0005B2019846
:1055B000304406B27F1C3FB24745E3DDBDE8FC9FA7
:1055C00070B504460D46022D0DD308E02088618891
:1055D000241D89B26388228880B2FFF795FF6D1E73
:1055E0002D042D0CF2D170BD2DE9F04704460F4675
:1055F0009146A046022F25D3B4F90050B4F90260B9
:1056000010E0241DB1B26088304483B22088284461
:1056100082B2A8B2FFF778FF2088284405B26088DC
:10562000304406B27F1E3F043F0CEAD1B9F1000FAF
:1056300008D0B3B2AAB2B8F80210B8F80000BDE8BA
:10564000F04761E7BDE8F08770B504460D4629468E
:105650002046FFF7B5FF04EB8500001F61884388F3
:1056600002882088BDE870404EE70022BCE7012296
:10567000BAE72DE9F34FE9B00446B4F800A0D346E9
:1056800065880195012013E004EB800149885145AC
:1056900000D28A46594500D98B4634F82020AA42C8
:1056A00000D2154601998A4200D90192401C80B26D
:1056B0006A998842E8D301E0100100205F484088E1
:1056C000FFF7C6FC0295AEE04FF000096A98401E55
:1056D0001FFA80F800254FE002980AF0F1FA06461A
:1056E000679168900F4634F925000AF0D8FA3246DF
:1056F0003B460AF0F3FA0AD234F92800679F689E05
:105700000AF0CDFA32463B460AF000FB15D934F9CF
:105710002800679F689E0AF0C2FA32463B460AF0AC
:10572000DDFA26D234F92500679F689E0AF0B7FAA1
:1057300032463B460AF0EAFA1BD804EB8800029B8B
:10574000B0F9021004EB8500B0F902000A1A34F92E
:1057500025105B1A5A4334F92830591A92FBF1F19B
:105760000144484603AA09F101091FFA89F922F800
:105770001010A8466D1CADB26A988542ACD30020CB
:10578000A9F1010503AF0FE0411C37F8102037F8ED
:1057900011309A4207D927F8103027F8112018B194
:1057A000401E80B200E088B2A842EDDB002534E064
:1057B00037F81500584532D26E1C37F8161051458F
:1057C00029D9504501D227F815A037F816005845B9
:1057D00001D927F816B0DFF86480B8F80200FFF7A7
:1057E00037FC37F8161037F815000023081A82B274
:1057F0000298FFF7AEFCB8F80000FFF729FC02980A
:1058000037F9161000B20646FFF7CDFC37F9151030
:105810003046FFF7C8FCAD1CADB24D45C8D3029869
:10582000401C80B20290DDE901108842FFF44CAFC9
:10583000024800886BB0BDE8F04F09E41001002079
:105840001CB50446FE48012150F8240000F029FF51
:10585000FB48203830F81400009001208DF8040037
:1058600000218DF806108DF8070002208DF8050044
:10587000F448694650F8240000F048FD1CBDF0498A
:10588000F04A203931F8101052F820000183704797
:10589000EB49EC4A203931F8101052F820004183CE
:1058A0007047E84951F820104A69E54B203B33F82E
:1058B000100042404A61704770B586B004460E46FB
:1058C000DF4801213C3850F8240000F0EAFE0121B5
:1058D000880300F016FF00258DF814508DF817503E
:1058E000D748403830F814000490D64804A91C3832
:1058F00050F8240000F00AFD012E25D1D04843388D
:10590000015D401E005D01F0A2F8CD483E3830F840
:10591000140002908DF80C5008208DF80D00012520
:105920008DF80E5002A800F0B7F9C5484238005D66
:105930008DF804000F208DF805008DF806008DF815
:10594000075001A801F08BFA06B070BDBC49BD4AF2
:1059500040391C3A31F8101052F8200000F02ABDEE
:105960002DE9FC4104460E46B548B54910380839C2
:1059700050F8240051F824100843012100F091FE52
:10598000AF480121183850F8240000F0BAFEAC48A6
:10599000AC4F2838103F10F81420083830F8141095
:1059A00057F8240000F02AFDA54807F1080824381C
:1059B00010F81420083830F8141058F8240000F0BB
:1059C0001DFD00208DF8060001208DF8070002253E
:1059D0008DF804509A48383830F8140000908DF84B
:1059E000055057F82400694600F090FC8DF80450EB
:1059F0009348343830F81400009058F82400694671
:105A000000F084FCA7F10805314655F8240001F0A8
:105A10009BF855F82400012101F00FF9BDE8FC8145
:105A20007CB5002000F04EFF002000F04EFF00F09B
:105A300021FF00214FF4006000F063FE824C002241
:105A40000821204600F0DAFC00220921204600F05F
:105A5000D5FC00220A21204600F0D0FC00220B21B8
:105A6000204600F0CBFC00220C21204600F0C6FCB2
:105A7000764D00220221284600F0C0FC4FF47061F0
:105A8000009100218DF804108DF80710694620461A
:105A900000F03CFC042100916946284600F036FCE9
:105AA000A11400916946204600F030FC7CBD2DE930
:105AB000FC4101210E2000F0F4FD634E0C22082170
:105AC000304600F09BFC0C220921304600F096FC89
:105AD0000C220A21304600F091FC0C220B213046AA
