:020000040800F2
:1000000000020120CDFA0008292D00082B2D000840
:100010002D2D00082F2D0008312D000800000000B4
:100020000000000000000000000000009D0100082A
:10003000352D000800000000CD010008392D000812
:10004000E7FA0008E7FA0008E7FA0008E7FA00080C
:10005000E7FA0008E7FA0008752D0008A12D00084E
:10006000E7FA0008E7FA0008E7FA0008C53D0008CB
:10007000CB3D0008D13D0008D73D0008DD3D00081C
:10008000E33D0008E93D0008E7FA0008E7FA000848
:10009000E7FA0008E7FA0008E7FA0008E7FA0008BC
:1000A000E7FA0008E7FA0008E7FA0008E7FA0008AC
:1000B000E7FA00089B2E0008E7FA0008E7FA0008B4
:1000C000E7FA0008E7FA0008E7FA0008E7FA00088C
:1000D000E7FA000873440008854400089D440008BE
:1000E000CD2D0008E7FA0008E7FA0008E7FA000853
:1000F000E7FA0008E7FA0008E7FA0008EF3D000811
:10010000E7FA0008E7FA0008E7FA0008E7FA00084B
:10011000B5440008CD440008E7FA0008E7FA0008F3
:10012000F53D0008F93D0008FF3D0008053E0008C8
:100130000B3E00083D2D0008E7FA0008E7FA00082A
:10014000E7FA0008E7FA0008E7FA0008E7FA00080B
:10015000113E0008173E00081D3E0008E14400085B
:10016000E7FA0008E7FA0008E7FA0008E7FA0008EB
:10017000E7FA0008E7FA0008E7FA0008E7FA0008DB
:10018000E7FA0008E7FA0008DFF80CD00FF0B0FF3C
:1001900000480047BF02000800020120194B1968FF
:1001A0000868B0E8F00F80F309884FF0000080F392
:1001B00011884EF00D0E70470000000002480068E4
:1001C000006880F3088800DF08ED00E0EFF30980A5
:1001D0000C4B1A6820E9F00F106008B54FF0BF0013
:1001E00080F311880FF075FA4FF0000080F311884A
:1001F000BDE8084019680868B0E8F00F80F3098886
:10020000704700BF2802002001B44FF0BF0080F308
:10021000118801BC704701B44FF0000080F31188D1
:1002200001BC704708B5FD4EFD4D2021304606F05B
:1002300068FD0028F9D0304606F0C5FCA628F4D1A8
:100240002870012409E02021304606F05AFD0028DC
:10025000F9D0304606F0B7FC28550C2CF3DD287B8E
:100260008628E2D1A878552803D07128DDD1E87915
:10027000DBE7EC4800236A46194640690EF008FEA9
:10028000D3E7002005F0A3FAFA200FF09EF8F8E774
:100290000FB410B5C0B0044644AB4FF4807168464B
:1002A000439A0FF0B7FF82B26946204604F091F9F5
:1002B00040B010BC5DF814FB002005F057BA1FB524
:1002C000D7484FF4E131A038016000248480C48015
:1002D000048184810C214181FFF7EEFF03F0C8FA0D
:1002E00003F08FFBCE490020A03903F05BFACC4924
:1002F0000120A03903F056FAC9490220A03903F0C1
:1003000051FAC64D284604F024F9C74804F021F9F3
:10031000C64804F01EF9C6A12846FFF7B9FF02F04F
:1003200099FF02F06DFE03F04AF9002101200EF062
:1003300081FCBC4DE86020B100231A4619460EF03E
:1003400018FD002101200EF075FC286120B100236A
:100350001A4619460EF00DFD002101200EF06AFC30
:10036000686120B100231A4619460EF002FD0021F3
:1003700001200EF05FFCA86120B100231A46194647
:100380000EF0F7FC002101200EF054FCE86120B1D2
:1003900000231A4619460EF0ECFC0125CDE9005465
:1003A000002302948022ABA1AFF2291003940EF037
:1003B000E3FECDE90054002302946A02A7A1AFF244
:1003C0009B1003940EF0D8FE0FF0BDF8FEE72DE968
:1003D000F05F934DCA274FF006084FF036094FF0F3
:1003E000F90A002410350FF0D1F88E4E316A401A08
:1003F000B0F55C6F6FD8A62129701021697081213A
:10040000A970C1B2E970C0F307222A71C0F3074393
:100410006B71000EA87196F800C0BCF1250F71D267
:10042000DFE80CF0701D1D292E3338434E5A6571DC
:100430007C8792979CA1A6ADB3B9C0C7CDD3DAEBA8
:100440007013701E1D1D1D1D1D00EC712C724FF0D0
:10045000DF0C85F809C04FF0AB0C85F80AC005E148
:10046000EC712C724FF0DF0C85F809C04FF0AB0C2B
:1004700085F80AC0FAE0EC712C726C72AC72F5E08F
:10048000EC712C726C72AC72F0E0EC712C726C72CC
:10049000AC72EBE04FF0620C85F807C04FF0280C0F
:1004A00085F808C06C72AC72E0E04FF0BF0C85F8C4
:1004B00007C04FF02B0C85F808C06C72AC72D5E009
:1004C0004FF0350C85F807C04FF0390C85F808C09F
:1004D0006C72AC72CAE0E5E04FF0920C85F807C090
:1004E0004FF03C0C85F808C06C72AC72BEE04FF067
:1004F000620C85F807C04FF0280C85F808C06C72B4
:10050000AC72B3E0AEE04FF0BF0C85F807C04FF01F
:100510002B0C85F808C06C72AC72A7E04FF0CB0CC6
:1005200085F807C04FF0300C85F808C06C72AC72CB
:100530009CE04FF0290C85F807C04FF0340C85F88B
:1005400008C06C72AC7291E0EC712C726C72AC727F
:100550008CE0EC712C726C72AC7287E0EC712C72D6
:100560006C72AC7282E0EC712C726C72AC727DE0D9
:1005700085F8079085F808A06C72AC7276E0EF7190
:1005800085F808806C72AC7270E0EC712C726F723E
:1005900085F80A806AE0EC712C7285F8099085F87C
:1005A0000AA063E085F8079085F808A06C72AC7229
:1005B0005CE0EF7185F808806C72AC7256E0EC710B
:1005C0002C726F7285F80A8050E0EC712C7285F8FD
:1005D000099085F80AA049E04FF0210C85F807C082
:1005E0004FF0540C85F808C04FF0940C85F809C002
:1005F0004FF0FF0C85F80AC038E04FF0210C85F869
:1006000007C04FF0540C85F808C04FF0940C85F8E3
:1006100009C04FF0FF0C85F80AC027E00010014028
:100620003403002000000020004400400048004047
:100630000A0D53657269616C20636F6D6D756E692B
:10064000636174696F6E20636F6D706C6574652192
:100650000A0D00004C45443400000000554152543E
:1006600000000000EC712C726C72AC72EC724FF0F6
:10067000020C85F80CC06C7381311A441144084493
:10068000E9790844297A0844697A0844A97A08442F
:10069000801CA8738620E8731022FE49FE4803F0F0
:1006A00098FF53E1A6212970102169708121A9705A
:1006B000C2B2EA70C0F307232B71C0F3074169711E
:1006C000000EA87196F800C0BCF1250F70D2DFE8CB
:1006D0000CF06F1D1D292E3338434E5964707B86F4
:1006E00091969BA0A5B0BBC6D1DCE7F5F3F26F13E2
:1006F0006F1E1D1D1D1D1D00EC712C724FF0010C95
:1007000085F809C04FF0C00C85F80AC003E1EC7110
:100710002C724FF0010C85F809C04FF0C00C85F821
:100720000AC0F8E0EC712C726C72AC72F3E0EC7100
:100730002C726C72AC72EEE0EC712C726C72AC725A
:10074000E9E04FF0B80C85F807C04FF01E0C85F8B3
:1007500008C06C72AC72DEE04FF0470C85F807C041
:100760004FF0210C85F808C06C72AC72D3E04FF0EA
:10077000840C85F807C04FF02B0C85F808C06C720C
:10078000AC72C8E04FF0140C85F807C04FF02E0C87
:1007900085F808C06C72AC72BDE04FF0B80C85F8FB
:1007A00007C04FF01E0C85F808C06C72AC72B2E046
:1007B000ADE04FF0AB0C85F807C04FF0210C85F889
:1007C00008C06C72AC72A6E04FF01E0C85F807C032
:1007D0004FF0250C85F808C06C72AC729BE04FF0AE
:1007E000AE0C85F807C04FF0270C85F808C06C7276
:1007F000AC7290E0EC712C726C72AC728BE0EC71AC
:100800002C726C72AC7286E0EC712C726C72AC72F1
:1008100081E0EC712C726C72AC727CE04FF0D60C03
:1008200085F807C04FF0FA0C85F808C06C72AC72FE
:1008300071E04FF02A0C85F807C04FF0050C85F8E1
:1008400008C06C72AC7266E0EC712C724FF02A0C2E
:1008500085F809C04FF0050C85F80AC05BE0EC7123
:100860002C724FF0D60C85F809C04FF0FA0C85F8C1
:100870000AC050E04FF0D60C85F807C04FF0FA0CD4
:1008800085F808C06C72AC7245E04FF02A0C85F810
:1008900007C04FF0050C85F808C06C72AC723AE0E6
:1008A000EC712C724FF02A0C85F809C04FF0050C42
:1008B00085F80AC02FE01BE00BE0FFE7EC712C721B
:1008C0004FF0D60C85F809C04FF0FA0C85F80AC035
:1008D00021E04FF0FF0B85F807B04FF03F0C85F893
:1008E00008C04FF0AF0C85F809C085F80AB012E0D7
:1008F0004FF0FF0B85F807B04FF03F0C85F808C0AC
:100900004FF0AF0C85F809C085F80AB003E0EC7130
:100910002C726C72AC72EC724FF0020C85F80CC049
:100920006C738132194411440844E9790844297AE6
:100930000844697A0844A97A0844801CA873862070
:10094000E87310225349544803F043FE14200EF07C
:100950003CFD00231A46194670690EF0E3FA01289F
:100960007FF441ADBDE8F09F2DE9FF5F4B4C20784F
:100970004B4D002838D02078FF2835D02078454EC0
:10098000DFF820A1203E4FF0A60B4FF0AA0806F199
:1009900010074FF00B0925287AD2DFE810F0790014
:1009A0007001DD014802D6024D03C6033C04C104B8
:1009B0003705AD051F068E060D077C07F30768088F
:1009C000D7085609CC09440AB90A3F0BAE0B1E0CD6
:1009D0008C0CFB0C810D79003F007900E200F00DDA
:1009E0005B0EBE0E270F9B0F48F228112E4805F014
:1009F0008BFC4FF400612D4805F086FCFB212C4850
:100A000005F082FC00220221284607F048F804B0D5
:100A10002846BDE8F05F002106F020BE204D0022F0
:100A20000221284607F03BF80021284606F016FE72
:100A30000025CAF800504FF400411B4805F064FC43
:100A4000DFF86CA00821504605F060FC13215046E9
:100A500005F05AFC2021504605F058FC00234FF0C9
:100A6000FF3A5246194660690EF05CFA01280FD130
:100A700086F800B00D20707086F80280F878397919
:100A80000844797910FB01F0F070010A317111E02E
:100A9000E0E00000440300200010014000000020BE
:100AA000000400403800002000000240000C02401A
:100AB00000100240020C7271030EB37186F80790A9
:100AC00035727572B572F572AA3011440844184433
:100AD0000B303073862070730D22FE49FE4803F000
:100AE00078FD002352461946E0680EF01BFA0128F3
:100AF000BDD10EF04BFD2062F848CDE90105012182
:100B000000234A0200910395F5A1AFF23D700EF06B
:100B100033FBF54D0021284606F06CFC4FF4AF6125
:100B2000284606F02DFC6421284606F097FD012298
:100B30000221284606F0B3FF0A200EF046FC0121F0
:100B4000284606F057FC00235246194620690EF04D
:100B5000E9F9606800287DD004B0BDE8F05F0EF0D0
:100B600073BBE14D00220221284606F098FF0021C8
:100B7000284606F073FD0025CAF800504FF40041E6
:100B8000DA4805F0C1FBDFF868A31B21504605F0E9
:100B9000BBFB2021504605F0B9FB00234FF0FF3A84
:100BA0005246194660690EF0BDF90128A0D186F8B9
:100BB00000B00D20707086F80280F878397908440A
:100BC000797910FB01F0F070020A3271010C717139
:100BD000030EB37186F8079035727572B572F572AF
:100BE000AA301144084418440B30307386207073C7
:100BF0000D22B849B84803F0ECFC002352461946D0
:100C0000E0680EF08FF90128D0D10EF0BFFC206211
:100C1000B248CDE90105012100234A020091039564
:100C2000AFA1AFF655000EF0A7FAAF4D0021284650
:100C300006F0E0FB4FF4AF61284606F0A1FB64210B
:100C4000284606F00BFD01220221284606F027FF68
:100C50000A2000E08CE00EF0B8FB0121284606F0E7
:100C6000C9FB00235246194620690EF05BF9606803
:100C700000287DD004B0BDE8F05F0EF0E5BA9DA17C
:100C80009548FFF705FB984D00220221284606F003
:100C900006FF0021284606F0E1FC0025CAF80050B6
:100CA0004FF40041914805F02FFBDFF844A21A21D0
:100CB000504605F029FB2121504605F027FB002373
:100CC0004FF0FF3A5246194660690EF02BF90128A1
:100CD0009AD186F800B00D20707086F80280F878FE
:100CE00039790844797910FB01F0F070020A327109
:100CF000010C7171030EB37186F80790357275722D
:100D0000B572F572AA301144084418440B303073A0
:100D1000862070730D226F496F4803F05AFC002340
:100D200052461946E0680EF0FDF80128D0D10EF0C9
:100D30002DFC20626C4D40F23551284606F020FB18
:100D40000021284606F08AFC6068002891D004B093
:100D5000BDE8F05F0EF078BA634D0022022128460C
:100D600006F09DFE0021284606F078FC002500E0F4
:100D700064E1CAF800504FF400415C4805F0C4FA41
:100D8000DFF86CA11B21504605F0BEFA2021504629
:100D900005F0BCFA00234FF0FF3A5246194660694D
:100DA0000EF0C0F8012893D186F800B00D207070C5
:100DB00086F80280F87839790844797910FB01F0D7
:100DC000F070010A3171020C7271030EB37186F872
:100DD000079035727572B572F572AA3011440844E5
:100DE00018440B303073862070730D2239493A480D
:100DF00003F0EFFB002352461946E0680EF092F82C
:100E0000012893D10EF0C2FB2062374D40F23251DF
:100E1000284606F0B5FA6421284606F01FFC6068F3
:100E2000002893D004B0BDE8F05F0EF00DBA2E4D4F
:100E300000220221284606F032FE0021284606F054
:100E40000DFC0025CAF800504FF40041274805F07A
:100E50005BFADFF89CA01321504605F055FA2821D3
:100E6000504605F053FA00234FF0FF3A5246194618
:100E700060690EF057F8012895D186F800B00D2072
:100E8000707086F80280F87839790844797910FB17
:100E900001F0F070010A3171020C7271030EB3712E
:100EA00086F8079035727572B572F572AA301144E2
:100EB000084418440B303073862070730D220549A6
:100EC000054803F086FB002352461946E0680EF001
:100ED00029F815E02403002000100140080000203C
:100EE0004649454C44000000000400400000024018
:100EF000001002400A0D474F4F440A0D0000000049
:100F00000128B9D10EF042FB2062FE48CDE901056F
:100F1000012100234A0203950091AFF23C01AFF694
:100F200051300EF029F9F84D40F23551284606F0BF
:100F300027FA6421284606F091FB606800287DD0DE
:100F400004B0BDE8F05F0EF07FB9EF4D0022022142
:100F5000284606F0A4FD0021284606F07FFB002568
:100F6000CAF800504FF40041E84805F0CDF9DFF829
:100F7000A0A31B21504605F0C7F92021504605F0DB
:100F8000C5F900234FF0FF3A5246194660690DF04B
:100F9000C9FF0128B5D186F800B00D20707086F821
:100FA0000280F87839790844797910FB01F0F07003
:100FB000010A3171020C7271030EB37186F8079049
:100FC00035727572B572F572AA301144084418442E
:100FD0000B303073862070730D22CE49CE4803F05B
:100FE000F8FA002352461946E0680DF09BFF0128ED
:100FF00087D10EF0CBFA2062C248CDE9010501216C
:1010000000234A0203950091AFF22C11AFF6414044
:101010000EF0B2F8BC4D40F23551284606F0B0F95A
:101020006421284606F01AFB6068002887D004B0C7
:10103000BDE8F05F0EF008B9002200E060E2B24DBA
:101040000221284606F02BFD0021284606F006FB6B
:101050000025CAF800504FF40041AC4805F054F99F
:10106000DFF8ACA20B21504605F04EF93021504676
:1010700005F04CF900234FF0FF3A524619466069DB
:101080000DF050FF012885D186F800B00D2070705A
:1010900086F80280F87839790844797910FB01F0F4
:1010A000F070020A3271010C7171030EB37186F88F
:1010B000079035727572B572F572AA301144084402
:1010C00018440B303073862070730D22914992487A
:1010D00003F07FFA002352461946E0680DF022FF24
:1010E000012885D10EF052FA20628648CDE901052B
:1010F000012100234A0203950091AFF21C21AFF6B3
:1011000031500EF039F8804D40F23551284606F046
:1011100037F96421284606F0A1FA6068002885D0D6
:1011200004B0BDE8F05F0EF08FB8774D00220221C9
:10113000284606F0B4FC0021284606F08FFA002568
:10114000CAF800504FF40041704805F0DDF8DFF8B0
:10115000C0A11321504605F0D7F82821504605F0CC
:10116000D5F800234FF0FF3A5246194660690DF05A
:10117000D9FE012887D186F800B00D20707086F85E
:101180000280F87839790844797910FB01F0F07021
:10119000010A3171020C7271030EB37186F8079067
:1011A00035727572B572F572AA301144084418444C
:1011B0000B303073862070730D225649564803F069
:1011C00008FA002352461946E0680DF0ABFE0128EC
:1011D00087D10EF0DBF9206201204A498DE8230017
:1011E00000234202AFF20831AFF61D6003950DF007
:1011F000C3FF454D40F2DC51284606F0C1F864219A
:10120000284606F02BFA6068002888D004B0BDE8B4
:10121000F05F0EF019B83C4D00220221284606F07E
:101220003EFC0021284606F019FA0025CAF80050B5
:101230004FF40041354805F067F8DFF8D4A01321DA
:10124000504605F061F82821504605F05FF800236C
:101250004FF0FF3A5246194660690DF063FE0128CF
:1012600088D186F800B00D20707086F80280F8787A
:1012700039790844797910FB01F0F070010A317175
:10128000020C7271030EB37186F807903572757295
:10129000B572F572AA301144084418440B3030730B
:1012A000862070730D221B491B4803F092F900231E
:1012B00052461946E0680DF035FE012888D10EF03F
:1012C00065F920620F48CDE90105012100234A029A
:1012D00003950091AFF2F831AFF60D700DF04CFFB1
:1012E000094D40F2DC51284606F04AF864212846B0
:1012F00006F0B4F96068002887D004B0BDE8F05F5C
:101300000CE0000008000020000400400000024043
:101310000010024024030020001001400DF094BF93
:10132000FF4D00220221284606F0B9FB0021284685
:1013300006F094F90025CAF800504FF40041F9482E
:1013400004F0E2FFDFF8E0A33321504604F0DCFFB5
:101350000821504604F0DAFF00234FF0FF3A5246CE
:10136000194660690DF0DEFD0128A7D186F800B0AE
:101370000D20707086F80280F87839790844797900
:1013800010FB01F0F070010A3171020C7271030E52
:10139000B37186F8079035727572B572F572AA301E
:1013A0001144084418440B303073862070730D22AA
:1013B000DE49DF4803F00DF9002352461946E06884
:1013C0000DF0B0FD0128D0D10EF0E0F82062D94830
:1013D000CDE90105012100234A0203950091AFF2F6
:1013E0000051D5480DF0C8FECD4D40F2DC512846E5
:1013F00005F0C6FF6421284606F030F96068002831
:101400007ED004B0BDE8F05F0DF01EBFC44D0022D9
:101410000221284606F043FB0021284606F01EF96B
:101420000025CAF800504FF40041BE4804F06CFF9C
:10143000DFF8F4A23321504604F066FF082150463D
:1014400004F064FF00234FF0FF3A524619466069EA
:101450000DF068FD012888D186F800B00D2070706D
:1014600086F80280F87839790844797910FB01F020
:10147000F070010A3171020C7271030EB37186F8BB
:10148000079035727572B572F572AA30114408442E
:1014900018440B303073862070730D22A349A44882
:1014A00003F097F8002352461946E0680DF03AFD24
:1014B000012888D10EF06AF820629E48CDE9010526
:1014C000012100234A0203950091AFF2EC519A48A2
:1014D0000DF052FE924D40F2DC51284605F050FFCF
:1014E0006421284606F0BAF86068002888D004B065
:1014F000BDE8F05F0DF0A8BE00220221884D00E09B
:10150000D4E1284606F0CBFA0021284606F0A6F8DA
:101510000025CAF800504FF40041824804F0F4FE60
:101520003B21814804F0F0FE00234FF0FF3A524681
:10153000194660690DF0F6FC01288CD186F800B0E0
:101540000D20707086F80280F8783979084479792E
:1015500010FB01F0F070020A3271010C7171030E80
:10156000B37186F8079035727572B572F572AA304C
:101570001144084418440B303073862070730D22D8
:101580006A496B4803F025F8002352461946E06883
:101590000DF0C8FC01288CD10DF0F8FF20626548E1
:1015A000CDE90105012100234A0203950091AFF224
:1015B000D06161480DF0E0FD594D4FF4AF61284610
:1015C00005F0DEFE6421284606F048F86068002831
:1015D0008CD004B0BDE8F05F0DF036BE504D002257
:1015E0000221284606F05BFA0021284606F036F86C
:1015F0000025CAF800504FF400414A4804F084FE28
:101600003B21494804F080FE00234FF0FF3A524648
:10161000194660690DF086FC01288ED186F800B06D
:101620000D20707086F80280F8783979084479794D
:1016300010FB01F0F070020A3271010C7171030E9F
:10164000B37186F8079035727572B572F572AA306B
:101650001144084418440B303073862070730D22F7
:101660003249334802F0B5FF002352461946E0687C
:101670000DF058FC01288ED10DF088FF206201206A
:101680002C498DE8230000234202AFF2AC712A48B6
:1016900003950DF071FD224D4FF4AF61284605F022
:1016A0006FFE6421284605F0D9FF606800288FD0BE
:1016B00004B0BDE8F05F0DF0C7BD194D0022022156
:1016C000284606F0ECF90021284605F0C7FF002562
:1016D000CAF800504FF40041124804F015FE3B21B7
:1016E000114804F011FE00234FF0FF3A524619460C
:1016F00060690DF017FC01288FD186F800B00D202D
:10170000707086F80280F87839790844797910FB8E
:1017100001F0F070010A3171020C7271030E0DE0DC
:10172000000400400000024000100240240300209A
:101730000010014008000020CF030008B37186F8B4
:10174000079035727572B572F572AA30114408446B
:1017500018440B303073862070730D22FD49FE480B
:1017600002F037FF002352461946E0680DF0DAFB1D
:101770000128C1D10DF00AFF2062F848CDE901052A
:10178000012100234A0203950091AFF6AC01F44811
:101790000DF0F2FCF34D4FF4AF61284605F0F0FD7B
:1017A0006421284605F05AFF606800287ED004B006
:1017B000BDE8F05F0DF048BDEA4D00220221284649
:1017C00006F06DF90021284605F048FF0025CAF80B
:1017D00000504FF40041E44804F096FD3B21E348FB
:1017E00004F092FD00234FF0FF3A5246194660691B
:1017F0000DF098FB0128BCD186F800B00D20707068
:1018000086F80280F87839790844797910FB01F07C
:10181000F070010A3171020C7271030EB37186F817
:10182000079035727572B572F572AA30114408448A
:1018300018440B303073862070730D22C549C6489A
:1018400002F0C7FE002352461946E0680DF06AFB1D
:1018500001288ED10DF09AFE20620120BF498DE84B
:10186000230000234202AFF68811BD4803950DF016
:1018700083FCBC4D4FF4AF61284605F081FD642127
:10188000284605F0EBFE606800288FD004B0BDE864
:10189000F05F0DF0D9BCB34D00220221284606F0BE
:1018A000FEF80021284605F0D9FE00E046E20025BA
:1018B000CAF800504FF40041AB4804F025FDDFF8B2
:1018C000ACA23321504604F01FFD0821504604F01D
:1018D0001DFD00234FF0FF3A5246194660690DF096
:1018E00021FB012887D186F800B00D20707086F8A2
:1018F0000280F87839790844797910FB01F0F070AA
:10190000010A3171020C7271030EB37186F80790EF
:1019100035727572B572F572AA30114408441844D4
:101920000B303073862070730D228A498A4802F08A
:1019300050FE002352461946E0680DF0F3FA0128E4
:1019400087D10DF023FE2062012084498DE8230019
:1019500000234202AFF67821814803950DF00CFC7C
:10196000804D4FF47A71284605F00AFD642128461F
:1019700005F074FE6068002887D004B0BDE8F05F11
:101980000DF062BC774D00220221284606F087F850
:101990000021284605F062FE0025CAF800504FF4E9
:1019A0000041714804F0B0FCDFF8C0A1332150467B
:1019B00004F0AAFC0821504604F0A8FC00234FF0D4
:1019C000FF3A5246194660690DF0ACFA012889D1F8
:1019D00086F800B00D20707086F80280F8783979AA
:1019E0000844797910FB01F0F070010A3171020CA2
:1019F0007271030EB37186F8079035727572B57205
:101A0000F572AA301144084418440B303073862014
:101A100070730D224F49504802F0DBFD00235246FF
:101A20001946E0680DF07EFA012889D10DF0AEFD6F
:101A30002062012049498DE8230000234202AFF6CD
:101A40006031474803950DF097FB464D4FF4FA611E
:101A5000284605F095FC6421284605F0FFFD6068E6
:101A6000002889D004B0BDE8F05F0DF0EDBB3D4D1E
:101A700000220221284606F012F80021284605F02F
:101A8000EDFD0025CAF800504FF40041364804F03F
:101A90003BFC3B21354804F037FC00234FF0FF3A74
:101AA0005246194660690DF03DFA01288FD186F83B
:101AB00000B00D20707086F80280F87839790844FB
:101AC000797910FB01F0F070010A3171020C72712A
:101AD000030EB37186F8079035727572B572F572A0
:101AE000AA301144084418440B30307386207073B8
:101AF0000D221849184802F06CFD00235246194681
:101B0000E0680DF00FFA01288FD10DF03FFD206243
:101B1000012012498DE8230000234202AFF6404124
:101B20000F4803950DF028FB0E4D4FF47A712846AF
:101B300005F026FC6421284605F090FD6068002829
:101B40008FD004B0BDE8F05F0DF07EBB0022022113
:101B5000044D0DE024030020001001400800002087
:101B6000CF030008000400400000024000100240C3
:101B7000284605F094FF0021284605F06FFD00255A
:101B8000CAF800504FF40041FE4804F0BDFB3B2171
:101B9000FD4804F0B9FB00234FF0FF3A52461946C6
:101BA00060690DF0BFF90128AED186F800B00D20B4
:101BB000707086F80280F87839790844797910FBDA
:101BC00001F0F070010A3171020C7271030EB371F1
:101BD00086F8079035727572B572F572AA301144A5
:101BE000084418440B303073862070730D22E74987
:101BF000E74802F0EEFC002352461946E0680DF07B
:101C000091F90128D0D10DF0C1FC2062E148CDE965
:101C10000105012100234A0203950091AFF64051CE
:101C2000DD480DF0A9FADD4D4FF4FA61284605F0C4
:101C3000A7FB6421284605F011FD606800287DD0CF
:101C400004B0BDE8F05F0DF0FFBAD44D00220221D0
:101C5000284605F024FF0021284605F0FFFC00255A
:101C6000CAF800504FF40041C64804F04DFBDFF8BD
:101C700018A33321504604F047FB0821504604F0D6
:101C800045FB00234FF0FF3A5246194660690DF0BC
:101C900049F9012888D186F800B00D20707086F8C7
:101CA0000280F87839790844797910FB01F0F070F6
:101CB000010A3171020C7271030EB37186F807903C
:101CC00035727572B572F572AA3011440844184421
:101CD0000B303073862070730D22AC49AC4802F093
:101CE00078FC002352461946E0680DF01BF90128E4
:101CF00088D10DF04BFC2062A648CDE901050121F9
:101D000000234A0203950091AFF62C61A2480DF022
:101D100033FAA24D40F23551284605F031FB6421DB
:101D2000284605F09BFC6068002888D004B0BDE818
:101D3000F05F0DF089BA0022022100E0E8E1974D42
:101D4000284605F0ACFE0021284605F087FC00255A
:101D5000CAF800504FF400418A4804F0D5FADFF881
:101D600028A23321504604F0CFFA0821504604F04F
:101D7000CDFA00234FF0FF3A5246194660690DF044
:101D8000D1F8012886D186F800B00D20707086F851
:101D90000280F87839790844797910FB01F0F07005
:101DA000020A3271010C7171030EB37186F807904B
:101DB00035727572B572F572AA3011440844184430
:101DC0000B303073862070730D227049704802F01A
:101DD00000FC002352461946E0680DF0A3F80128E4
:101DE00086D10DF0D3FB20626A48CDE901050121BF
:101DF00000234A0203950091AFF61C7166480DF06E
:101E0000BBF9664D40F23551284605F0B9FA642118
:101E1000284605F023FC6068002886D004B0BDE8A1
:101E2000F05F0DF011BA5D4D00220221284605F049
:101E300036FE0021284605F011FC0025CAF80050A6
:101E40004FF400414F4804F05FFADFF83CA1332122
:101E5000504604F059FA0821504604F057FA00237E
:101E60004FF0FF3A5246194660690DF05BF80128C1
:101E700088D186F800B00D20707086F80280F8785E
:101E800039790844797910FB01F0F070010A317159
:101E9000020C7271030EB37186F807903572757279
:101EA000B572F572AA301144084418440B303073EF
:101EB000862070730D223549354802F08AFB0023D5
:101EC00052461946E0680DF02DF8012888D10DF032
:101ED0005DFB20622F48CDE9010501214A020091F6
:101EE000002303952E492C480DF046F92B4D40F266
:101EF0003551284605F044FA6421284605F0AEFB2A
:101F00006068002889D004B0BDE8F05F0DF09CB98E
:101F1000224D00220221284605F0C1FD002128465D
:101F200005F09CFB0025CAF800504FF4004115480D
:101F300004F0EAF9DFF850A03321504604F0E4F948
:101F40000821504604F0E2F900234FF0FF3A5246D0
:101F5000194660690CF0E6FF012889D186F800B0C7
:101F60000D20707086F80280F87839790844797904
:101F700010FB01F0F070010A3171020C7271030E56
:101F8000B3710FE000000240001002402403002063
:101F90000010014008000020CF03000800040040AA
:101FA000E00E000886F8079035727572B572F5720A
:101FB000AA301144084418440B30307386207073E3
:101FC0000D22FE49FE4802F004FB0023524619464A
:101FD000E0680CF0A7FF0128BFD10DF0D7FA20620E
:101FE000F848CDE9010501214A020091002303953B
:101FF000F549F6480DF0C0F8F54D40F23551284648
:1020000005F0BEF96421284605F028FB6068002829
:102010007ED004B0BDE8F05F0DF016B9EC4D0022A3
:102020000221284605F03BFD0021284605F016FB5D
:102030000025CAF800504FF40041E64804F064F966
:102040003B21E54804F060F900234FF0FF3A524687
:10205000194660690CF066FF0128BDD186F800B012
:102060000D20707086F80280F87839790844797903
:1020700010FB01F0F070020A3271010C7171030E55
:10208000B37186F8079035727572B572F572AA3021
:102090001144084418440B303073862070730D22AD
:1020A000C649C74802F095FA002352461946E0682F
:1020B0000CF038FF01288FD10DF068FA2062C1487A
:1020C000CDE9010501214A02009100230395BE4993
:1020D000BE480DF051F8BE4D40F23551284605F08E
:1020E0004FF96421284605F0B9FA606800288FD0BE
:1020F00004B0BDE8F05F0DF0A7B8B54D0022022195
:10210000284605F0CCFC0021284605F0A7FA00E09F
:1021100040E20025CAF800504FF40041AD4804F0F9
:10212000F3F83B21AC4804F0EFF800234FF0FF3AFE
:102130005246194660690CF0F5FE01288DD186F8EB
:1021400000B00D20707086F80280F8783979084464
:10215000797910FB01F0F070020A3271010C717193
:10216000030EB37186F8079035727572B572F57209
:10217000AA301144084418440B3030738620707321
:102180000D228E498E4802F024FA00235246194649
:10219000E0680CF0C7FE01288DD10DF0F7F9206240
:1021A000012088498DE823004202002386498748A0
:1021B00003950CF0E1FF864D40F23551284605F0BD
:1021C000DFF86421284605F049FA606800288ED0BF
:1021D00004B0BDE8F05F0DF037B87D4D002202215C
:1021E000284605F05CFC0021284605F037FA00255A
:1021F000CAF800504FF40041764804F085F83B21BE
:10220000754804F081F800234FF0FF3A5246194612
:1022100060690CF087FE012890D186F800B00D208F
:10222000707086F80280F87839790844797910FB63
:1022300001F0F070010A3171020C7271030EB3717A
:1022400086F8079035727572B572F572AA3011442E
:10225000084418440B303073862070730D225749A0
:10226000574802F0B6F9002352461946E0680CF0D0
:1022700059FE012890D10DF089F9206201205149C1
:102280008DE82300420200234F49504803950CF08B
:1022900073FF4F4D40F23551284605F071F8642127
:1022A000284605F0DBF96068002890D004B0BDE84E
:1022B000F05F0CF0C9BF464D00220221284605F010
:1022C000EEFB0021284605F0C9F90025CAF80050A8
:1022D0004FF400413F4804F017F83B213E4804F01A
:1022E00013F800234FF0FF3A5246194660690CF08C
:1022F00019FE012890D186F800B00D20707086F884
:102300000280F87839790844797910FB01F0F0708F
:10231000010A3171020C7271030EB37186F80790D5
:1023200035727572B572F572AA30114408441844BA
:102330000B303073862070730D222049204802F044
:1023400048F9002352461946E0680CF0EBFD0128DD
:1023500090D10DF01BF920621A48CDE90105012149
:102360004A02009100230395174918480CF004FF16
:10237000174D40F23551284605F002F864212846F1
:1023800005F06CF9606800288FD004B0BDE8F05FFC
:102390000CF05ABF0E4D00220221284605F07FFBAB
:1023A0000021284605F05AF90025CAF800504FF4DC
:1023B0000041084803F0A8FF33210FE02403002068
:1023C0000010014008000020E00E0008CF030008C4
:1023D000000400400000024000100240DFF85CA44E
:1023E000504603F091FF0821504603F08FFF002371
:1023F0004FF0FF3A5246194660690CF093FD0128F0
:10240000A6D186F800B00D20707086F80280F878AA
:1024100039790844797910FB01F0F070010A3171C3
:10242000020C7271030EB37186F8079035727572E3
:10243000B572F572AA301144084418440B30307359
:10244000862070730D22FE49FE4802F0C2F8002378
:1024500052461946E0680CF065FD0128D0D10DF018
:1024600095F82062F848CDE9010501214A02009162
:1024700000230395F549F6480CF07EFEF54D40F239
:102480003551284604F07CFF6421284605F0E6F823
:10249000606800287ED004B0BDE8F05F0CF0D4BEC8
:1024A000EC4D00220221284605F0F9FA00212846C9
:1024B00005F0D4F80025CAF800504FF40041E64872
:1024C00003F022FF3B21DD4803F01EFF00234FF005
:1024D000FF3A5246194660690CF024FD01288FD15D
:1024E00086F800B00D20707086F80280F87839798F
:1024F0000844797910FB01F0F070020A3271010C86
:102500007171030EB37186F8079035727572B572EA
:10251000F572AA301144084418440B3030738620F9
:1025200070730D22C649C74802F053F80023524683
:102530001946E0680CF0F6FC01288FD10DF026F862
:102540002062C148CDE9010501214A020091002322
:102550000395BE49BE480CF00FFEBE4D40F235510A
:10256000284604F00DFF6421284605F077F86068DE
:1025700000288FD004B0BDE8F05F0CF065BEB54D0B
:1025800000220221284605F08AFA0021284605F09B
:1025900065F800E007E20025CAF800504FF400415A
:1025A000AD4803F0B3FEDFF894A20821504603F0D3
:1025B000ADFE3321504603F0A7FE00234FF0FF3A53
:1025C0005246194660690CF0ADFC012887D186F8A7
:1025D00000B00D20707086F80280F87839790844D0
:1025E000797910FB01F0F070020A3271030C7371FB
:1025F000010EB17186F8079035727572B572F57279
:10260000AA301A44104408440B303073862070738B
:102610000D228B498B4801F0DCFF002352461946FE
:10262000E0680CF07FFC012887D10CF0AFFF20623E
:10263000884D40F23551284604F0A2FE002128467C
:1026400005F00CF86068002893D004B0BDE8F05F96
:102650000CF0FABD7F4D00220221284605F01FFA3A
:102660000021284604F0FAFF0025CAF800504FF474
:102670000041794803F04AFE3B21704803F044FED4
:1026800000234FF0FF3A5246194660690CF04AFCAD
:1026900001289BD186F800B00D20707086F802806A
:1026A000F87839790844797910FB01F0F070020A62
:1026B0003271030C7371010EB17186F80790357297
:1026C0007572B572F572AA301A44104408440B3082
:1026D0003073862070730D2259495A4801F079FFF2
:1026E000002352461946E0680CF01CFC01289BD1DF
:1026F0000CF04CFF2062574D40F23551284604F053
:102700003FFE0021284604F0A9FF606800289BD006
:1027100004B0BDE8F05F0CF097BD4E4D00220221E1
:10272000284605F0BCF90021284604F097FF002553
:10273000CAF800504FF40041474803F0E5FDDFF8C8
:10274000FCA00821504603F0E1FD3321504603F080
:10275000DBFD00234FF0FF3A5246194660690CF04A
:10276000E1FB012895D186F800B00D20707086F845
:102770000280F87839790844797910FB01F0F0701B
:10278000010A3171020C7271030EB37186F8079061
:1027900035727572B572F572AA3011440844184446
:1027A0000B303073862070730D222549254801F0C7
:1027B00010FF002352461946E0680CF0B3FB0128D5
:1027C00095D10CF0E3FE2062224D40F235512846AF
:1027D00004F0D6FD6421284604F040FF606800281C
:1027E00095D004B0BDE8F05F0CF02EBD194D00226D
:1027F0000221284605F053F90021284604F02EFF57
:102800000025CAF800504FF40041134803F07CFD46
:102810003B210A4803F078FD00234FF0FF3A52466F
:10282000194660690CF07EFB01289BD186F800B048
:102830000D20707086F80280F8780FE000100240DA
:10284000240300200010014008000020E00E0008D2
:10285000CF0300080004004000000240397908441A
:10286000797910FB01F0F070010A3171020C72717C
:10287000030EB37186F8079035727572B572F572F2
:10288000AA301144084418440B303073862070730A
:102890000D22B449B44801F09CFE0023524619466B
:1028A000E0680CF03FFB01287DD10CF06FFE206248
:1028B000AE4D40F23551284604F062FD64212846B1
:1028C00004F0CCFE606800286DD004B0BDE8F05F75
:1028D0000CF0BABCA54D00220221284605F0DFF815
:1028E0000021284604F0BAFE0025CAF800504FF433
:1028F00000419F4803F008FDDFF878A2022150460E
:1029000003F004FD3921504603F0FEFC00234FF094
:10291000FF3A5246194660690CF004FB012842D187
:1029200086F800B00D20707086F80280F87839794A
:102930000844797910FB01F0F070020A3271010C41
:102940007171030EB37186F8079035727572B572A6
:10295000F572AA301144084418440B3030738620B5
:1029600070730D227F49804801F033FE00235246E8
:102970001946E0680CF0D6FA012814D10CF006FED6
:1029800020627A4D40F23551284604F0F9FC0021CE
:10299000284604F063FE6068002804D004B0BDE857
:1029A000F05F0CF051BCBDE8FF9F7FB51446002CD2
:1029B0007ED06C486289803861680DF099F869486A
:1029C0006D4D8038007828702878002874D02878D9
:1029D000FF2871D0287801286ED0287802286BD083
:1029E0002878032868D02878042865D02878052816
:1029F00062D0287806285FD0287807285CD028780D
:102A0000082859D02878092856D028780A2853D081
:102A100028780B2850D028780C284DD028780D28FD
:102A20004AD028780E2847D028780F2844D0287814
:102A3000102841D0287811283ED0287812283BD081
:102A40002878132838D02878142835D028781528E5
:102A500032D0287816282FD0287817282CD028781C
:102A6000182829D02878192826D028781A2823D081
:102A700028781B2820D028781D281DD028781F28CA
:102A80001AD02878202817D02878212814D0287820
:102A9000222811D0287823280ED0287824280BD07B
:102AA0002878F02808D004B02046BDE8704001E046
:102AB0001EE001E007F024BBA86808B10CF0C4FBDD
:102AC000686808B10CF0C0FB2B490020091DCDE956
:102AD00001100122034600920390520227A12B48C5
:102AE0000CF04AFB04B02046BDE8704007F008BB7C
:102AF0007FBD70B504461C4DE1B2284604F05FF876
:102B00004021284604F0FDF80028F9D0204670BD89
:102B10000FB430B5C1B045AB4FF4807101A8449AF1
:102B20000DF078FB05460022A9B2104607F011FB14
:102B3000174C206040682A4601A90CF0D9FF216893
:102B40004D81144800901448144A038814480068C2
:102B500006F0A3FF206807F0D3FA41B030BC5DF85F
:102B600014FB00002403002000100140000400407A
:102B700000000240001002400000002050524F436D
:102B800045535320434F4D4D414E440069090008C1
:102B90004400002054030020EA0C010840000020FB
:102BA0003C0000200CB500220192009255490868B3
:102BB00040F4803008604FF4A043086800F400300F
:102BC00000900198401C0190009810B9019898421B
:102BD000F3D10868800302D50120009000E0009244
:102BE0000098012831D147484030026842F08052B5
:102BF00002604548026842F44042026041480830A1
:102C000002680260026842F400420260026842F414
:102C1000A0520260021F3D4B13600A6842F08072AE
:102C20000A600A689201FCD5394A40F205611160D8
:102C3000016821F003010160016841F002010160B7
:102C40000168C1F381010229FAD10CBD10B52D48EC
:102C5000016841F0010101602A4A00210832116037
:102C600002682C4B1A400260031D2B4A1A6002684E
:102C700022F48022026023480C300160FFF792FFAB
:102C800026494FF00060086010BD70B51D4E083633
:102C9000306800F00C00224B224900280FD05D1054
:102CA00004280ED008280ED00B6030681D4AC0F3EF
:102CB0000310121D105C0A68C2400A6070BD0B60F0
:102CC000F3E70D60F1E70F4A121D1068C0F380545E
:102CD000106800F03F0034B1B5FBF0F01368C3F3A7
:102CE0008813584305E0B3FBF0F01368C3F388136F
:102CF00058431268C2F30142521C5200B0FBF2F07A
:102D00000860D2E7003802400070004008484006E2
:102D1000003C0240FFFFF6FE1030002408ED00E00A
:102D20000024F400240000207047FEE7FEE7FEE7E1
:102D3000FEE77047704770470CF038BE08B50020BA
:102D40000090402005F010FC012806D1A348002384
:102D50006A46194600680CF09BF8402005F022FCFA
:102D60004FF4803005F01EFC0098002801D00CF0D4
:102D700006FE08BD10B5012002F075FF00280ED038
:102D8000012002F07EFF0121954803F0A9FAC1431A
:102D90009448426922F0200242EA4111416110BD8B
:102DA00010B5022002F05FFF00280ED0022002F0D2
:102DB00068FF02218A4803F093FAC14389484269B7
:102DC00022F0080242EAC101416110BDF8B54FF49A
:102DD0008066304602F047FF834C844D68B1304630
:102DE00002F04FFF3146284603F07AFA6169C0438A
:102DF00021F0800141EAC01060614FF40066304666
:102E000002F031FF78B1304602F03BFF31462846F0
:102E100003F066FAC24372481430016821F400617D
:102E200041EAC22101604FF48056304602F01BFF98
:102E300070B1304602F025FF3146284603F050FAC3
:102E4000C1436848426922F4807242EA012141612B
:102E50004FF40056304602F006FF00281CD0002038
:102E60000090304602F00DFF3146284603F038FA54
:102E70006169C04321F0400141EA80106061314640
:102E8000284603F02DFA012806D1594800236A4646
:102E9000194600680BF0FCFFF8BD38B5554D02210E
:102EA000284604F012FE00281AD00221284604F019
:102EB00018FE514C226840F2E65140F242430E2A7D
:102EC0000ED2DFE802F0070E1720273039424B54AC
:102ED0005D666E76284604F053FA2068401C206038
:102EE00038BD4FF4C861284604F04AFA2068401CF7
:102EF000206038BD40F22261284604F041FA206883
:102F0000401C206038BD284604F03AFA2068401C76
:102F1000206038BD40F2BE51284604F031FA2068E6
:102F2000401C206038BD40F26451284604F028FA65
:102F30002068401C206038BD40F21451284604F03F
:102F40001FFA2068401C206038BD40F2BA41284674
:102F500004F016FA2068401C206038BD4FF49161DF
:102F6000284604F00DFA2068401C206038BD40F26D
:102F70006A41284604F004FA2068401C206038BDED
:102F800040F29241284604F0FBF92068401C206082
:102F900038BD1946284604F0F3F92068401C20602B
:102FA00038BD1946284604F0EBF92068401C206023
:102FB00038BD40F23551284604F0E2F90021216085
:102FC00000220221284604F06AFD0C4800236A46CC
:102FD000194600680BF05CFF38BD00001C020020A1
:102FE000000C0240000002400010024000080240B5
:102FF0000C000020000400403800002010000020D9
:1030000010B586B00021084606F012FC1A480AF0F6
:10301000DFFD05906FF0FF000AF0DAFD049016481E
:10302000801E0AF0D5FD039015490022CDE900214C
:103030001248029003AB04AA05A9124806F0E0FF6B
:10304000104807F000F80F4807F038F80E480AF06B
:10305000BFFD0E49086006F0D8FD0C4C241F20600F
:1030600043F239020A4906F0E9FC002209492068C6
:1030700006F0B4FD06B010BD030AA8C0E196000832
:103080004BE90008540300200201A8C040000020C2
:1030900078CF0108AB29000800B5AFB001214FF08F
:1030A000606003F094FA04F0D9FD05F050FA05F0E1
:1030B00054FA0128FBD0684604F0DCFD01200090A2
:1030C000002007904FF400710A910B900E90119020
:1030D000139014901590490009912090C9032191F3
:1030E0000A1123922590269004202890299180038C
:1030F0002A9080012B9040122C9040002E900021AD
:10310000684604F054FE664908600121654805F0F0
:1031100036FA2FB000BD08B54FF4A06003F030FEC2
:103120003D208DF8000002208DF8010000208DF870
:10313000020001208DF80300684603F026FE08BD5A
:10314000FEB50121072003F042FA0121880303F0B4
:103150006EFA012003F024FC8620009003208DF8F5
:10316000050002248DF8044000258DF806508DF8E6
:1031700007504D4E6946304603F05EF80B220121A0
:10318000304603F0D1F80B220221304603F0CCF890
:103190000B220721304603F0C7F84FF4705000901F
:1031A000424E6946304603F047F80B220A2130466A
:1031B00003F0BAF80B221146304603F0B5F80B22A3
:1031C0000C21304603F0B0F80B220D21304603F0FD
:1031D000ABF832200090364E6946304603F02CF8AA
:1031E0000B220121304603F09FF80B2204213046C8
:1031F00003F09AF80B220521304603F095F80420DD
:10320000009001208DF804008DF806508DF807001D
:103210008DF80540274E6946304603F00DF804212D
:10322000304603F073F8029544F6206402E00299F8
:10323000491C02910299A142F9D30421304603F0BE
:1032400063F8029502E00298401C02900298A042A6
:10325000F9D3FEBD10B5FFF773FFFFF75CFFFFF773
:103260001BFF0F480068002819D14FF4784001F087
:1032700085FE01F092FEC0880FA100EB800080B2B5
:1032800001F034FF01F089FEC0884FF6FF7100EBBA
:10329000400001EA40000DA101F028FFFEE710BD4B
:1032A00048000020400001000000024000040240ED
:1032B000000802400010024020202045746865721A
:1032C0006E657420496E6974202020002020202023
:1032D00020206661696C6564202020202020000089
:1032E0000020344900EB400201EBC202127D22B102
:1032F000401C0A28F6DB0020704700EB400001EB81
:10330000C00001220275704700212A4A01EB4103E7
:1033100002EBC303834206D101EB410102EBC10181
:10332000002008757047491C0A29EFDB704770B50B
:103330000646FFF7D5FF0546280001D01E4C07E0E2
:10334000002070BD304661680CF015FC38B124686F
:10335000002CF7D12846FFF7D7FF002070BDA068EA
:103360002860E0686860E068A8600020E860207C71
:103370002874284670BDC7E770B505460B46D5E9E9
:103380000110884202D14FF0FF3070BD0C1A9442F8
:1033900000DD144629682246014418460CF0A8FBBB
:1033A000A8682044A860204670BDD0E90110081A22
:1033B000704700008C0300204CB6010810B5ADF535
:1033C000047D044600200190029003904FF40071A8
:1033D00004A80CF0A6FB7F480268521C02607EA184
:1033E00001A80CF003FF01A904A80CF0A5FB7BA128
:1033F00004A80CF0A1FB86A104A80CF09DFB04A876
:103400000CF0B2FB04A908440CF00DF98EA104A83D
:103410000CF092FB9AA104A80CF08EFBA7480CF0CC
:10342000A3FB02460123A549204605F01DFB04A885
:103430000CF09AFB0246012304A9204605F014FB78
:103440000DF5047D10BD7CB50646304605F080FACA
:103450000546280049D0307A002846D16A4601A99D
:10346000284606F05EF8BDF8000005283DD3052289
:1034700093A101980CF09AFB002836D11B2292A14F
:1034800001980CF093FB002836D01E2295A10198DC
:103490000CF08CFB00283DD01D229AA101980CF065
:1034A00085FB002844D018229EA101980CF07EFBD9
:1034B00000284BD01322A2A101980CF077FB002822
:1034C00048D00622A3A101980CF070FB002841D03F
:1034D000A2A0FFF72CFF04460023D4E900123046D7
:1034E00005F0C2FA2046FFF746FF304605F0D7FA4E
:1034F000284605F0ACFF7CBD74A0FFF718FF04461A
:103500000023D4E90012304605F0AEFA2046FFF75A
:1035100032FFEAE774A0FFF70AFF04460023D4E96C
:103520000012304605F0A0FA2046FFF724FFDCE742
:1035300075A0FFF7FCFE04460023D4E900123046D4
:1035400005F092FA2046FFF716FFCEE73046FFF768
:1035500035FFCAE77BA0FFF7EAFE04460023D4E963
:103560000012304605F080FA2046FFF704FFBCE762
:1035700070B500221146102005F03CF90446CCB18C
:1035800050220021204605F083F920B1BDE87040AB
:1035900075A00CF01BBEFF21204605F0B2F92046B5
:1035A00005F0C0F905462846FFF74DFF284605F00F
:1035B00042F9F4E7BDE8704071A00CF007BE08B511
:1035C000032000904FF4FA730022734973A00BF0AC
:1035D000B6FA08BD4C000020256400003C707265FE
:1035E0003E3C62723E4E616D6520202020202020EE
:1035F000202020537461746520205072696F7269B5
:1036000074792020537461636B2020204E756D0007
:103610003C62723E2D2D2D2D2D2D2D2D2D2D2D2D40
:103620002D2D2D2D2D2D2D2D2D2D2D2D2D2D2D2DCA
:103630002D2D2D2D2D2D2D2D2D2D2D2D2D2D2D2DBA
:103640002D3C62723E0000003C62723E3C62723E63
:103650002D2D2D2D2D2D2D2D2D2D2D2D2D2D2D2D9A
:103660002D2D2D2D2D2D2D2D2D2D2D2D2D2D2D2D8A
:103670002D2D2D2D2D2D2D2D2D2D2D2D2D00000001
:103680003C62723E42203A20426C6F636B65642C50
:103690002052203A2052656164792C2044203A203F
:1036A00044656C657465642C2053203A205375730F
:1036B00070656E6465643C62723E000060B601082D
:1036C000474554202F000000474554202F53544DA8
:1036D0003332463478375F66696C65732F53542EE6
:1036E00067696600474554202F53544D33324634A2
:1036F00078375F66696C65732F73746D33322E6A29
:1037000070670000474554202F53544D33324634E0
:1037100078375F66696C65732F6C6F676F2E6A70A0
:1037200067000000474554202F53544D3332463430
:1037300078375441534B532E68746D6C0000000071
:10374000474554202F53544D3332463478372E6832
:10375000746D6C00474554202F2000002F34303406
:103760002E68746D6C00000063616E206E6F7420B3
:1037700062696E64206E6574636F6E6E0000000097
:1037800063616E206E6F7420637265617465206E74
:103790006574636F6E6E00007135000848545450B4
:1037A000000000002DE9FC4104460E46FE49FE489B
:1037B000103150F8240051F824100843012102F080
:1037C00006FFF9481038ECB350F82400012102F04C
:1037D00022FFF548F54F203810F81420103830F843
:1037E000141057F8240002F09FFDEF4807F110086D
:1037F000183810F81420103830F8141058F8240035
:1038000002F092FD00208DF8060001208DF80700DF
:1038100002258DF80450E448403830F81400009038
:103820008DF8055057F82400694602F005FD8DF823
:103830000450DD48383830F81400009058F824005F
:10384000694600E00FE002F0F7FCA7F110053146F1
:1038500055F8240003F00EF955F82400012103F077
:1038600082F9BDE8FC810068012102F0E0FEB0E7CA
:103870002DE9F04385B00121084602F0A8FE0121A0
:10388000042002F0A4FE0121082002F0A0FE012184
:10389000102002F09CFE0121880302F0C8FE48F2CD
:1038A0002817039701258DF8105000248DF8124039
:1038B0008DF8135002268DF81160DFF8F48203A909
:1038C000404602F0B9FC3946404602F01DFD4FF477
:1038D0000068CDF80C808DF810508DF812408DF8EE
:1038E00013508DF81160B34F03A9384602F0A4FCC1
:1038F0004146384602F008FDFB2003908DF8105039
:103900008DF812408DF813508DF81160DFF8A892F1
:1039100003A9484602F090FCFB21484602F0F4FC63
:103920004FF4705003908DF810408DF8134003A9A8
:10393000A24802F081FC032003908DF810408DF81E
:10394000134003A9384602F077FC0A21022003F055
:1039500014F80B21022003F010F80C21022003F0D0
:103960000CF80D21022003F008F80021032003F0D9
:1039700004F80121032003F000F88DF80840102717
:103980008DF809708DF80A50019501A802F01AF916
:10399000019601A802F016F9A802019001A802F010
:1039A00011F9CDF8048001A802F00CF98DF8084057
:1039B0008DF809708DF80A502803019001A802F0D3
:1039C00001F96803019001A802F0FCF88DF80140AC
:1039D0008DF802408DF8035006208DF800006846EF
:1039E00003F0D3F907208DF80000684603F0CDF905
:1039F00028208DF80000684603F0C7F905B0BDE83F
:103A0000F083F0B58BB00121022002F0E0FD102020
:103A1000099002268DF8286003208DF829000024E3
:103A20008DF82A4001258DF82B50654F09A938469D
:103A300002F002FC02220421384602F075FC01214A
:103A4000022002F0E8FD06A803F086FC5D4844F67B
:103A500020610068B0FBF1F0401EADF81800ADF831
:103A60001A4040F234500790ADF82040564F06A956
:103A7000384603F041FC0121384603F09FFC6021E9
:103A8000ADF80410ADF806500394ADF8106001A92C
:103A9000384603F0BBFC0821384603F007FE01213D
:103AA000384603F0A7FC1D208DF800008DF801407A
:103AB0008DF802408DF80350684603F066F90BB0AC
:103AC000F0BD30B585B00121042002F080FD012158
:103AD000082002F07CFD0121880302F0A8FD0024EB
:103AE0008DF810408DF812404FF4705003908DF80F
:103AF000134003258DF8115003A9304802F09CFBB8
:103B00008DF810408DF8124003958DF813408DF814
:103B1000115003A9274802F08FFB0A21022002F06E
:103B20002CFF0B21022002F028FF0C21022002F0C2
:103B300024FF0D21022002F020FF0021032002F0CB
:103B40001CFF0121032002F018FF01258DF80A5007
:103B50008DF8084010208DF809008001019001A81F
:103B600002F030F8E802019001A802F02BF82803D7
:103B7000019001A802F026F86803019001A802F064
:103B800021F8019501A802F01DF80220019001A87A
:103B900002F018F88DF801408DF802408DF80350BE
:103BA00028208DF8000011E0DCBC01086000002036
:103BB00000000240000C02400010024000080240D9
:103BC000000402402400002000040040684603F086
:103BD000DCF806208DF80000684603F0D6F80720D0
:103BE0008DF80000684603F0D0F805B030BD08B588
:103BF000012240F22551094803F068F825208DF88C
:103C0000000000208DF801008DF8020001208DF8E1
:103C10000300684603F0B9F808BD00000010014039
:103C200010B5804A1823904205D27F4A7F4C204429
:103C3000B0FBF3F006E07B4A083A7A4C6442204439
:103C4000B0FBF3F0042801D3121D001F784B01F0E4
:103C50003D01185C8140116010BD3D21E0E77149D4
:103C60001822884206D270490839704B1844B0FBBC
:103C7000F2F006E06B4910396A4B5B421844B0FB26
:103C8000F2F0042801D3091D001F0968684A105C7E
:103C9000C14001F03D00704738B504463D21204643
:103CA000FFF7BEFF624A5F4B1820121D01219C42A4
:103CB00009D25E4B2344B3FBF0F08DF80110125C87
:103CC0008DF800200AE0574B5B422344B3FBF0F031
:103CD0008DF801100244127A8DF800208DF803103F
:103CE0008DF80200684603F050F8206840F01E008E
:103CF0002060606940F08000606138BD10B5044606
:103D00003D212046FFF78CFF4949464A1820091DEE
:103D1000944205D2454A2244B2FBF0F0085605E031
:103D2000404A52422244B2FBF0F00856012100F012
:103D30001F0291404009800000F1E020C0F880118E
:103D4000206820F01E002060606900F08000606143
:103D500010BD7047704770477047704770B5054693
:103D60003D212846FFF77BFF84B23D212846FFF71F
:103D700057FFA00605D52868C00602D52846FFF7DC
:103D8000E8FFE00605D52868000702D52846FFF7BA
:103D9000E1FF200705D52868400702D52846FFF730
:103DA000DAFF600705D52868800702D52846FFF7A7
:103DB000D3FFE00705D06869000602D52846FFF763
:103DC000CCFF70BD18480830C8E717482030C5E759
:103DD00015483830C2E714485030BFE71248683001
:103DE000BCE711488030B9E70F489830B6E70E4875
:103DF000B030B3E70B48B1E70A481830AEE70948DE
:103E00003030ABE707484830A8E706486030A5E700
:103E100004487830A2E7034890309FE70148A83073
:103E20009CE700001064024008600240F09FFDBF64
:103E3000FCBC01080146F64A914200D10020F54A37
:103E4000914200D10120F44A914200D10220F34A6C
:103E5000914200D10420F24A914200D10520F14A5A
:103E6000914200D10620704770477CB50446082671
:103E70000325002C07D1CDE9005601230022C021E3
:103E8000E94800F07CFC012C08D1CDE90056012363
:103E900000224FF48441E54800F071FC032C03D16B
:103EA0000821E048FFF7E0FF7CBD7CB50446002C0C
:103EB00011D108250326CDE900650123002219034D
:103EC000D94800F05CFCCDE9006501230022042103
:103ED000D74800F054FC032C03D10821D048FFF749
:103EE000C3FF7CBD7CB5044608260325002C07D102
:103EF000CDE90056012300220321CE4800F03FFC0B
:103F0000012C08D1CDE90056012300224FF4406175
:103F1000C54800F034FC032C03D10821BF48FFF74B
:103F2000A3FF7CBD2DE9FC410446072603254FF481
:103F30004067002C07D1CDE9005601230022394605
:103F4000BD4800F01CFC012C07D1CDE9005601232F
:103F500000223946B44800F012FC022C08D1CDE909
:103F60000056012300224FF44071B14800F007FCD5
:103F7000032C03D10721A848FFF776FFBDE8FC8199
:103F80007CB5044607260325002C07D1CDE9005651
:103F9000012300220C21A74800F0F1FB012C07D1DE
:103FA000CDE90056012300226021A14800F0E7FB83
:103FB000032C03D107219748FFF756FF7CBD7CB542
:103FC000044607260325002C07D1CDE9005601231E
:103FD00000226902974800F0D2FB012C07D1CDE9FD
:103FE000005601230022C021934800F0C8FB032C97
:103FF00003D107218648FFF737FF7CBD0146844A7D
:10400000914200D18D48834A914201D18B481030B2
:10401000814A914201D189482030804A914201D1A0
:10402000864830307E4A914201D1844840307D4AF2
:10403000914201D18148503070472DE9FF4F87B040
:104040000446DDE9159ADDF8508016461F462046E5
:10405000FFF7D4FF054603966D48DFF8E4B18442CC
:104060000BD1DBF8000040F01000CBF800000898FE
:10407000FFF7A5FF25208DF80800714E6548361F13
:10408000844209D1306840F4003030600898FFF76E
:1040900077FF26208DF808005F48844209D13068F8
:1040A00040F4802030600898FFF73CFF27208DF80F
:1040B00008005A48844209D1306840F4002030603A
:1040C0000898FFF70FFF34208DF808005448844209
:1040D00009D1306840F4801030600898FFF7E5FEA1
:1040E00035208DF808004F4884420BD1DBF80000E2
:1040F00040F02000CBF800000898FFF7B6FE4720FC
:104100008DF80800204602F061FC01268DF80B6056
:1041100006208DF809002046FFF78CFE8DF80A0076
:1041200002A802F032FEADF81870ADF81680ADF8B6
:104130001490ADF812A01798ADF810000020287365
:1041400040F6FF7001900198411E0191FBD203A936
:10415000204602F08FFCA08940F02000A0812E7341
:10416000A08940F40050A0810BB0BDE8F08F2DE98C
:10417000FF4104460F469046254800250C26844200
:1041800008D1CDE9006502950023424639460395E2
:10419000FFF753FF1F48844208D1CDE9006502951F
:1041A0000023424639460395FFF747FF1A488442E9
:1041B00008D1CDE9006502950023424639460395B2
:1041C000FFF73BFF1548844208D1CDE90065029511
:1041D0000023424639460395FFF72FFF10488442DB
:1041E00008D1CDE900650295002342463946039582
:1041F000FFF723FF0B48844208D1CDE90065029503
:104200000023424639460395FFF717FFBDE8FF81BB
:10421000001001400044004000480040004C0040B5
:104220000050004000140140000802400018024005
:10423000000C024000000240000402408000002008
:10424000443802402DE9FF4704460F469046994600
:10425000A94800250C26844208D1CDE900650295C5
:104260004B46424639460395FFF7E7FEA348844292
:1042700008D1CDE9006502954B4642463946039583
:10428000FFF7DBFE9E48844208D1CDE90065029528
:104290004B46424639460395FFF7CFFE9948844284
:1042A00008D1CDE9006502954B4642463946039553
:1042B000FFF7C3FE9448844208D1CDE9006502951A
:1042C0004B46424639460395FFF7B7FE8F48844276
:1042D00008D1CDE9006502954B4642463946039523
:1042E000FFF7ABFEBDE8FF8710B50023FFF786FEA2
:1042F000C18819B902894489A2420DD042898388B4
:104300009A4201D100224281036842899B56521C85
:10431000428109B1491EC180D8B210BD10B50C460A
:10432000FFF76CFEC38842890DE08188914200D17D
:1043300000220168895CA14201D1012010BD521CFC
:1043400092B25B1E9BB2002BEFD1002010BD2DE975
:10435000F04180460F46164600244046FFF74EFEC9
:104360000546E88840B1697B4046FFF7D7FF30B982
:10437000E888A988884202D00020BDE8F081761E36
:1043800008E04046FFF7B0FF3855697B884203D00C
:10439000641CA4B2B442F4DB0021641CA0B2395402
:1043A000EBE700B5FFF72AFEC18829B901894089EA
:1043B000814201D1012000BD002000BD00B5FFF702
:1043C0001DFEC1888088814201D1012000BD0020EE
:1043D00000BD00B5FFF712FE0021C18001814181BF
:1043E00000BD00B50B46FFF709FE437300BD10B5D5
:1043F00003460C461846FFF701FE007B00280BD051
:1044000007E019880906FCD59880641C1888000606
:10441000FCD520780028F4D110BD70B504460D46B7
:1044200016462046FFF7EAFD007B00280DD000234A
:1044300009E020880006FCD5E85CA0802088000602
:10444000FCD55B1C9BB2B342F3D370BDC38882889A
:1044500093420DD20389934201D100220281038944
:104460000268D1540189491C0181C188491CC1805D
:10447000704721480188890603D58088C1B2244845
:10448000E4E770471D480088800606D51B48001DDC
:104490000088C1B21E481030D8E77047184800881D
:1044A000800606D51648001D0088C1B21848203085
:1044B000CCE7704713480088800606D51148001DD8
:1044C0000088C1B212483030C0E770470E480188FA
:1044D000890604D58088C1B20D484030B6E77047E0
:1044E0000A480088800606D50848001D0088C1B229
:1044F00007485030AAE770470010014000440040D0
:1045000000480040004C00400050004000140140B2
:10451000800000200146584A914200D15748584A2D
:10452000914201D155480830564A914201D1534831
:104530001030554A914201D150481830534A9142A7
:1045400001D14E482030524A914201D14B48283087
:10455000704710B5FFF7DEFF4E4B42684E499A4256
:1045600004D30A6842F480020A6003E00A6842F455
:1045700000120A604068FFF770FB48484021C160A4
:10458000002141614FF480628261C1610162416238
:104590008162C162032202634163816310BD70B511
:1045A00006460C4615463046FFF7B4FF44600560EA
:1045B0003046BDE87040CCE710B5FFF7ABFF406870
:1045C00010BD10B5FFF7A6FF4068BDE8104002F02F
:1045D00035BC2DE9F04105460F4616462846FFF743
:1045E00099FF04466068406810B10020BDE8F08182
:1045F0002A48216801600661291D41608760606862
:10460000FFF72BFB2549606802F0A3FC6068016896
:1046100041F001010160A88A40F08000A8820120D9
:10462000E4E770B505460C4620460BF09DFA82B2D1
:1046300021462846BDE87040CBE710B50446204629
:10464000FFF768FF4068406808B1012010BD20886E
:1046500040F3C010401C10BD10B5FFF75BFF406871
:10466000BDE81040FFF718BB10B5FFF753FF4068D7
:10467000BDE81040FFF742BB00100140E000002001
:104680000044004000480040004C00400050004002
:104690000014014010640240303802403C05002004
:1046A000AC490844C0F38F2070472DE9F04F044611
:1046B000DDE9099A88462046FFF7F2FFC7B20020DD
:1046C0004FF0030E0125854015EA080F32D0A24EA7
:1046D00036F81710294326F81710D4F80CC04600F6
:1046E0000EFA06F12CEA010C09FA06FB4CEA0B0C57
:1046F000C4F80CC0D4F800C002FA06FB2CEA010C86
:104700004CEA0B0CC4F800C0012A01D0022A11D1D6
:10471000D4F804C0ADB22CEA050C03FA00F5ADB232
:104720004CEA050CC4F804C0A5688D430AFA06F1EA
:104730000D43A560401CC0B21028C3D3BDE8F08F64
:1047400000B5FFF7ADFF01218140844802681143A5
:10475000016000BD2DE9FC410746DDE908650C4616
:104760009046002C09D03846FFF7EAFFCDE90065F6
:10477000424621463846FFF798FFBDE8FC812DE907
:10478000FC4F0746DDE90BB80E4692469946002ECF
:1047900022D03846FFF7D4FF002301210F2201FA6F
:1047A00003F030420DD0D80807EB8004206A5D0783
:1047B000ED0E02FA05FC20EA0C0008FA05F5284384
:1047C00020625B1C102BEAD3CDE9009B53460222EA
:1047D00031463846FFF769FFBDE8FC8F2DE9F0410F
:1047E00005460F462846FFF75BFFC4B200225A4831
:1047F0004FF0010C03210CFA02F33B420CD02E685F
:104800004FEA420801FA08F846EA08062E6030F836
:1048100014609E4320F81460521CD2B2102AEAD3CE
:10482000BDE8F081F0B500220125032605FA02F368
:104830000B4205D00368570006FA07F4A343036050
:10484000521CD2B2102AF1D3F0BDF0B500220127DC
:10485000032507FA02F40C4209D00668530005FA52
:1048600003FC26EA0C0607FA03F426430660521CF2
:10487000D2B2102AEDD3F0BDF0B5002201250326F7
:1048800005FA02F30B4205D00368570006FA07F455
:1048900023430360521CD2B2102AF1D3F0BDF0B50D
:1048A000002201270324022607FA02F30B4209D053
:1048B0000568530004FA03FC25EA0C0506FA03F325
:1048C0001D430560521CD2B2102AEDD3F0BDF0B5E5
:1048D00000230127032507FA03F40C4209D0C66818
:1048E0005C0005FA04FC26EA0C0602FA04F42643EE
:1048F000C6605B1CDBB2102BEDD3F0BD41F48032FF
:10490000C261C161C261C169C0697047002102E032
:10491000491C89B240080128FAD80846704700B5FA
:10492000FFF7BEFE012181400C4802688A43026005
:1049300000BD00B5FFF7B4FE074931F8100000BD17
:1049400000B5FFF7ADFE044931F81000C04380B256
:1049500000BD00000000FEBF780500203038024096
:1049600070477CB5FFF7FCFF0121042001F040FAFD
:10497000042001F08FF94CF20370009000208DF8B4
:1049800004008DF80700FB4D6946284601F054FCF1
:1049900000221146284601F0C7FC002201212846CA
:1049A00001F0C2FC00220821284601F0BDFC0022D3
:1049B0000921284601F0B8FC00220A21284601F00E
:1049C000B3FC00220E21284601F0AEFC00220F218C
:1049D000284601F0A9FC4FF680700090E64C69462D
:1049E000204601F029FC00220721204601F09CFC12
:1049F00000220821204601F097FC002209212046D0
:104A000001F092FC00220A21204601F08DFC0022D8
:104A10000B21204601F088FC00220C21204601F0E9
:104A200083FC00220D21204601F07EFC00220E2195
:104A3000204601F079FC00220F21204601F074FC91
:104A40004FF23F010091CD4E6946304601F0F4FB34
:104A500000221146304601F067FC00220121304659
:104A600001F062FC00220221304601F05DFC0022D0
:104A70000321304601F058FC00220421304601F0A9
:104A800053FC00220521304601F04EFC00220C218F
:104A9000304601F049FC00220D21304601F044FC73
:104AA00000220E21304601F03FFC00220F2130464B
:104AB00001F03AFC3F210091B14E6946304601F0C9
:104AC000BBFB00221146304601F02EFC00220121E2
:104AD000304601F029FC00220221304601F024FC7E
:104AE00000220321304601F01FFC00220421304641
:104AF00001F01AFC00220521304601F015FC4FF4AC
:104B0000605100916946284601F096FB00220B2176
:104B1000284601F009FC00220C21284601F004FC83
:104B200000220D21284601F0FFFB3021009169464B
:104B3000284601F081FB00220421284601F0F4FB05
:104B400000220521284601F0EFFB2115009169465E
:104B5000304601F071FB00220C21304601F0E4FBED
:104B6000032100916946204601F066FB00221146B0
:104B7000204601F0D9FB00220121204601F0D4FBA0
:104B80007CBD2DE9FC4101213A2001F020FD4CF2D1
:104B90003370009002208DF804008DF80500002489
:104BA0008DF806408DF80740724F6946384601F08F
:104BB00043FB0C220021384601F0B6FB0C220121F8
:104BC000384601F0B1FB0C220421384601F0ACFB61
:104BD0000C220521384601F0A7FB0C22082138469B
:104BE00001F0A2FB0C220921384601F09DFB0C22AA
:104BF0000A21384601F098FB0C220E21384601F0BC
:104C000093FB0C220F21384601F08EFB4FF680708B
:104C10000090594E6946304601F00EFB0C220721E8
:104C2000304601F081FB0C220821304601F07CFB6C
:104C30000C220921304601F077FB0C220A21304674
:104C400001F072FB0C220B21304601F06DFB0C22AF
:104C50001146304601F068FB0C220D21304601F070
:104C600063FB0C220E21304601F05EFB0C220F216B
:104C7000304601F059FB082500956946304601F0A1
:104C8000DBFA0C220321304601F04EFB802000901D
:104C90006946384601F0D0FA0C220A21384601F064
:104CA00043FB009501258DF804508DF805408DF8E3
:104CB00006408DF807406946384601F0BDFA6E039C
:104CC00000968DF804508DF805508DF806408DF84B
:104CD00007406946384601F0AFFA3146384601F0E0
:104CE00013FBBDE8FC8100B597B00121084601F037
:104CF00086FC01200190002002900921039104907C
:104D0000059006900790089009900A9010210B9149
:104D10000C900D900E900F9010900902119112902E
:104D20001390149001A81590169008A800F0CAFFDF
:104D30000121002001F05CF817B000BD1149486066
:104D400070471149088070474FF0C04210800E48EC
:104D50000180704701B581B042F21071019848435B
:104D6000009002E00098401E009000980028F9D1C1
:104D70000CBD0000000C0240001002400014024074
:104D800000180240100100200000106010B5FFF76D
:104D9000F8FEFFF7A8FF0520FFF7DCFFFE4C082117
:104DA000204601F0B3FA0A20FFF7D4FF082120467D
:104DB00001F0AAFA01211020FFF7C6FFB2211E2040
:104DC000FFF7C2FF06212820FFF7BEFF01210020C8
:104DD000FFF7BAFF43F2EF010120FFF7B5FF4FF4F1
:104DE000C0610220FFF7B0FF00211020FFF7ACFFE9
:104DF0000520FFF7AFFF46F630011120FFF7A4FFB3
:104E000040F699111220FFF79FFF4FF460512620C2
:104E1000FFF79AFF33210720FFF796FF05210C20AB
:104E2000FFF792FF00213020FFF78EFF40F20331A1
:104E30003120FFF789FF40F207413220FFF784FF5E
:104E400040F2013319463320FFF77EFF1946342024
:104E5000FFF77AFF40F203413520FFF775FF40F27C
:104E600007713620FFF770FF21153720FFF76CFF21
:104E70004FF420613A20FFF767FFA1143B20FFF7B2
:104E800063FF0A210D20FFF75FFF4FF438510E201A
:104E9000FFF75AFF4FF46F414420FFF755FF002101
:104EA0004520FFF751FF40F23F114620FFF74CFF2E
:104EB00000214E20FFF748FF00214F20FFF744FF5D
:104EC00000212220FFF740FF00224FF496330020FC
:104ED000FFF737FF521C9A42F9D3BDE81040AF48A4
:104EE0002CE700B50B4601464E20FFF72DFF194673
:104EF0004F205DF804EB27E74FF0C0410880A84839
:104F0000008870474FF0C041222008807047A448B5
:104F10000088704700B500210846FFF7E2FFFFF761
:104F2000F1FF00209E494FF478424FF4C8430A80B5
:104F3000401C9842FBD34FF4FC624FF4484301E01D
:104F40000A80401C9842FBD31F224FF4963301E0A5
:104F50000A80401C9842FBD300BD03B5BDF8001089
:104F60008E4808380180BDF80410418000E78B4A64
:104F7000083A1388038050880880704701B5BDF84F
:104F8000000086490839088008BD01B5BDF8000059
:104F900082490839488008BD704780480838406811
:104FA00070472DE9F04105468846164600242946FB
:104FB0004046FFF796FF794F083F29E0FFF7A2FF31
:104FC00000231AE00C21B0FBF1F1C90080228A40D5
:104FD00036F814101A410A4201D10C2805D90122D1
:104FE0009A40114205D10C2803D97888FFF7A9FE11
:104FF00002E03888FFF7A5FE5B1C7868808898423D
:10500000E0D86D1CADB229464046FFF76AFF641C2C
:105010007868C088A042D1D8BDE8F08110B4203AA9
:10502000D3B25E4A083A52681468D2885A4304EBF5
:10503000420210BCB5E7F0B507460024574D4FF4C7
:10504000A076083D202221463846FFF7E7FF686832
:105050008188081984B2B442F4D3F0BD30B5054656
:10506000002400210846FFF73CFFFFF74BFF4C49A7
:105070004FF496300D80641C8442FBD330BD2DE983
:10508000F04380460D461646994600242946404680
:10509000FFF727FF414F083FB9F1000F16D1FFF787
:1050A00031FF03E03888FFF74CFE641CB442F9D3AB
:1050B000BDE8F083FFF726FF3888FFF742FE6D1C3E
:1050C000ADB229464046FFF70CFF641CB442F1D351
:1050D000EEE7B0F5A07F08D2002906DBEF2904DC5B
:1050E000002389B280B20122C9E770472DE9F0415F
:1050F00080460D460024294E4FF4A077083E0AE072
:1051000021464046FFF78AFF70688088204484B2B9
:10511000BC4281D26D1C2A78002AF1D17CE770B59F
:1051200004460D46164621464520FFF70DFEA219FE
:10513000B2F5A07F05D340F23F114620FFF704FEF1
:1051400003E091B24620FFF7FFFDEA18F02A02D3F0
:105150004FF46F4200E01202224391B24420FFF765
:10516000F3FD29462046BDE87040BAE67047F0B529
:1051700004460F4615461E46012332463946204650
:10518000FFF77DFF6019401E80B201233246394689
:10519000FFF775FF002305E0000C02401801002016
:1051A000000010602A4639462046FFF768FFB8190C
:1051B00081B22A462046BDE8F04000235FE72DE992
:1051C000FC4F804689460320A0EB4206002415468A
:1051D00074E008EB040009EB050A01901FFA8AF15C
:1051E00080B2FFF77EFEFFF78DFEFE4F3888FFF797
:1051F000A8FD0198A9EB050B1FFA8BF180B2FFF710
:1052000070FEFFF77FFE3888FFF79BFD1FFA8AF1DB
:10521000A8EB040A1FFA8AF0FFF763FEFFF772FE9D
:105220003888FFF78EFD1FFA8BF11FFA8AF0FFF71F
:1052300058FEFFF767FE3888FFF783FD09EB04008F
:1052400081B208EB050A00901FFA8AF0FFF749FEC9
:10525000FFF758FE3888FFF774FDA9EB040B1FFA1F
:105260008BF11FFA8AF0FFF73CFEFFF74BFE388800
:10527000FFF767FD0098A8EB050A81B21FFA8AF0D4
:10528000FFF72FFEFFF73EFE3888FFF75AFD1FFAA3
:105290008BF11FFA8AF0FFF724FEFFF733FE388800
:1052A000FFF74FFD002E03DA06EB8406B61D04E07F
:1052B000601B06EB80060A366D1E641CAC4288D962
:1052C000BDE8FC8FF0B50646002440F23F110020F7
:1052D000FFF707FEFFF716FEC24D01234FF41667D6
:1052E000002256F8241003FA02F0014203D1688824
:1052F000FFF727FD02E02888FFF723FD521C202A34
:10530000EFD3641CBC42EBD3F0BD70472DE9F043F2
:105310000746894690461C46B24E3088FFF72EFE5F
:105320000023424649463846FFF7A9FE09EB040030
:1053300081B2002342463846FFF7A1FE01232246F0
:1053400049463846FFF79BFE07EB0800401E80B237
:10535000012322464946FFF792FE641EA5B209F1D9
:1053600001091FFA89F47088FFF708FE07E021465B
:10537000641CA4B2002342463846FFF780FE6D1E2F
:10538000ADB2F4D23088BDE8F043F7E52DE9F74F30
:105390000746884602980321A1EB40060024029D9F
:1053A00090484088FFF7EAFD4FF6FF7935E09DB160
:1053B00009EA450208EB050A381B93461FFA8AF1F1
:1053C00080B20023FFF75BFE38195A461FFA8AF1B4
:1053D00080B20023FFF753FE9CB109EA440208EBB8
:1053E000040A781B93461FFA8AF180B20023FFF764
:1053F00046FE78195A461FFA8AF180B20023FFF759
:105400003EFE002E03DA06EB8406B61D04E0601BA8
:1054100006EB80060A366D1E641CAC42C7D9714883
:105420000088FFF7ABFD029A03B041463846BDE85D
:10543000F04FC4E62DE9FC5F84460C460027A2EB42
:105440000C00002801DCACEB020000B2191B0029A3
:1054500000DCE11A09B20FFA8CF526B24FF0FF3BDF
:10546000624503D34FF00109CA4601E0D946DA4646
:10547000A34204D34FF0010B0122019201E0CDF8C9
:1054800004B088420ADB4FF000090022019200EBD1
:10549000D072521014B20091804623E04FF0000AFF
:1054A000D34601EBD172521014B20090884619E035
:1054B00031462846FFF70DFE0098204404B24445CB
:1054C00008DBA4EB080004B205EB090005B206EB0B
:1054D0000B0006B205EB0A0005B20198304406B293
:1054E0007F1C3FB24745E3DDBDE8FC9F70B5044635
:1054F0000D46022D0DD308E020886188241D89B255
:105500006388228880B2FFF795FF6D1E2D042D0C55
:10551000F2D170BD2DE9F04704460F469146A046F2
:10552000022F25D3B4F90050B4F9026010E0241D15
:10553000B1B26088304483B22088284482B2A8B2D5
:10554000FFF778FF2088284405B26088304406B20F
:105550007F1E3F043F0CEAD1B9F1000F08D0B3B26F
:10556000AAB2B8F80210B8F80000BDE8F04761E749
:10557000BDE8F08770B504460D4629462046FFF782
:10558000B5FF04EB8500001F6188438802882088EE
:10559000BDE870404EE70022BCE70122BAE72DE9E2
:1055A000F34FE9B00446B4F800A0D34665880195EE
:1055B000012013E004EB80014988514500D28A465E
:1055C000594500D98B4634F82020AA4200D215460E
:1055D00001998A4200D90192401C80B26A9988429E
:1055E000E8D301E0100100205F484088FFF7C6FCC7
:1055F0000295AEE04FF000096A98401E1FFA80F84D
:1056000000254FE002980AF0F1FA0646679168908B
:105610000F4634F925000AF0D8FA32463B460AF024
:10562000F3FA0AD234F92800679F689E0AF0CDFA8F
:1056300032463B460AF000FB15D934F92800679F33
:10564000689E0AF0C2FA32463B460AF0DDFA26D2DC
:1056500034F92500679F689E0AF0B7FA32463B4648
:105660000AF0EAFA1BD804EB8800029BB0F902109A
:1056700004EB8500B0F902000A1A34F925105B1A10
:105680005A4334F92830591A92FBF1F10144484643
:1056900003AA09F101091FFA89F922F81010A84696
:1056A0006D1CADB26A988542ACD30020A9F101050A
:1056B00003AF0FE0411C37F8102037F811309A4241
:1056C00007D927F8103027F8112018B1401E80B2F2
:1056D00000E088B2A842EDDB002534E037F8150081
:1056E000584532D26E1C37F81610514529D950450D
:1056F00001D227F815A037F81600584501D927F828
:1057000016B0DFF86480B8F80200FFF737FC37F80E
:10571000161037F815000023081A82B20298FFF716
:10572000AEFCB8F80000FFF729FC029837F9161014
:1057300000B20646FFF7CDFC37F915103046FFF7EB
:10574000C8FCAD1CADB24D45C8D30298401C80B218
:105750000290DDE901108842FFF44CAF0248008856
:105760006BB0BDE8F04F09E4100100201CB5044601
:10577000FE48012150F8240000F029FFFB482038A2
:1057800030F81400009001208DF8040000218DF8FD
:1057900006108DF8070002208DF80500F4486946D0
:1057A00050F8240000F048FD1CBDF049F04A2039B3
:1057B00031F8101052F8200001837047EB49EC4A91
:1057C000203931F8101052F8200041837047E84921
:1057D00051F820104A69E54B203B33F81000424055
:1057E0004A61704770B586B004460E46DF48012115
:1057F0003C3850F8240000F0EAFE0121880300F054
:1058000016FF00258DF814508DF81750D7484038F2
:1058100030F814000490D64804A91C3850F824002D
:1058200000F00AFD012E25D1D0484338015D401E0D
:10583000005D01F0A2F8CD483E3830F81400029027
:105840008DF80C5008208DF80D0001258DF80E50B4
:1058500002A800F0B7F9C5484238005D8DF8040091
:105860000F208DF805008DF806008DF8075001A86F
:1058700001F08BFA06B070BDBC49BD4A40391C3AF4
:1058800031F8101052F8200000F02ABD2DE9FC413B
:1058900004460E46B548B5491038083950F824007A
:1058A00051F824100843012100F091FEAF48012176
:1058B000183850F8240000F0BAFEAC48AC4F283835
:1058C000103F10F81420083830F8141057F824004E
:1058D00000F02AFDA54807F10808243810F8142024
:1058E000083830F8141058F8240000F01DFD00208E
:1058F0008DF8060001208DF8070002258DF8045070
:105900009A48383830F8140000908DF8055057F850
:105910002400694600F090FC8DF804509348343818
:1059200030F81400009058F82400694600F084FC18
:10593000A7F10805314655F8240001F09BF855F809
:105940002400012101F00FF9BDE8FC817CB50020A5
:1059500000F04EFF002000F04EFF00F021FF00217C
:105960004FF4006000F063FE824C002208212046C4
:1059700000F0DAFC00220921204600F0D5FC0022CC
:105980000A21204600F0D0FC00220B21204600F026
:10599000CBFC00220C21204600F0C6FC764D0022F4
:1059A0000221284600F0C0FC4FF4706100910021F4
:1059B0008DF804108DF807106946204600F03CFC75
:1059C000042100916946284600F036FCA11400919C
:1059D0006946204600F030FC7CBD2DE9FC410121E8
:1059E0000E2000F0F4FD634E0C220821304600F03A
:1059F0009BFC0C220921304600F096FC0C220A2167
:105A0000304600F091FC0C220B21304600F08CFC5B
:105A10000C221146304600F087FC574F0C22022121
:105A2000384600F081FC4FF47060009001248DF83E
:105A3000054002208DF8040000258DF806508DF8F1
:105A400007406946304600F0F7FB042100916946A3
:105A5000384600F0F1FB200300908DF807506946AE
:105A6000304600F0E9FBE00300908DF804508DF81B
:105A700007406946414800F0DFFB0121C80200F001
:105A8000D6FD0121880500F0A2FD5DE730B58FB09D
:105A900004463B4D4FF0FA51284601F002FB00212D
:105AA000284601F08FFA284601F0C8F94FF000604F
:105AB000009034480190029440200390002004900C
:105AC0000590291506918900079189000891099090
:105AD0004FF440300A9004200B9003200C904802B1
