:020000040800F2
:1000000030C4002075D50008092F00080B2F000808
:100010000D2F00080F2F0008112F0008000000000E
:100020000000000000000000000000009D0100082A
:10003000152F000800000000CD010008192F00084E
:100040008FD500088FD500088FD500088FD5000800
:100050008FD500088FD50008552F0008812F000884
:100060007B300008C53000080F310008F53A000861
:10007000FB3A0008013B0008073B00080D3B000865
:10008000133B0008193B00088FD500088FD50008E6
:100090008FD500088FD500088FD50008593100088A
:1000A0008FD500088FD500088FD500088FD50008A0
:1000B0008FD50008593200088FD500088FD5000869
:1000C0008FD500088FD500088FD500088FD5000880
:1000D0008FD50008A3410008B5410008CD410008B4
:1000E000AD2F00088FD500088FD500088FD50008E8
:1000F0008FD500088FD500088FD500081F3B00085A
:100100008FD500088FD500088FD500088FD500083F
:10011000E5410008FD4100088FD500088FD5000893
:10012000253B0008293B00082F3B0008353B000811
:100130003B3B00081D2F00088FD500088FD5000815
:100140008FD500088FD500088FD500088FD50008FF
:10015000413B0008473B00084D3B000811420008A6
:100160008FD500088FD500088FD500088FD50008DF
:100170008FD500088FD500088FD500088FD50008CF
:100180008FD500088FD50008DFF80CD00DF0B0FC3B
:10019000004800478503000830C40020194B196847
:1001A0000868B0E8F00F80F309884FF0000080F392
:1001B00011884EF00D0E70470000000002480068E4
:1001C000006880F3088800DF08ED00E0EFF30980A5
:1001D0000C4B1A6820E9F00F106008B54FF0BF0013
:1001E00080F311880CF0C9FF4FF0000080F31188F4
:1001F000BDE8084019680868B0E8F00F80F3098886
:10020000704700BF1402002001B44FF0BF0080F31C
:10021000118801BC704701B44FF0000080F31188D1
:1002200001BC7047F84DF94C2021284605F0A1FA91
:100230000028F9D0284605F0FEF9206807F0D2FD25
:10024000F2E7F34EF34FF44C4FF480784FF400791B
:100250004FF4FA7A0421304604F07AFD054608216D
:10026000304604F075FD45EA40051021304604F0A3
:100270006FFD45EA80058021304604F069FD45EABE
:10028000C0050821384604F063FD45EA0015202129
:10029000384604F05DFD45EA40154146384604F015
:1002A00057FD45EA80154946384604F051FD45EAB8
:1002B000C0102070207805280DD1D84D292128465E
:1002C00004F05AFD1221284604F058FD4FF4004175
:1002D000D34804F05DFD50460CF0CBFDBAE708B5FD
:1002E000D04ED14D2021304605F043FA0028F9D0F8
:1002F000304605F0A0F9A628F4D12870012409E0C1
:100300002021304605F035FA0028F9D0304605F0B6
:1003100092F928550C2CF3DD287B8628E2D1A878A9
:10032000552803D07128DDD1E879DBE7BA480023EE
:100330006A46194680690CF0FFFAD3E7002004F002
:10034000D8F9FA200CF095FDF8E70FB410B5C0B05D
:10035000044644AB4FF480716846439A0DF04AFC62
:1003600082B26946204603F0CCFF40B010BC5DF875
:1003700014FB10B5002004F08BF9BDE810400120FB
:1003800004F086B91FB5A8484FF4E131A0380160E8
:1003900000248480C480048184810C214181FFF782
:1003A000E8FF03F073F803F0C1F99F490020A0397A
:1003B00003F006F89C490120A03903F001F89A499E
:1003C0000220A03902F0FCFF984D284603F059FFA7
:1003D0008D4803F056FF934803F053FF94A128463D
:1003E000FFF7B3FF002101200CF078F98A4D286156
:1003F00020B100231A4619460CF00FFA0021012003
:100400000CF06CF9686120B100231A4619460CF013
:1004100004FA002101200CF061F9A86120B1002349
:100420001A4619460CF0F9F9002101200CF056F992
:10043000E86120B100231A4619460CF0EEF90021BC
:1004400001200CF04BF9286220B100231A4619460E
:100450000CF0E3F90125CDE9005400230294802239
:100460007CA1AFF2271003940CF0DAFBCDE9005425
:1004700000236E020294324678A1AFF29D100394DD
:100480000CF0CEFBCDE9005402940023324675A156
:10049000AFF2512003940CF0C3FB5F4832460C309E
:1004A000CDE90104002371A1AFF2872000950394E8
:1004B0000CF0B6FB0CF09BFDFEE72DE9F05F5A4D0A
:1004C000CA274FF006084FF036094FF0F90A00240A
:1004D00010350CF0AFFD504E716A401AB0F55C6FEC
:1004E0006FD8A6212970102169708121A970C1B22D
:1004F000E970C0F307222A71C0F307436B71000E45
:10050000A87196F800C0BCF1250F71D2DFE80CF09D
:10051000701D1D292E3338434E5A6571B2BDC8CDAA
:10052000D2D7DCE3F1F7FEEDECEBEAE97013701ED5
:100530001D1D1D1D1D00EC712C724FF0DF0C85F888
:1005400009C04FF0AB0C85F80AC01FE1EC712C72AA
:100550004FF0DF0C85F809C04FF0AB0C85F80AC0EE
:1005600014E1EC712C726C72AC720FE1EC712C72B4
:100570006C72AC720AE1EC712C726C72AC7205E1B7
:100580004FF0620C85F807C04FF0280C85F808C0C2
:100590006C72AC72FAE04FF0BF0C85F807C04FF0F8
:1005A0002B0C85F808C06C72AC72EFE04FF0350C84
:1005B00085F807C04FF0390C85F808C06C72AC7232
:1005C000E4E002E14FF0920C85F807C04FF03C0CDC
:1005D00085F808C06C72AC72D8E04FF0620C85F8F8
:1005E00007C04FF0280C85F808C06C72AC72CDE0E3
:1005F000C8E04FF0BF0C85F807C04FF02B0C85F812
:1006000008C06C72AC72C1E0004400404800002099
:10061000000C0240000402400000002000100240D4
:1006200000000240004800401C0300200010014070
:100630000A0D53657269616C20636F6D6D756E692B
:10064000636174696F6E20636F6D706C6574652192
:100650000A0D00004C45443400000000554152543E
:100660000000000047434F4D000000005245534535
:100670004E4400004FF0CB0C85F807C04FF0300C13
:1006800085F808C06C72AC7280E04FF0290C85F8D8
:1006900007C04FF0340C85F808C06C72AC7275E07E
:1006A000EC712C726C72AC7270E0EC712C726C722A
:1006B000AC726BE0EC712C726C72AC7266E0EC7137
:1006C0002C726C72AC7261E085F8079085F808A016
:1006D0006C72AC725AE0EF7185F808806C72AC7283
:1006E00054E03EE02CE024E01DE016E00EE006E0E1
:1006F000FFE7EC712C726F7285F80A8046E0EC71AE
:100700002C7285F8099085F80AA03FE085F80790DB
:1007100085F808A06C72AC7238E0EF7185F808803B
:100720006C72AC7232E0EC712C726F7285F80A80D8
:100730002CE0EC712C7285F8099085F80AA025E070
:100740004FF0210C85F807C04FF0540C85F808C015
:100750004FF0940C85F809C04FF0FF0C85F80AC0E3
:1007600014E04FF0210C85F807C04FF0540C85F8C9
:1007700008C04FF0940C85F809C04FF0FF0C85F8C5
:100780000AC003E0EC712C726C72AC72EC724FF028
:10079000020C85F80CC04FF0010C85F80DC08131BA
:1007A0001A4411440844E9790844297A0844697ACA
:1007B0000844A97A0844C01CA8738620E873102254
:1007C000FD49FE4803F09DFD53E1A621297010214B
:1007D00069708121A970C1B2E970C0F307222A7142
:1007E000C0F307436B71000EA87196F800C0BCF10E
:1007F000250F70D2DFE80CF06F1D1D292E33384312
:100800004E5964707B8691969BA0A5B0BBC6D1DC87
:10081000E7F5F3F26F136F1E1D1D1D1D1D00EC711A
:100820002C724FF0010C85F809C04FF0C00C85F810
:100830000AC003E1EC712C724FF0010C85F809C07D
:100840004FF0C00C85F80AC0F8E0EC712C726C72A5
:10085000AC72F3E0EC712C726C72AC72EEE0EC7185
:100860002C726C72AC72E9E04FF0B80C85F807C0DE
:100870004FF01E0C85F808C06C72AC72DEE04FF0D1
:10088000470C85F807C04FF0210C85F808C06C7242
:10089000AC72D3E04FF0840C85F807C04FF02B0CFE
:1008A00085F808C06C72AC72C8E04FF0140C85F883
:1008B00007C04FF02E0C85F808C06C72AC72BDE01A
:1008C0004FF0B80C85F807C04FF01E0C85F808C033
:1008D0006C72AC72B2E0ADE04FF0AB0C85F807C0C3
:1008E0004FF0210C85F808C06C72AC72A6E04FF096
:1008F0001E0C85F807C04FF0250C85F808C06C72F7
:10090000AC729BE04FF0AE0C85F807C04FF0270C9F
:1009100085F808C06C72AC7290E0EC712C726C724D
:10092000AC728BE0EC712C726C72AC7286E0EC7184
:100930002C726C72AC7281E0EC712C726C72AC72C5
:100940007CE04FF0D60C85F807C04FF0FA0C85F824
:1009500008C06C72AC7271E04FF02A0C85F807C0C9
:100960004FF0050C85F808C06C72AC7266E0EC7153
:100970002C724FF02A0C85F809C04FF0050C85F851
:100980000AC05BE0EC712C724FF0D60C85F809C000
:100990004FF0FA0C85F80AC050E04FF0D60C85F8FD
:1009A00007C04FF0FA0C85F808C06C72AC7245E0D5
:1009B0004FF02A0C85F807C04FF0050C85F808C0E9
:1009C0006C72AC723AE0EC712C724FF02A0C85F824
:1009D00009C04FF0050C85F80AC02FE01BE00BE0C2
:1009E000FFE7EC712C724FF0D60C85F809C04FF080
:1009F000FA0C85F80AC021E04FF0FF0B85F807B02C
:100A00004FF03F0C85F808C04FF0AF0C85F809C0D7
:100A100085F80AB012E04FF0FF0B85F807B04FF0F1
:100A20003F0C85F808C04FF0AF0C85F809C085F879
:100A30000AB003E0EC712C726C72AC72EC724FF085
:100A4000020C85F80CC06C7381311A4411440844BF
:100A5000E9790844297A0844697A0844A97A08445B
:100A6000801CA8738620E87310225349534803F072
:100A700048FC14200CF0FDF900231A461946B06911
:100A80000BF0A4FF01287FF424ADBDE8F09F2DE911
:100A9000FF5F4B4C2078DFF82CB14B4D002826D05F
:100AA0002078FF2823D02078434E0027203E4FF0A7
:100AB000AA0906F110084FF00B0A122801F036823D
:100AC00034DC122876D2DFE810F075005202D3022F
:100AD0003603AD032204960415058905FF05730648
:100AE000F5066807DC075208C6084709BB0948F243
:100AF0002811364804F040F94FF40061344804F0FE
:100B00003BF9FB21584604F037F900220221284620
:100B100005F0FDFC0021284605F0D8FA60680028A1
:100B200048D004B0BDE8F05F0CF0E2B81B2801F03B
:100B30002B860DDCA0F113000828C3D2DFE810F0EB
:100B40006A0AEC0A5F0BD20B470CBA0C3C0DAF0DD6
:100B5000222801F0F3867DDC1D287CD01F287BD065
:100B6000202801F08486212824D100220221284651
:100B700005F0CDFC0021284605F0A8FA15480760CD
:100B80004FF40041114804F0F9F83921584604F0B7
:100B9000F3F80221584604F0F1F800234FF0FF3B30
:100BA0005A461946A0690BF011FF0128DCD1A62096
:100BB000307011E0CFE000002C0300200010014055
:100BC000000000200010024000040040000002402D
:100BD000000C02403C0000200D20707086F802904E
:100BE00098F8030098F80410084498F8051010FBD2
:100BF00001F0F070030A3371010C7171020EB271D1
:100C000086F807A037727772B772F772AA30194464
:100C1000084410440B303073862070730D22FE4957
:100C2000FE4803F06EFB00235A46194620690BF07C
:100C3000CDFE012898D10CF0FDF9606240F23551EB
:100C4000284605F0D5F80021284605F03FFA6068EF
:100C5000002802E007E072E0FDE07CD004B0BDE8CF
:100C6000F05F0CF045B8232801F0DE8624289DD1E2
:100C700000220221284605F04AFC0021284605F002
:100C800025FAE74807604FF40041E64804F074F89D
:100C90002221584604F072F81921584604F06CF8E5
:100CA00000234FF0FF3B5A461946A0690BF08EFE19
:100CB0000128BFD1A62030700D20707086F80290F8
:100CC00098F8030098F80410084498F8051010FBF1
:100CD00001F0F070020A3271030C7371010EB171F0
:100CE00086F807A037727772B772F772AA301A4483
:100CF000104408440B303073862070730D22C649AF
:100D0000C64803F0FEFA00235A46194620690BF044
:100D10005DFE01288ED10CF08DF9606240F23551F4
:100D2000284605F065F80021284605F0CFF96068EF
:100D3000002892D004B0BDE8F05F0BF0D9BF0022CC
:100D40000221284605F0E3FB0021284605F0BEF904
:100D5000B348076000E0F7E04FF40041B14804F009
:100D60000BF83121584604F007F80A21584604F0E0
:100D700005F800234FF0FF3B5A461946A0690BF0D7
:100D800025FE012895D1A62030700D20707086F8C0
:100D9000029098F8030098F80410084498F8051099
:100DA00010FB01F0F070010A3171020C7271030E38
:100DB000B37186F807A037727772B772F772AA30EC
:100DC0001144084418440B303073862070730D2290
:100DD0009149924803F095FA00235A461946206932
:100DE0000BF0F4FD012895D10CF024F960628E48D7
:100DF000CDE90107012100234A02009103978BA14D
:100E0000AFF649100BF00CFF0021284605F02AF838
:100E10004FF4AF61284604F0EBFF6421284605F04B
:100E200055F901220221284605F071FB0A200CF039
:100E300020F80121284605F015F800235A461946E6
:100E400060690BF0C3FD606800287DD004B0BDE888
:100E5000F05F0BF04DBF00220221284605F057FB42
:100E60000021284605F032F96D4807604FF4004133
:100E70006C4803F081FF3921584603F07DFF0221C1
:100E8000584603F07BFF00234FF0FF3B5A461946BC
:100E9000A0690BF09BFD0128A5D1A62030700D2084
:100EA000707086F8029098F8030098F804100844CF
:100EB00098F8051010FB01F0F070010A3171020C76
:100EC0007271030EB37186F807A037727772B7722A
:100ED000F772AA301144084418440B30307386204E
:100EE00070730D224C494D4803F00BFA00235A460B
:100EF000194620690BF06AFD0128CDD10CF09AF853
:100F000060624948CDE90107012100234A020091AE
:100F1000039746A1AFF65D200BF082FE0021284624
:100F200004F0A0FF4FF4AF61284604F061FF642194
:100F3000284605F0CBF801220221284605F0E7FA01
:100F40000A200BF096FF00E065E00121284604F03E
:100F500089FF00235A46194660690BF037FD606827
:100F6000002858D004B0BDE8F05F0BF0C1BE31A13D
:100F70002A48FFF7EAF900220221284605F0C7FABD
:100F80000021284605F0A2F8254807604FF40041EB
:100F9000244803F0F1FE3A21584603F0EDFE01210A
:100FA000584603F0EBFE00234FF0FF3B5A4619462C
:100FB000A0690BF00BFD01289FD1A62030700D20F9
:100FC000707086F8029098F8030098F804100844AE
:100FD00098F8051010FB01F0F070010A3171020C55
:100FE0007271030EB37186F807A037727772B77209
:100FF000F772AA301144084418440B30307386202D
:1010000070730D220449054803F07BF900235A460A
:101010001946206914E0A5E00C03002000100140EF
:101020003C00002000000240080000204649454CDA
:10103000440000000A0D474F4F440A0D0000000015
:101040000BF0C4FC0128B7D10BF0F4FF606240F252
:101050003551284604F0CCFE0021284605F036F82C
:10106000606800287ED004B0BDE8F05F0BF040BEA1
:1010700000220221284605F04AFA0021284605F000
:1010800025F8FE4807604FF40041FD4803F074FE68
:101090003B21584603F070FE00234FF0FF3B5A46B9
:1010A0001946A0690BF092FC012885D1A62030706A
:1010B0000D20707086F8029098F8030098F80410DC
:1010C000084498F8051010FB01F0F070010A317126
:1010D000020C7271030EB37186F807A03772777233
:1010E000B772F772AA301144084418440B303073B9
:1010F000862070730D22E349E34803F002F90023D0
:101100005A46194620690BF061FC01289BD10BF06F
:1011100091FF606240F23251284604F069FE64217A
:10112000284604F0D3FF606800289BD004B0BDE8D7
:10113000F05F0BF0DDBD00220221284605F0E7F943
:101140000021284604F0C2FFCC4807604FF400415C
:10115000CB4803F011FE3121584603F00DFE0A2161
:10116000584600E040E203F009FE00234FF0FF3B49
:101170005A461946A0690BF029FC012895D1A620F2
:1011800030700D20707086F8029098F8030098F87F
:101190000410084498F8051010FB01F0F070010AE3
:1011A0003171020C7271030EB37186F807A03772A9
:1011B0007772B772F772AA301144084418440B30A2
:1011C0003073862070730D22AE49AF4803F099F852
:1011D00000235A46194620690BF0F8FB012895D1E7
:1011E0000BF028FF6062A948CDE901070121002327
:1011F0004A0203970091AFF2CC11AFF641500BF0C9
:101200000FFD40F23551284604F0F2FD64212846D6
:1012100004F05CFF6068002887D004B0BDE8F05F90
:101220000BF066BD00220221284605F070F900216E
:10123000284604F04BFF914807604FF40041904866
:1012400003F09AFD3921584603F096FD02215846D5
:1012500003F094FD00234FF0FF3B5A461946A06966
:101260000BF0B4FB012889D1A62030700D207070DE
:1012700086F8029098F8030098F80410084498F84B
:10128000051010FB01F0F070010A3171020C72714F
:10129000030EB37186F807A037727772B772F772D0
:1012A000AA301144084418440B3030738620707300
:1012B0000D227449744803F024F800235A46194655
:1012C00020690BF083FB012889D10BF0B3FE60622B
:1012D0006E48CDE90107012100234A0203970091DE
:1012E000AFF2B821AFF62D600BF09AFC40F2355109
:1012F000284604F07DFD6421284604F0E7FE60687E
:10130000002889D004B0BDE8F05F0BF0F1BC0022EA
:101310000221284605F0FBF80021284604F0D6FEFD
:10132000564807604FF40041554803F025FD292138
:10133000584603F021FD1221584603F01FFD0023FB
:101340004FF0FF3B5A461946A0690BF03FFB0128BE
:1013500089D1A62030700D20707086F8029098F820
:10136000030098F80410084498F8051010FB01F0E9
:10137000F070020A3271010C7171030EB37186F8BC
:1013800007A037727772B772F772AA301144084417
:1013900018440B303073862070730D2239493A4857
:1013A00002F0AFFF00235A46194620690BF00EFBEE
:1013B000012889D10BF03EFE6062012033498DE89F
:1013C000830000234202AFF29C31AFF61170039705
:1013D0000BF026FC40F23551284604F009FD64214B
:1013E000284604F073FE606800288AD004B0BDE887
:1013F000F05F0BF07DBC00220221284605F087F843
:101400000021284604F062FE1C4807604FF40041AA
:101410001B4803F0B1FC3121584603F0ADFC0A2112
:10142000584603F0ABFC00234FF0FF3B5A461946E9
:10143000A0690BF0CBFA01288AD1A62030700D20CC
:10144000707086F8029098F8030098F80410084429
:1014500098F8051010FB01F0F070020A3271010CCF
:101460007171030EB37186F807A037727772B77285
:10147000F772AA3011440844184409E03C000020E7
:10148000000002400C030020001001400800002072
:101490000B303073862070730D22FE49FE4802F037
:1014A00030FF00235A46194620690BF08FFA0128B5
:1014B000C2D10BF0BFFD6062F848CDE90107012100
:1014C00000234A0203970091AFF2A041F4480BF0C9
:1014D000A7FB40F2DC51284604F08AFC6421284630
:1014E00004F0F4FD606800287ED004B0BDE8F05F31
:1014F0000BF0FEBB00220221284605F008F800216F
:10150000284604F0E3FDE74807604FF40041E64851
:1015100003F032FC3121584603F02EFC0A215846D4
:1015200003F02CFC00234FF0FF3B5A461946A069FC
:101530000BF04CFA0128BBD1A62030700D20707042
:1015400086F8029098F8030098F80410084498F878
:10155000051010FB01F0F070010A3171020C72717C
:10156000030EB37186F807A037727772B772F772FD
:10157000AA301144084418440B303073862070732D
:101580000D22C449C44802F0BCFE00235A46194645
:1015900020690BF01BFA01288AD10BF04BFD606229
:1015A000BE48CDE90107012100234A0203970091BB
:1015B000AFF28851BA480BF033FB40F2DC512846B9
:1015C00004F016FC6421284604F080FD60680028C1
:1015D0008AD004B0BDE8F05F0BF08ABB0022022184
:1015E000284604F094FF00E04FE20021284604F072
:1015F0006DFDAC4807604FF40041AB4803F0BCFB05
:101600003121584603F0B8FB0A21584603F0B6FBD7
:1016100000234FF0FF3B5A461946A0690BF0D6F95C
:10162000012888D1A62030700D20707086F80290B5
:1016300098F8030098F80410084498F8051010FB77
:1016400001F0F070010A3171020C7271030EB37176
:1016500086F807A037727772B772F772AA30114412
:10166000084418440B303073862070730D2289496A
:10167000894802F046FE00235A46194620690BF0BD
:10168000A5F9012888D10BF0D5FC60628348CDE92B
:101690000107012100234A0203970091AFF2746110
:1016A0007F480BF0BDFA40F2DC51284604F0A0FB65
:1016B0006421284604F00AFD6068002888D004B040
:1016C000BDE8F05F0BF014BB00220221284604F0B5
:1016D0001EFF0021284604F0F9FC724807604FF411
:1016E0000041714803F048FB3121584603F044FBA8
:1016F0000A21584603F042FB00234FF0FF3B5A46B5
:101700001946A0690BF062F901288AD1A620307031
:101710000D20707086F8029098F8030098F8041075
:10172000084498F8051010FB01F0F070010A3171BF
:10173000020C7271030EB37186F807A037727772CC
:10174000B772F772AA301144084418440B30307352
:10175000862070730D224F494F4802F0D2FD0023BE
:101760005A46194620690BF031F901288AD10BF04D
:1017700061FC60624948CDE90107012100234A026A
:1017800003970091AFF25C7145480BF049FA40F2C3
:10179000DC51284604F02CFB6421284604F096FC1A
:1017A000606800288AD004B0BDE8F05F0BF0A0BAF2
:1017B00000220221284604F0AAFE0021284604F057
:1017C00085FC384807604FF40041374803F0D4FAED
:1017D0003921584603F0D0FA0221584603F0CEFAD8
:1017E00000234FF0FF3B5A461946A0690BF0EEF874
:1017F00001288AD1A62030700D20707086F80290E2
:1018000098F8030098F80410084498F8051010FBA5
:1018100001F0F070010A3171020C7271030EB371A4
:1018200086F807A037727772B772F772AA30114440
:10183000084418440B303073862070730D2215490C
:10184000154802F05EFD00235A46194620690BF048
:10185000BDF801288AD10BF0EDFB60620F48CDE99D
:101860000107012100234A0203970091AFF64401CA
:101870000B480BF0D5F94FF4AF61284604F0B8FAE5
:101880006421284604F022FC606800288AD004B055
:101890000CE000000C0300200010014008000020B4
:1018A000BB0400083C00002000000240BDE8F05FDF
:1018B0000BF01EBA00220221284604F028FE002167
:1018C000284604F003FCFE4807604FF40041FD4841
:1018D00003F052FA3921584603F04EFA02215846D5
:1018E00003F04CFA00234FF0FF3B5A461946A0691B
:1018F0000BF06CF80128ADD1A62030700D2070706F
:1019000086F8029098F8030098F80410084498F8B4
:10191000051010FB01F0F070020A3271010C7171B8
:10192000030EB37186F807A037727772B772F77239
:10193000AA301144084418440B3030738620707369
:101940000D22E149E14802F0DCFC00235A46194629
:1019500020690BF03BF80128CDD10BF06BFB6062E6
:101960000120DB498DE8830000234202AFF64411D9
:10197000D84803970BF054F94FF4AF61284604F0B0
:1019800037FA6421284604F0A1FB606800287CD067
:1019900004B0BDE8F05F0BF0ABB90022022128468D
:1019A00004F0B5FD0021284604F090FBC448076010
:1019B0004FF40041C34803F0DFF93921584603F0E2
:1019C000DBF90221584603F0D9F900234FF0FF3B21
:1019D0005A461946A0690AF0F9FF01288BD1A620C2
:1019E00030700D20707086F8029098F8030098F817
:1019F0000410084498F8051010FB01F0F070010A7B
:101A00003171020C7271030EB37186F807A0377240
:101A10007772B772F772AA301144084418440B3039
:101A20003073862070730D22A749A84802F069FC24
:101A300000235A46194620690AF0C8FF01288BD1B5
:101A40000BF0F8FA6062A248CDE9010701210023FA
:101A50004A0203970091AFF62C219E480BF0E0F864
:101A60004FF4AF61284604F0C3F96421284604F01E
:101A70002DFB606800288AD004B0BDE8F05F0BF051
:101A800037B900220221284600E0DFE104F03FFDE3
:101A90000021284604F01AFB894807604FF40041F2
:101AA000884803F069F93921584603F065F90221A5
:101AB000584603F063F900234FF0FF3B5A4619469E
:101AC000A0690AF083FF012888D1A62030700D207C
:101AD000707086F8029098F8030098F80410084493
:101AE00098F8051010FB01F0F070010A3171020C3A
:101AF0007271030EB37186F807A037727772B772EE
:101B0000F772AA301144084418440B303073862011
:101B100070730D226C496D4802F0F3FB00235A46A6
:101B2000194620690AF052FF012888D10BF082FA89
:101B300060626748CDE90107012100234A0203974B
:101B40000091AFF6183163480BF06AF84FF4AF61BB
:101B5000284604F04DF96421284604F0B7FA60687D
:101B6000002888D004B0BDE8F05F0BF0C1B80022B7
:101B70000221284604F0CBFC0021284604F0A6FAF6
:101B80004F4807604FF400414E4803F0F5F831210B
:101B9000584603F0F1F80A21584603F0EFF8002305
:101BA0004FF0FF3B5A461946A0690AF00FFF012883
:101BB0008AD1A62030700D20707086F8029098F8B7
:101BC000030098F80410084498F8051010FB01F081
:101BD000F070010A3171020C7271030EB37186F854
:101BE00007A037727772B772F772AA3011440844AF
:101BF00018440B303073862070730D2232493348FD
:101C000002F07FFB00235A46194620690AF0DEFEE7
:101C100001288AD10BF00EFA60622D48CDE9010748
:101C2000012100234A0203970091AFF600412948A1
:101C30000AF0F6FF4FF47A71284604F0D9F86421CF
:101C4000284604F043FA606800288AD004B0BDE852
:101C5000F05F0BF04DB800220221284604F057FC3B
:101C60000021284604F032FA154807604FF400417D
:101C7000144803F081F83121584603F07DF80A2119
:101C8000584603F07BF800234FF0FF3B5A461946B5
:101C9000A0690AF09BFE01288AD1A62030700D2091
:101CA000707086F8029098F8030098F804100844C1
:101CB00098F8051010FB01F0F070020A32710BE089
:101CC0003C000020000002400C03002000100140F6
:101CD00008000020BB040008010C7171030EB371F1
:101CE00086F807A037727772B772F772AA3011447C
:101CF000084418440B303073862070730D22FE495F
:101D0000FE4802F0FEFA00235A46194620690AF0FE
:101D10005DFE0128C0D10BF08DF96062F848CDE975
:101D20000107012100234A0203970091AFF60451F5
:101D3000F4480AF075FF4FF4FA61284604F058F8A9
:101D40006421284604F0C2F9606800287ED004B0FF
:101D5000BDE8F05F0AF0CCBF00220221284604F063
:101D6000D6FB0021284604F0B1F9E74807604FF49C
:101D70000041E64803F000F83921584602F0FCFF24
:101D80000221584602F0FAFF00234FF0FF3B5A466B
:101D90001946A0690AF01AFE0128BBD1A6203070AE
:101DA0000D20707086F8029098F8030098F80410DF
:101DB000084498F8051010FB01F0F070010A317129
:101DC000020C7271030EB37186F807A03772777236
:101DD000B772F772AA301144084418440B303073BC
:101DE000862070730D22C449C44802F08AFA002389
:101DF0005A46194620690AF0E9FD01288AD10BF0FC
:101E000019F96062BE48CDE90107012100234A02A9
:101E100003970091AFF6EC51BA480AF001FF4FF476
:101E20007A71284603F0E4FF6421284604F04EF955
:101E3000606800288AD004B0BDE8F05F0AF058BF9F
:101E400000220221284604F062FB00E050E200215B
:101E5000284604F03BF9AC4807604FF40041AB481A
:101E600002F08AFF3921584602F086FF02215846C7
:101E700002F084FF00234FF0FF3B5A461946A06949
:101E80000AF0A4FD012888D1A62030700D207070C2
:101E900086F8029098F8030098F80410084498F81F
:101EA000051010FB01F0F070010A3171020C727123
:101EB000030EB37186F807A037727772B772F772A4
:101EC000AA301144084418440B30307386207073D4
:101ED0000D228949894802F014FA00235A4619460E
:101EE00020690AF073FD012888D10BF0A3F8606225
:101EF0008348CDE90107012100234A02039700919D
:101F0000AFF6D8617F480AF08BFE4FF4FA6128469D
:101F100003F06EFF6421284604F0D8F860680028BA
:101F200088D004B0BDE8F05F0AF0E2BE00220221D2
:101F3000284604F0ECFA0021284604F0C7F872485D
:101F400007604FF40041714802F016FF31215846F6
:101F500002F012FF0A21584602F010FF00234FF052
:101F6000FF3B5A461946A0690AF030FD01288AD184
:101F7000A62030700D20707086F8029098F803004B
:101F800098F80410084498F8051010FB01F0F07060
:101F9000010A3171020C7271030EB37186F807A049
:101FA00037727772B772F772AA3011440844184436
:101FB0000B303073862070730D224F494F4802F06A
:101FC000A0F900235A46194620690AF0FFFC0128AF
:101FD0008AD10BF02FF860624948CDE90107012151
:101FE00000234A0203970091AFF6C07145480AF0FA
:101FF00017FE40F23551284603F0FAFE64212846C8
:1020000004F064F8606800288AD004B0BDE8F05F8E
:102010000AF06EBE00220221284604F078FA002160
:10202000284604F053F8384807604FF40041374819
:1020300002F0A2FE3121584602F09EFE0A215846C7
:1020400002F09CFE00234FF0FF3B5A461946A06960
:102050000AF0BCFC01288AD1A62030700D207070D7
:1020600086F8029098F8030098F80410084498F84D
:10207000051010FB01F0F070020A3271010C717151
:10208000030EB37186F807A037727772B772F772D2
:10209000AA301144084418440B3030738620707302
:1020A0000D221549154802F02CF900235A4619460D
:1020B00020690AF08BFC01288AD10AF0BBFF60621C
:1020C0000F48CDE9010701214A020091002303973F
:1020D0000F490C480AF0A4FD40F23551284603F0A0
:1020E00087FE6421284603F0F1FF606800288BD04A
:1020F00004B0BDE8F05F0DE00C03002000100140CB
:1021000008000020BB0400083C0000200000024042
:102110002C1000080AF0ECBD00220221284604F031
:10212000F6F90021284603F0D1FFFE4807604FF47E
:102130000041FD4802F020FE3121584602F01CFE0D
:102140000A21584602F01AFE00234FF0FF3B5A4680
:102150001946A0690AF03AFC0128ADD1A6203070DA
:102160000D20707086F8029098F8030098F804101B
:10217000084498F8051010FB01F0F070010A317165
:10218000020C7271030EB37186F807A03772777272
:10219000B772F772AA301144084418440B303073F8
:1021A000862070730D22E149E14802F0AAF800236D
:1021B0005A46194620690AF009FC0128CDD10AF0D7
:1021C00039FF6062DB48CDE9010701214A02009135
:1021D00000230397D849D9480AF022FD40F235512F
:1021E000284603F005FE6421284603F06FFF60686F
:1021F00000287DD004B0BDE8F05F0AF079BD002270
:102200000221284604F083F90021284603F05EFFEE
:10221000C44807604FF40041C34802F0ADFD3121CE
:10222000584602F0A9FD0A21584602F0A7FD0023F6
:102230004FF0FF3B5A461946A0690AF0C7FB012838
:102240008BD1A62030700D20707086F8029098F81F
:10225000030098F80410084498F8051010FB01F0EA
:10226000F070020A3271010C7171030EB37186F8BD
:1022700007A037727772B772F772AA301144084418
:1022800018440B303073862070730D22A749A8487C
:1022900002F037F800235A46194620690AF096FBE7
:1022A00001288BD10AF0C6FE6062A248CDE9010781
:1022B00001214A020091002303979F499F480AF099
:1022C000AFFC40F23551284603F092FD64212846C8
:1022D00003F0FCFE606800288BD004B0BDE8F05F1E
:1022E0000AF006BD00220221284604F010F900E0A1
:1022F000DCE10021284603F0E9FE8A4807604FF43C
:102300000041894802F038FD3921584602F034FD79
:102310000221584602F032FD00234FF0FF3B5A469F
:102320001946A0690AF052FB012889D1A620307015
:102330000D20707086F8029098F8030098F8041049
:10234000084498F8051010FB01F0F070010A317193
:10235000020C7271030EB37186F807A037727772A0
:10236000B772F772AA301144084418440B30307326
:10237000862070730D226D496D4801F0C2FF002365
:102380005A46194620690AF021FB012889D10AF032
:1023900051FE60626748CDE9010701214A020091C0
:1023A00000230397644965480AF03AFC40F235512E
:1023B000284603F01DFD6421284603F087FE60686F
:1023C000002889D004B0BDE8F05F0AF091BC00227B
:1023D0000221284604F09BF80021284603F076FEEF
:1023E000504807604FF400414F4802F0C5FC3921C6
:1023F000584602F0C1FC0221584602F0BFFC0023FF
:102400004FF0FF3B5A461946A0690AF0DFFA01284F
:102410008BD1A62030700D20707086F8029098F84D
:10242000030098F80410084498F8051010FB01F018
:10243000F070020A3271010C7171030EB37186F8EB
:1024400007A037727772B772F772AA301144084446
:1024500018440B303073862070730D223349344892
:1024600001F04FFF00235A46194620690AF0AEFAE0
:1024700001288BD10AF0DEFD60622E48CDE901070C
:1024800001214A020091002303972B492B480AF0AF
:10249000C7FB40F23551284603F0AAFC64212846C8
:1024A00003F014FE606800288BD004B0BDE8F05F34
:1024B0000AF01EBC00220221284604F028F8002160
:1024C000284603F003FE174807604FF40041164802
:1024D00002F052FC3921584602F04EFC02215846C7
:1024E00002F04CFC00234FF0FF3B5A461946A0690E
:1024F0000AF06CFA01288BD1A62030700D20707084
:1025000086F8029098F8030098F80410084498F8A8
:10251000051010FB01F0F070010A3171020C7271AC
:10252000030E0DE03C000020000002400C030020E0
:1025300000100140080000202C100008BB04000817
:10254000B37186F807A037727772B772F772AA3044
:102550001144084418440B303073862070730D22E8
:10256000FD49FE4801F0CDFE00235A461946206978
:102570000AF02CFA0128BED10AF05CFD6062F8482E
:10258000CDE9010701214A02009100230397F54993
:10259000F5480AF045FB40F23551284603F028FC87
:1025A0006421284603F092FD606800287ED004B0C4
:1025B000BDE8F05F0AF09CBB00220221284603F030
:1025C000A6FF0021284603F081FDE84807604FF48C
:1025D0000041E74802F0D0FB3921584602F0CCFB1D
:1025E0000221584602F0CAFB00234FF0FF3B5A4637
:1025F0001946A0690AF0EAF90128BCD1A62030707A
:102600000D20707086F8029098F8030098F8041076
:10261000084498F8051010FB01F0F070020A3271BE
:10262000010C7171030EB37186F807A037727772CF
:10263000B772F772AA301144084418440B30307353
:10264000862070730D22C449C44801F05AFE00234D
:102650005A46194620690AF0B9F901288BD10AF0C7
:10266000E9FC6062BE48CDE9010701214A02009100
:1026700000230397BB49BC480AF0D2FA40F2355117
:10268000284603F0B5FB6421284603F01FFD60686F
:1026900000288BD004B0BDE8F05F0AF029BB00220F
:1026A0000221284603F033FF002100E023E2284600
:1026B00003F00CFDAD4807604FF40041AC4802F058
:1026C0005BFB3121584602F057FB0A21584602F0C5
:1026D00055FB00234FF0FF3B5A461946A0690AF00C
:1026E00075F9012889D1A62030700D20707086F808
:1026F000029098F8030098F80410084498F8051020
:1027000010FB01F0F070010A3171020C7271030EBE
:10271000B37186F807A037727772B772F772AA3072
:102720001144084418440B303073862070730D2216
:1027300089498A4801F0E5FD00235A461946206977
:102740000AF044F9012889D10AF074FC60628448D7
:10275000CDE9010701214A02009100230397814935
:1027600081480AF05DFA40F23551284603F040FBFB
:102770006421284603F0AAFC6068002889D004B0D0
:10278000BDE8F05F0AF0B4BA00220221284603F047
:10279000BEFE0021284603F099FC744807604FF400
:1027A0000041734802F0E8FA3921584602F0E4FA91
:1027B0000221584602F0E2FA00234FF0FF3B5A464E
:1027C0001946A0690AF002F901288BD1A6203070C1
:1027D0000D20707086F8029098F8030098F80410A5
:1027E000084498F8051010FB01F0F070010A3171EF
:1027F000020C7271030EB37186F807A037727772FC
:10280000B772F772AA301144084418440B30307381
:10281000862070730D225049504801F072FD00234C
:102820005A46194620690AF0D1F801288BD10AF0DE
:1028300001FC60624A48CDE9010701214A0200918A
:1028400000230397474948480AF0EAF940F2355116
:10285000284603F0CDFA6421284603F037FC60686F
:1028600000288BD004B0BDE8F05F0AF041BA002226
:102870000221284603F04BFE0021284603F026FCE7
:102880003A4807604FF40041394802F077FA0A21CC
:10289000584602F073FA3121584602F06DFA0023CF
:1028A0004FF0FF3B5A461946A0690AF08FF80128FD
:1028B0008BD1A62030700D20707086F8029098F8A9
:1028C000030098F80410084498F8051010FB01F074
:1028D000F070010A3171020C7271030EB37186F847
:1028E00007A037727772B772F772AA3011440844A2
:1028F00018440B303073862070730D221649174828
:1029000001F0FFFC00235A46194620690AF05EF8E0
:1029100001288BD10AF08EFB606240F235512846C7
:1029200003F066FA0021284603F0D0FB6068002817
:1029300097D004B0BDE8F05F0AF0DAB900220221B6
:10294000284603F0E4FD0021284603F0BFFB0748BA
:1029500007604FF400410DE00C030020001001401F
:10296000080000202C100008BB0400083C000020D8
:1029700000000240F24802F0FFF90A21584602F036
:10298000FDF93121584602F0F7F900234FF0FF3BE3
:102990005A461946A0690AF019F8012888D1A620DC
:1029A00030700D20707086F8029098F8030098F847
:1029B0000410084498F8051010FB01F0F070020AAA
:1029C0003271010C7171030EB37186F807A0377272
:1029D0007772B772F772AA301144084418440B306A
:1029E0003073862070730D22D649D74801F089FCD8
:1029F00000235A461946206909F0E8FF01287AD1D8
:102A00000AF018FB606240F23551284603F0F0F9F5
:102A10006421284603F05AFB606800286BD004B09C
:102A2000BDE8F05F0AF064B900220221284603F0F5
:102A30006EFD0021284603F049FBC44807604FF4AF
:102A40000041BF4802F098F93921584602F094F944
:102A50000221584602F092F900234FF0FF3B5A46FC
:102A60001946A06909F0B2FF012844D1A6203070B0
:102A70000D20707086F8029098F8030098F8041002
:102A8000084498F8051010FB01F0F070020A32714A
:102A9000010C7171030EB37186F807A0377277725B
:102AA000B772F772AA301144084418440B303073DF
:102AB000862070730D22A349A34801F022FC002355
:102AC0005A461946206909F081FF012813D10AF0FE
:102AD000B1FA606240F23551284603F089F9642169
:102AE000284603F0F3FA6068002804D004B0BDE87B
:102AF000F05F0AF0FDB8BDE8FF9F7FB5944D04215B
:102B0000284602F025F904460821284602F020F95B
:102B100044EA40041021284602F01AF944EA8004ED
:102B20008021284602F014F98A4E44EAC0040821A4
:102B3000304602F00DF944EA00142021304602F03C
:102B400007F944EA4014A915304602F001F944EAB5
:102B5000801574152146304602F0FAF845EAC01394
:102B60007D480370406800280CD17B490122091D73
:102B7000CDE90110034600920390224677A17B48DD
:102B80000AF04EF87FBD7FB51446002C7ED06D480C
:102B90006289803861680AF0FFFC6A486E4D8038AF
:102BA000007828702878002874D02878FF2871D001
:102BB000287801286ED0287802286BD0287803283E
:102BC00068D02878042865D02878052862D028782D
:102BD00006285FD0287807285CD02878082859D0A4
:102BE0002878092856D028780A2853D028780B2826
:102BF00050D028780C284DD028780D284AD0287835
:102C00000E2847D028780F2844D02878102841D0A3
:102C1000287811283ED0287812283BD0287813280D
:102C200038D02878142835D02878152832D028783C
:102C300016282FD0287817282CD02878182829D0A3
:102C40002878192826D028781A2823D028781B28F5
:102C500020D028781D281DD028781F281AD0287841
:102C6000202817D02878212814D02878222811D09D
:102C7000287823280ED0287824280BD02878F0280C
:102C800008D004B02046BDE8704001E01EE001E03D
:102C900005F0A8B8A86808B10AF02AF8686808B171
:102CA0000AF026F82C490020091DCDE90110012267
:102CB000034600920390520228A12C4809F0B0FF6D
:102CC00004B02046BDE8704005F08CB87FBD70B5FB
:102CD00004461D4DE1B2284602F0A9FC40212846D9
:102CE00002F047FD0028F9D0204670BD0FB430B582
:102CF000C1B045AB4FF4807101A8449A0AF07AFF45
:102D000005460022A9B2104605F095F8184C20603F
:102D100040682A4601A90AF03FFC21684D81154808
:102D200000901548154A03881548006804F027FDEF
:102D3000206805F057F841B030BC5DF814FB000086
:102D4000000002400C030020001001403C00002065
:102D5000000C0240000402400000002050524F438B
:102D600045535320434F4D4D414E44008F0A0008B8
:102D7000480000203C030020CAE600084400002070
:102D8000400000200CB500220192009255490868CD
:102D900040F4803008604FF4A043086800F400302D
:102DA00000900198401C0190009810B90198984239
:102DB000F3D10868800302D50120009000E0009262
:102DC0000098012831D147484030026842F08052D3
:102DD00002604548026842F44042026041480830BF
:102DE00002680260026842F400420260026842F433
:102DF000A0520260021F3D4B13600A6842F08072CD
:102E00000A600A689201FCD5394A40F205611160F6
:102E1000016821F003010160016841F002010160D5
:102E20000168C1F381010229FAD10CBD10B52D480A
:102E3000016841F0010101602A4A00210832116055
:102E400002682C4B1A400260031D2B4A1A6002686C
:102E500022F48022026023480C300160FFF792FFC9
:102E600026494FF00060086010BD70B51D4E083651
:102E7000306800F00C00224B224900280FD05D1072
:102E800004280ED008280ED00B6030681D4AC0F30D
:102E90000310121D105C0A68C2400A6070BD0B600E
:102EA000F3E70D60F1E70F4A121D1068C0F380547C
:102EB000106800F03F0034B1B5FBF0F01368C3F3C5
:102EC0008813584305E0B3FBF0F01368C3F388138D
:102ED00058431268C2F30142521C5200B0FBF2F098
:102EE0000860D2E700380240007000400848400601
:102EF000003C0240FFFFF6FE1030002408ED00E029
:102F00000024F400280000207047FEE7FEE7FEE7FB
:102F1000FEE77047704770470AF09CBA08B500207A
:102F20000090402004F058F8012806D1FB48002307
:102F30006A461946006809F0FFFC402004F06AF870
:102F40004FF4803004F066F80098002801D00AF0B1
:102F50006AFA08BD10B5012001F017FE00280ED056
:102F6000012001F020FE0121ED4801F0F1FEC143F6
:102F7000EC48426922F0200242EA4111416110BD51
:102F800010B5022001F001FE00280ED0022001F051
:102F90000AFE0221E24801F0DBFEC143E14842693A
:102FA00022F0080242EAC101416110BDF8B54FF4B8
:102FB0008066304601F0E9FDDB4CDC4D68B13046FF
:102FC00001F0F1FD3146284601F0C2FE6169C043BF
:102FD00021F0800141EAC01060614FF40066304684
:102FE00001F0D3FD78B1304601F0DDFD31462846D1
:102FF00001F0AEFEC243CA481430016821F40061FA
:1030000041EAC22101604FF48056304601F0BDFD17
:1030100070B1304601F0C7FD3146284601F098FEF8
:10302000C143C048426922F4807242EA01214161F1
:103030004FF40056304601F0A8FD00281CD00020B7
:103040000090304601F0AFFD3146284601F080FE89
:103050006169C04321F0400141EA8010606131465E
:10306000284601F075FE012806D1B14800236A46C2
:103070001946006809F060FCF8BD10B5042001F0A5
:1030800084FD00281DD0012009F0F3FE042001F08A
:103090008AFD082001F087FD102001F084FD20202A
:1030A00001F081FD802001F07EFD4FF4807001F081
:1030B0007AFD4FF4007001F076FDBDE81040FFF797
:1030C0001CBD10BD10B5082001F05FFD00281DD00B
:1030D000012009F0CEFE042001F065FD082001F07A
:1030E00062FD102001F05FFD202001F05CFD8020DA
:1030F00001F059FD4FF4807001F055FD4FF4007060
:1031000001F051FDBDE81040FFF7F7BC10BD10B550
:10311000102001F03AFD00281DD0012009F0A9FE81
:10312000042001F040FD082001F03DFD102001F0D9
:103130003AFD202001F037FD802001F034FD4FF4EE
:10314000807001F030FD4FF4007001F02CFDBDE8FF
:103150001040FFF7D2BC10BD70B5202001F015FD66
:103160004FF480756C00C8B1012009F082FE042084
:1031700001F019FD082001F016FD102001F013FDEB
:10318000202001F010FD802001F00DFD284601F007
:103190000AFD204601F007FDFFF7AFFC802001F09B
:1031A000F4FCC8B1012009F064FE042001F0FBFC2E
:1031B000082001F0F8FC102001F0F5FC202001F0BF
:1031C000F2FC802001F0EFFC284601F0ECFC2046E8
:1031D00001F0E9FCFFF791FC284601F0D6FCC8B1EC
:1031E000012009F046FE042001F0DDFC082001F07A
:1031F000DAFC102001F0D7FC202001F0D4FC802064
:1032000001F0D1FC284601F0CEFC204601F0CBFCB9
:10321000FFF773FC204601F0B8FC00281BD001200A
:1032200009F027FE042001F0BEFC082001F0BBFCE1
:10323000102001F0B8FC202001F0B5FC802001F046
:10324000B2FC284601F0AFFC204601F0ACFCBDE822
:103250007040FFF752BC70BD38B5364D022128468C
:1032600003F06BF900281AD00221284603F071F907
:10327000314C226840F2E65140F242430E2A0ED20F
:10328000DFE802F0070E1720273039425C656E77C1
:103290007F87284602F0ACFD2068401C206038BDC6
:1032A0004FF4C861284602F0A3FD2068401C20604E
:1032B00038BD40F22261284602F09AFD2068401C89
:1032C000206038BD284602F093FD2068401C206035
:1032D00038BD40F2BE51284602F08AFD2068401CED
:1032E000206038BD40F26451284602F081FD20681C
:1032F000401C206038BD40F21451284602F078FD91
:103300002068401C206038BD40F2BA41284602F0D7
:103310006FFD2068401C206038BD000008020020BE
:10332000000C024000000240001002400008024071
:1033300010000020000400403C0000204FF4916188
:10334000284602F055FD2068401C2060E4E740F26A
:103350006A41284602F04CFD2068401C2060DBE7F3
:1033600040F29241284602F043FD2068401C206054
:10337000D2E71946284602F03BFD2068401C206039
:10338000CAE71946284602F033FD2068401C206039
:10339000C2E740F23551284602F02AFD00212160A3
:1033A00000220221284603F0B2F8044800236A46AE
:1033B0001946006809F0C0FAAEE7000014000020CA
:1033C0002DE9FC4104460E46FE49FE48103150F8F6
:1033D000240051F824100843012101F030FEF9487F
:1033E0001038ECB350F82400012101F04CFEF548F0
:1033F000F54F203810F81420103830F8141057F812
:10340000240001F0C9FCEF4807F11008183810F843
:103410001420103830F8141058F8240001F0BCFCC7
:1034200000208DF8060001208DF8070002258DF898
:103430000450E448403830F8140000908DF80550EE
:1034400057F82400694601F02FFC8DF80450DD4840
:10345000383830F81400009058F82400694600E02D
:103460000FE001F021FCA7F11005314655F82400CA
:1034700002F038F855F82400012102F0ACF8BDE85C
:10348000FC810068012101F00AFEB0E72DE9F0435C
:1034900085B00121084601F0D2FD0121042001F090
:1034A000CEFD0121082001F0CAFD0121102001F00C
:1034B000C6FD0121880301F0F2FD48F228160396AB
:1034C00001258DF8105000248DF812408DF813500E
:1034D00002278DF81170DFF8F48203A9404601F04D
:1034E000E3FB3146404601F047FC4FF40068CDF85D
:1034F0000C808DF810508DF812408DF813508DF817
:103500001170B34E03A9304601F0CEFB4146304660
:1035100001F032FCFB2003908DF810508DF8124022
:103520008DF813508DF81170DFF8A89203A9484662
:1035300001F0BAFBFB21484601F01EFC4FF44A7033
:1035400003908DF810408DF8134003A9A24801F0B4
:10355000ABFB4FF4705003908DF810408DF8134082
:1035600003A99E4801F0A0FB9F2003908DF8104016
:103570008DF8134003A9304601F096FB0A21022082
:1035800001F033FF0B21022001F02FFF0C2102205C
:1035900001F02BFF0D21022001F027FF0021032065
:1035A00001F023FF0121032001F01FFF022103206E
:1035B00001F01BFF0321084601F017FF042103203F
:1035C00001F013FF0721032001F00FFF0321012069
:1035D00001F00BFF0521012001F007FF0821012068
:1035E00001F003FF0921012001F0FFFE8DF80840E2
:1035F00010268DF809608DF80A50019501A801F098
:1036000073FA8DF808408DF809608DF80A5001971B
:1036100001A801F069FA8DF808408DF809608DF86D
:103620000A500420019001A801F05EFA8DF80840CC
:103630008DF809608DF80A50019601A801F054FA3E
:103640008DF808408DF809608DF80A50202001900F
:1036500001A801F049FA8DF808408DF809608DF84D
:103660000A508020019001A801F03EFA8DF8084030
:103670008DF809608DF80A502802019001A801F028
:1036800033FA8DF808408DF809608DF80A50680209
:10369000019001A801F028FA01A801F025FA8DF89F
:1036A00008408DF809608DF80A50A802019001A821
:1036B00001F01AFA8DF808408DF809608DF80A506B
:1036C000CDF8048001A801F00FFA8DF808408DF8BC
:1036D00009608DF80A502803019001A801F004FA4E
:1036E0008DF808408DF809608DF80A506803019044
:1036F00001A801F0F9F98DF801408DF802408DF82C
:10370000035006208DF80000684602F076F8072086
:103710008DF80000684602F070F828208DF800004F
:10372000684602F06AF805B0BDE8F083F0B58BB0EA
:103730000121022001F083FC1020099002268DF85F
:10374000286003208DF8290000248DF82A400125E7
:103750008DF82B50204F09A9384601F0A5FA022216
:103760000421384601F018FB0121022001F08BFCF6
:1037700006A802F029FB1A4844F620610068B0FB55
:10378000F1F0401EADF81800ADF81A4040F2345088
:103790000790ADF82040134F06A9384602F0E4FA2E
:1037A0000121384602F042FB6021ADF80410ADF86B
:1037B00006500394ADF8106001A9384602F05EFB94
:1037C000082111E00CE700085C0000200000024026
:1037D000000C0240001002400004024000080240B9
:1037E0002800002000040040384602F097FC012128
:1037F000384602F037FB1D208DF800008DF801409F
:103800008DF802408DF80350684601F0F6FF0BB0CA
:10381000F0BD30B585B00121042001F010FC01217C
:10382000082001F00CFC0121880301F038FC002481
:103830008DF810408DF812404FF4705003908DF8C1
:10384000134003258DF8115003A93E4801F02CFACE
:103850008DF810408DF8124003958DF813408DF8C7
:10386000115003A9384801F01FFA0A21022001F083
:10387000BCFD0B21022001F0B8FD0C21022001F05B
:10388000B4FD0D21022001F0B0FD0021032001F064
:10389000ACFD0121032001F0A8FD01258DF80A509F
:1038A0008DF8084010208DF809008001019001A8D2
:1038B00001F01AF9E802019001A801F015F92803B6
:1038C000019001A801F010F96803019001A801F02E
:1038D0000BF9019501A801F007F90220019001A858
:1038E00001F002F98DF801408DF802408DF8035087
:1038F00028208DF80000684601F07FFF06208DF833
:103900000000684601F079FF07208DF80000684646
:1039100001F073FF05B030BD08B5012240F225511A
:103920000A4801F00BFF25208DF8000000208DF8DB
:1039300001008DF8020001208DF80300684601F0B7
:103940005CFF08BD00080240000C0240001001406E
:1039500010B5804A1823904205D27F4A7F4C2044FC
:10396000B0FBF3F006E07B4A083A7A4C644220440C
:10397000B0FBF3F0042801D3121D001F784B01F0B7
:103980003D01185C8140116010BD3D21E0E77149A7
:103990001822884206D270490839704B1844B0FB8F
:1039A000F2F006E06B4910396A4B5B421844B0FBF9
:1039B000F2F0042801D3091D001F0968684A105C51
:1039C000C14001F03D00704738B504463D21204616
:1039D000FFF7BEFF624A5F4B1820121D01219C4277
:1039E00009D25E4B2344B3FBF0F08DF80110125C5A
:1039F0008DF800200AE0574B5B422344B3FBF0F004
:103A00008DF801100244127A8DF800208DF8031011
:103A10008DF80200684601F0F0FE206840F01E00BC
:103A20002060606940F08000606138BD10B50446D8
:103A30003D212046FFF78CFF4949464A1820091DC1
:103A4000944205D2454A2244B2FBF0F0085605E004
:103A5000404A52422244B2FBF0F00856012100F0E5
:103A60001F0291404009800000F1E020C0F8801161
:103A7000206820F01E002060606900F08000606116
:103A800010BD7047704770477047704770B5054666
:103A90003D212846FFF77BFF84B23D212846FFF7F2
:103AA00057FFA00605D52868C00602D52846FFF7AF
:103AB000E8FFE00605D52868000702D52846FFF78D
:103AC000E1FF200705D52868400702D52846FFF703
:103AD000DAFF600705D52868800702D52846FFF77A
:103AE000D3FFE00705D06869000602D52846FFF736
:103AF000CCFF70BD18480830C8E717482030C5E72C
:103B000015483830C2E714485030BFE712486830D3
:103B1000BCE711488030B9E70F489830B6E70E4847
:103B2000B030B3E70B48B1E70A481830AEE70948B0
:103B30003030ABE707484830A8E706486030A5E7D3
:103B400004487830A2E7034890309FE70148A83046
:103B50009CE700001064024008600240F09FFDBF37
:103B60002CE700080146F64A914200D10020F54AB0
:103B7000914200D10120F44A914200D10220F34A3F
:103B8000914200D10420F24A914200D10520F14A2D
:103B9000914200D10620704770477CB50446082644
:103BA0000325002C07D1CDE9005601230022C021B6
:103BB000E94800F07CFC012C08D1CDE90056012336
:103BC00000224FF48441E54800F071FC032C03D13E
:103BD0000821E048FFF7E0FF7CBD7CB50446002CDF
:103BE00011D108250326CDE9006501230022190320
:103BF000D94800F05CFCCDE90065012300220421D6
:103C0000D74800F054FC032C03D10821D048FFF71B
:103C1000C3FF7CBD7CB5044608260325002C07D1D4
:103C2000CDE90056012300220321CE4800F03FFCDD
:103C3000012C08D1CDE90056012300224FF4406148
:103C4000C54800F034FC032C03D10821BF48FFF71E
:103C5000A3FF7CBD2DE9FC410446072603254FF454
:103C60004067002C07D1CDE90056012300223946D8
:103C7000BD4800F01CFC012C07D1CDE90056012302
:103C800000223946B44800F012FC022C08D1CDE9DC
:103C90000056012300224FF44071B14800F007FCA8
:103CA000032C03D10721A848FFF776FFBDE8FC816C
:103CB0007CB5044607260325002C07D1CDE9005624
:103CC000012300220C21A74800F0F1FB012C07D1B1
:103CD000CDE90056012300226021A14800F0E7FB56
:103CE000032C03D107219748FFF756FF7CBD7CB515
:103CF000044607260325002C07D1CDE900560123F1
:103D000000226902974800F0D2FB012C07D1CDE9CF
:103D1000005601230022C021934800F0C8FB032C69
:103D200003D107218648FFF737FF7CBD0146844A4F
:103D3000914200D18D48834A914201D18B48103085
:103D4000814A914201D189482030804A914201D173
:103D5000864830307E4A914201D1844840307D4AC5
:103D6000914201D18148503070472DE9FF4F87B013
:103D70000446DDE9159ADDF8508016461F462046B8
:103D8000FFF7D4FF054603966D48DFF8E4B184429F
:103D90000BD1DBF8000040F01000CBF800000898D1
:103DA000FFF7A5FF25208DF80800714E6548361FE6
:103DB000844209D1306840F4003030600898FFF741
:103DC00077FF26208DF808005F48844209D13068CB
:103DD00040F4802030600898FFF73CFF27208DF8E2
:103DE00008005A48844209D1306840F4002030600D
:103DF0000898FFF70FFF34208DF8080054488442DC
:103E000009D1306840F4801030600898FFF7E5FE73
:103E100035208DF808004F4884420BD1DBF80000B4
:103E200040F02000CBF800000898FFF7B6FE4720CE
:103E30008DF80800204601F001FB01268DF80B608B
:103E400006208DF809002046FFF78CFE8DF80A0049
:103E500002A801F0D2FCADF81870ADF81680ADF8EC
:103E60001490ADF812A01798ADF810000020287338
:103E700040F6FF7001900198411E0191FBD203A909
:103E8000204601F02FFBA08940F02000A0812E7376
:103E9000A08940F40050A0810BB0BDE8F08F2DE95F
:103EA000FF4104460F469046254800250C268442D3
:103EB00008D1CDE9006502950023424639460395B5
:103EC000FFF753FF1F48844208D1CDE900650295F2
:103ED0000023424639460395FFF747FF1A488442BC
:103EE00008D1CDE900650295002342463946039585
:103EF000FFF73BFF1548844208D1CDE900650295E4
:103F00000023424639460395FFF72FFF10488442AD
:103F100008D1CDE900650295002342463946039554
:103F2000FFF723FF0B48844208D1CDE900650295D5
:103F30000023424639460395FFF717FFBDE8FF818E
:103F4000001001400044004000480040004C004088
:103F500000500040001401400008024000180240D8
:103F6000000C024000000240000402407C000020DF
:103F7000443802402DE9FF4704460F4690469946D3
:103F8000A94800250C26844208D1CDE90065029598
:103F90004B46424639460395FFF7E7FEA348844265
:103FA00008D1CDE9006502954B4642463946039556
:103FB000FFF7DBFE9E48844208D1CDE900650295FB
:103FC0004B46424639460395FFF7CFFE9948844257
:103FD00008D1CDE9006502954B4642463946039526
:103FE000FFF7C3FE9448844208D1CDE900650295ED
:103FF0004B46424639460395FFF7B7FE8F48844249
:1040000008D1CDE9006502954B46424639460395F5
:10401000FFF7ABFEBDE8FF8710B50023FFF786FE74
:10402000C18819B902894489A2420DD04289838886
:104030009A4201D100224281036842899B56521C58
:10404000428109B1491EC180D8B210BD10B50C46DD
:10405000FFF76CFEC38842890DE08188914200D150
:1040600000220168895CA14201D1012010BD521CCF
:1040700092B25B1E9BB2002BEFD1002010BD2DE948
:10408000F04180460F46164600244046FFF74EFE9C
:104090000546E88840B1697B4046FFF7D7FF30B955
:1040A000E888A988884202D00020BDE8F081761E09
:1040B00008E04046FFF7B0FF3855697B884203D0DF
:1040C000641CA4B2B442F4DB0021641CA0B23954D5
:1040D000EBE700B5FFF72AFEC18829B901894089BD
:1040E000814201D1012000BD002000BD00B5FFF7D5
:1040F0001DFEC1888088814201D1012000BD0020C1
:1041000000BD00B5FFF712FE0021C1800181418191
:1041100000BD00B50B46FFF709FE437300BD10B5A7
:1041200003460C461846FFF701FE007B00280BD023
:1041300007E019880906FCD59880641C18880006D9
:10414000FCD520780028F4D110BD70B504460D468A
:1041500016462046FFF7EAFD007B00280DD000231D
:1041600009E020880006FCD5E85CA08020880006D5
:10417000FCD55B1C9BB2B342F3D370BDC38882886D
:1041800093420DD20389934201D100220281038917
:104190000268D1540189491C0181C188491CC18030
:1041A000704721480188890603D58088C1B2244818
:1041B000E4E770471D480088800606D51B48001DAF
:1041C0000088C1B21E481030D8E7704718480088F0
:1041D000800606D51648001D0088C1B21848203058
:1041E000CCE7704713480088800606D51148001DAB
:1041F0000088C1B212483030C0E770470E480188CD
:10420000890604D58088C1B20D484030B6E77047B2
:104210000A480088800606D50848001D0088C1B2FB
:1042200007485030AAE770470010014000440040A2
:1042300000480040004C0040005000400014014085
:104240007C0000200146584A914200D15748584A04
:10425000914201D155480830564A914201D1534804
:104260001030554A914201D150481830534A91427A
:1042700001D14E482030524A914201D14B4828305A
:10428000704710B5FFF7DEFF4E4B42684E499A4229
:1042900004D30A6842F480020A6003E00A6842F428
:1042A00000120A604068FFF770FB48484021C16077
:1042B000002141614FF480628261C161016241620B
:1042C0008162C162032202634163816310BD70B5E4
:1042D00006460C4615463046FFF7B4FF44600560BD
:1042E0003046BDE87040CCE710B5FFF7ABFF406843
:1042F00010BD10B5FFF7A6FF4068BDE8104001F003
:10430000D5BA2DE9F04105460F4616462846FFF777
:1043100099FF04466068406810B10020BDE8F08154
:104320002A48216801600661291D41608760606834
:10433000FFF72BFB2549606801F043FB60680168CB
:1043400041F001010160A88A40F08000A8820120AC
:10435000E4E770B505460C46204609F059F982B2EB
:1043600021462846BDE87040CBE710B504462046FC
:10437000FFF768FF4068406808B1012010BD208841
:1043800040F3C010401C10BD10B5FFF75BFF406844
:10439000BDE81040FFF718BB10B5FFF753FF4068AA
:1043A000BDE81040FFF742BB00100140DC000020D8
:1043B0000044004000480040004C004000500040D5
:1043C00000140140106402403038024034040020E0
:1043D000AC490844C0F38F2070472DE9F04F0446E4
:1043E000DDE9099A88462046FFF7F2FFC7B20020B0
:1043F0004FF0030E0125854015EA080F32D0A24E7A
:1044000036F81710294326F81710D4F80CC04600C8
:104410000EFA06F12CEA010C09FA06FB4CEA0B0C29
:10442000C4F80CC0D4F800C002FA06FB2CEA010C58
:104430004CEA0B0CC4F800C0012A01D0022A11D1A9
:10444000D4F804C0ADB22CEA050C03FA00F5ADB205
:104450004CEA050CC4F804C0A5688D430AFA06F1BD
:104460000D43A560401CC0B21028C3D3BDE8F08F37
:1044700000B5FFF7ADFF0121814084480268114378
:10448000016000BD2DE9FC410746DDE908650C46E9
:104490009046002C09D03846FFF7EAFFCDE90065C9
:1044A000424621463846FFF798FFBDE8FC812DE9DA
:1044B000FC4F0746DDE90BB80E4692469946002EA2
:1044C00022D03846FFF7D4FF002301210F2201FA42
:1044D00003F030420DD0D80807EB8004206A5D0756
:1044E000ED0E02FA05FC20EA0C0008FA05F5284357
:1044F00020625B1C102BEAD3CDE9009B53460222BD
:1045000031463846FFF769FFBDE8FC8F2DE9F041E1
:1045100005460F462846FFF75BFFC4B200225A4803
:104520004FF0010C03210CFA02F33B420CD02E6831
:104530004FEA420801FA08F846EA08062E6030F809
:1045400014609E4320F81460521CD2B2102AEAD3A1
:10455000BDE8F081F0B500220125032605FA02F33B
:104560000B4205D00368570006FA07F4A343036023
:10457000521CD2B2102AF1D3F0BDF0B500220127AF
:10458000032507FA02F40C4209D00668530005FA25
:1045900003FC26EA0C0607FA03F426430660521CC5
:1045A000D2B2102AEDD3F0BDF0B5002201250326CA
:1045B00005FA02F30B4205D00368570006FA07F428
:1045C00023430360521CD2B2102AF1D3F0BDF0B5E0
:1045D000002201270324022607FA02F30B4209D026
:1045E0000568530004FA03FC25EA0C0506FA03F3F8
:1045F0001D430560521CD2B2102AEDD3F0BDF0B5B8
:1046000000230127032507FA03F40C4209D0C668EA
:104610005C0005FA04FC26EA0C0602FA04F42643C0
:10462000C6605B1CDBB2102BEDD3F0BD41F48032D1
:10463000C261C161C261C169C0697047002102E005
:10464000491C89B240080128FAD80846704700B5CD
:10465000FFF7BEFE012181400C4802688A430260D8
:1046600000BD00B5FFF7B4FE074931F8100000BDEA
:1046700000B5FFF7ADFE044931F81000C04380B229
:1046800000BD00000000FEBF700400203038024072
:104690001CB50446FE48012150F8240000F0CFFC70
:1046A000FB48203830F81400009001208DF80400F9
:1046B00000218DF806108DF8070002208DF8050006
:1046C000F448694650F8240000F0EEFA1CBDF049A9
:1046D000F04A203931F8101052F820000183704759
:1046E000EB49EC4A203931F8101052F82000418390
:1046F0007047E84951F820104A69E54B203B33F8F0
:10470000100042404A61704770B586B004460E46BC
:10471000DF4801213C3850F8240000F090FC0121D2
:10472000880300F0BCFC00258DF814508DF817505C
:10473000D748403830F814000490D64804A91C38F3
:1047400050F8240000F0B0FA012E25D1D0484338AB
:10475000015D401E005D00F048FECD483E3830F857
:10476000140002908DF80C5008208DF80D000125E2
:104770008DF80E5002A800F0B7F9C5484238005D28
:104780008DF804000F208DF805008DF806008DF8D7
:10479000075001A801F031F806B070BDBC49BD4A10
:1047A00040391C3A31F8101052F8200000F0D0BA0D
:1047B0002DE9FC4104460E46B548B5491038083984
:1047C00050F8240051F824100843012100F037FC70
:1047D000AF480121183850F8240000F060FCAC48C4
:1047E000AC4F2838103F10F81420083830F8141057
:1047F00057F8240000F0D0FAA54807F1080824383B
:1048000010F81420083830F8141058F8240000F07C
:10481000C3FA00208DF8060001208DF8070002255C
:104820008DF804509A48383830F8140000908DF80C
:10483000055057F82400694600F036FA8DF8045008
:104840009348343830F81400009058F82400694632
:1048500000F02AFAA7F10805314655F8240000F0C7
:1048600041FE55F82400012100F0B5FEBDE8FC81B1
:104870007CB5002000F0F4FC002000F0F4FC00F017
:10488000C7FC00214FF4006000F009FC824C0022BC
:104890000821204600F080FA00220921204600F07D
:1048A0007BFA00220A21204600F076FA00220B2132
:1048B000204600F071FA00220C21204600F06CFA2C
:1048C000764D00220221284600F066FA4FF470610E
:1048D000009100218DF804108DF8071069462046DC
:1048E00000F0E2F9042100916946284600F0DCF965
:1048F000A11400916946204600F0D6F97CBD2DE94F
:10490000FC4101210E2000F09AFB634E0C2208218D
:10491000304600F041FA0C220921304600F03CFA02
:104920000C220A21304600F037FA0C220B213046C7
:1049300000F032FA0C221146304600F02DFA574FA3
:104940000C220221384600F027FA4FF470600090E4
:1049500001248DF8054002208DF8040000258DF813
:1049600006508DF807406946304600F09DF9042155
:1049700000916946384600F097F9200300908DF8C1
:1049800007506946304600F08FF9E00300908DF83B
:1049900004508DF807406946414800F085F901212F
:1049A000C80200F07CFB0121880500F048FB5DE7B0
:1049B00030B58FB004463B4D4FF0FA51284601F018
:1049C000A8F80021284601F035F8284600F06EFFCF
:1049D0004FF0006000903448019002944020039012
:1049E00000200490059029150691890007918900FF
:1049F000089109904FF440300A9004200B90032056
:104A00000C9048020D9080100E906946284600F0E8
:104A1000D8FF01221021284601F08CF820212846D9
:104A200001F020F80121284601F004F80FB030BD54
:104A300030B58FB004461B4D4FF0FA51284601F0B7
:104A400068F80021284600F0F5FF284600F02EFF08
:104A50004FF00060009014480190029400200390F1
:104A60000490059029150691890007918900089105
:104A700009904FF440300A9004200B9003200C90D2
:104A800048020D9080100E90694628460EE0000006
:104A900084E700082801002000080240000C0240C2
:104AA0000004024058640240802C014000F089FF5D
:104AB00001221021284601F03DF82021284600F06F
:104AC000D1FF0121284600F0B5FFAFE738490020AB
:104AD0000860091D0860091D0860091D0860344947
:104AE000344814310860704730B5314A8379016821
:104AF000002B2AD013688B431360111D0B680468C8
:104B0000A3430B60017911440B68046823430B60D5
:104B1000274C08342168036899432160231D1968D4
:104B20000568A94319604179102905D011440A6824
:104B3000006802430A6030BD2168026811432160A9
:104B4000196800680143196030BD0079104402689B
:104B50008A43026030BD0021016001710C22427164
:104B600081717047124910310A6802430A60704728
:104B7000014600200E4A143212680A4200D0012079
:104B800070470B4914310860704701460020084AFD
:104B900012680A40064B14331B680B4202D0002AED
:104BA00000D00120704702491431086070470000AE
:104BB000003C0140FFFF7F0010B57F49884209D1CA
:104BC0000121084600F077FA0021BDE810400120DD
:104BD00000F071BA7949884209D10121022000F020
:104BE0006AFA0021BDE81040022000F064BA74495E
:104BF000884209D10121042000F05DFA0021BDE8BE
:104C00001040042000F057BA6E49884209D10121B2
:104C1000082000F050FA0021BDE81040082000F004
:104C20004ABA6949884209D10121102000F043FAAB
:104C30000021BDE81040102000F03DBA63498842D1
:104C400009D10121202000F036FA0021BDE81040F2
:104C5000202000F030BA5E49884209D1012140206D
:104C600000F029FA0021BDE81040402000F023BAEE
:104C70005849884209D10121802000F01CFA002106
:104C8000BDE81040802000F016BA534988420AD18E
:104C900084150121204600F00EFA2046BDE81040A0
:104CA000002100F008BA10BD2DE9F04100220127D3
:104CB0004FF0030C07FA02F50B682B40AB422CD1E6
:104CC000066853000CFA03F4A64306600E79D0F888
:104CD00000809E4046EA080606600E79012E01D04B
:104CE000022E12D18668A64386604E79D0F80880DD
:104CF0009E4046EA080686604668AE4346604568C0
:104D00008E799640B6B235434560C568A543C56007
:104D1000CC799C40C3681C43C460521C102AC9D380
:104D2000BDE8F0814FF6FF71016000210171417112
:104D30008171C171704708B541F480320092009AC8
:104D4000C261C1610099C161C169C069009008BDBB
:104D50000246002012690A4200D001207047006913
:104D600080B270470246002052690A4200D00120FA
:104D70007047406980B27047018370474183704734
:104D8000002A01D001837047418370474161704719
:104D900042694A404261704710B54B07DB0E9A40AA
:104DA000C90800EB8100016A0F249C40A143016205
:104DB000016A1143016210BD00000240000402407C
:104DC00000080240000C02400010024000140240A3
:104DD00000180240001C024000200240F848016810
:104DE00041F001010160F64A0021083211600268B9
:104DF000F44B1A400260031DF34A1A60026822F461
:104E000080220260EE480C3001607047EC490022BD
:104E1000891C0A7008707047024600205109012958
:104E20000CD002290DD0E6497431096802F01F0246
:104E3000012393400B4200D001207047E0490968EC
:104E4000F4E7DF4970310968F0E718B500200090F9
:104E50004FF4A0443120FFF7DFFF0099491C009177
:104E60000099A14201D00028F4D03120FFF7D4FFEF
:104E700008B1012018BD002018BDD14A116821F0E9
:104E8000F80141EAC00010607047D04908607047DF
:104E9000CB49002270310A700A70012804D004281E
:104EA00001D1052008707047012008707047C8497B
:104EB0000860704710B5029C41EA82114FF0FF3242
:104EC00002EB530241EA0241014341EA0460BC495A
:104ED000091D086010BDBD4908667047800140EAA1
:104EE0000170B749843108607047B84988667047D7
:104EF000B649C8647047B24B08331A6822F0EC62B6
:104F00000843104318607047AD4B08331A6822F00D
:104F100078420843104318607047A94A0832116864
:104F200021F00301014311607047A5480830006873
:104F300000F00C007047A24A0832116821F0F0011D
:104F40000143116070479E4A0832116821F4E05114
:104F50000143116070479A4A0832116821F4604198
:104F600041EAC0001060704770B5954B083319686E
:104F700001F00C01974C00291ED0661004291DD0A9
:104F800008291DD00460196801F0F0010909924A4E
:104F9000545C0168E14041601C6804F4E054A40AD8
:104FA000145D21FA04F484601B6803F460435B0B16
:104FB000D25CD140C16070BD0460E4E70660E2E706
:104FC0007F4A121D1168C1F38055116801F03F013D
:104FD00035B1B6FBF1F11468C4F38814614305E000
:104FE000B4FBF1F11468C4F3881461431268C2F38E
:104FF0000142521C5200B1FBF2F10160C3E7C0F361
:105000000121032908D16E4B0833196821F4F812E5
:105010007249014011431960694A70321168C0F346
:105020000B000143116070476949443908607047BB
:105030006749403908607047694908607047604AAD
:105040003032002903D011680143116070471168A4
:105050008143116070475A4A3432002903D01168E5
:105060000143116070471168814311607047544AD1
:105070003832002903D0116801431160704711686C
:105080008143116070474E4A4032002903D01168B5
:105090000143116070471168814311607047484AAD
:1050A0004432002903D01168014311607047116830
:1050B000814311607047424A1032002903D01168C1
:1050C00001431160704711688143116070473C4A89
:1050D0001432002903D01168014311607047116830
:1050E000814311607047364A1832002903D0116895
:1050F0000143116070471168814311607047304A65
:105100002032002903D011680143116070471168F3
:105110008143116070472A4A2432002903D0116864
:105120000143116070471168814311607047244A40
:105130005032002903D01168014311607047116893
:105140008143116070471E4A5432002903D0116810
:105150000143116070471168814311607047184A1C
:105160005832002903D0116801431160704711685B
:10517000814311607047124A6032002903D01168E0
:1051800001431160704711688143116070470C4AF8
:105190006432002903D0116801431160704711681F
:1051A000814311607047064A0D32002903D01178FF
:1051B00001431170704711788143117070470000EE
:1051C00000380240FFFFF6FE103000240000474286
:1051D000800E47420024F40038010020FFFCFF0F3E
:1051E0005C0147420948016841F080710160E5E7D0
:1051F00001460020054A683A12680A42DED00120C2
:10520000DCE7024966390870D8E7000074380240CC
:1052100010B50121CC022046FFF77DFF2046BDE8F6
:1052200010400021FFF777BF30B5644B196847F68F
:10523000FF629143027D8468C568224344682C4321
:10524000224304680069224302430A431A6030BDC6
:1052500000210175016041608160C160016170479A
:105260005749086070475549091F086070475348FF
:10527000001F006800F00300704710B54F4A016836
:10528000121D1160141D21686FF30A01D0E901237A
:105290001A43D0E9033003431A430A43226010BD86
:1052A0000021016041608160C16001617047434835
:1052B0000C300068C0B2704708B54049103108444E
:1052C00000900098006808BD10B53C4A0168203283
:1052D0001160121D41681160141D216821F0F70151
:1052E000D0E902231A43D0E9043003431A430A43A6
:1052F000226010BD4FF0FF310160002141608160EC
:10530000C1600161416170472C482C3000687047D2
:105310002A487C300068704728497C310860704713
:105320002648443000687047264908607047254980
:10533000091D0860704723490831086070472149FA
:105340000C31086070472049086070471E49091DEC
:1053500008607047012181431B4808300160704795
:1053600019490C31086070471649143908607047B4
:10537000124A3832002903D0116801431160704786
:105380001168814311607047014600200B4A30329A
:1053900012680A4200D00120704708493431086081
:1053A000704701460020054A303212680A4200D098
:1053B000012070470149343108607047042C0140D6
:1053C000A0802542A0852542AC81254210B501214F
:1053D0008C032046FFF79FFE2046BDE810400021C9
:1053E000FFF799BE11490860704710B58A07120F80
:1053F0000F23934021F003040D49214401F60801D5
:105400000C689C430C600B68904003430B6010BD1C
:105410000849086070470849086070470020034940
:1054200020310968C90500D50120704700380140C6
:1054300000300140DC0027420004274210B5E64955
:10544000884209D101211020FFF765FE0021BDE847
:1054500010401020FFF75FBEE04988420AD10121C9
:105460004C042046FFF74BFE2046BDE810400021CB
:10547000FFF745BEDA4988420AD101218C04204653
:10548000FFF73DFE2046BDE810400021FFF737BE84
:10549000D44988420AD10121CC042046FFF72FFECF
:1054A0002046BDE810400021FFF729BECE498842C2
:1054B0000AD101210C052046FFF721FE2046BDE858
:1054C00010400021FFF71BBEC849884209D10121C5
:1054D0002020FFF720FE0021BDE810402020FFF72C
:1054E0001ABE10BD7FB504460D46208A20F44051F7
:1054F000E88808432082A08941F20C618843A9888A
:105500002A8911436A8902431143A181A08A20F4A8
:105510004071A8890843A0826846FFF725FDAE4880
:10552000844202D0B148844201D1039800E002983D
:10553000A189090408D500EBC00101EB001029681E
:105540004900B0FBF1F007E000EBC00101EB0010F7
:1055500029688900B0FBF1F06422B0FBF2F1090187
:105560000B096FF018056B4300EB8300A3891D0442
:105570004FF0320307D503EBC000B0FBF2F000F0B0
:105580000700084306E003EB0010B0FBF2F000F068
:105590000F00084320817FBD4FF4165101600021A8
:1055A0008180C18001810C2242818181704710B5C8
:1055B000028A22F470630A884C8822438C88C98846
:1055C0000C4322431A43028210BD00210180418016
:1055D0008180C1807047002904D0818941F4005145
:1055E00081817047818921F4005181817047028B4C
:1055F00002F47F420283028B0A4302837047002930
:1056000004D0818941F40041818170478189C1F3CF
:105610000E0181817047002904D0818A41F4006124
:1056200081827047818A21F4006181827047C1F3D1
:105630000801818070478088C0F308007047028AA3
:1056400022F00F020282028A0A4302827047002976
:1056500004D0818941F0020181817047818921F064
:10566000020181817047828922F4006282818289ED
:105670000A4382817047028A22F020020282028A53
:105680000A4302827047002904D0018A41F4804114
:1056900001827047018A21F480410182704781892B
:1056A00041F0010181817047002904D0818A41F0D5
:1056B000080181827047818A21F008018182704748
:1056C000028BD2B20283028B42EA0121018370472E
:1056D000002904D0818A41F0200181827047818AAB
:1056E00021F0200181827047002904D0818A41F095
:1056F000100181827047818A21F0100181827047F8
:10570000828A22F004028282828A0A43828270475D
:10571000002904D0818A41F0020181827047818A88
:1057200021F0020181827047002A03D0828A0A4355
:1057300082827047828A8A438282704710B540F61F
:105740006A13C1F3421301F01F040121A140012B90
:1057500007D0022B07D014303AB102680A43026026
:1057600010BD0C30F8E71030F6E702688A4302609B
:1057700010BD0246002012880A4200D00120704766
:105780008A05C9430180704770B5002440F66A124B
:10579000C1F3421301F01F05012606FA05F2012BA1
:1057A0000CD0022B0DD0838A1340090A8E4000884A
:1057B00030400BB100B10124204670BD83891340F5
:1057C000F3E7038A1340F0E740F66A120A0A012160
:1057D0009140C943018070470010014000440040DF
:1057E00000480040004C00400050004000140140C0
:1057F0002B4908432B490860704730B50F23C27806
:1058000001250178002A1FD0264A126802F4E062BE
:10581000C2F5E062C2F30722C2F10404D340427829
:10582000A24084781C401443220101F1E02181F858
:105830000024007800F01F018D404009800000F135
:10584000E020C0F8005130BD01F01F00854048093C
:10585000800000F1E020C0F8805130BD124A1140B4
:1058600001431048001F016070470E4A121D0029B5
:1058700003D01168014311607047116881431160C2
:1058800070474FF0E021042804D0086920F004009C
:1058900008617047086940F0040008617047000023
:1058A0000000FA050CED00E080FFFF1F2DE9F0433A
:1058B000016821F001010160002101604160816007
:1058C000C160016121214161C149C14A10394FF0D4
:1058D0003D08904203D1C1F80880BDE8F083BC4A7E
:1058E0004FF474651832904201D18D60F5E7B84AE3
:1058F0004FF474163032904201D18E60EDE7B44A15
:105900004FF074674832904201D18F60E5E7B04BA9
:10591000B04A6033984201D1CA60DEE7AC4CAE4B6E
:105920007834A04201D1CB60D7E7DFF8A4C2AB4CFA
:105930000CF1900C604501D1CC60CEE7DFF890927D
:105940004FF03D5C09F1A809484502D1C1F80CC0EF
:10595000C3E7A349DFF888920839484502D1C1F866
:105960000080BAE7DFF8788208F11808404501D1D5
:105970000D60B2E79A4D3035A84201D10E60ACE718
:10598000974D4835A84201D10F60A6E7944D944940
:105990006035091FA84201D10A609EE7904A78321B
:1059A000904201D10B6098E78D4A9032904201D12C
:1059B0000C6092E78A4AA83290428ED1C1F800C0AA
:1059C0008BE730B50368874A1340CC680A682243E6
:1059D000D1E905452C432243CC6922430C6A22437A
:1059E0004C6A22438C6A22434C6B22438C6B2243C9
:1059F0001A430260426922F00703D1E90B242243D3
:105A00001A4342610A6942604A6882608968C160DB
:105A100030BD0021016041608160C1600161416170
:105A20008161C161016241628162C162016341635E
:105A300081637047002904D0016841F001010160D1
:105A40007047016821F0010101607047002904D00E
:105A5000016841F4004101607047016821F4004190
:105A600001607047002904D0016841F02001016005
:105A70007047016821F02001016070474160704764
:105A8000406880B27047002A04D0026842F40022C5
:105A9000026003E0026822F40022026001617047A4
:105AA000002904D0016841F4802101607047016839
:105AB00021F4802101607047002A01D00161704704
:105AC000C1607047014600200968090300D5012024
:105AD0007047014600200968C90700D001207047BF
