:020000040800F2
:100000000002012091FE0008F92D0008FB2D0008D8
:10001000FD2D0008FF2D0008012E00080000000043
:100020000000000000000000000000009D0100082A
:10003000052E000800000000CD010008092E000870
:10004000ABFE0008ABFE0008ABFE0008ABFE0008EC
:10005000ABFE0008ABFE0008452E0008712E00081C
:100060006B2F0008B52F0008FF2F000889410008FA
:100070008F410008954100089B410008A1410008FC
:10008000A7410008AD410008ABFE0008ABFE000828
:10009000ABFE0008ABFE0008ABFE000849300008CC
:1000A000ABFE0008ABFE0008ABFE0008ABFE00088C
:1000B000ABFE000849310008ABFE0008ABFE0008AB
:1000C000ABFE0008ABFE0008ABFE0008ABFE00086C
:1000D000ABFE00083748000849480008614800089E
:1000E0009D2E0008ABFE0008ABFE0008ABFE00082A
:1000F000ABFE0008ABFE0008ABFE0008B3410008F1
:10010000ABFE0008ABFE0008ABFE0008ABFE00082B
:100110007948000891480008ABFE0008ABFE0008D3
:10012000B9410008BD410008C3410008C9410008A9
:10013000CF4100080D2E0008ABFE0008ABFE000802
:10014000ABFE0008ABFE0008ABFE0008ABFE0008EB
:10015000D5410008DB410008E1410008A54800083E
:10016000ABFE0008ABFE0008ABFE0008ABFE0008CB
:10017000ABFE0008ABFE0008ABFE0008ABFE0008BB
:10018000ABFE0008ABFE0008DFF80CD010F092F9CF
:1001900000480047C702000800020120194B1968F7
:1001A0000868B0E8F00F80F309884FF0000080F392
:1001B00011884EF00D0E70470000000002480068E4
:1001C000006880F3088800DF08ED00E0EFF30980A5
:1001D0000C4B1A6820E9F00F106008B54FF0BF0013
:1001E00080F311880FF057FC4FF0000080F3118866
:1001F000BDE8084019680868B0E8F00F80F3098886
:10020000704700BF2802002001B44FF0BF0080F308
:10021000118801BC704701B44FF0000080F31188D1
:1002200001BC704714200FF0B2FAFBE708B5FB4E93
:10023000FB4D2021304606F046FF0028F9D030461D
:1002400006F0A3FEA628F4D12870012409E020219D
:10025000304606F038FF0028F9D0304606F095FE0B
:1002600028550C2CF3DD287B8628E2D1A878552868
:1002700003D07128DDD1E879DBE7EA4800236A463C
:10028000194640690EF0E6FFD3E7002005F081FC37
:10029000FA200FF07CFAF8E70FB410B5C0B00446AE
:1002A00044AB4FF480716846439A10F095F982B2DE
:1002B0006946204604F06FFB40B010BC5DF814FBAB
:1002C000002005F035BC1FB5D5484FF4E131A0380A
:1002D000016000248480C480048184810C214181D8
:1002E000FFF7EEFF03F01CFC03F06AFDCC49002091
:1002F000A03903F0AFFBCA490120A03903F0AAFBE3
:10030000C7490220A03903F0A5FBC44D284604F0DC
:1003100002FBC54804F0FFFAC44804F0FCFAC4A18B
:100320002846FFF7B9FF03F0EDF802F0C1FF03F034
:100330009EFA002101200EF05FFEBA4DE86020B168
:1003400000231A4619460EF0F6FE002101200EF099
:1003500053FE286120B100231A4619460EF0EBFE29
:10036000002101200EF048FE686120B100231A46EA
:1003700019460EF0E0FE002101200EF03DFEA861BE
:1003800020B100231A4619460EF0D5FE00210120A7
:100390000EF032FEE86120B100231A4619460EF035
:1003A000CAFE0125CDE90054002302948022A9A1B0
:1003B000AFF2291003940FF0C1F8CDE900540023E7
:1003C0006E0202943246A5A1AFF29F1003940FF083
:1003D000B5F8CDE90054029400233246A1A1AFF252
:1003E000BB1003940FF0AAF80FF08FFAFEE72DE987
:1003F000F05F8B4DCA274FF006084FF036094FF0DB
:10040000F90A002410350FF0A3FA864E316A401A1B
:10041000B0F55C6F6FD8A621297010216970812119
:10042000A970C1B2E970C0F307222A71C0F3074373
:100430006B71000EA87196F800C0BCF1250F71D247
:10044000DFE80CF0701D1D292E3338434E5A6571BC
:100450007C8792979CA1A6ADB3B9C0C7CDD3DAEB88
:100460007013701E1D1D1D1D1D00EC712C724FF0B0
:10047000DF0C85F809C04FF0AB0C85F80AC00AE123
:10048000EC712C724FF0DF0C85F809C04FF0AB0C0B
:1004900085F80AC0FFE0EC712C726C72AC72FAE065
:1004A000EC712C726C72AC72F5E0EC712C726C72A7
:1004B000AC72F0E04FF0620C85F807C04FF0280CEA
:1004C00085F808C06C72AC72E5E04FF0BF0C85F89F
:1004D00007C04FF02B0C85F808C06C72AC72DAE0E4
:1004E0004FF0350C85F807C04FF0390C85F808C07F
:1004F0006C72AC72CFE0EDE04FF0920C85F807C063
:100500004FF03C0C85F808C06C72AC72C3E04FF041
:10051000620C85F807C04FF0280C85F808C06C7293
:10052000AC72B8E0B3E04FF0BF0C85F807C04FF0F5
:100530002B0C85F808C06C72AC72ACE04FF0CB0CA1
:1005400085F807C04FF0300C85F808C06C72AC72AB
:10055000A1E04FF0290C85F807C04FF0340C85F866
:1005600008C06C72AC7296E0EC712C726C72AC725A
:1005700091E0EC712C726C72AC728CE0EC712C72AC
:100580006C72AC7287E0EC712C726C72AC7282E0AF
:1005900085F8079085F808A06C72AC727BE0EF716B
:1005A00085F808806C72AC7275E0EC712C726F7219
:1005B00085F80A806FE0EC712C7285F8099085F857
:1005C0000AA068E085F8079085F808A06C72AC7204
:1005D00061E0EF7185F808806C72AC725BE0EC71E1
:1005E0002C726F7285F80A8055E0EC712C7285F8D8
:1005F000099085F80AA04EE04FF0210C85F807C05D
:100600004FF0540C85F808C04FF0940C85F809C0E1
:100610004FF0FF0C85F80AC03DE027E000100140D4
:100620003403002000000020004400400048004047
:100630000A0D53657269616C20636F6D6D756E692B
:10064000636174696F6E20636F6D706C6574652192
:100650000A0D00004C45443400000000554152543E
:100660000000000047434F4D000000004FF0210CF8
:1006700085F807C04FF0540C85F808C04FF0940C73
:1006800085F809C04FF0FF0C85F80AC003E0EC7153
:100690002C726C72AC72EC724FF0020C85F80CC0CC
:1006A0004FF0010C85F80DC081311A441144084403
:1006B000E9790844297A0844697A0844A97A0844FF
:1006C000C01CA8738620E8731022FE49FE4804F07F
:1006D00062F953E1A6212970102169708121A97066
:1006E000C1B2E970C0F307222A71C0F307436B71EE
:1006F000000EA87196F800C0BCF1250F70D2DFE89B
:100700000CF06F1D1D292E3338434E5964707B86C3
:1007100091969BA0A5B0BBC6D1DCE7F5F3F26F13B1
:100720006F1E1D1D1D1D1D00EC712C724FF0010C64
:1007300085F809C04FF0C00C85F80AC003E1EC71E0
:100740002C724FF0010C85F809C04FF0C00C85F8F1
:100750000AC0F8E0EC712C726C72AC72F3E0EC71D0
:100760002C726C72AC72EEE0EC712C726C72AC722A
:10077000E9E04FF0B80C85F807C04FF01E0C85F883
:1007800008C06C72AC72DEE04FF0470C85F807C011
:100790004FF0210C85F808C06C72AC72D3E04FF0BA
:1007A000840C85F807C04FF02B0C85F808C06C72DC
:1007B000AC72C8E04FF0140C85F807C04FF02E0C57
:1007C00085F808C06C72AC72BDE04FF0B80C85F8CB
:1007D00007C04FF01E0C85F808C06C72AC72B2E016
:1007E000ADE04FF0AB0C85F807C04FF0210C85F859
:1007F00008C06C72AC72A6E04FF01E0C85F807C002
:100800004FF0250C85F808C06C72AC729BE04FF07D
:10081000AE0C85F807C04FF0270C85F808C06C7245
:10082000AC7290E0EC712C726C72AC728BE0EC717B
:100830002C726C72AC7286E0EC712C726C72AC72C1
:1008400081E0EC712C726C72AC727CE04FF0D60CD3
:1008500085F807C04FF0FA0C85F808C06C72AC72CE
:1008600071E04FF02A0C85F807C04FF0050C85F8B1
:1008700008C06C72AC7266E0EC712C724FF02A0CFE
:1008800085F809C04FF0050C85F80AC05BE0EC71F3
:100890002C724FF0D60C85F809C04FF0FA0C85F891
:1008A0000AC050E04FF0D60C85F807C04FF0FA0CA4
:1008B00085F808C06C72AC7245E04FF02A0C85F8E0
:1008C00007C04FF0050C85F808C06C72AC723AE0B6
:1008D000EC712C724FF02A0C85F809C04FF0050C12
:1008E00085F80AC02FE01BE00BE0FFE7EC712C72EB
:1008F0004FF0D60C85F809C04FF0FA0C85F80AC005
:1009000021E04FF0FF0B85F807B04FF03F0C85F862
:1009100008C04FF0AF0C85F809C085F80AB012E0A6
:100920004FF0FF0B85F807B04FF03F0C85F808C07B
:100930004FF0AF0C85F809C085F80AB003E0EC7100
:100940002C726C72AC72EC724FF0020C85F80CC019
:100950006C7381311A4411440844E9790844297AB6
:100960000844697A0844A97A0844801CA873862040
:10097000E87310225349544804F00DF814200EF087
:1009800006FF00231A46194670690EF0ADFC0128D7
:100990007FF439ADBDE8F09F2DE9FF5F4B4C207827
:1009A0004B4D002838D02078FF2835D02078454E90
:1009B000DFF820A1203E4FF0A60B4FF0AA0806F169
:1009C00010074FF00B0925287AD2DFE810F07900E4
:1009D0007401E1014C02DA025103C9034004B60478
:1009E0003905AF052106910610078007F8076E0844
:1009F000DE085C09D109490ABD0A430BB20B230C7E
:100A0000920C010D870D790044007900E700F60D86
:100A1000610EC40E2D0FA10F48F228112E4805F0CB
:100A200055FE4FF400612D4805F050FEFB212C4887
:100A300005F04CFE00220221284607F012FA0021A0
:100A4000284606F0EDFF6068002839D004B0BDE804
:100A5000F05F0EF0DBBD1E4D00220221284607F09C
:100A600000FA0021284606F0DBFF0025CAF80050F6
:100A70004FF40041184805F029FEDFF864A0082172
:100A8000504605F025FE1321504605F01FFE20219B
:100A9000504605F01DFE00234FF0FF3A524619461E
:100AA00060690EF021FC01280AD186F800B00D2003
:100AB000707086F80280F87839790844797911E005
:100AC000E6E0000044030020001001400000002088
:100AD000000400403800002000000240000C0240EA
:100AE0000010024010FB01F0F070010A3171020C9D
:100AF0007271030EB37186F8079035727572B57214
:100B0000F572AA301144084418440B303073862023
:100B100070730D22FD49FE4803F03DFF002352464D
:100B20001946E0680EF0E0FB0128BDD10EF010FF81
:100B30002062F848CDE90105012100234A02009115
:100B40000395F5A1AFF259700EF0F8FCF44D0021B9
:100B5000284606F031FE4FF4AF61284606F0F2FD5C
:100B60006421284606F05CFF01220221284607F096
:100B700078F90A200EF00BFE0121284606F01CFE33
:100B800000235246194620690EF0AEFB606800282B
:100B90007ED004B0BDE8F05F0EF038BDE04D00221D
:100BA0000221284607F05DF90021284606F038FFAB
:100BB0000025CAF800504FF40041DA4805F086FDE0
:100BC000DFF864A31B21504605F080FD202150462C
:100BD00005F07EFD00234FF0FF3A5246194660694A
:100BE0000EF082FB0128A0D186F800B00D207070B5
:100BF00086F80280F87839790844797910FB01F099
:100C0000F070010A3171020C7271030EB37186F833
:100C1000079035727572B572F572AA3011440844A6
:100C200018440B303073862070730D22B749B848D2
:100C300003F0B1FE002352461946E0680EF054FB63
:100C40000128D0D10EF084FE20620120B1498DE848
:100C5000230000234202B0A1AFF66D0003950EF011
:100C60006DFCAF4D0021284606F0A6FD4FF4AF61A4
:100C7000284606F067FD6421284606F0D1FE0122D1
:100C80000221284607F0EDF80A200EF080FD00E072
:100C90008AE00121284606F08FFD002352461946BE
:100CA00020690EF021FB606800287DD004B0BDE80B
:100CB000F05F0EF0ABBC9DA19548FFF7EDFA984DA3
:100CC00000220221284607F0CCF80021284606F031
:100CD000A7FE0025CAF800504FF40041914805F0E6
:100CE000F5FCDFF844A21A21504605F0EFFC212163
:100CF000504605F0EDFC00234FF0FF3A52461946EE
:100D000060690EF0F1FA01289BD186F800B00D2041
:100D1000707086F80280F87839790844797910FB88
:100D200001F0F070020A3271030C7371010EB1719F
:100D300086F8079035727572B572F572AA301A444A
:100D4000104408440B303073862070730D226F49B5
:100D50006F4803F020FE002352461946E0680EF06B
:100D6000C3FA0128D0D10EF0F3FD20626C4D40F2A1
:100D70003551284606F0E6FC0021284606F050FED4
:100D80006068002891D004B0BDE8F05F0EF03EBC72
:100D9000634D00220221284607F063F8002128460F
:100DA00006F03EFE002500E064E1CAF800504FF472
:100DB00000415C4805F08AFCDFF86CA11B2150461D
:100DC00005F084FC2021504605F082FC00234FF002
:100DD000FF3A5246194660690EF086FA012893D10F
:100DE00086F800B00D20707086F80280F8783979A6
:100DF0000844797910FB01F0F070030A3371010C9B
:100E00007171020EB27186F8079035727572B57203
:100E1000F572AA301944084410440B303073862010
:100E200070730D2239493A4803F0B5FD002352464C
:100E30001946E0680EF058FA012893D10EF088FDAB
:100E40002062374D40F23251284606F07BFC642187
:100E5000284606F0E5FD6068002893D004B0BDE8A0
:100E6000F05F0EF0D3BB2E4D00220221284606F083
:100E7000F8FF0021284606F0D3FD0025CAF80050EF
:100E80004FF40041274805F021FCDFF89CA0132116
:100E9000504605F01BFC2821504605F019FC0023A4
:100EA0004FF0FF3A5246194660690EF01DFA0128CC
:100EB00095D186F800B00D20707086F80280F87821
:100EC00039790844797910FB01F0F070020A327127
:100ED000010C7171030EB37186F80790357275724B
:100EE000B572F572AA301144084418440B303073BF
:100EF000862070730D220549054803F04CFD002340
:100F000052461946E0680EF0EFF915E02403002080
:100F100000100140080000204649454C44000000F4
:100F20000004004000000240001002400A0D474F3C
:100F30004F440A0D000000000128B9D10EF008FD51
:100F40002062FE48CDE90105012100234A020395F4
:100F50000091AFF23C01AFF669300EF0EFFAF84DB8
:100F600040F23551284606F0EDFB6421284606F094
:100F700057FD606800287DD004B0BDE8F05F0EF03A
:100F800045BBEF4D00220221284606F06AFF0021F2
:100F9000284606F045FD0025CAF800504FF40041F0
:100FA000E84805F093FBDFF8A0A31B21504605F0AD
:100FB0008DFB2021504605F08BFB00234FF0FF3ABC
:100FC0005246194660690EF08FF90128B5D186F8AE
:100FD00000B00D20707086F80280F87839790844E6
:100FE000797910FB01F0F070010A3171020C727115
:100FF000030EB37186F8079035727572B572F5728B
:10100000AA301144084418440B30307386207073A2
:101010000D22CE49CE4803F0BEFC002352461946AD
:10102000E0680EF061F9012887D10EF091FC206292
:10103000C248CDE90105012100234A020395009130
:10104000AFF22C11AFF659400EF078FABC4D40F2D9
:101050003551284606F076FB6421284606F0E0FC70
:101060006068002887D004B0BDE8F05F0EF0CEBA0B
:10107000002200E05EE2B24D0221284606F0F1FEB9
:101080000021284606F0CCFC0025CAF800504FF499
:101090000041AC4805F01AFBDFF8ACA20B2150462A
:1010A00005F014FB3021504605F012FB00234FF0F1
:1010B000FF3A5246194660690EF016F9012885D1AB
:1010C00086F800B00D20707086F80280F8783979C3
:1010D0000844797910FB01F0F070010A3171020CBB
:1010E0007271030EB37186F8079035727572B5721E
:1010F000F572AA301144084418440B30307386202E
:1011000070730D229149924803F045FC002352462A
:101110001946E0680EF0E8F8012885D10EF018FCB9
:101120002062012085498DE8230000234202AFF2AE
:101130001821AFF6455003950EF000FA804D40F2AD
:101140003551284606F0FEFA6421284606F068FC70
:101150006068002886D004B0BDE8F05F0EF056BA93
:10116000774D00220221284606F07BFE002128460A
:1011700006F056FC0025CAF800504FF400417148B3
:1011800005F0A4FADFF8C0A11321504605F09EFA3D
:101190002821504605F09CFA00234FF0FF3A5246B2
:1011A000194660690EF0A0F8012888D186F800B0D1
:1011B0000D20707086F80280F878397908447979C2
:1011C00010FB01F0F070010A3171020C7271030E14
:1011D000B37186F8079035727572B572F572AA30E0
:1011E0001144084418440B303073862070730D226C
:1011F0005649574803F0CFFB002352461946E06892
:101200000EF072F8012888D10EF0A2FB20624B4844
:10121000CDE90105012100234A0203950091AFF2B7
:101220000831AFF635600EF089F9454D40F2DC51DA
:10123000284606F087FA6421284606F0F1FB60682C
:10124000002887D004B0BDE8F05F0EF0DFB93C4D58
:1012500000220221284606F004FE0021284606F05E
:10126000DFFB0025CAF800504FF40041354805F077
:101270002DFADFF8D4A01321504605F027FA2821D3
:10128000504605F025FA00234FF0FF3A5246194622
:1012900060690EF029F8012887D186F800B00D208A
:1012A000707086F80280F87839790844797910FBF3
:1012B00001F0F070020A3271010C7171030EB3710A
:1012C00086F8079035727572B572F572AA301144BE
:1012D000084418440B303073862070730D221B496C
:1012E0001B4803F058FB002352461946E0680DF0F6
:1012F000FBFF012887D10EF02BFB206201200F4954
:101300008DE8230000234202AFF2F431AFF62170E2
:1013100003950EF013F90A4D40F2DC51284606F011
:1013200011FA6421284606F07BFB6068002888D00B
:1013300004B0BDE8F05F0EF069B90BE008000020D2
:10134000000400400000024000100240240300207E
:1013500000100140FF4D00220221284606F081FDC9
:101360000021284606F05CFB0025CAF800504FF427
:101370000041F94805F0AAF9DFF8E0A3332150460F
:1013800005F0A4F90821504605F0A2F900234FF01A
:10139000FF3A5246194660690DF0A6FF0128A9D10F
:1013A00086F800B00D20707086F80280F8783979E0
:1013B0000844797910FB01F0F070020A3271010CD7
:1013C0007171030EB37186F8079035727572B5723C
:1013D000F572AA301144084418440B30307386204B
:1013E00070730D22DE49DF4803F0D5FA0023524620
:1013F0001946E0680DF078FF0128D0D10EF0A8FA68
:101400002062D948CDE90105012100234A02039554
:101410000091AFF2FC41D5480EF090F8CD4D40F26E
:10142000DC51284606F08EF96421284606F0F8FAC9
:10143000606800287ED004B0BDE8F05F0EF0E6B82A
:10144000C44D00220221284606F00BFD002128464B
:1014500006F0E6FA0025CAF800504FF40041BE48F5
:1014600005F034F9DFF8F4A23321504605F02EF9E7
:101470000821504605F02CF900234FF0FF3A524660
:10148000194660690DF030FF012888D186F800B058
:101490000D20707086F80280F878397908447979DF
:1014A00010FB01F0F070010A3171020C7271030E31
:1014B000B37186F8079035727572B572F572AA30FD
:1014C0001144084418440B303073862070730D2289
:1014D000A349A44803F05FFA002352461946E06886
:1014E0000DF002FF012888D10EF032FA20629E48EA
:1014F000CDE90105012100234A0203950091AFF2D5
:10150000E8519A480EF01AF8924D40F2DC51284604
:1015100006F018F96421284606F082FA606800286F
:1015200088D004B0BDE8F05F0EF070B80022022150
:10153000884D00E0D4E1284606F093FC00212846BF
:1015400006F06EFA0025CAF800504FF400418248B8
:1015500005F0BCF83B21814805F0B8F800234FF0B6
:10156000FF3A5246194660690DF0BEFE01288CD143
:1015700086F800B00D20707086F80280F87839790E
:101580000844797910FB01F0F070020A3271010C05
:101590007171030EB37186F8079035727572B5726A
:1015A000F572AA301144084418440B303073862079
:1015B00070730D226A496B4803F0EDF9002352461F
:1015C0001946E0680DF090FE01288CD10EF0C0F9AC
:1015D00020626548CDE90105012100234A020395F7
:1015E0000091AFF2CC6161480DF0A8FF594D4FF466
:1015F000AF61284606F0A6F86421284606F010FAE6
:10160000606800288CD004B0BDE8F05F0DF0FEBF2C
:10161000504D00220221284606F023FC00212846D6
:1016200006F0FEF90025CAF800504FF400414A4880
:1016300005F04CF83B21494805F048F800234FF0ED
:10164000FF3A5246194660690DF04EFE01288ED1D0
:1016500086F800B00D20707086F80280F87839792D
:101660000844797910FB01F0F070020A3271010C24
:101670007171030EB37186F8079035727572B57289
:10168000F572AA301144084418440B303073862098
:1016900070730D223249334803F07DF9002352461E
:1016A0001946E0680DF020FE01288ED10EF050F9A9
:1016B00020622D48CDE90105012100234A0203954E
:1016C0000091AFF2AC7129480DF038FF214D4FF475
:1016D000AF61284606F036F86421284606F0A0F9E6
:1016E000606800288ED004B0BDE8F05F0DF08EBFBA
:1016F000184D00220221284606F0B3FB002128469F
:1017000006F08EF90025CAF800504FF40041124847
:1017100004F0DCFF3B21114804F0D8FF00234FF018
:10172000FF3A5246194660690DF0DEFD01288ED160
:1017300086F800B00D20707086F80280F87839794C
:101740000844797910FB01F0F070010A3171020C44
:1017500072710DE0000400400000024000100240E1
:10176000240300200010014008000020EF030008BF
:10177000030EB37186F8079035727572B572F57203
:10178000AA301144084418440B303073862070731B
:101790000D22FE49FE4803F0FEF80023524619468A
:1017A000E0680DF0A1FD0128C1D10EF0D1F8206252
:1017B000F848CDE90105012100234A020395009173
:1017C000AFF6AC01F4480DF0B9FEF44D4FF4AF6143
:1017D000284605F0B7FF6421284606F021F9606825
:1017E00000287DD004B0BDE8F05F0DF00FBFEB4DD9
:1017F00000220221284606F034FB0021284606F08C
:101800000FF90025CAF800504FF40041E44804F0F5
:101810005DFF3B21E34804F059FF00234FF0FF3AFE
:101820005246194660690DF05FFD0128BCD186F86B
:1018300000B00D20707086F80280F878397908447D
:10184000797910FB01F0F070010A3171020C7271AC
:10185000030EB37186F8079035727572B572F57222
:10186000AA301144084418440B303073862070733A
:101870000D22C649C64803F08EF800235246194689
:10188000E0680DF031FD01288ED10EF061F8206284
:10189000C048CDE90105012100234A0203950091CA
:1018A000AFF68C11BC480DF049FEBC4D4FF4AF6152
:1018B000284605F047FF6421284606F0B1F8606825
:1018C00000288ED004B0BDE8F05F0DF09FBEB34D90
:1018D00000220221284606F0C4FA0021284600E032
:1018E0004AE206F09DF80025CAF800504FF4004186
:1018F000AB4804F0EBFEDFF8ACA23321504604F015
:10190000E5FE0821504604F0E3FE00234FF0FF3AC5
:101910005246194660690DF0E7FC012886D186F829
:1019200000B00D20707086F80280F878397908448C
:10193000797910FB01F0F070010A3171020C7271BB
:10194000030EB37186F8079035727572B572F57231
:10195000AA301144084418440B3030738620707349
:101960000D228A498A4803F016F800235246194688
:10197000E0680DF0B9FC012886D10DF0E9FF206286
:101980008448CDE90105012100234A020395009115
:10199000AFF67C2180480DF0D1FD804D4FF47A7177
:1019A000284605F0CFFE6421284606F039F8606825
:1019B000002886D004B0BDE8F05F0DF027BE774D5B
:1019C00000220221284606F04CFA0021284606F0A3
:1019D00027F80025CAF800504FF40041704804F081
:1019E00075FEDFF8C0A13321504604F06FFE0821D8
:1019F000504604F06DFE00234FF0FF3A5246194660
:101A000060690DF071FC012888D186F800B00D20C6
:101A1000707086F80280F87839790844797910FB7B
:101A200001F0F070010A3171020C7271030EB37192
:101A300086F8079035727572B572F572AA30114446
:101A4000084418440B303073862070730D224F49C0
:101A50004F4802F0A0FF002352461946E0680DF0FF
:101A600043FC012888D10DF073FF20624948CDE97D
:101A70000105012100234A0203950091AFF6683168
:101A800045480DF05BFD454D4FF4FA61284605F0E1
:101A900059FE6421284605F0C3FF6068002888D0FD
:101AA00004B0BDE8F05F0DF0B1BD3C4D0022022155
:101AB000284606F0D6F90021284605F0B1FF00259A
:101AC000CAF800504FF40041354804F0FFFD3B21B7
:101AD000344804F0FBFD00234FF0FF3A524619460C
:101AE00060690DF001FC01288ED186F800B00D2050
:101AF000707086F80280F87839790844797910FB9B
:101B000001F0F070010A3171020C7271030EB371B1
:101B100086F8079035727572B572F572AA30114465
:101B2000084418440B303073862070730D22174917
:101B3000174802F030FF002352461946E0680DF0C6
:101B4000D3FB01288ED10DF003FF20621148CDE9AF
:101B50000105012100234A0203950091AFF6484197
:101B60000D480DF0EBFC0D4D4FF47A71284605F051
:101B7000E9FD6421284605F053FF606800288ED0F7
:101B800004B0BDE8F05F0DF041BD0DE0240300207E
:101B90000010014008000020EF030008000400408E
:101BA0000000024000100240FF4D002202212846A2
:101BB00006F057F90021284605F032FF0025CAF843
:101BC00000504FF40041F94804F080FD3B21F848F3
:101BD00004F07CFD00234FF0FF3A5246194660693D
:101BE0000DF082FB0128ADD186F800B00D20707099
:101BF00086F80280F87839790844797910FB01F089
:101C0000F070020A3271010C7171030EB37186F823
:101C1000079035727572B572F572AA301144084496
:101C200018440B303073862070730D22E149E2486E
:101C300002F0B1FE002352461946E0680DF054FB55
:101C40000128D0D10DF084FE20620120DB498DE80F
:101C5000230000234202AFF64051D94803950DF00E
:101C60006DFCD14D4FF4FA61284605F06BFD6421FF
:101C7000284605F0D5FE606800287DD004B0BDE898
:101C8000F05F0DF0C3BCC84D00220221284606F0CB
:101C9000E8F80021284605F0C3FE0025CAF80050E8
:101CA0004FF40041C14804F011FDDFF804A33321D3
:101CB000504604F00BFD0821504604F009FD0023B6
:101CC0004FF0FF3A5246194660690DF00DFB0128AE
:101CD00089D186F800B00D20707086F80280F878FF
:101CE00039790844797910FB01F0F070010A3171FB
:101CF000020C7271030EB37186F80790357275721B
:101D0000B572F572AA301144084418440B30307390
:101D1000862070730D22A749A74802F03CFE0023DD
:101D200052461946E0680DF0DFFA012889D10DF01E
:101D30000FFE20620120A1498DE82300002342020A
:101D4000AFF62C619E4803950DF0F8FB964D40F2DE
:101D50003551284605F0F6FC6421284605F060FE62
:101D60006068002889D004B0BDE8F05F0DF04EBC7B
:101D7000002202218C4D00E0E6E1284606F071F8D1
:101D80000021284605F04CFE0025CAF800504FF40B
:101D90000041864804F09AFCDFF814A23321504633
:101DA00004F094FC0821504604F092FC00234FF00C
:101DB000FF3A5246194660690DF096FA012887D11C
:101DC00086F800B00D20707086F80280F8783979B6
:101DD0000844797910FB01F0F070020A3271010CAD
:101DE0007171030EB37186F8079035727572B57212
:101DF000F572AA301144084418440B303073862021
:101E000070730D226B496C4802F0C5FD00235246E9
:101E10001946E0680DF068FA012887D10DF098FDA9
:101E200020626648CDE90105012100234A0203959D
:101E30000091AFF61C7162480DF080FB5A4D40F2E4
:101E40003551284605F07EFC6421284605F0E8FD62
:101E50006068002886D004B0BDE8F05F0DF0D6BB06
:101E600000220221284605F0FCFF0021284605F04B
:101E7000D7FD0020CAF800004FF400414B4804F0A1
:101E800025FCDFF82CA13321504604F01FFC08216B
:101E9000504604F01DFC00234FF0FF3A524619460D
:101EA00060690DF021FA012889D186F800B00D2073
:101EB000707086F80280F87839790844797910FBD7
:101EC00001F0F070020A3271010C7171030EB371EE
:101ED00086F80790002737727772B772F772AA30C8
:101EE0001144084418440B303073862070730D225F
:101EF0003049314802F04FFD002352461946E06850
:101F00000DF0F2F9012888D10DF022FD20622B4856
:101F1000CDE9010701214A020091002303972949D5
:101F200027480DF00BFB40F23551284605F00AFC1E
:101F30006421284605F074FD606800288AD004B04A
:101F4000BDE8F05F0DF062BB174D0022022128466C
:101F500005F087FF0021284605F062FD0025CAF83C
:101F600000504FF40041114804F0B0FBDFF840A0EE
:101F70003321504604F0AAFB0821504604F0A8FB88
:101F800000234FF0FF3A5246194660690DF0ACF954
:101F9000012889D186F800B00D20707086F8028083
:101FA000F878397908440FE000040040000002404E
:101FB000001002402403002000100140080000200F
:101FC000EF030008180F0008797910FB01F0F0709A
:101FD000020A3271010C7171030EB37186F8079019
:101FE00035727572B572F572AA30114408441844FE
:101FF0000B303073862070730D22FE49FE4802F0CC
:10200000CAFC002352461946E0680DF06DF901281C
:10201000BFD10DF09DFC2062F848CDE901050121FA
:102020004A02009100230395F549F6480DF086FA1F
:10203000F54D40F23551284605F084FB64212846D1
:1020400005F0EEFC606800287ED004B0BDE8F05FCB
:102050000DF0DCBAEC4D00220221284605F001FF0C
:102060000021284605F0DCFC0025CAF800504FF49A
:102070000041E64804F02AFB3B21E54804F026FB3A
:1020800000234FF0FF3A5246194660690DF02CF9D3
:102090000128BDD186F800B00D20707086F802804E
:1020A000F87839790844797910FB01F0F070010A69
:1020B0003171020C7271030EB37186F8079035729C
:1020C0007572B572F572AA301144084418440B3089
:1020D0003073862070730D22C649C74802F05BFC3E
:1020E000002352461946E0680DF0FEF801288FD112
:1020F0000DF02EFC2062C148CDE9010501214A0204
:10210000009100230395BE49BE480DF017FABE4D5D
:1021100040F23551284605F015FB6421284605F0AC
:102120007FFC606800288FD004B0BDE8F05F0DF040
:102130006DBAB54D00220221284605F092FE00211D
:10214000284605F06DFC00E042E20025CAF8005088
:102150004FF40041AD4804F0B9FA3B21AC4804F01B
:10216000B5FA00234FF0FF3A5246194660690DF068
:10217000BBF801288DD186F800B00D20707086F86C
:102180000280F87839790844797910FB01F0F07011
:10219000020A3271010C7171030EB37186F8079057
:1021A00035727572B572F572AA301144084418443C
:1021B0000B303073862070730D228E498E4802F0EA
:1021C000EAFB002352461946E0680DF08DF801281D
:1021D0008DD10DF0BDFB20628848CDE901050121BC
:1021E0004A02009100230395854986480DF0A6F91F
:1021F000854D40F23551284605F0A4FA6421284661
:1022000005F00EFC606800288DD004B0BDE8F05FDA
:102210000DF0FCB97C4D00220221284605F021FE7C
:102220000021284605F0FCFB0025CAF800504FF4B9
:102230000041764804F04AFA3B21754804F046FA1A
:1022400000234FF0FF3A5246194660690DF04CF8F2
:1022500001288FD186F800B00D20707086F80280BA
:10226000F87839790844797910FB01F0F070020AA6
:102270003271010C7171030EB37186F807903572DB
:102280007572B572F572AA301144084418440B30C7
:102290003073862070730D225649574802F07BFB3D
:1022A000002352461946E0680DF01EF801288FD130
:1022B0000DF04EFB20625148CDE9010501214A0293
:1022C0000091002303954E494E480DF037F94E4DCD
:1022D00040F23551284605F035FA6421284605F0CC
:1022E0009FFB606800288FD004B0BDE8F05F0DF060
:1022F0008DB9454D00220221284605F0B2FD00218E
:10230000284605F08DFB0025CAF800504FF4004127
:102310003E4804F0DBF93B213D4804F0D7F90023A7
:102320004FF0FF3A5246194660690CF0DDFF012874
:102330008FD186F800B00D20707086F80280F87892
:1023400039790844797910FB01F0F070010A317194
:10235000020C7271030EB37186F8079035727572B4
:10236000B572F572AA301144084418440B3030732A
:10237000862070730D221F491F4802F00CFB0023BA
:1023800052461946E0680CF0AFFF01288FD10DF0DE
:10239000DFFA20621948CDE9010501214A020091C6
:1023A00000230395164917480DF0C8F8164D40F262
:1023B0003551284605F0C6F96421284605F030FB62
:1023C000606800288FD004B0BDE8F05F0DF01EB942
:1023D0000D4D00220221284605F043FD002128462C
:1023E00005F01EFB0025CAF800504FF400410748D5
:1023F00010E000002403002000100140080000202D
:10240000180F0008EF03000800040040000002401D
:102410000010024004F05AF9DFF85CA43321504662
:1024200004F054F90821504604F052F900234FF00B
:10243000FF3A5246194660690CF056FF0128A5D1B3
:1024400086F800B00D20707086F80280F87839792F
:102450000844797910FB01F0F070010A3171020C27
:102460007271030EB37186F8079035727572B5728A
:10247000F572AA301144084418440B30307386209A
:1024800070730D22FD49FE4802F085FA0023524682
:102490001946E0680CF028FF0128D0D10DF058FA59
:1024A00020620120F7498DE8230042020023F6490B
:1024B000F64803950DF042F8F54D40F235512846A7
:1024C00005F040F96421284605F0AAFA6068002862
:1024D0007ED004B0BDE8F05F0DF098B8EC4D00225E
:1024E0000221284605F0BDFC0021284605F098FA97
:1024F0000025CAF800504FF40041E64804F0E6F821
:102500003B21DD4804F0E2F800234FF0FF3A524649
:10251000194660690CF0E8FE012890D186F800B0F9
:102520000D20707086F80280F8783979084479793E
:1025300010FB01F0F070020A3271010C7171030E90
:10254000B37186F8079035727572B572F572AA305C
:102550001144084418440B303073862070730D22E8
:10256000C649C74802F017FA002352461946E068E8
:102570000CF0BAFE012890D10DF0EAF92062C148B2
:10258000CDE9010501214A02009100230395BE49CE
:10259000BE480CF0D3FFBE4D40F23551284605F041
:1025A000D1F86421284605F03BFA606800288FD0F6
:1025B00004B0BDE8F05F0DF029B8B54D002202214E
:1025C000284605F04EFC0021284605F029FA00E0D7
:1025D00007E20025CAF800504FF40041AD4804F06E
:1025E00077F8DFF894A20821504604F071F83321FF
:1025F000504604F06BF800234FF0FF3A524619465C
:1026000060690CF071FE012887D186F800B00D20BA
:10261000707086F80280F87839790844797910FB6F
:1026200001F0F070020A3271030C7371010EB17186
:1026300086F8079035727572B572F572AA301A4431
:10264000104408440B303073862070730D228B4980
:102650008B4802F0A0F9002352461946E0680CF0BE
:1026600043FE012887D10DF073F92062884D40F2B6
:102670003551284605F066F80021284605F0D0F9C6
:102680006068002893D004B0BDE8F05F0CF0BEBFD6
:102690007F4D00220221284605F0E3FB0021284659
:1026A00005F0BEF90025CAF800504FF40041794802
:1026B00004F00EF83B21704804F008F800234FF0B6
:1026C000FF3A5246194660690CF00EFE01289BD174
:1026D00086F800B00D20707086F80280F87839799D
:1026E0000844797910FB01F0F070010A3171020C95
:1026F0007271030EB37186F8079035727572B572F8
:10270000F572AA301144084418440B303073862007
:1027100070730D2259495A4802F03DF90023524680
:102720001946E0680CF0E0FD01289BD10DF010F98E
:102730002062574D40F23551284605F003F800213C
:10274000284605F06DF9606800289BD004B0BDE80C
:10275000F05F0CF05BBF4E4D00220221284605F0D1
:1027600080FB0021284605F05BF90025CAF80050DF
:102770004FF40041474803F0A9FFDFF8FCA008210F
:10278000504603F0A5FF3321504603F09FFF00237E
:102790004FF0FF3A5246194660690CF0A5FD01283A
:1027A00095D186F800B00D20707086F80280F87818
:1027B00039790844797910FB01F0F070010A317120
:1027C000020C7271030EB37186F807903572757240
:1027D000B572F572AA301144084418440B303073B6
:1027E000862070730D222549254802F0D4F8002375
:1027F00052461946E0680CF077FD012895D10DF09E
:10280000A7F82062224D40F23551284604F09AFF85
:102810006421284605F004F96068002895D004B0CA
:10282000BDE8F05F0CF0F2BE194D002202212846EF
:1028300005F017FB0021284605F0F2F80025CAF83C
:1028400000504FF40041134803F040FF3B210A4879
:1028500003F03CFF00234FF0FF3A524619466069EF
:102860000CF042FD01289BD186F800B00D2070705D
:1028700086F80280F8780FE0001002402403002060
:102880000010014008000020180F0008EF030008A6
:10289000000400400000024039790844797910FBB7
:1028A00001F0F070010A3171020C7271030EB37104
:1028B00086F8079035727572B572F572AA301144B8
:1028C000084418440B303073862070730D22D749AA
:1028D000D74802F060F8002352461946E0680CF031
:1028E00003FD01287DD10DF033F82062D14D40F277
:1028F0003551284604F026FF6421284605F090F85B
:10290000606800286DD004B0BDE8F05F0CF07EBEBA
:10291000C84D00220221284605F0A3FA00212846CE
:1029200005F07EF80025CAF800504FF40041C24877
:1029300003F0CCFEDFF804A30221504603F0C8FEEA
:102940003921504603F0C2FE00234FF0FF3A5246B1
:10295000194660690CF0C8FC012842D186F800B025
:102960000D20707086F80280F878397908447979FA
:1029700010FB01F0F070010A3171020C7271030E4C
:10298000B37186F8079035727572B572F572AA3018
:102990001144084418440B303073862070730D22A4
:1029A000A249A34801F0F7FF002352461946E06808
:1029B0000CF09AFC012814D10CF0CAFF20629D4D46
:1029C00040F23551284604F0BDFE0021284605F0AE
:1029D00027F86068002804D004B0BDE8F05F0CF070
:1029E00015BEBDE8FF9F7FB5954D0421284603F035
:1029F00059FE04460821284603F054FE44EA4004E8
:102A00001021284603F04EFE44EA80048021284627
:102A100003F048FE8B4E44EAC0040821304603F020
:102A200041FE44EA00142021304603F03BFE44EA14
:102A30004014A915304603F035FE44EA801574159C
:102A40002146304603F02EFE45EAC0137E4803704F
:102A5000406800280CD17C490122091DCDE90110F4
:102A6000034600920390224678A17C480CF066FD54
:102A70007FBD7FB51446002C7ED06C4862898038BB
:102A800061680DF017FA69486F4D8038007828703A
:102A90002878002874D02878FF2871D02878012859
:102AA0006ED0287802286BD02878032868D0287840
:102AB000042865D02878052862D0287806285FD0B9
:102AC000287807285CD02878082859D02878092841
:102AD00056D028780A2853D028780B2850D0287848
:102AE0000C284DD028780D284AD028780E2847D0B9
:102AF00028780F2844D02878102841D02878112829
:102B00003ED0287812283BD02878132838D028784F
:102B1000142835D02878152832D0287816282FD0B8
:102B2000287817282CD02878182829D02878192810
:102B300026D028781A2823D028781B2820D0287857
:102B40001D281DD028781F281AD02878202817D0B3
:102B50002878212814D02878222811D028782328F2
:102B60000ED0287824280BD02878F02808D004B07C
:102B70002046BDE8704001E01EE001E007F0A2BC85
:102B8000A86808B10CF042FD686808B10CF03EFD81
:102B90002D490020091DCDE90110012203460092B4
:102BA0000390520229A12D480CF0C8FC04B0204625
:102BB000BDE8704007F086BC7FBD70B504461C4D73
:102BC000E1B2284604F0DDF94021284604F07BFA02
:102BD0000028F9D0204670BD0FB430B5C1B045AB68
:102BE0004FF4807101A8449A0DF0F6FC05460022CE
:102BF000A9B2104607F08FFC194C206040682A46A5
:102C000001A90DF057F921684D811648009016482A
:102C1000164A03881648006807F021F9206807F073
:102C200051FC41B030BC5DF814FB000024030020CF
:102C3000001001400004004000000240001002406B
:102C4000000C0240000402400000002050524F439C
:102C500045535320434F4D4D414E440099090008C0
:102C60004400002054030020AE1001084000002062
:102C70003C0000200CB500220192009255490868E2
:102C800040F4803008604FF4A043086800F400303E
:102C900000900198401C0190009810B9019898424A
:102CA000F3D10868800302D50120009000E0009273
:102CB0000098012831D147484030026842F08052E4
:102CC00002604548026842F44042026041480830D0
:102CD00002680260026842F400420260026842F444
:102CE000A0520260021F3D4B13600A6842F08072DE
:102CF0000A600A689201FCD5394A40F20561116008
:102D0000016821F003010160016841F002010160E6
:102D10000168C1F381010229FAD10CBD10B52D481B
:102D2000016841F0010101602A4A00210832116066
:102D300002682C4B1A400260031D2B4A1A6002687D
:102D400022F48022026023480C300160FFF792FFDA
:102D500026494FF00060086010BD70B51D4E083662
:102D6000306800F00C00224B224900280FD05D1083
:102D700004280ED008280ED00B6030681D4AC0F31E
:102D80000310121D105C0A68C2400A6070BD0B601F
:102D9000F3E70D60F1E70F4A121D1068C0F380548D
:102DA000106800F03F0034B1B5FBF0F01368C3F3D6
:102DB0008813584305E0B3FBF0F01368C3F388139E
:102DC00058431268C2F30142521C5200B0FBF2F0A9
:102DD0000860D2E700380240007000400848400612
:102DE000003C0240FFFFF6FE1030002408ED00E03A
:102DF0000024F400240000207047FEE7FEE7FEE711
:102E0000FEE77047704770470CF0B2BF08B500206E
:102E10000090402005F08AFD012806D1FB480023E0
:102E20006A46194600680CF015FA402005F09CFD32
:102E30004FF4803005F098FD0098002801D00CF088
:102E400080FF08BD10B5012003F0EFF800280ED078
:102E5000012003F0F8F80121ED4803F023FCC14301
:102E6000EC48426922F0200242EA4111416110BD62
:102E700010B5022003F0D9F800280ED0022003F08C
:102E8000E2F80221E24803F00DFCC143E148426947
:102E900022F0080242EAC101416110BDF8B54FF4C9
:102EA0008066304603F0C1F8DB4CDC4D68B130463B
:102EB00003F0C9F83146284603F0F4FB6169C043CA
:102EC00021F0800141EAC01060614FF40066304695
:102ED00003F0ABF878B1304603F0B5F83146284638
:102EE00003F0E0FBC243CA481430016821F40061DA
:102EF00041EAC22101604FF48056304603F095F854
:102F000070B1304603F09FF83146284603F0CAFB03
:102F1000C143C048426922F4807242EA0121416102
:102F20004FF40056304603F080F800281CD00020F3
:102F30000090304603F087F83146284603F0B2FB94
:102F40006169C04321F0400141EA8010606131466F
:102F5000284603F0A7FB012806D1B14800236A46A2
:102F6000194600680CF076F9F8BD10B5042003F09E
:102F70005CF800281DD001200CF009FC042003F0AF
:102F800062F8082003F05FF8102003F05CF82020BE
:102F900003F059F8802003F056F84FF4807003F0E6
:102FA00052F84FF4007003F04EF8BDE81040FFF700
:102FB0001ABD10BD10B5082003F037F800281DD049
:102FC00001200CF0E4FB042003F03DF8082003F09E
:102FD0003AF8102003F037F8202003F034F880206E
:102FE00003F031F84FF4807003F02DF84FF40070C7
:102FF00003F029F8BDE81040FFF7F5BC10BD10B58F
:10300000102003F012F800281DD001200CF0BFFBA7
:10301000042003F018F8082003F015F8102003F03E
:1030200012F8202003F00FF8802003F00CF84FF482
:10303000807003F008F84FF4007003F004F8BDE866
:103040001040FFF7D0BC10BD70B5202002F0EDFF9E
:103050004FF480756C00C8B101200CF098FB04207F
:1030600002F0F1FF082002F0EEFF102002F0EBFF6B
:10307000202002F0E8FF802002F0E5FF284602F061
:10308000E2FF204602F0DFFFFFF7ADFC802002F0F8
:10309000CCFFC8B101200CF07AFB042002F0D3FF72
:1030A000082002F0D0FF102002F0CDFF202002F017
:1030B000CAFF802002F0C7FF284602F0C4FF204666
:1030C00002F0C1FFFFF78FFC284602F0AEFFC8B147
:1030D00001200CF05CFB042002F0B5FF082002F098
:1030E000B2FF102002F0AFFF202002F0ACFF8020E2
:1030F00002F0A9FF284602F0A6FF204602F0A3FF37
:10310000FFF771FC204602F090FF00281BD0012041
:103110000CF03DFB042002F096FF082002F093FF24
:10312000102002F090FF202002F08DFF802002F09E
:103130008AFF284602F087FF204602F084FFBDE8A0
:103140007040FFF750BC70BD38B5364D022128469F
:1031500004F09DFE00281AD00221284604F0A3FEA8
:10316000314C226840F2E65140F242430E2A0ED220
:10317000DFE802F0070E1720273039425C656E77D2
:103180007F87284604F0DEFA2068401C206038BDA6
:103190004FF4C861284604F0D5FA2068401C20602E
:1031A00038BD40F22261284604F0CCFA2068401C69
:1031B000206038BD284604F0C5FA2068401C206015
:1031C00038BD40F2BE51284604F0BCFA2068401CCD
:1031D000206038BD40F26451284604F0B3FA2068FC
:1031E000401C206038BD40F21451284604F0AAFA71
:1031F0002068401C206038BD40F2BA41284604F0E7
:10320000A1FA2068401C206038BD00001C0200208C
:10321000000C024000000240001002400008024082
:103220000C00002000040040380000204FF49161A1
:10323000284604F087FA2068401C2060E4E740F24A
:103240006A41284604F07EFA2068401C2060DBE7D3
:1032500040F29241284604F075FA2068401C206034
:10326000D2E71946284604F06DFA2068401C206019
:10327000CAE71946284604F065FA2068401C206019
:10328000C2E740F23551284604F05CFA0021216083
:1032900000220221284604F0E4FD044800236A4687
:1032A000194600680BF0D6FFAEE7000010000020C2
:1032B00010B586B00021084606F09CFC1B480AF0B9
:1032C00069FE05906FF0FF000AF064FE0490174855
:1032D000801E0AF05FFE039016490022CDE900210E
:1032E0001348029003AB04AA05A9134807F06AF833
:1032F000114807F08AF8104807F0C2F80B48401E42
:103300000AF048FE0D49086006F061FE0B4C241FD0
:10331000206043F239020A4906F072FD0022094991
:10332000206806F03DFE06B010BD00000301A8C0F5
:10333000A59A00080FED000854030020400000206B
:103340003CD30108732A000800B5AFB001214FF04B
:10335000606003F01EFB04F063FE05F0DAFA05F08E
:10336000DEFA0128FBD0684604F066FE01200090DA
:10337000002007904FF400710A910B900E9011906D
:10338000139014901590490009912090C903219140
:103390000A112392259026900420289029918003D9
:1033A0002A9080012B9040122C9040002E900021FA
:1033B000684604F0DEFE664908600121654805F0B4
:1033C000C0FA2FB000BD08B54FF4A06003F0BAFEFC
:1033D0003D208DF8000002208DF8010000208DF8BE
:1033E000020001208DF80300684603F0B0FE08BD1E
:1033F000FEB50121072003F0CCFA0121880303F078
:10340000F8FA012003F0AEFC8620009003208DF82E
:10341000050002248DF8044000258DF806508DF833
:1034200007504D4E6946304603F0E8F80B22012163
:10343000304603F05BF90B220221304603F056F9C7
:103440000B220721304603F051F94FF470500090E1
:10345000424E6946304603F0D1F80B220A2130462D
:1034600003F044F90B221146304603F03FF90B22DA
:103470000C21304603F03AF90B220D21304603F0BF
:1034800035F932200090364E6946304603F0B6F8E2
:103490000B220121304603F029F90B22042130468A
:1034A00003F024F90B220521304603F01FF9042014
:1034B000009001208DF804008DF806508DF807006B
:1034C0008DF80540274E6946304603F097F80421F1
:1034D000304603F0FDF8029544F6206402E00299BC
:1034E000491C02910299A142F9D30421304603F00C
:1034F000EDF8029502E00298401C02900298A0426A
:10350000F9D3FEBD10B5FFF773FFFFF75CFFFFF7C0
:103510001BFF0F480068002819D14FF4784001F0D4
:103520000FFF01F01CFFC0880FA100EB800080B2EC
:1035300001F0BEFF01F013FFC0884FF6FF7100EBF2
:10354000400001EA40000DA101F0B2FFFEE710BD0E
:10355000480000204000010000000240000402403A
:103560000008024000100240202020457468657267
:103570006E657420496E6974202020002020202070
:1035800020206661696C65642020202020200000D6
:103590000020344900EB400201EBC202127D22B14F
:1035A000401C0A28F6DB0020704700EB400001EBCE
:1035B000C00001220275704700212A4A01EB410335
:1035C00002EBC303834206D101EB410102EBC101CF
:1035D000002008757047491C0A29EFDB704770B559
:1035E0000646FFF7D5FF0546280001D01E4C07E030
:1035F000002070BD304661680CF09FFC38B1246833
:10360000002CF7D12846FFF7D7FF002070BDA06837
:103610002860E0686860E068A8600020E860207CBE
:103620002874284670BDC7E770B505460B46D5E936
:103630000110884202D14FF0FF3070BD0C1A944245
:1036400000DD144629682246014418460CF032FC7D
:10365000A8682044A860204670BDD0E90110081A6F
:10366000704700008C03002010BA010810B5ADF5BA
:10367000047D044600200190029003904FF40071F5
:1036800004A80CF030FC7F480268521C02607EA146
:1036900001A80CF08DFF01A904A80CF02FFC7BA160
:1036A00004A80CF02BFC86A104A80CF027FC04A8AD
:1036B0000CF03CFC04A908440CF097F98EA104A876
:1036C0000CF01CFC9AA104A80CF018FCA7480CF004
:1036D0002DFC02460123A549204605F0A7FB04A8BE
:1036E0000CF024FC0246012304A9204605F09EFBB1
:1036F0000DF5047D10BD7CB50646304605F00AFB8D
:103700000546280049D0307A002846D16A4601A9EA
:10371000284606F0E8F8BDF8000005283DD305224C
:1037200093A101980CF024FC002836D11B2292A111
:1037300001980CF01DFC002836D01E2295A101989E
:103740000CF016FC00283DD01D229AA101980CF027
:103750000FFC002844D018229EA101980CF008FC10
:1037600000284BD01322A2A101980CF001FC0028E4
:1037700048D00622A3A101980CF0FAFB002841D002
:10378000A2A0FFF72CFF04460023D4E90012304624
:1037900005F04CFB2046FFF746FF304605F061FB85
:1037A000284606F036F87CBD74A0FFF718FF0446E3
:1037B0000023D4E90012304605F038FB2046FFF71D
:1037C00032FFEAE774A0FFF70AFF04460023D4E9BA
:1037D0000012304605F02AFB2046FFF724FFDCE705
:1037E00075A0FFF7FCFE04460023D4E90012304622
:1037F00005F01CFB2046FFF716FFCEE73046FFF72B
:1038000035FFCAE77BA0FFF7EAFE04460023D4E9B0
:103810000012304605F00AFB2046FFF704FFBCE724
:1038200070B500221146102005F0C6F90446CCB14F
:1038300050220021204605F00DFA20B1BDE870406D
:1038400075A00CF0A5BEFF21204605F03CFA2046ED
:1038500005F04AFA05462846FFF74DFF284605F0D1
:10386000CCF9F4E7BDE8704071A00CF091BE08B54A
:10387000032000904FF4FA730022734973A00BF0F9
:1038800040FB08BD4C000020256400003C707265C0
:103890003E3C62723E4E616D65202020202020203B
:1038A000202020537461746520205072696F726902
:1038B00074792020537461636B2020204E756D0055
:1038C0003C62723E2D2D2D2D2D2D2D2D2D2D2D2D8E
:1038D0002D2D2D2D2D2D2D2D2D2D2D2D2D2D2D2D18
:1038E0002D2D2D2D2D2D2D2D2D2D2D2D2D2D2D2D08
:1038F0002D3C62723E0000003C62723E3C62723EB1
:103900002D2D2D2D2D2D2D2D2D2D2D2D2D2D2D2DE7
:103910002D2D2D2D2D2D2D2D2D2D2D2D2D2D2D2DD7
:103920002D2D2D2D2D2D2D2D2D2D2D2D2D0000004E
:103930003C62723E42203A20426C6F636B65642C9D
:103940002052203A2052656164792C2044203A208C
:1039500044656C657465642C2053203A205375735C
:1039600070656E6465643C62723E000024BA0108B2
:10397000474554202F000000474554202F53544DF5
:103980003332463478375F66696C65732F53542E33
:1039900067696600474554202F53544D33324634EF
:1039A00078375F66696C65732F73746D33322E6A76
:1039B00070670000474554202F53544D333246342E
:1039C00078375F66696C65732F6C6F676F2E6A70EE
:1039D00067000000474554202F53544D333246347E
:1039E00078375441534B532E68746D6C00000000BF
:1039F000474554202F53544D3332463478372E6880
:103A0000746D6C00474554202F2000002F34303453
:103A10002E68746D6C00000063616E206E6F742000
:103A200062696E64206E6574636F6E6E00000000E4
:103A300063616E206E6F7420637265617465206EC1
:103A40006574636F6E6E000021380008485454504E
:103A5000000000002DE9FC4104460E46FE49FE48E8
:103A6000103150F8240051F824100843012102F0CD
:103A700090FFF9481038ECB350F82400012102F00F
:103A8000ACFFF548F54F203810F81420103830F806
:103A9000141057F8240002F029FEEF4807F110082F
:103AA000183810F81420103830F8141058F8240082
:103AB00002F01CFE00208DF8060001208DF80700A2
:103AC00002258DF80450E448403830F81400009086
:103AD0008DF8055057F82400694602F08FFD8DF8E7
:103AE0000450DD48383830F81400009058F82400AD
:103AF000694600E00FE002F081FDA7F110053146B4
:103B000055F8240003F098F955F82400012103F03A
:103B10000CFABDE8FC810068012102F06AFFB0E701
:103B20002DE9F04385B00121084602F032FF012162
:103B3000042002F02EFF0121082002F02AFF0121BB
:103B4000102002F026FF0121880302F052FF48F204
:103B50002816039601258DF8105000248DF8124088
:103B60008DF8135002278DF81170DFF8F48203A945
:103B7000404602F043FD3146404602F0A7FD4FF4B7
:103B80000068CDF80C808DF810508DF812408DF83B
:103B900013508DF81170B34E03A9304602F02EFD7C
:103BA0004146304602F092FDFB2003908DF8105004
:103BB0008DF812408DF813508DF81170DFF8A8922F
:103BC00003A9484602F01AFDFB21484602F07EFD9B
:103BD0004FF44A7003908DF810408DF8134003A9FC
:103BE000A24802F00BFD4FF4705003908DF8104086
:103BF0008DF8134003A99E4802F000FD9F2003901A
:103C00008DF810408DF8134003A9304602F0F6FC01
:103C10000A21022003F093F80B21022003F08FF811
:103C20000C21022003F08BF80D21022003F087F80D
:103C30000021032003F083F80121032003F07FF823
:103C40000221032003F07BF80321084603F077F8F4
:103C50000421032003F073F80721032003F06FF819
:103C60000321012003F06BF80521012003F067F820
:103C70000821012003F063F80921012003F05FF817
:103C80008DF8084010268DF809608DF80A500195CE
:103C900001A802F079F98DF808408DF809608DF8D7
:103CA0000A50019701A802F06FF98DF808408DF8CD
:103CB00009608DF80A500420019001A802F064F90F
:103CC0008DF808408DF809608DF80A50019601A81A
:103CD00002F05AF98DF808408DF809608DF80A5005
:103CE0002020019001A802F04FF98DF808408DF8CE
:103CF00009608DF80A508020019001A802F044F973
:103D00008DF808408DF809608DF80A50280201905E
:103D100001A802F039F98DF808408DF809608DF896
:103D20000A506802019001A802F02EF901A802F0E1
:103D30002BF98DF808408DF809608DF80A50A8021B
:103D4000019001A802F020F98DF808408DF8096073
:103D50008DF80A50CDF8048001A802F015F98DF80D
:103D600008408DF809608DF80A502803019001A8D9
:103D700002F00AF98DF808408DF809608DF80A50B4
:103D80006803019001A802F0FFF88DF801408DF85A
:103D900002408DF8035006208DF80000684603F0BD
:103DA000D6F907208DF80000684603F0D0F92820E6
:103DB0008DF80000684603F0CAF905B0BDE8F0834D
:103DC000F0B58BB00121022002F0E3FD1020099034
:103DD00002268DF8286003208DF8290000248DF834
:103DE0002A4001258DF82B50204F09A9384602F0B2
:103DF00005FC02220421384602F078FC0121022051
:103E000002F0EBFD06A803F089FC1A4844F6206195
:103E10000068B0FBF1F0401EADF81800ADF81A4094
:103E200040F234500790ADF82040134F06A93846B1
:103E300003F044FC0121384603F0A2FC6021ADF8F8
:103E40000410ADF806500394ADF8106001A938468F
:103E500003F0BEFC082111E0A0C0010860000020B2
:103E600000000240000C024000100240000402402A
:103E7000000802402400002000040040384603F0FF
:103E8000F7FD0121384603F097FC1D208DF8000056
:103E90008DF801408DF802408DF80350684603F01C
:103EA00056F90BB0F0BD30B585B00121042002F009
:103EB00070FD0121082002F06CFD0121880302F051
:103EC00098FD00248DF810408DF812404FF470508A
:103ED00003908DF8134003258DF8115003A93E4837
:103EE00002F08CFB8DF810408DF8124003958DF890
:103EF00013408DF8115003A9384802F07FFB0A21C6
:103F0000022002F01CFF0B21022002F018FF0C21FE
:103F1000022002F014FF0D21022002F010FF002108
:103F2000032002F00CFF0121032002F008FF01250D
:103F30008DF80A508DF8084010208DF80900800196
:103F4000019001A802F020F8E802019001A802F017
:103F50001BF82803019001A802F016F868030190ED
:103F600001A802F011F8019501A802F00DF8022055
:103F7000019001A802F008F88DF801408DF8024088
:103F80008DF8035028208DF80000684603F0DFF814
:103F900006208DF80000684603F0D9F807208DF858
:103FA0000000684603F0D3F805B030BD08B5012223
:103FB00040F225510A4803F06BF825208DF80000E7
:103FC00000208DF801008DF8020001208DF803001B
:103FD000684603F0BCF808BD00080240000C02402F
:103FE0000010014010B5804A1823904205D27F4A44
:103FF0007F4C2044B0FBF3F006E07B4A083A7A4C51
:1040000064422044B0FBF3F0042801D3121D001FCA
:10401000784B01F03D01185C8140116010BD3D21DD
:10402000E0E771491822884206D270490839704B7E
:104030001844B0FBF2F006E06B4910396A4B5B4262
:104040001844B0FBF2F0042801D3091D001F0968D1
:10405000684A105CC14001F03D00704738B5044625
:104060003D212046FFF7BEFF624A5F4B1820121D1C
:1040700001219C4209D25E4B2344B3FBF0F08DF842
:104080000110125C8DF800200AE0574B5B4223447C
:10409000B3FBF0F08DF801100244127A8DF8002085
:1040A0008DF803108DF80200684603F050F8206880
:1040B00040F01E002060606940F08000606138BD03
:1040C00010B504463D212046FFF78CFF4949464A7A
:1040D0001820091D944205D2454A2244B2FBF0F053
:1040E000085605E0404A52422244B2FBF0F008561E
:1040F000012100F01F0291404009800000F1E02002
:10410000C0F88011206820F01E002060606900F077
:104110008000606110BD70477047704770477047FE
:1041200070B505463D212846FFF77BFF84B23D214F
:104130002846FFF757FFA00605D52868C00602D518
:104140002846FFF7E8FFE00605D52868000702D5F6
:104150002846FFF7E1FF200705D52868400702D56C
:104160002846FFF7DAFF600705D52868800702D5E3
:104170002846FFF7D3FFE00705D06869000602D59F
:104180002846FFF7CCFF70BD18480830C8E717482D
:104190002030C5E715483830C2E714485030BFE733
:1041A00012486830BCE711488030B9E70F489830B2
:1041B000B6E70E48B030B3E70B48B1E70A4818300D
:1041C000AEE709483030ABE707484830A8E7064873
:1041D0006030A5E704487830A2E7034890309FE7B5
:1041E0000148A8309CE700001064024008600240CB
:1041F000F09FFDBFC0C001080146F64A914200D1C0
:104200000020F54A914200D10120F44A914200D1A8
:104210000220F34A914200D10420F24A914200D197
:104220000520F14A914200D10620704770477CB5C5
:10423000044608260325002C07D1CDE900560123AA
:104240000022C021E94800F07CFC012C08D1CDE916
:104250000056012300224FF48441E54800F071FC30
:10426000032C03D10821E048FFF7E0FF7CBD7CB5BB
:104270000446002C11D108250326CDE90065012351
:1042800000221903D94800F05CFCCDE90065012348
:1042900000220421D74800F054FC032C03D108214C
:1042A000D048FFF7C3FF7CBD7CB504460826032534
:1042B000002C07D1CDE90056012300220321CE486E
:1042C00000F03FFC012C08D1CDE90056012300226B
:1042D0004FF44061C54800F034FC032C03D10821A1
:1042E000BF48FFF7A3FF7CBD2DE9FC41044607262C
:1042F00003254FF44067002C07D1CDE90056012378
:1043000000223946BD4800F01CFC012C07D1CDE944
:104310000056012300223946B44800F012FC022C5A
:1043200008D1CDE90056012300224FF44071B14875
:1043300000F007FC032C03D10721A848FFF776FF04
:10434000BDE8FC817CB5044607260325002C07D177
:10435000CDE90056012300220C21A74800F0F1FB13
:10436000012C07D1CDE90056012300226021A1488C
:1043700000F0E7FB032C03D107219748FFF756FF16
:104380007CBD7CB5044607260325002C07D1CDE96A
:104390000056012300226902974800F0D2FB012C4D
:1043A00007D1CDE9005601230022C021934800F037
:1043B000C8FB032C03D107218648FFF737FF7CBDDC
:1043C0000146844A914200D18D48834A914201D1ED
:1043D0008B481030814A914201D189482030804A6F
:1043E000914201D1864830307E4A914201D18448C1
:1043F00040307D4A914201D18148503070472DE9CB
:10440000FF4F87B00446DDE9159ADDF85080164667
:104410001F462046FFF7D4FF054603966D48DFF898
:10442000E4B184420BD1DBF8000040F01000CBF87F
:1044300000000898FFF7A5FF25208DF80800714EB1
:104440006548361F844209D1306840F4003030603E
:104450000898FFF777FF26208DF808005F48844210
:1044600009D1306840F4802030600898FFF73CFFA5
:1044700027208DF808005A48844209D1306840F45A
:10448000002030600898FFF70FFF34208DF80800F7
:104490005448844209D1306840F480103060089854
:1044A000FFF7E5FE35208DF808004F4884420BD118
:1044B000DBF8000040F02000CBF800000898FFF780
:1044C000B6FE47208DF80800204602F061FC012668
:1044D0008DF80B6006208DF809002046FFF78CFE52
:1044E0008DF80A0002A802F032FEADF81870ADF89F
:1044F0001680ADF81490ADF812A01798ADF8100022
:104500000020287340F6FF7001900198411E019130
:10451000FBD203A9204602F08FFCA08940F02000C6
:10452000A0812E73A08940F40050A0810BB0BDE89B
:10453000F08F2DE9FF4104460F469046254800259F
:104540000C26844208D1CDE900650295002342463D
:1045500039460395FFF753FF1F48844208D1CDE940
:10456000006502950023424639460395FFF747FF51
:104570001A48844208D1CDE90065029500234246DD
:1045800039460395FFF73BFF1548844208D1CDE932
:10459000006502950023424639460395FFF72FFF39
:1045A0001048844208D1CDE90065029500234246B7
:1045B00039460395FFF723FF0B48844208D1CDE924
:1045C000006502950023424639460395FFF717FF21
:1045D000BDE8FF8100100140004400400048004059
:1045E000004C004000500040001401400008024010
:1045F00000180240000C024000000240000402408B
:1046000080000020443802402DE9FF4704460F4651
:1046100090469946A94800250C26844208D1CDE948
:10462000006502954B46424639460395FFF7E7FE83
:10463000A348844208D1CDE9006502954B46424625
:1046400039460395FFF7DBFE9E48844208D1CDE949
:10465000006502954B46424639460395FFF7CFFE6B
:104660009948844208D1CDE9006502954B464246FF
:1046700039460395FFF7C3FE9448844208D1CDE93B
:10468000006502954B46424639460395FFF7B7FE53
:104690008F48844208D1CDE9006502954B464246D9
:1046A00039460395FFF7ABFEBDE8FF8710B5002341
:1046B000FFF786FEC18819B902894489A2420DD04C
:1046C000428983889A4201D100224281036842894B
:1046D0009B56521C428109B1491EC180D8B210BDFF
:1046E00010B50C46FFF76CFEC38842890DE0818847
:1046F000914200D100220168895CA14201D10120D0
:1047000010BD521C92B25B1E9BB2002BEFD1002059
:1047100010BD2DE9F04180460F4616460024404664
:10472000FFF74EFE0546E88840B1697B4046FFF73B
:10473000D7FF30B9E888A988884202D00020BDE8B8
:10474000F081761E08E04046FFF7B0FF3855697BE0
:10475000884203D0641CA4B2B442F4DB0021641C80
:10476000A0B23954EBE700B5FFF72AFEC18829B99A
:1047700001894089814201D1012000BD002000BD96
:1047800000B5FFF71DFEC1888088814201D101205C
:1047900000BD002000BD00B5FFF712FE0021C18062
:1047A0000181418100BD00B50B46FFF709FE43734F
:1047B00000BD10B503460C461846FFF701FE007B0E
:1047C00000280BD007E019880906FCD59880641CE6
:1047D00018880006FCD520780028F4D110BD70B5EB
:1047E00004460D4616462046FFF7EAFD007B0028EA
:1047F0000DD0002309E020880006FCD5E85CA080ED
:1048000020880006FCD55B1C9BB2B342F3D370BD7D
:10481000C388828893420DD20389934201D100223A
:10482000028103890268D1540189491C0181C18830
:10483000491CC180704721480188890603D58088BA
:10484000C1B22448E4E770471D480088800606D5B9
:104850001B48001D0088C1B21E481030D8E77047C1
:1048600018480088800606D51648001D0088C1B289
:1048700018482030CCE7704713480088800606D5DA
:104880001148001D0088C1B212483030C0E770479F
:104890000E480188890604D58088C1B20D48403091
:1048A000B6E770470A480088800606D50848001D0C
:1048B0000088C1B207485030AAE770470010014095
:1048C0000044004000480040004C004000500040C0
:1048D00000140140800000200146584A914200D156
:1048E0005748584A914201D155480830564A91429A
:1048F00001D153481030554A914201D150481830E7
:10490000534A914201D14E482030524A914201D13E
:104910004B482830704710B5FFF7DEFF4E4B42681A
:104920004E499A4204D30A6842F480020A6003E0C6
:104930000A6842F400120A604068FFF770FB4848BA
:104940004021C160002141614FF480628261C161F8
:10495000016241628162C162032202634163816339
:1049600010BD70B506460C4615463046FFF7B4FF3D
:10497000446005603046BDE87040CCE710B5FFF7F5
:10498000ABFF406810BD10B5FFF7A6FF4068BDE85B
:10499000104002F035BC2DE9F04105460F461646A1
:1049A0002846FFF799FF04466068406810B1002070
:1049B000BDE8F0812A48216801600661291D416037
:1049C00087606068FFF72BFB2549606802F0A3FC55
:1049D0006068016841F001010160A88A40F0800030
:1049E000A8820120E4E770B505460C4620460BF08E
:1049F0009DFA82B221462846BDE87040CBE710B54B
:104A000004462046FFF768FF4068406808B101206F
:104A100010BD208840F3C010401C10BD10B5FFF73A
:104A20005BFF4068BDE81040FFF718BB10B5FFF70B
:104A300053FF4068BDE81040FFF742BB0010014043
:104A4000E00000200044004000480040004C0040CE
:104A50000050004000140140106402403038024011
:104A60003C050020AC490844C0F38F2070472DE975
:104A7000F04F0446DDE9099A88462046FFF7F2FF29
:104A8000C7B200204FF0030E0125854015EA080F3C
:104A900032D0A24E36F81710294326F81710D4F852
:104AA0000CC046000EFA06F12CEA010C09FA06FBCE
:104AB0004CEA0B0CC4F80CC0D4F800C002FA06FB98
:104AC0002CEA010C4CEA0B0CC4F800C0012A01D0FE
:104AD000022A11D1D4F804C0ADB22CEA050C03FAB5
:104AE00000F5ADB24CEA050CC4F804C0A5688D43CE
:104AF0000AFA06F10D43A560401CC0B21028C3D3CA
:104B0000BDE8F08F00B5FFF7ADFF0121814084487B
:104B100002681143016000BD2DE9FC410746DDE953
:104B200008650C469046002C09D03846FFF7EAFF8E
:104B3000CDE90065424621463846FFF798FFBDE8BB
:104B4000FC812DE9FC4F0746DDE90BB80E46924685
:104B50009946002E22D03846FFF7D4FF00230121CA
:104B60000F2201FA03F030420DD0D80807EB800481
:104B7000206A5D07ED0E02FA05FC20EA0C0008FA37
:104B800005F5284320625B1C102BEAD3CDE9009B7E
:104B90005346022231463846FFF769FFBDE8FC8FD5
:104BA0002DE9F04105460F462846FFF75BFFC4B2EA
:104BB00000225A484FF0010C03210CFA02F33B4249
:104BC0000CD02E684FEA420801FA08F846EA0806B7
:104BD0002E6030F814609E4320F81460521CD2B24C
:104BE000102AEAD3BDE8F081F0B5002201250326A2
:104BF00005FA02F30B4205D00368570006FA07F4E2
:104C0000A3430360521CD2B2102AF1D3F0BDF0B519
:104C100000220127032507FA02F40C4209D0066896
:104C2000530005FA03FC26EA0C0607FA03F42643B0
:104C30000660521CD2B2102AEDD3F0BDF0B50022AE
:104C40000125032605FA02F30B4205D0036857003D
:104C500006FA07F423430360521CD2B2102AF1D3A0
:104C6000F0BDF0B5002201270324022607FA02F363
:104C70000B4209D00568530004FA03FC25EA0C0531
:104C800006FA03F31D430560521CD2B2102AEDD37D
:104C9000F0BDF0B500230127032507FA03F40C4209
:104CA00009D0C6685C0005FA04FC26EA0C0602FA84
:104CB00004F42643C6605B1CDBB2102BEDD3F0BDC1
:104CC00041F48032C261C161C261C169C06970478B
:104CD000002102E0491C89B240080128FAD80846A0
:104CE000704700B5FFF7BEFE012181400C48026805
:104CF0008A43026000BD00B5FFF7B4FE074931F8F2
:104D0000100000BD00B5FFF7ADFE044931F81000FA
:104D1000C04380B200BD00000000FEBF7805002047
:104D20003038024070477CB5FFF7FCFF01210420BA
:104D300001F040FA042001F08FF94CF2037000906A
:104D400000208DF804008DF80700FB4D69462846C9
:104D500001F054FC00221146284601F0C7FC002255
:104D60000121284601F0C2FC00220821284601F05A
:104D7000BDFC00220921284601F0B8FC00220A21CE
:104D8000284601F0B3FC00220E21284601F0AEFCBB
:104D900000220F21284601F0A9FC4FF680700090F8
:104DA000E64C6946204601F029FC002207212046F6
:104DB00001F09CFC00220821204601F097FC002213
:104DC0000921204601F092FC00220A21204601F030
:104DD0008DFC00220B21204601F088FC00220C21D2
:104DE000204601F083FC00220D21204601F07EFCCC
:104DF00000220E21204601F079FC00220F212046DE
:104E000001F074FC4FF23F010091CD4E69463046EF
:104E100001F0F4FB00221146304601F067FC00224D
:104E20000121304601F062FC00220221304601F0EF
:104E30005DFC00220321304601F058FC00220421D1
:104E4000304601F053FC00220521304601F04EFCB3
:104E500000220C21304601F049FC00220D21304691
:104E600001F044FC00220E21304601F03FFC0022FC
:104E70000F21304601F03AFC3F210091B14E6946C6
:104E8000304601F0BBFB00221146304601F02EFCFB
:104E900000220121304601F029FC00220221304687
:104EA00001F024FC00220321304601F01FFC002207
:104EB0000421304601F01AFC00220521304601F0A1
:104EC00015FC4FF4605100916946284601F096FBAD
:104ED00000220B21284601F009FC00220C21284663
:104EE00001F004FC00220D21284601F0FFFB3021D7
:104EF00000916946284601F081FB002204212846E2
:104F000001F0F4FB00220521284601F0EFFB2115FA
:104F100000916946304601F071FB00220C213046B9
:104F200001F0E4FB032100916946204601F066FB95
:104F300000221146204601F0D9FB00220121204623
:104F400001F0D4FB7CBD2DE9FC4101213A2001F0A8
:104F500020FD4CF23370009002208DF804008DF893
:104F6000050000248DF806408DF80740724F694611
:104F7000384601F043FB0C220021384601F0B6FB15
:104F80000C220121384601F0B1FB0C2204213846E5
:104F900001F0ACFB0C220521384601F0A7FB0C22E6
:104FA0000821384601F0A2FB0C220921384601F005
:104FB0009DFB0C220A21384601F098FB0C220E21A1
:104FC000384601F093FB0C220F21384601F08EFB8E
:104FD0004FF680700090594E6946304601F00EFB46
:104FE0000C220721304601F081FB0C2208213046BB
:104FF00001F07CFB0C220921304601F077FB0C22EA
:105000000A21304601F072FB0C220B21304601F0E0
:105010006DFB0C221146304601F068FB0C220D217D
:10502000304601F063FB0C220E21304601F05EFB9E
:105030000C220F21304601F059FB082500956946E6
:10504000304601F0DBFA0C220321304601F04EFB22
:10505000802000906946384601F0D0FA0C220A21DF
:10506000384601F043FB009501258DF804508DF87A
:1050700005408DF806408DF807406946384601F036
:10508000BDFA6E0300968DF804508DF805508DF82A
:1050900006408DF807406946384601F0AFFA3146C0
:1050A000384601F013FBBDE8FC8100B597B0012143
:1050B000084601F086FC01200190002002900921A1
:1050C00003910490059006900790089009900A902B
:1050D00010210B910C900D900E900F9010900902E2
:1050E000119112901390149001A81590169008A891
:1050F00000F0CAFF0121002001F05CF817B000BDEC
:105100001149486070471149088070474FF0C0420C
:1051100010800E480180704701B581B042F21071D5
:1051200001984843009002E00098401E00900098CB
:105130000028F9D10CBD0000000C02400010024014
:10514000001402400018024010010020000010600E
:1051500010B5FFF7F8FEFFF7A8FF0520FFF7DCFF0B
:10516000FE4C0821204601F0B3FA0A20FFF7D4FFD5
:105170000821204601F0AAFA01211020FFF7C6FFFE
:10518000B2211E20FFF7C2FF06212820FFF7BEFF35
:1051900001210020FFF7BAFF43F2EF010120FFF7E2
:1051A000B5FF4FF4C0610220FFF7B0FF00211020CF
:1051B000FFF7ACFF0520FFF7AFFF46F630011120E7
:1051C000FFF7A4FF40F699111220FFF79FFF4FF45D
:1051D00060512620FFF79AFF33210720FFF796FF43
:1051E00005210C20FFF792FF00213020FFF78EFFF2
:1051F00040F203313120FFF789FF40F207413220AE
:10520000FFF784FF40F2013319463320FFF77EFF9A
:1052100019463420FFF77AFF40F203413520FFF7AB
:1052200075FF40F207713620FFF770FF2115372018
:10523000FFF76CFF4FF420613A20FFF767FFA114DE
:105240003B20FFF763FF0A210D20FFF75FFF4FF4BC
:1052500038510E20FFF75AFF4FF46F414420FFF7FB
:1052600055FF00214520FFF751FF40F23F11462036
:10527000FFF74CFF00214E20FFF748FF00214F2091
:10528000FFF744FF00212220FFF740FF00224FF4E8
:1052900096330020FFF737FF521C9A42F9D3BDE83E
:1052A0001040AF482CE700B50B4601464E20FFF7F3
:1052B0002DFF19464F205DF804EB27E74FF0C04162
:1052C0000880A848008870474FF0C041222008801D
:1052D0007047A4480088704700B500210846FFF7D2
:1052E000E2FFFFF7F1FF00209E494FF478424FF4B0
:1052F000C8430A80401C9842FBD34FF4FC624FF431
:10530000484301E00A80401C9842FBD31F224FF41F
:10531000963301E00A80401C9842FBD300BD03B5E0
:10532000BDF800108E4808380180BDF80410418097
:1053300000E78B4A083A138803805088088070473A
:1053400001B5BDF8000086490839088008BD01B5DF
:10535000BDF8000082490839488008BD7047804880
:105360000838406870472DE9F041054688461646E2
:10537000002429464046FFF796FF794F083F29E071
:10538000FFF7A2FF00231AE00C21B0FBF1F1C900E6
:1053900080228A4036F814101A410A4201D10C28A2
:1053A00005D901229A40114205D10C2803D97888E9
:1053B000FFF7A9FE02E03888FFF7A5FE5B1C7868BE
:1053C00080889842E0D86D1CADB229464046FFF770
:1053D0006AFF641C7868C088A042D1D8BDE8F0811B
:1053E00010B4203AD3B25E4A083A52681468D288A0
:1053F0005A4304EB420210BCB5E7F0B5074600245F
:10540000574D4FF4A076083D202221463846FFF73D
:10541000E7FF68688188081984B2B442F4D3F0BD0C
:1054200030B50546002400210846FFF73CFFFFF792
:105430004BFF4C494FF496300D80641C8442FBD3E3
:1054400030BD2DE9F04380460D46164699460024AE
:1054500029464046FFF727FF414F083FB9F1000FAB
:1054600016D1FFF731FF03E03888FFF74CFE641CCC
:10547000B442F9D3BDE8F083FFF726FF3888FFF781
:1054800042FE6D1CADB229464046FFF70CFF641C7E
:10549000B442F1D3EEE7B0F5A07F08D2002906DBD5
:1054A000EF2904DC002389B280B20122C9E77047EA
:1054B0002DE9F04180460D460024294E4FF4A07797
:1054C000083E0AE021464046FFF78AFF7068808860
:1054D000204484B2BC4281D26D1C2A78002AF1D1CA
:1054E0007CE770B504460D46164621464520FFF779
:1054F0000DFEA219B2F5A07F05D340F23F11462060
:10550000FFF704FE03E091B24620FFF7FFFDEA1823
:10551000F02A02D34FF46F4200E01202224391B20C
:105520004420FFF7F3FD29462046BDE87040BAE667
:105530007047F0B504460F4615461E460123324615
:1055400039462046FFF77DFF6019401E80B20123D7
:1055500032463946FFF775FF002305E0000C024094
:1055600018010020000010602A4639462046FFF747
:1055700068FFB81981B22A462046BDE8F0400023F2
:105580005FE72DE9FC4F804689460320A0EB4206E9
:105590000024154674E008EB040009EB050A0190AD
:1055A0001FFA8AF180B2FFF77EFEFFF78DFEFE4FF5
:1055B0003888FFF7A8FD0198A9EB050B1FFA8BF1BE
:1055C00080B2FFF770FEFFF77FFE3888FFF79BFD84
:1055D0001FFA8AF1A8EB040A1FFA8AF0FFF763FEAC
:1055E000FFF772FE3888FFF78EFD1FFA8BF11FFA66
:1055F0008AF0FFF758FEFFF767FE3888FFF783FD54
:1056000009EB040081B208EB050A00901FFA8AF04A
:10561000FFF749FEFFF758FE3888FFF774FDA9EB46
:10562000040B1FFA8BF11FFA8AF0FFF73CFEFFF71D
:105630004BFE3888FFF767FD0098A8EB050A81B29A
:105640001FFA8AF0FFF72FFEFFF73EFE3888FFF7BC
:105650005AFD1FFA8BF11FFA8AF0FFF724FEFFF7BD
:1056600033FE3888FFF74FFD002E03DA06EB840681
:10567000B61D04E0601B06EB80060A366D1E641C36
:10568000AC4288D9BDE8FC8FF0B50646002440F254
:105690003F110020FFF707FEFFF716FEC24D012362
:1056A0004FF41667002256F8241003FA02F0014264
:1056B00003D16888FFF727FD02E02888FFF723FD64
:1056C000521C202AEFD3641CBC42EBD3F0BD7047C0
:1056D0002DE9F0430746894690461C46B24E308875
:1056E000FFF72EFE0023424649463846FFF7A9FE43
:1056F00009EB040081B2002342463846FFF7A1FEC1
:105700000123224649463846FFF79BFE07EB080077
:10571000401E80B2012322464946FFF792FE641ED6
:10572000A5B209F101091FFA89F47088FFF708FE94
:1057300007E02146641CA4B2002342463846FFF726
:1057400080FE6D1EADB2F4D23088BDE8F043F7E5BF
:105750002DE9F74F0746884602980321A1EB400642
:105760000024029D90484088FFF7EAFD4FF6FF793C
:1057700035E09DB109EA450208EB050A381B93465E
:105780001FFA8AF180B20023FFF75BFE38195A46F0
:105790001FFA8AF180B20023FFF753FE9CB109EA99
:1057A000440208EB040A781B93461FFA8AF180B280
:1057B0000023FFF746FE78195A461FFA8AF180B295
:1057C0000023FFF73EFE002E03DA06EB8406B61D2B
:1057D00004E0601B06EB80060A366D1E641CAC42BA
:1057E000C7D971480088FFF7ABFD029A03B0414664
:1057F0003846BDE8F04FC4E62DE9FC5F84460C4610
:105800000027A2EB0C00002801DCACEB020000B288
:10581000191B002900DCE11A09B20FFA8CF526B237
:105820004FF0FF3B624503D34FF00109CA4601E048
:10583000D946DA46A34204D34FF0010B012201926C
:1058400001E0CDF804B088420ADB4FF000090022E5
:10585000019200EBD072521014B20091804623E006
:105860004FF0000AD34601EBD172521014B20090EF
:10587000884619E031462846FFF70DFE009820447F
:1058800004B2444508DBA4EB080004B205EB0900B0
:1058900005B206EB0B0006B205EB0A0005B2019853
:1058A000304406B27F1C3FB24745E3DDBDE8FC9FB4
:1058B00070B504460D46022D0DD308E0208861889E
:1058C000241D89B26388228880B2FFF795FF6D1E80
:1058D0002D042D0CF2D170BD2DE9F04704460F4682
:1058E0009146A046022F25D3B4F90050B4F90260C6
:1058F00010E0241DB1B26088304483B2208828446F
:1059000082B2A8B2FFF778FF2088284405B26088E9
:10591000304406B27F1E3F043F0CEAD1B9F1000FBC
:1059200008D0B3B2AAB2B8F80210B8F80000BDE8C7
:10593000F04761E7BDE8F08770B504460D4629469B
:105940002046FFF7B5FF04EB8500001F6188438800
:1059500002882088BDE870404EE70022BCE70122A3
:10596000BAE72DE9F34FE9B00446B4F800A0D346F6
:1059700065880195012013E004EB800149885145B9
:1059800000D28A46594500D98B4634F82020AA42D5
:1059900000D2154601998A4200D90192401C80B27A
:1059A0006A998842E8D301E0100100205F484088EE
:1059B000FFF7C6FC0295AEE04FF000096A98401E62
:1059C0001FFA80F800254FE002980AF0F1FA064627
:1059D000679168900F4634F925000AF0D8FA3246EC
:1059E0003B460AF0F3FA0AD234F92800679F689E12
:1059F0000AF0CDFA32463B460AF000FB15D934F9DD
:105A00002800679F689E0AF0C2FA32463B460AF0B9
:105A1000DDFA26D234F92500679F689E0AF0B7FAAE
:105A200032463B460AF0EAFA1BD804EB8800029B98
:105A3000B0F9021004EB8500B0F902000A1A34F93B
:105A400025105B1A5A4334F92830591A92FBF1F1A8
:105A50000144484603AA09F101091FFA89F922F80D
:105A60001010A8466D1CADB26A988542ACD30020D8
:105A7000A9F1010503AF0FE0411C37F8102037F8FA
:105A800011309A4207D927F8103027F8112018B1A1
:105A9000401E80B200E088B2A842EDDB002534E071
:105AA00037F81500584532D26E1C37F8161051459C
:105AB00029D9504501D227F815A037F816005845C6
:105AC00001D927F816B0DFF86480B8F80200FFF7B4
:105AD00037FC37F8161037F815000023081A82B281
