:020000040800F2
:1000000000020120A1FA0008192D00081B2D00088C
:100010001D2D00081F2D0008212D000800000000E4
:100020000000000000000000000000009D0100082A
:10003000252D000800000000CD010008292D000832
:10004000BBFA0008BBFA0008BBFA0008BBFA0008BC
:10005000BBFA0008BBFA0008652D0008912D0008C6
:10006000BBFA0008BBFA0008BBFA0008993D00087B
:100070009F3D0008A53D0008AB3D0008B13D0008CC
:10008000B73D0008BD3D0008BBFA0008BBFA0008F8
:10009000BBFA0008BBFA0008BBFA0008BBFA00086C
:1000A000BBFA0008BBFA0008BBFA0008BBFA00085C
:1000B000BBFA00088B2E0008BBFA0008BBFA000848
:1000C000BBFA0008BBFA0008BBFA0008BBFA00083C
:1000D000BBFA00084744000859440008714400086E
:1000E000BD2D0008BBFA0008BBFA0008BBFA0008E7
:1000F000BBFA0008BBFA0008BBFA0008C33D0008C1
:10010000BBFA0008BBFA0008BBFA0008BBFA0008FB
:1001100089440008A1440008BBFA0008BBFA0008A3
:10012000C93D0008CD3D0008D33D0008D93D000879
:10013000DF3D00082D2D0008BBFA0008BBFA0008BF
:10014000BBFA0008BBFA0008BBFA0008BBFA0008BB
:10015000E53D0008EB3D0008F13D0008B54400080E
:10016000BBFA0008BBFA0008BBFA0008BBFA00089B
:10017000BBFA0008BBFA0008BBFA0008BBFA00088B
:10018000BBFA0008BBFA0008DFF80CD00FF09AFFAA
:10019000004800479702000800020120194B196827
:1001A0000868B0E8F00F80F309884FF0000080F392
:1001B00011884EF00D0E70470000000002480068E4
:1001C000006880F3088800DF08ED00E0EFF30980A5
:1001D0000C4B1A6820E9F00F106008B54FF0BF0013
:1001E00080F311880FF05FFA4FF0000080F3118860
:1001F000BDE8084019680868B0E8F00F80F3098886
:10020000704700BF2802002001B44FF0BF0080F308
:10021000118801BC704701B44FF0000080F31188D1
:1002200001BC704708B5F74EF74D2021304606F067
:1002300052FD0028F9D0304606F0AFFCA628F4D1D4
:100240002870012409E02021304606F044FD0028F2
:10025000F9D0304606F0A1FC28550C2CF3DD287BA4
:100260008628E2D1A878552803D07128DDD1E87915
:10027000DBE7E64800236A46194640690EF0F2FDC6
:10028000D3E7002005F08DFAFA200FF088F8F8E7A0
:10029000002005F055BA1FB5DB484FF4E131A03816
:1002A000016000248480C480048184810C21418108
:1002B000FFF7EEFF03F014FB03F08EFBD2490020A2
:1002C000A03903F0A7FAD0490120A03903F0A2FA1F
:1002D000CD490220A03903F09DFACA4804F023F961
:1002E000CB4804F020F9CB4804F01DF902F0EAFFF6
:1002F00002F07EFE03F09BF9002101200EF084FC49
:10030000C24DE86020B100231A4619460EF01BFDCD
:10031000002101200EF078FC286120B100231A464C
:1003200019460EF010FD002101200EF06DFC6861F1
:1003300020B100231A4619460EF005FD00210120C8
:100340000EF062FCA86120B100231A4619460EF097
:10035000FAFC002101200EF057FCE86120B10023D7
:100360001A4619460EF0EFFC0220CDE90004060201
:10037000029400233246A8A1AA4803940EF0E6FE98
:100380000125CDE90054002302948022A6A1AFF2FA
:100390000D1003940EF0DAFECDE900540294002310
:1003A0003246A3A1AFF2831003940EF0CFFE0FF0FC
:1003B000B4F8FEE72DE9F05F934DCA274FF0060829
:1003C0004FF036094FF0F90A002410350FF0C8F845
:1003D0008E4E316A401AB0F55C6F6FD8A621297035
:1003E000102169708121A970C1B2E970C0F30722A0
:1003F0002A71C0F307436B71000EA87196F800C014
:10040000BCF1250F71D2DFE80CF0701D1D292E33D1
:1004100038434E5A65717C8792979CA1A6ADB3B9BB
:10042000C0C7CDD3DAEB7013701E1D1D1D1D1D003E
:10043000EC712C724FF0DF0C85F809C04FF0AB0C5B
:1004400085F80AC0FCE0EC712C724FF0DF0C85F8E7
:1004500009C04FF0AB0C85F80AC0F1E0EC712C72CA
:100460006C72AC72ECE0EC712C726C72AC72E7E006
:10047000EC712C726C72AC72E2E04FF0620C85F899
:1004800007C04FF0280C85F808C06C72AC72D7E03A
:100490004FF0BF0C85F807C04FF02B0C85F808C053
:1004A0006C72AC72CCE04FF0350C85F807C04FF0A1
:1004B000390C85F808C06C72AC72C1E0DCE04FF01A
:1004C000920C85F807C04FF03C0C85F808C06C72A0
:1004D000AC72B5E04FF0620C85F807C04FF0280C05
:1004E00085F808C06C72AC72AAE0A5E04FF0BF0CB2
:1004F00085F807C04FF02B0C85F808C06C72AC7201
:100500009EE04FF0CB0C85F807C04FF0300C85F81B
:1005100008C06C72AC7293E04FF0290C85F807C0EC
:100520004FF0340C85F808C06C72AC7288E0EC7146
:100530002C726C72AC7283E0EC712C726C72AC72C7
:100540007EE0EC712C726C72AC7279E0EC712C7202
:100550006C72AC7274E085F8079085F808A06C7234
:10056000AC726DE0EF7185F808806C72AC7267E078
:10057000EC712C726F7285F80A8061E0EC712C725C
:1005800085F8099085F80AA05AE085F8079085F863
:1005900008A06C72AC7253E0EF7185F808806C7241
:1005A000AC724DE0EC712C726F7285F80A8047E0F6
:1005B000EC712C7285F8099085F80AA040E04FF0A4
:1005C000210C85F807C04FF0540C85F808C04FF097
:1005D000940C85F809C04FF0FF0C85F80AC02FE095
:1005E0004FF0210C85F807C04FF0540C85F808C077
:1005F0004FF0940C85F809C04FF0FF0C85F80AC045
:100600001EE0000000100140340300200000002024
:10061000004400400048004044484350436C696532
:100620006E7400002B3000084C454434000000007C
:100630005541525400000000EC712C726C72AC7287
:10064000EC724FF0020C85F80CC06C7381311A44C7
:1006500011440844E9790844297A0844697A08442D
:10066000A97A0844801CA8738620E8731022FE49EA
:10067000FE4803F098FF53E1A6212970102169700C
:100680008121A970C2B2EA70C0F307232B71C0F3B5
:1006900007416971000EA87196F800C0BCF1250FE2
:1006A00070D2DFE80CF06F1D1D292E3338434E59F0
:1006B00064707B8691969BA0A5B0BBC6D1DCE7F5A4
:1006C000F3F26F136F1E1D1D1D1D1D00EC712C72AA
:1006D0004FF0010C85F809C04FF0C00C85F80AC036
:1006E00003E1EC712C724FF0010C85F809C04FF05A
:1006F000C00C85F80AC0F8E0EC712C726C72AC7218
:10070000F3E0EC712C726C72AC72EEE0EC712C7256
:100710006C72AC72E9E04FF0B80C85F807C04FF08E
:100720001E0C85F808C06C72AC72DEE04FF0470C0E
:1007300085F807C04FF0210C85F808C06C72AC72C8
:10074000D3E04FF0840C85F807C04FF02B0C85F8F0
:1007500008C06C72AC72C8E04FF0140C85F807C08A
:100760004FF02E0C85F808C06C72AC72BDE04FF0F3
:10077000B80C85F807C04FF01E0C85F808C06C72E5
:10078000AC72B2E0ADE04FF0AB0C85F807C04FF0B3
:10079000210C85F808C06C72AC72A6E04FF01E0CFC
:1007A00085F807C04FF0250C85F808C06C72AC7254
:1007B0009BE04FF0AE0C85F807C04FF0270C85F892
:1007C00008C06C72AC7290E0EC712C726C72AC72FE
:1007D0008BE0EC712C726C72AC7286E0EC712C7256
:1007E0006C72AC7281E0EC712C726C72AC727CE059
:1007F0004FF0D60C85F807C04FF0FA0C85F808C00A
:100800006C72AC7271E04FF02A0C85F807C04FF0A3
:10081000050C85F808C06C72AC7266E0EC712C7245
:100820004FF02A0C85F809C04FF0050C85F80AC076
:100830005BE0EC712C724FF0D60C85F809C04FF0DC
:10084000FA0C85F80AC050E04FF0D60C85F807C0C6
:100850004FF0FA0C85F808C06C72AC7245E04FF0AE
:100860002A0C85F807C04FF0050C85F808C06C729B
:10087000AC723AE0EC712C724FF02A0C85F809C08A
:100880004FF0050C85F80AC02FE01BE00BE0FFE7F6
:10089000EC712C724FF0D60C85F809C04FF0FA0CB1
:1008A00085F80AC021E04FF0FF0B85F807B04FF044
:1008B0003F0C85F808C04FF0AF0C85F809C085F8EB
:1008C0000AB012E04FF0FF0B85F807B04FF03F0C75
:1008D00085F808C04FF0AF0C85F809C085F80AB05C
:1008E00003E0EC712C726C72AC72EC724FF0020C83
:1008F00085F80CC06C738132194411440844E979BD
:100900000844297A0844697A0844A97A0844801C72
:10091000A8738620E87310225349544803F043FE1D
:1009200014200EF03CFD00231A46194670690EF0A3
:10093000E3FA01287FF44AADBDE8F09F2DE9FF5F9F
:100940004B4C20784B4D002838D02078FF2835D0EC
:100950002078454EDFF820A1203E4FF0A60B4FF047
:10096000AA0806F110074FF00B0925287AD2DFE814
:1009700010F079006F01D8014202CA024103BA03A4
:100980003004A7042B05A10513068306020772078E
:10099000EA076008D0084F09C5093D0AB30A380BB9
:1009A000A60B170C860CF50C7B0D79003F00790027
:1009B000E200EA0D550EB80E210F950F48F22811EE
:1009C0002E4805F08BFC4FF400612D4805F086FCA5
:1009D000FB212C4805F082FC00220221284607F06A
:1009E00048F804B02846BDE8F05F002106F020BEBC
:1009F000204D00220221284607F03BF8002128461E
:100A000006F016FE0025CAF800504FF400411B48BE
:100A100005F064FCDFF86CA00821504605F060FC8E
:100A20001321504605F05AFC2021504605F058FC91
:100A300000234FF0FF3A5246194660690EF05CFA07
:100A400001280FD186F800B00D20707086F8028062
:100A5000F87839790844797910FB01F0F070010ACF
:100A6000317111E0DFE0000044030020001001407C
:100A70000000002000040040380000200000024078
:100A8000000C024000100240020C7271030EB371A0
:100A900086F8079035727572B572F572AA301144F6
:100AA000084418440B303073862070730D22FE49C1
:100AB000FE4803F078FD002352461946E0680EF028
:100AC0001BFA0128BDD10EF04BFD2062F848CDE99C
:100AD0000105012100234A0200910395F5A1AFF21F
:100AE0002B700EF033FBF54D0021284606F06CFC10
:100AF0004FF4AF61284606F02DFC6421284606F02D
:100B000097FD01220221284606F0B3FF0A200EF0CD
:100B100046FC0121284606F057FC002352461946A0
:100B200020690EF0E9F9606800287CD004B0BDE8C7
:100B3000F05F0EF073BBE14D00220221284606F063
:100B400098FF0021284606F073FD0025CAF80050E2
:100B50004FF40041DA4805F0C1FBDFF868A31B2120
:100B6000504605F0BBFB2021504605F0B9FB0023A1
:100B70004FF0FF3A5246194660690EF0BDF9012860
:100B8000A0D186F800B00D20707086F80280F87849
:100B900039790844797910FB01F0F070010A31715C
:100BA000020C7271030EB37186F80790357275727C
:100BB000B572F572AA301144084418440B303073F2
:100BC000862070730D22B849B84803F0ECFC00236E
:100BD00052461946E0680EF08FF90128D0D10EF088
:100BE000BFFC20620120B2498DE8230000234202AD
:100BF000B0A1AFF63F0003950EF0A8FAAF4D00216B
:100C0000284606F0E1FB4FF4AF61284606F0A2FB50
:100C10006421284606F00CFD01220221284606F038
:100C200028FF0A2000E08CE00EF0B9FB01212846E5
:100C300006F0CAFB00235246194620690EF05CF903
:100C4000606800287DD004B0BDE8F05F0EF0E6BA21
:100C50009A4D00220221284606F00BFF002128466B
:100C600006F0E6FC0025CAF800504FF40041944815
:100C700005F034FBDFF84CA21A21504605F02EFB9C
:100C80002121504605F02CFB00234FF0FF3A52463D
:100C9000194660690EF030F901289FD186F800B03E
:100CA0000D20707086F80280F878397908447979D7
:100CB00010FB01F0F070030A3371010C7171020E28
:100CC000B27186F8079035727572B572F572AA30F6
:100CD0001944084410440B303073862070730D2281
:100CE0007149724803F05FFC002352461946E068E0
:100CF0000EF002F90128D0D10EF032FC20626F4DC7
:100D000040F23551284606F025FB0021284606F022
:100D10008FFC6068002895D004B0BDE8F05F0EF04D
:100D20007DBA00220221284606F0A3FE00212846B3
:100D300006F07EFC0020CAF800004FF40041604835
:100D400000E059E105F0CAFADFF878A11B2150460E
:100D500005F0C4FA2021504605F0C2FA00234FF0F6
:100D6000FF3A5246194660690EF0C6F8012894D140
:100D700086F800B00D20707086F80280F878397916
:100D80000844797910FB01F0F070020A3271030C0B
:100D90007371010EB17186F8079000273772777270
:100DA000B772F772AA301A44104408440B303073FB
:100DB000862070730D223C493C4803F0F4FB00236D
:100DC00052461946E0680EF097F8012893D10EF0CC
:100DD000C7FB206240F23251284606F0BBFA64217C
:100DE000284606F025FC6068002894D004B0BDE8D1
:100DF000F05F0EF013BA314D00220221284606F0B2
:100E000038FE0021284606F013FC0025CAF80050E1
:100E10004FF400412A4805F061FADFF8A8A0132139
:100E2000504605F05BFA2821504605F059FA002398
:100E30004FF0FF3A5246194660690EF05DF80128FE
:100E400095D186F800B00D20707086F80280F87891
:100E500039790844797910FB01F0F070010A317199
:100E6000020C7271030EB37186F8079035727572B9
:100E7000B572F572AA301144084418440B3030732F
:100E8000862070730D220849084803F08CFB00236C
:100E900052461946E0680EF02FF8012896D10EF060
:100EA0005FFB206202480FE0240300200010014095
:100EB000080000204649454C440000000004004062
:100EC0000000024000100240CDE90105012100238D
:100ED0004A0203950091AFF22401AFF627300EF0DD
:100EE00035F9FF4D40F23551284606F033FA6421BA
:100EF000284606F09DFB606800287DD004B0BDE860
:100F0000F05F0EF08BB9F64D00220221284606F064
:100F1000B0FD0021284606F08BFB0025CAF80050E2
:100F20004FF40041EF4805F0D9F9DFF8BCA31B21CD
:100F3000504605F0D3F92021504605F0D1F90023A1
:100F40004FF0FF3A5246194660690DF0D5FF01286F
:100F5000A4D186F800B00D20707086F80280F87871
:100F600039790844797910FB01F0F070020A327186
:100F7000010C7171030EB37186F8079035727572AA
:100F8000B572F572AA301144084418440B3030731E
:100F9000862070730D22D549D54803F004FB002349
:100FA00052461946E0680DF0A7FF0128D0D10EF097
:100FB000D7FA2062CF48CDE90105012100234A027A
:100FC00003950091AFF21411AFF617400EF0BEF882
:100FD000C34D40F23551284606F0BCF9642128463D
:100FE00006F026FB6068002887D004B0BDE8F05FFB
:100FF0000EF014B9002200E060E2B94D022128464B
:1010000006F037FD0021284606F012FB0025CAF83D
:1010100000504FF40041B34805F060F9DFF8C8A272
:101020000B21504605F05AF93021504605F058F989
:1010300000234FF0FF3A5246194660690DF05CFFFD
:10104000012885D186F800B00D20707086F80280E6
:10105000F87839790844797910FB01F0F070010AC9
:101060003171020C7271030EB37186F807903572FC
:101070007572B572F572AA301144084418440B30E9
:101080003073862070730D229849994803F08BFACB
:10109000002352461946E0680DF02EFF012885D145
:1010A0000EF05EFA20629348CDE90105012100238C
:1010B0004A0203950091AFF20421AFF607500EF0FB
:1010C00045F8874D40F23551284606F043F9642132
:1010D000284606F0ADFA6068002885D004B0BDE867
:1010E000F05F0EF09BB87E4D00220221284606F0EC
:1010F000C0FC0021284606F09BFA0025CAF80050E3
:101100004FF40041774805F0E9F8DFF8DCA113213E
:10111000504605F0E3F82821504605F0E1F8002399
:101120004FF0FF3A5246194660690DF0E5FE01287E
:1011300087D186F800B00D20707086F80280F878AC
:1011400039790844797910FB01F0F070010A3171A6
:10115000020C7271030EB37186F8079035727572C6
:10116000B572F572AA301144084418440B3030733C
:10117000862070730D225D495D4803F014FA002348
:1011800052461946E0680DF0B7FE012887D10EF0EF
:10119000E7F92062012057498DE82300002342022D
:1011A000AFF2F021AFF6F35003950DF0CFFF4C4DA9
:1011B00040F2DC51284606F0CDF86421284606F0BE
:1011C00037FA6068002888D004B0BDE8F05F0EF000
:1011D00025B8434D00220221284606F04AFC002192
:1011E000284606F025FA0025CAF800504FF40041C1
:1011F0003C4805F073F8DFF8F0A01321504605F0E5
:101200006DF82821504605F06BF800234FF0FF3AA7
:101210005246194660690DF06FFE012888D186F8A4
:1012200000B00D20707086F80280F8783979084493
:10123000797910FB01F0F070010A3171020C7271C2
:10124000030EB37186F8079035727572B572F57238
:10125000AA301144084418440B3030738620707350
:101260000D222249224803F09EF9002352461946D6
:10127000E0680DF041FE012888D10EF071F920627E
:101280001C48CDE90105012100234A020395009184
:10129000AFF2E031AFF6E3600DF058FF104D40F2D1
:1012A000DC51284606F056F86421284606F0C0F9BD
:1012B0006068002887D004B0BDE8F05F0DF0AEBFD5
:1012C000074D00220221284606F0D3FB00212846C4
:1012D00006F0AEF90025CAF800504FF400410BE0CB
:1012E00000040040000002400010024024030020DF
:1012F0000010014008000020FE4804F0EFFFDFF876
:10130000F8A33321504604F0E9FF0821504604F0C9
:10131000E7FF00234FF0FF3A5246194660690DF08F
:10132000EBFD0128A8D186F800B00D20707086F87A
:101330000280F87839790844797910FB01F0F0706F
:10134000020A3271010C7171030EB37186F80790B5
:1013500035727572B572F572AA301144084418449A
:101360000B303073862070730D22E449E44803F09B
:101370001AF9002352461946E0680DF0BDFD012818
:10138000D0D10EF0EDF82062DE48CDE90105012153
:1013900000234A0203950091AFF2E841AFF6EB70EB
:1013A0000DF0D4FED84D40F2DC51284605F0D2FFB6
:1013B0006421284606F03CF9606800287ED004B01D
:1013C000BDE8F05F0DF02ABFCF4D00220221284674
:1013D00006F04FFB0021284606F02AF90025CAF83E
:1013E00000504FF40041C34804F078FFDFF808A331
:1013F0003321504604F072FF0821504604F070FF7C
:1014000000234FF0FF3A5246194660690DF074FD13
:10141000012887D186F800B00D20707086F8028010
:10142000F87839790844797910FB01F0F070010AF5
:101430003171020C7271030EB37186F80790357228
:101440007572B572F572AA301144084418440B3015
:101450003073862070730D22A849A94803F0A3F8C1
:10146000002352461946E0680DF046FD012887D159
:101470000EF076F82062A348CDE901050121002392
:101480004A0203950091AFF2D451A0480DF05EFEE0
:101490009D4D40F2DC51284605F05CFF6421284652
:1014A00006F0C6F86068002888D004B0BDE8F05F98
:1014B0000DF0B4BE00220221934D00E0D4E1284695
:1014C00006F0D7FA0021284606F0B2F80025CAF83F
:1014D00000504FF40041874804F000FF3B2186484C
:1014E00004F0FCFE00234FF0FF3A524619466069B3
:1014F0000DF002FD01288CD186F800B00D2070702F
:1015000086F80280F87839790844797910FB01F07F
:10151000F070020A3271010C7171030EB37186F81A
:10152000079035727572B572F572AA30114408448D
:1015300018440B303073862070730D226F49704849
:1015400003F031F8002352461946E0680DF0D4FC50
:1015500001288CD10EF004F820626A48CDE901051B
:10156000012100234A0203950091AFF2B861674858
:101570000DF0ECFD644D4FF4AF61284605F0EAFE36
:101580006421284606F054F8606800288CD004B026
:10159000BDE8F05F0DF042BE5B4D002202212846FF
:1015A00006F067FA0021284606F042F80025CAF83E
:1015B00000504FF400414F4804F090FE3B214E484C
:1015C00004F08CFE00234FF0FF3A52461946606942
:1015D0000DF092FC01288ED186F800B00D207070BD
:1015E00086F80280F87839790844797910FB01F09F
:1015F000F070020A3271010C7171030EB37186F83A
:10160000079035727572B572F572AA3011440844AC
:1016100018440B303073862070730D2237493848D8
:1016200002F0C1FF002352461946E0680DF064FC49
:1016300001288ED10DF094FF20623248CDE90105DA
:10164000012100234A0203950091AFF298712F48BF
:101650000DF07CFD2C4D4FF4AF61284605F07AFE6D
:101660006421284605F0E4FF606800288ED004B0AD
:10167000BDE8F05F0DF0D2BD234D002202212846C7
:1016800006F0F7F90021284605F0D2FF0025CAF838
:1016900000504FF40041174804F020FE3B2116484B
:1016A00004F01CFE00234FF0FF3A524619466069D1
:1016B0000DF022FC01288ED186F800B00D2070704C
:1016C00086F80280F87839790844797910FB01F0BE
:1016D000F070020A3271010C7171030EB37186F859
:1016E000079035727572B572F572AA3011440844CC
:1016F00018440DE0000002400010024024030020C6
:10170000001001400800002000040040B50300085C
:101710000B303073862070730D22FE49FE4802F0B4
:1017200042FF002352461946E0680DF0E5FB012810
:10173000C1D10DF015FF2062F848CDE90105012166
:1017400000234A0203950091AFF69801F4480DF08A
:10175000FDFCF44D4FF4AF61284605F0FBFD64211C
:10176000284605F065FF606800287DD004B0BDE81C
:10177000F05F0DF053BDEB4D00220221284606F02C
:1017800078F90021284605F053FF0025CAF80050DB
:101790004FF40041E44804F0A1FD3B21E34804F08C
:1017A0009DFD00234FF0FF3A5246194660690DF047
:1017B000A3FB0128BCD186F800B00D20707086F81C
:1017C0000280F87839790844797910FB01F0F070DB
:1017D000020A3271010C7171030EB37186F8079021
:1017E00035727572B572F572AA3011440844184406
:1017F0000B303073862070730D22C649C64802F044
:10180000D2FE002352461946E0680DF075FB012810
:101810008ED10DF0A5FE2062C048CDE90105012161
:1018200000234A0203950091AFF67811BC480DF0F1
:101830008DFCBC4D4FF4AF61284605F08BFD642153
:10184000284605F0F5FE606800288ED004B0BDE89B
:10185000F05F0DF0E3BCB34D00220221284606F0F4
:1018600008F90021284600E04CE205F0E1FE0025E1
:10187000CAF800504FF40041AB4804F02FFDDFF8E8
:10188000ACA23321504604F029FD0821504604F053
:1018900027FD00234FF0FF3A5246194660690DF0CC
:1018A0002BFB012886D186F800B00D20707086F8D9
:1018B0000280F87839790844797910FB01F0F070EA
:1018C000020A3271010C7171030EB37186F8079030
:1018D00035727572B572F572AA3011440844184415
:1018E0000B303073862070730D228A498A4802F0CB
:1018F0005AFE002352461946E0680DF0FDFA012811
:1019000086D10DF02DFE20628448CDE9010501212C
:1019100000234A0203950091AFF6682180480DF03C
:1019200015FC804D4FF47A71284605F013FD6421B3
:10193000284605F07DFE6068002886D004B0BDE82A
:10194000F05F0DF06BBC774D00220221284606F0B7
:1019500090F80021284605F06BFE0025CAF80050DB
:101960004FF40041704804F0B9FCDFF8C0A1332106
:10197000504604F0B3FC0821504604F0B1FC0023AB
:101980004FF0FF3A5246194660690DF0B5FA01284A
:1019900088D186F800B00D20707086F80280F87843
:1019A00039790844797910FB01F0F070010A31713E
:1019B000020C7271030EB37186F80790357275725E
:1019C000B572F572AA301144084418440B303073D4
:1019D000862070730D224F494F4802F0E4FD00232A
:1019E00052461946E0680DF087FA012888D10DF0BB
:1019F000B7FD20624948CDE90105012100234A02D3
:101A000003950091AFF6543145480DF09FFB454DCD
:101A10004FF4FA61284605F09DFC6421284605F044
:101A200007FE6068002888D004B0BDE8F05F0DF0C4
:101A3000F5BB3C4D00220221284606F01AF8002191
:101A4000284605F0F5FD0025CAF800504FF4004186
:101A5000354804F043FC3B21344804F03FFC0023AC
:101A60004FF0FF3A5246194660690DF045FA0128D9
:101A70008ED186F800B00D20707086F80280F8785C
:101A800039790844797910FB01F0F070010A31715D
:101A9000020C7271030EB37186F80790357275727D
:101AA000B572F572AA301144084418440B303073F3
:101AB000862070730D221749174802F074FD002329
:101AC00052461946E0680DF017FA01288ED10DF044
:101AD00047FD20621148CDE90105012100234A029A
:101AE00003950091AFF634410D480DF02FFB0D4DDD
:101AF0004FF47A71284605F02DFC6421284605F044
:101B000097FD606800288ED004B0BDE8F05F0DF04E
:101B100085BB0DE0240300200010014008000020D8
:101B2000B50300080004004000000240001002401D
:101B3000FF4D00220221284605F09BFF0021284688
:101B400005F076FD0025CAF800504FF40041F94831
:101B500004F0C4FB3B21F84804F0C0FB00234FF025
:101B6000FF3A5246194660690DF0C6F90128ADD119
:101B700086F800B00D20707086F80280F878397908
:101B80000844797910FB01F0F070010A3171020C00
:101B90007271030EB37186F8079035727572B57263
:101BA000F572AA301144084418440B303073862073
:101BB00070730D22E149E24802F0F5FC0023524621
:101BC0001946E0680DF098F90128D0D10DF0C8FC55
:101BD0002062DC48CDE90105012100234A0203957A
:101BE0000091AFF63051D8480DF0B0FAD04D4FF417
:101BF000FA61284605F0AEFB6421284605F018FD81
:101C0000606800287ED004B0BDE8F05F0DF006BB30
:101C1000C74D00220221284605F02BFF002128464F
:101C200005F006FD0025CAF800504FF40041C148F8
:101C300004F054FBDFF800A33321504604F04EFBC0
:101C40000821504604F04CFB00234FF0FF3A524667
:101C5000194660690DF050F9012888D186F800B066
:101C60000D20707086F80280F87839790844797907
:101C700010FB01F0F070010A3171020C7271030E59
:101C8000B37186F8079035727572B572F572AA3025
:101C90001144084418440B303073862070730D22B1
:101CA000A649A74802F07FFC002352461946E06887
:101CB0000DF022F9012888D10DF052FC2062A148D4
:101CC000CDE90105012100234A0203950091AFF6F9
:101CD0001C619D480DF03AFA954D40F23551284669
:101CE00005F038FB6421284605F0A2FC6068002856
:101CF00088D004B0BDE8F05F0DF090BA0022022158
:101D00008B4D00E0E6E1284605F0B3FE00212846B1
:101D100005F08EFC0025CAF800504FF400418548BC
:101D200004F0DCFADFF810A23321504604F0D6FAB2
:101D30000821504604F0D4FA00234FF0FF3A5246EF
:101D4000194660690DF0D8F8012886D186F800B0F0
:101D50000D20707086F80280F87839790844797916
:101D600010FB01F0F070010A3171020C7271030E68
:101D7000B37186F8079035727572B572F572AA3034
:101D80001144084418440B303073862070730D22C0
:101D90006A496B4802F007FC002352461946E06886
:101DA0000DF0AAF8012886D10DF0DAFB2062654813
:101DB000CDE90105012100234A0203950091AFF608
:101DC0000C7161480DF0C2F9594D40F23551284669
:101DD00005F0C0FA6421284605F02AFC6068002856
:101DE00086D004B0BDE8F05F0DF018BA504D002267
:101DF0000221284605F03DFE0021284605F018FC8A
:101E00000025CAF800504FF400414A4804F066FA31
:101E1000DFF824A13321504604F060FA082150462F
:101E200004F05EFA00234FF0FF3A5246194660690B
:101E30000DF062F8012888D186F800B00D2070708E
:101E400086F80280F87839790844797910FB01F036
:101E5000F070010A3171020C7271030EB37186F8D1
:101E6000079035727572B572F572AA301144084444
:101E700018440B303073862070730D222F49304880
:101E800002F091FB002352461946E0680DF034F849
:101E9000012888D10DF064FB20622A48CDE90105B4
:101EA000012100234A0203950091AFF6F8712648FC
:101EB0000DF04CF91E4D40F23551284605F04AFA16
:101EC0006421284605F0B4FB6068002888D004B07F
:101ED000BDE8F05F0DF0A2B9154D002202212846A1
:101EE00005F0C7FD0021284605F0A2FB0025CAF831
:101EF00000504FF400410F4804F0F0F9DFF838A02B
:101F00003321504604F0EAF90821504604F0E8F97C
:101F100000234FF0FF3A5246194660690CF0ECFF7F
:101F2000012888D186F800B00D2070700EE0000006
:101F30000004004000000240001002402403002082
:101F40000010014008000020B503000886F8028058
:101F5000F87839790844797910FB01F0F070020AB9
:101F60003271010C7171030EB37186F807903572EE
:101F70007572B572F572AA301144084418440B30DA
:101F80003073862070730D22FD49FE4802F00BFB72
:101F9000002352461946E0680CF0AEFF0128C0D17C
:101FA0000DF0DEFA2062F848CDE9010501214A0270
:101FB000009100230395F549F5480DF0C7F8F54D5C
:101FC00040F23551284605F0C5F96421284605F050
:101FD0002FFB606800287DD004B0BDE8F05F0DF0F5
:101FE0001DB9EC4D00220221284605F042FD0021DA
:101FF000284605F01DFB0025CAF800504FF40041AB
:10200000E54804F06BF93B21E44804F067F900234C
:102010004FF0FF3A5246194660690CF06DFF0128F7
:10202000BDD186F800B00D20707086F80280F87877
:1020300039790844797910FB01F0F070020A3271A5
:10204000010C7171030EB37186F8079035727572C9
:10205000B572F572AA301144084418440B3030733D
:10206000862070730D22C649C64802F09CFA0023F0
:1020700052461946E0680CF03FFF01288FD10DF061
:102080006FFA20620120C0498DE82300420200233C
:10209000BE49BF4803950DF059F8BE4D40F2355189
:1020A000284605F057F96421284605F0C1FA606812
:1020B000002890D004B0BDE8F05F0DF0AFB8B54D8A
:1020C00000220221284605F0D4FC0021284605F014
:1020D000AFFA00E042E20025CAF800504FF4004198
:1020E000AD4804F0FBF83B21AC4804F0F7F80023BE
:1020F0004FF0FF3A5246194660690CF0FDFE012888
:102100008ED186F800B00D20707086F80280F878C5
:1021100039790844797910FB01F0F070010A3171C6
:10212000020C7271030EB37186F8079035727572E6
:10213000B572F572AA301144084418440B3030735C
:10214000862070730D228E498E4802F02CFA0023EF
:1021500052461946E0680CF0CFFE01288ED10DF0F2
:10216000FFF920628848CDE9010501214A0200916A
:1021700000230395854986480CF0E8FF854D40F221
:102180003551284605F0E6F86421284605F050FA56
:10219000606800288DD004B0BDE8F05F0DF03EB857
:1021A0007C4D00220221284605F063FC00212846D0
:1021B00005F03EFA0025CAF800504FF40041764879
:1021C00004F08CF83B21754804F088F800234FF0A8
:1021D000FF3A5246194660690CF08EFE01288FD1F5
:1021E00086F800B00D20707086F80280F878397992
:1021F0000844797910FB01F0F070010A3171020C8A
:102200007271030EB37186F8079035727572B572EC
:10221000F572AA301144084418440B3030738620FC
:1022200070730D225649574802F0BDF900235246FB
:102230001946E0680CF060FE01288FD10DF090F98E
:1022400020625148CDE9010501214A020091002395
:1022500003954E494E480CF079FF4E4D40F23551F2
:10226000284605F077F86421284605F0E1F9606812
:1022700000288FD004B0BDE8F05F0CF0CFBF454D13
:1022800000220221284605F0F4FB0021284605F033
:10229000CFF90025CAF800504FF400413E4804F041
:1022A0001DF83B213D4804F019F800234FF0FF3A98
:1022B0005246194660690CF01FFE01288FD186F83E
:1022C00000B00D20707086F80280F87839790844E3
:1022D000797910FB01F0F070020A3271010C717112
:1022E000030EB37186F8079035727572B572F57288
:1022F000AA301144084418440B30307386207073A0
:102300000D221F491F4802F04EF90023524619467C
:10231000E0680CF0F1FD01288FD10DF021F9206269
:102320001948CDE9010501214A02009100230395D6
:10233000164917480CF00AFF164D40F23551284651
:1023400005F008F86421284605F072F96068002855
:102350008FD004B0BDE8F05F0CF060BF0D4D0022DF
:102360000221284605F085FB0021284605F060F98A
:102370000025CAF800504FF40041074810E0000063
:10238000240300200010014008000020B40E0008C3
:10239000B5030008000400400000024000100240A5
:1023A00003F09CFFDFF85CA43321504603F096FF56
:1023B0000821504603F094FF00234FF0FF3A5246A5
:1023C000194660690CF098FD0128A5D186F800B087
:1023D0000D20707086F80280F87839790844797990
:1023E00010FB01F0F070020A3271010C7171030EE2
:1023F000B37186F8079035727572B572F572AA30AE
:102400001144084418440B303073862070730D2239
:10241000FD49FE4802F0C7F8002352461946E0681D
:102420000CF06AFD0128D0D10DF09AF8206201204D
:10243000F7498DE8230042020023F649F648039548
:102440000CF084FEF54D40F23551284604F082FF31
:102450006421284605F0ECF8606800287ED004B0BE
:10246000BDE8F05F0CF0DABEEC4D002202212846F8
:1024700005F0FFFA0021284605F0DAF80025CAF831
:1024800000504FF40041E64803F028FF3B21DD48AF
:1024900003F024FF00234FF0FF3A524619466069CB
:1024A0000CF02AFD012890D186F800B00D20707044
:1024B00086F80280F87839790844797910FB01F0C0
:1024C000F070020A3271010C7171030EB37186F85B
:1024D000079035727572B572F572AA3011440844CE
:1024E00018440B303073862070730D22C649C748DC
:1024F00002F059F8002352461946E0680CF0FCFC43
:10250000012890D10DF02CF82062C148CDE90105D9
:1025100001214A02009100230395BE49BE480CF0F8
:1025200015FEBE4D40F23551284604F013FF6421DC
:10253000284605F07DF8606800288FD004B0BDE81B
:10254000F05F0CF06BBEB54D00220221284605F06D
:1025500090FA0021284605F06BF800E007E200251C
:10256000CAF800504FF40041AD4803F0B9FEDFF85F
:1025700094A20821504603F0B3FE3321504603F0E5
:10258000ADFE00234FF0FF3A5246194660690CF049
:10259000B3FC012887D186F800B00D20707086F852
:1025A0000280F87839790844797910FB01F0F070ED
:1025B000020A3271030C7371010EB17186F8079033
:1025C00035727572B572F572AA301A441044084417
:1025D0000B303073862070730D228B498B4801F0CD
:1025E000E2FF002352461946E0680CF085FC012802
:1025F00087D10CF0B5FF2062884D40F23551284656
:1026000004F0A8FE0021284605F012F860680028B2
:1026100093D004B0BDE8F05F0CF000BE7F4D002207
:102620000221284605F025FA0021284605F000F889
:102630000025CAF800504FF40041794803F050FEDD
:102640003B21704803F04AFE00234FF0FF3A524608
:10265000194660690CF050FC01289BD186F800B047
:102660000D20707086F80280F878397908447979FD
:1026700010FB01F0F070010A3171020C7271030E4F
:10268000B37186F8079035727572B572F572AA301B
:102690001144084418440B303073862070730D22A7
:1026A00059495A4801F07FFF002352461946E06815
:1026B0000CF022FC01289BD10CF052FF2062574DF8
:1026C00040F23551284604F045FE0021284604F02A
:1026D000AFFF606800289BD004B0BDE8F05F0CF04D
:1026E0009DBD4E4D00220221284605F0C2F9002171
:1026F000284604F09DFF0025CAF800504FF4004121
:10270000474803F0EBFDDFF8FCA00821504603F03A
:10271000E7FD3321504603F0E1FD00234FF0FF3A7F
:102720005246194660690CF0E7FB012895D186F8FE
:1027300000B00D20707086F80280F878397908446E
:10274000797910FB01F0F070010A3171020C72719D
:10275000030EB37186F8079035727572B572F57213
:10276000AA301144084418440B303073862070732B
:102770000D222549254801F016FF0023524619462F
:10278000E0680CF0B9FB012895D10CF0E9FE20625D
:10279000224D40F23551284604F0DCFD64212846E4
:1027A00004F046FF6068002895D004B0BDE8F05FF3
:1027B0000CF034BD194D00220221284605F059F9CC
:1027C0000021284604F034FF0025CAF800504FF4D9
:1027D0000041134803F082FD3B210A4803F07EFDCF
:1027E00000234FF0FF3A5246194660690CF084FB13
:1027F00001289BD186F800B00D20707086F8028009
:10280000F8780FE00010024024030020001001407F
:1028100008000020B40E0008B503000800040040C2
:102820000000024039790844797910FB01F0F0701A
:10283000010A3171020C7271030EB37186F80790B0
:1028400035727572B572F572AA3011440844184495
:102850000B303073862070730D22BE49BE4801F0E4
:10286000A2FE002352461946E0680CF045FB012801
:102870007DD10CF075FE2062B84D40F235512846EE
:1028800004F068FD6421284604F0D2FE6068002848
:102890006DD004B0BDE8F05F0CF0C0BCAF4D0022BD
:1028A0000221284605F0E5F80021284604F0C0FE84
:1028B0000025CAF800504FF40041A94803F00EFD6E
:1028C000DFF8A0A20221504603F00AFD392150464C
:1028D00003F004FD00234FF0FF3A524619466069A9
:1028E0000CF00AFB012842D186F800B00D20707070
:1028F00086F80280F87839790844797910FB01F07C
:10290000F070010A3171020C7271030EB37186F816
:10291000079035727572B572F572AA301144084489
:1029200018440B303073862070730D2289498A4811
:1029300001F039FE002352461946E0680CF0DCFA3B
:10294000012814D10CF00CFE2062844D40F2355168
:10295000284604F0FFFC0021284604F069FE606868
:10296000002804D004B0BDE8F05F0CF057BCBDE80F
:10297000FF9F7FB51446002C7ED076486289211DCA
:1029800080380DF09FF87348774D803800782870B4
:102990002878002874D02878FF2871D0287801285A
:1029A0006ED0287802286BD02878032868D0287841
:1029B000042865D02878052862D0287806285FD0BA
:1029C000287807285CD02878082859D02878092842
:1029D00056D028780A2853D028780B2850D0287849
:1029E0000C284DD028780D284AD028780E2847D0BA
:1029F00028780F2844D02878102841D0287811282A
:102A00003ED0287812283BD02878132838D0287850
:102A1000142835D02878152832D0287816282FD0B9
:102A2000287817282CD02878182829D02878192811
:102A300026D028781A2823D028781B2820D0287858
:102A40001D281DD028781F281AD02878202817D0B4
:102A50002878212814D02878222811D028782328F3
:102A60000ED0287824280BD02878F02808D004B07D
:102A70002046BDE8704001E01EE001E007F02ABBFF
:102A8000A86808B10CF0CAFB686808B10CF0C6FB76
:102A9000354A0020121DCDE90120012103464A02DA
:102AA0000091039031A135480CF050FB04B0204652
:102AB000BDE8704007F00EBB7FBD70B50446264DE3
:102AC000E1B2284604F065F84021284604F003F9F5
:102AD0000028F9D0204670BD0FB410B5C0B0044630
:102AE00044AB4FF480716846439A0DF07DFB82B28F
:102AF0006946204601F057FD40B010BC5DF814FB5C
:102B00000FB430B5C1B045AB4FF4807101A8449A01
:102B10000DF06AFB05460022A9B2104607F003FB40
:102B2000174C206040682A4601A90CF0CBFF2168B1
:102B30004D81144800901448144A038814480068D2
:102B400006F095FF206807F0C5FA41B030BC5DF88B
:102B500014FB00002403002000100140000400408A
:102B600000000240001002400000002050524F437D
:102B700045535320434F4D4D414E44003D090008FD
:102B80004400002054030020BE0C01084000002037
:102B90003C0000200CB500220192009255490868C3
:102BA00040F4803008604FF4A043086800F400301F
:102BB00000900198401C0190009810B9019898422B
:102BC000F3D10868800302D50120009000E0009254
:102BD0000098012831D147484030026842F08052C5
:102BE00002604548026842F44042026041480830B1
:102BF00002680260026842F400420260026842F425
:102C0000A0520260021F3D4B13600A6842F08072BE
:102C10000A600A689201FCD5394A40F205611160E8
:102C2000016821F003010160016841F002010160C7
:102C30000168C1F381010229FAD10CBD10B52D48FC
:102C4000016841F0010101602A4A00210832116047
:102C500002682C4B1A400260031D2B4A1A6002685E
:102C600022F48022026023480C300160FFF792FFBB
:102C700026494FF00060086010BD70B51D4E083643
:102C8000306800F00C00224B224900280FD05D1064
:102C900004280ED008280ED00B6030681D4AC0F3FF
:102CA0000310121D105C0A68C2400A6070BD0B6000
:102CB000F3E70D60F1E70F4A121D1068C0F380546E
:102CC000106800F03F0034B1B5FBF0F01368C3F3B7
:102CD0008813584305E0B3FBF0F01368C3F388137F
:102CE00058431268C2F30142521C5200B0FBF2F08A
:102CF0000860D2E7003802400070004008484006F3
:102D0000003C0240FFFFF6FE1030002408ED00E01A
:102D10000024F400240000207047FEE7FEE7FEE7F1
:102D2000FEE77047704770470CF02ABE08B50020D8
:102D30000090402005F002FC012806D1A3480023A2
:102D40006A46194600680CF08DF8402005F014FC26
:102D50004FF4803005F010FC0098002801D00CF0F2
:102D6000F8FD08BD10B5012002F067FF00280ED065
:102D7000012002F070FF0121954803F09BFAC14346
:102D80009448426922F0200242EA4111416110BD9B
:102D900010B5022002F051FF00280ED0022002F0F0
:102DA0005AFF02218A4803F085FAC14389484269E3
:102DB00022F0080242EAC101416110BDF8B54FF4AA
:102DC0008066304602F039FF834C844D68B130464E
:102DD00002F041FF3146284603F06CFA6169C043B6
:102DE00021F0800141EAC01060614FF40066304676
:102DF00002F023FF78B1304602F02DFF314628461D
:102E000003F058FAC24372481430016821F400619B
:102E100041EAC22101604FF48056304602F00DFFB6
:102E200070B1304602F017FF3146284603F042FAEF
:102E3000C1436848426922F4807242EA012141613B
:102E40004FF40056304602F0F8FE00281CD0002057
:102E50000090304602F0FFFE3146284603F02AFA81
:102E60006169C04321F0400141EA80106061314650
:102E7000284603F01FFA012806D1594800236A4664
:102E8000194600680BF0EEFFF8BD38B5554D02212C
:102E9000284604F004FE00281AD00221284604F037
:102EA0000AFE514C226840F2E65140F242430E2A9B
:102EB0000ED2DFE802F0070E1720273039424B54BC
:102EC0005D666E76284604F045FA2068401C206056
:102ED00038BD4FF4C861284604F03CFA2068401C15
:102EE000206038BD40F22261284604F033FA2068A1
:102EF000401C206038BD284604F02CFA2068401C95
:102F0000206038BD40F2BE51284604F023FA206804
:102F1000401C206038BD40F26451284604F01AFA83
:102F20002068401C206038BD40F21451284604F04F
:102F300011FA2068401C206038BD40F2BA41284692
:102F400004F008FA2068401C206038BD4FF49161FD
:102F5000284604F0FFF92068401C206038BD40F28C
:102F60006A41284604F0F6F92068401C206038BD0C
:102F700040F29241284604F0EDF92068401C2060A0
:102F800038BD1946284604F0E5F92068401C206049
:102F900038BD1946284604F0DDF92068401C206041
:102FA00038BD40F23551284604F0D4F900212160A3
:102FB00000220221284604F05CFD0C4800236A46EA
:102FC000194600680BF04EFF38BD00001C020020BF
:102FD000000C0240000002400010024000080240C5
:102FE0000C000020000400403800002010000020E9
:102FF00000B587B00021084606F004FC00200690CA
:10300000059004903849394ACDE90121009004AB7C
:1030100005AA06A9364806F0DDFF354806F0FDFF93
:10302000334807F035F807B000BD0EB50024324E26
:103030002F4FDFF8C080351F43F2390914B1012C3E
:103040004ED104E02A480AF028FA012448E07868C2
:10305000B8B1022426480AF054F940460AF0A2FD0D
:10306000306006F0BCFD28604A46244906F0D0FCDA
:1030700000222349286806F09BFD00200CF0CEF8C2
:103080002EE0386AC07C05282AD9032418480AF0A3
:1030900038F9184872300AF085FD02906FF0FF0091
:1030A0000AF080FD019017480AF07CFD00906B4605
:1030B00001AA02A90E4806F07DFF40460AF072FD03
:1030C000306006F08CFD28604A460C4906F0A0FCF2
:1030D00000220B49286806F06BFD00200CF09EF8DA
:1030E000FA200CF05CF9A9E7B59600081FE9000882
:1030F000540300206101A8C0400000204CCF01080B
:10310000732900080100A8C000B5AFB001214FF03D
:10311000606003F046FA04F08BFD05F002FA05F05A
:1031200006FA0128FBD0684604F08EFD01200090CD
:10313000002007904FF400710A910B900E901190AF
:10314000139014901590490009912090C903219182
:103150000A1123922590269004202890299180031B
:103160002A9080012B9040122C9040002E9000213C
:10317000684604F006FE664908600121654805F0CE
:10318000E8F92FB000BD08B54FF4A06003F0E2FDF0
:103190003D208DF8000002208DF8010000208DF800
:1031A000020001208DF80300684603F0D8FD08BD39
:1031B000FEB50121072003F0F4F90121880303F093
:1031C00020FA012003F0D6FB8620009003208DF822
:1031D000050002248DF8044000258DF806508DF876
:1031E00007504D4E6946304603F010F80B2201217E
:1031F000304603F083F80B220221304603F07EF8BC
:103200000B220721304603F079F84FF470500090FC
:10321000424E6946304602F0F9FF0B220A21304641
:1032200003F06CF80B221146304603F067F80B22CE
:103230000C21304603F062F80B220D21304603F0DA
:103240005DF832200090364E6946304602F0DEFFCF
:103250000B220121304603F051F80B2204213046A5
:1032600003F04CF80B220521304603F047F8042008
:10327000009001208DF804008DF806508DF80700AD
:103280008DF80540274E6946304602F0BFFF042105
:10329000304603F025F8029544F6206402E00299D6
:1032A000491C02910299A142F9D30421304603F04E
:1032B00015F8029502E00298401C02900298A04284
:1032C000F9D3FEBD10B5FFF773FFFFF75CFFFFF703
:1032D0001BFF0F480068002819D14FF4784001F017
:1032E00037FE01F044FEC0880FA100EB800080B2E1
:1032F00001F0E6FE01F03BFEC0884FF6FF7100EBE7
:10330000400001EA40000DA101F0DAFEFEE710BD29
:10331000480000204000010000000240000402407C
:1033200000080240001002402020204574686572A9
:103330006E657420496E69742020200020202020B2
:1033400020206661696C6564202020202020000018
:103350000020344900EB400201EBC202127D22B191
:10336000401C0A28F6DB0020704700EB400001EB10
:10337000C00001220275704700212A4A01EB410377
:1033800002EBC303834206D101EB410102EBC10111
:10339000002008757047491C0A29EFDB704770B59B
:1033A0000646FFF7D5FF0546280001D01E4C07E072
:1033B000002070BD304661680CF0C7FB38B124684E
:1033C000002CF7D12846FFF7D7FF002070BDA0687A
:1033D0002860E0686860E068A8600020E860207C01
:1033E0002874284670BDC7E770B505460B46D5E979
:1033F0000110884202D14FF0FF3070BD0C1A944288
:1034000000DD144629682246014418460CF05AFB98
:10341000A8682044A860204670BDD0E90110081AB1
:10342000704700008C03002020B6010810B5ADF5F0
:10343000047D044600200190029003904FF4007137
:1034400004A80CF058FB7F480268521C02607EA161
:1034500001A80CF0B5FE01A904A80CF057FB7BA154
:1034600004A80CF053FB86A104A80CF04FFB04A8A1
:103470000CF064FB04A908440CF0BFF88EA104A86A
:103480000CF044FB9AA104A80CF040FBA7480CF0F8
:1034900055FB02460123A549204605F0CFFA04A8B2
:1034A0000CF04CFB0246012304A9204605F0C6FAA5
:1034B0000DF5047D10BD7CB50646304605F032FAA8
:1034C0000546280049D0307A002846D16A4601A92D
:1034D000284606F010F8BDF8000005283DD3052267
:1034E00093A101980CF04CFB002836D11B2292A12D
:1034F00001980CF045FB002836D01E2295A10198BA
:103500000CF03EFB00283DD01D229AA101980CF042
:1035100037FB002844D018229EA101980CF030FB04
:1035200000284BD01322A2A101980CF029FB0028FF
:1035300048D00622A3A101980CF022FB002841D01C
:10354000A2A0FFF72CFF04460023D4E90012304666
:1035500005F074FA2046FFF746FF304605F089FA79
:10356000284605F05EFF7CBD74A0FFF718FF0446F7
:103570000023D4E90012304605F060FA2046FFF738
:1035800032FFEAE774A0FFF70AFF04460023D4E9FC
:103590000012304605F052FA2046FFF724FFDCE720
:1035A00075A0FFF7FCFE04460023D4E90012304664
:1035B00005F044FA2046FFF716FFCEE73046FFF746
:1035C00035FFCAE77BA0FFF7EAFE04460023D4E9F3
:1035D0000012304605F032FA2046FFF704FFBCE740
:1035E00070B500221146102005F0EEF80446CCB16B
:1035F00050220021204605F035F920B1BDE8704089
:1036000075A00CF0CDBDFF21204605F064F92046E1
:1036100005F072F905462846FFF74DFF284605F0EC
:10362000F4F8F4E7BDE8704071A00CF0B9BD08B53E
:10363000032000904FF4FA730022734973A00BF03B
:1036400068FA08BD4C000020256400003C707265DB
:103650003E3C62723E4E616D65202020202020207D
:10366000202020537461746520205072696F726944
:1036700074792020537461636B2020204E756D0097
:103680003C62723E2D2D2D2D2D2D2D2D2D2D2D2DD0
:103690002D2D2D2D2D2D2D2D2D2D2D2D2D2D2D2D5A
:1036A0002D2D2D2D2D2D2D2D2D2D2D2D2D2D2D2D4A
:1036B0002D3C62723E0000003C62723E3C62723EF3
:1036C0002D2D2D2D2D2D2D2D2D2D2D2D2D2D2D2D2A
:1036D0002D2D2D2D2D2D2D2D2D2D2D2D2D2D2D2D1A
:1036E0002D2D2D2D2D2D2D2D2D2D2D2D2D00000091
:1036F0003C62723E42203A20426C6F636B65642CE0
:103700002052203A2052656164792C2044203A20CE
:1037100044656C657465642C2053203A205375739E
:1037200070656E6465643C62723E000034B60108E8
:10373000474554202F000000474554202F53544D37
:103740003332463478375F66696C65732F53542E75
:1037500067696600474554202F53544D3332463431
:1037600078375F66696C65732F73746D33322E6AB8
:1037700070670000474554202F53544D3332463470
:1037800078375F66696C65732F6C6F676F2E6A7030
:1037900067000000474554202F53544D33324634C0
:1037A00078375441534B532E68746D6C0000000001
:1037B000474554202F53544D3332463478372E68C2
:1037C000746D6C00474554202F2000002F34303496
:1037D0002E68746D6C00000063616E206E6F742043
:1037E00062696E64206E6574636F6E6E0000000027
:1037F00063616E206E6F7420637265617465206E04
:103800006574636F6E6E0000E135000848545450D3
:10381000000000002DE9FC4104460E46EB49EB4850
:10382000103150F8240051F824100843012102F00F
:10383000B8FEE6481038ECB350F82400012102F03D
:10384000D4FEE248E24F203810F81420103830F847
:10385000141057F8240002F051FDDC4807F110085D
:10386000183810F81420103830F8141058F82400C4
:1038700002F044FD00208DF8060001208DF80700BD
:1038800002258DF80450D148403830F814000090DB
:103890008DF8055057F82400694602F0B7FC8DF802
:1038A0000450CA48383830F81400009058F8240002
:1038B000694600E00FE002F0A9FCA7F110053146CF
:1038C00055F8240003F0C0F855F82400012103F056
:1038D00034F9BDE8FC810068012102F092FEB0E7F6
:1038E0002DE9FF410121084602F05BFE0121042081
:1038F00002F057FE0121082002F053FE01211020A2
:1039000002F04FFE0121880302F07BFE48F22817E7
:10391000029701258DF80C5000248DF80E408DF88B
:103920000F5002268DF80D60DFF8A88202A94046EC
:1039300002F06CFC3946404602F0D0FCEF020297E0
:103940008DF80C508DF80E408DF80F508DF80D60ED
:10395000DFF8848202A9404602F058FC394640460E
:1039600002F0BCFCFB2002908DF80C508DF80E404C
:103970008DF80F508DF80D60984E02A9304602F078
:1039800045FCFB21304602F0A9FC4FF47050029038
:103990008DF80C408DF80F4002A9914802F036FCDA
:1039A000032002908DF80C408DF80F4002A940468C
:1039B00002F02CFC43F6034000908DF804401020E8
:1039C0008DF8050001200BF0EAFC8DF806506846E2
:1039D00002F0E2F8BDE8FF81F0B58BB001210220D2
:1039E00002F0DFFD1020099002268DF828600320E8
:1039F0008DF8290000248DF82A4001258DF82B50E0
:103A0000784F09A9384602F001FC02220421384609
:103A100002F074FC0121022002F0E7FD06A803F089
:103A200085FC714844F620610068B0FBF1F0401E4F
:103A3000ADF81800ADF81A4040F234500790ADF8D8
:103A400020406A4F06A9384603F040FC0121384661
:103A500003F09EFC6021ADF80410ADF8065003940D
:103A6000ADF8106001A9384603F0BAFC08213846C9
:103A700003F006FE0121384603F0A6FC1D208DF858
:103A800000008DF801408DF802408DF80350684623
:103A900003F065F90BB0F0BD30B585B0012104200D
:103AA00002F07FFD0121082002F07BFD0121880347
:103AB00002F0A7FD00248DF810408DF812404FF45D
:103AC000705003908DF8134003258DF8115003A911
:103AD000434802F09BFB8DF810408DF8124003958F
:103AE0008DF813408DF8115003A93B4802F08EFB6E
:103AF0000A21022002F02BFF0B21022002F027FFF7
:103B00000C21022002F023FF0D21022002F01FFFF2
:103B10000021032002F01BFF0121032002F017FF08
:103B200001258DF80A508DF8084010208DF8090005
:103B30008001019001A802F02FF8E802019001A88D
:103B400002F02AF82803019001A802F025F8680382
:103B5000019001A802F020F8019501A802F01CF8DC
:103B60000220019001A802F017F88DF801408DF8AD
:103B700002408DF8035028208DF80000684603F0BD
:103B8000EEF806208DF80000684603F0E8F80720FC
:103B90008DF80000684603F0E2F805B030BD08B5C6
:103BA000012240F22551124803F07AF825208DF8C1
:103BB000000000208DF801008DF8020001208DF832
:103BC0000300684603F0CBF808BD0000B0BC010854
:103BD0006000002000000240000C02400010024083
:103BE00000080240000402402400002000040040BD
:103BF0000010014010B5804A1823904205D27F4A38
:103C00007F4C2044B0FBF3F006E07B4A083A7A4C44
:103C100064422044B0FBF3F0042801D3121D001FBE
:103C2000784B01F03D01185C8140116010BD3D21D1
:103C3000E0E771491822884206D270490839704B72
:103C40001844B0FBF2F006E06B4910396A4B5B4256
:103C50001844B0FBF2F0042801D3091D001F0968C5
:103C6000684A105CC14001F03D00704738B5044619
:103C70003D212046FFF7BEFF624A5F4B1820121D10
:103C800001219C4209D25E4B2344B3FBF0F08DF836
:103C90000110125C8DF800200AE0574B5B42234470
:103CA000B3FBF0F08DF801100244127A8DF8002079
:103CB0008DF803108DF80200684603F050F8206874
:103CC00040F01E002060606940F08000606138BDF7
:103CD00010B504463D212046FFF78CFF4949464A6E
:103CE0001820091D944205D2454A2244B2FBF0F047
:103CF000085605E0404A52422244B2FBF0F0085612
:103D0000012100F01F0291404009800000F1E020F5
:103D1000C0F88011206820F01E002060606900F06B
:103D20008000606110BD70477047704770477047F2
:103D300070B505463D212846FFF77BFF84B23D2143
:103D40002846FFF757FFA00605D52868C00602D50C
:103D50002846FFF7E8FFE00605D52868000702D5EA
:103D60002846FFF7E1FF200705D52868400702D560
:103D70002846FFF7DAFF600705D52868800702D5D7
:103D80002846FFF7D3FFE00705D06869000602D593
:103D90002846FFF7CCFF70BD18480830C8E7174821
:103DA0002030C5E715483830C2E714485030BFE727
:103DB00012486830BCE711488030B9E70F489830A6
:103DC000B6E70E48B030B3E70B48B1E70A48183001
:103DD000AEE709483030ABE707484830A8E7064867
:103DE0006030A5E704487830A2E7034890309FE7A9
:103DF0000148A8309CE700001064024008600240BF
:103E0000F09FFDBFD0BC01080146F64A914200D1A7
:103E10000020F54A914200D10120F44A914200D19C
:103E20000220F34A914200D10420F24A914200D18B
:103E30000520F14A914200D10620704770477CB5B9
:103E4000044608260325002C07D1CDE9005601239E
:103E50000022C021E94800F07CFC012C08D1CDE90A
:103E60000056012300224FF48441E54800F071FC24
:103E7000032C03D10821E048FFF7E0FF7CBD7CB5AF
:103E80000446002C11D108250326CDE90065012345
:103E900000221903D94800F05CFCCDE9006501233C
:103EA00000220421D74800F054FC032C03D1082140
:103EB000D048FFF7C3FF7CBD7CB504460826032528
:103EC000002C07D1CDE90056012300220321CE4862
:103ED00000F03FFC012C08D1CDE90056012300225F
:103EE0004FF44061C54800F034FC032C03D1082195
:103EF000BF48FFF7A3FF7CBD2DE9FC410446072620
:103F000003254FF44067002C07D1CDE9005601236B
:103F100000223946BD4800F01CFC012C07D1CDE938
:103F20000056012300223946B44800F012FC022C4E
:103F300008D1CDE90056012300224FF44071B14869
:103F400000F007FC032C03D10721A848FFF776FFF8
:103F5000BDE8FC817CB5044607260325002C07D16B
:103F6000CDE90056012300220C21A74800F0F1FB07
:103F7000012C07D1CDE90056012300226021A14880
:103F800000F0E7FB032C03D107219748FFF756FF0A
:103F90007CBD7CB5044607260325002C07D1CDE95E
:103FA0000056012300226902974800F0D2FB012C41
:103FB00007D1CDE9005601230022C021934800F02B
:103FC000C8FB032C03D107218648FFF737FF7CBDD0
:103FD0000146844A914200D18D48834A914201D1E1
:103FE0008B481030814A914201D189482030804A63
:103FF000914201D1864830307E4A914201D18448B5
:1040000040307D4A914201D18148503070472DE9BE
:10401000FF4F87B00446DDE9159ADDF8508016465B
:104020001F462046FFF7D4FF054603966D48DFF88C
:10403000E4B184420BD1DBF8000040F01000CBF873
:1040400000000898FFF7A5FF25208DF80800714EA5
:104050006548361F844209D1306840F40030306032
:104060000898FFF777FF26208DF808005F48844204
:1040700009D1306840F4802030600898FFF73CFF99
:1040800027208DF808005A48844209D1306840F44E
:10409000002030600898FFF70FFF34208DF80800EB
:1040A0005448844209D1306840F480103060089848
:1040B000FFF7E5FE35208DF808004F4884420BD10C
:1040C000DBF8000040F02000CBF800000898FFF774
:1040D000B6FE47208DF80800204602F061FC01265C
:1040E0008DF80B6006208DF809002046FFF78CFE46
:1040F0008DF80A0002A802F032FEADF81870ADF893
:104100001680ADF81490ADF812A01798ADF8100015
:104110000020287340F6FF7001900198411E019124
:10412000FBD203A9204602F08FFCA08940F02000BA
:10413000A0812E73A08940F40050A0810BB0BDE88F
:10414000F08F2DE9FF4104460F4690462548002593
:104150000C26844208D1CDE9006502950023424631
:1041600039460395FFF753FF1F48844208D1CDE934
:10417000006502950023424639460395FFF747FF45
:104180001A48844208D1CDE90065029500234246D1
:1041900039460395FFF73BFF1548844208D1CDE926
:1041A000006502950023424639460395FFF72FFF2D
:1041B0001048844208D1CDE90065029500234246AB
:1041C00039460395FFF723FF0B48844208D1CDE918
:1041D000006502950023424639460395FFF717FF15
:1041E000BDE8FF810010014000440040004800404D
:1041F000004C004000500040001401400008024004
:1042000000180240000C024000000240000402407E
:1042100080000020443802402DE9FF4704460F4645
:1042200090469946A94800250C26844208D1CDE93C
:10423000006502954B46424639460395FFF7E7FE77
:10424000A348844208D1CDE9006502954B46424619
:1042500039460395FFF7DBFE9E48844208D1CDE93D
:10426000006502954B46424639460395FFF7CFFE5F
:104270009948844208D1CDE9006502954B464246F3
:1042800039460395FFF7C3FE9448844208D1CDE92F
:10429000006502954B46424639460395FFF7B7FE47
:1042A0008F48844208D1CDE9006502954B464246CD
:1042B00039460395FFF7ABFEBDE8FF8710B5002335
:1042C000FFF786FEC18819B902894489A2420DD040
:1042D000428983889A4201D100224281036842893F
:1042E0009B56521C428109B1491EC180D8B210BDF3
:1042F00010B50C46FFF76CFEC38842890DE081883B
:10430000914200D100220168895CA14201D10120C3
:1043100010BD521C92B25B1E9BB2002BEFD100204D
:1043200010BD2DE9F04180460F4616460024404658
:10433000FFF74EFE0546E88840B1697B4046FFF72F
:10434000D7FF30B9E888A988884202D00020BDE8AC
:10435000F081761E08E04046FFF7B0FF3855697BD4
:10436000884203D0641CA4B2B442F4DB0021641C74
:10437000A0B23954EBE700B5FFF72AFEC18829B98E
:1043800001894089814201D1012000BD002000BD8A
:1043900000B5FFF71DFEC1888088814201D1012050
:1043A00000BD002000BD00B5FFF712FE0021C18056
:1043B0000181418100BD00B50B46FFF709FE437343
:1043C00000BD10B503460C461846FFF701FE007B02
:1043D00000280BD007E019880906FCD59880641CDA
:1043E00018880006FCD520780028F4D110BD70B5DF
:1043F00004460D4616462046FFF7EAFD007B0028DE
:104400000DD0002309E020880006FCD5E85CA080E0
:1044100020880006FCD55B1C9BB2B342F3D370BD71
:10442000C388828893420DD20389934201D100222E
:10443000028103890268D1540189491C0181C18824
:10444000491CC180704721480188890603D58088AE
:10445000C1B22448E4E770471D480088800606D5AD
:104460001B48001D0088C1B21E481030D8E77047B5
:1044700018480088800606D51648001D0088C1B27D
:1044800018482030CCE7704713480088800606D5CE
:104490001148001D0088C1B212483030C0E7704793
:1044A0000E480188890604D58088C1B20D48403085
:1044B000B6E770470A480088800606D50848001D00
:1044C0000088C1B207485030AAE770470010014089
:1044D0000044004000480040004C004000500040B4
:1044E00000140140800000200146584A914200D14A
:1044F0005748584A914201D155480830564A91428E
:1045000001D153481030554A914201D150481830DA
:10451000534A914201D14E482030524A914201D132
:104520004B482830704710B5FFF7DEFF4E4B42680E
:104530004E499A4204D30A6842F480020A6003E0BA
:104540000A6842F400120A604068FFF770FB4848AE
:104550004021C160002141614FF480628261C161EC
:10456000016241628162C16203220263416381632D
:1045700010BD70B506460C4615463046FFF7B4FF31
:10458000446005603046BDE87040CCE710B5FFF7E9
:10459000ABFF406810BD10B5FFF7A6FF4068BDE84F
:1045A000104002F035BC2DE9F04105460F46164695
:1045B0002846FFF799FF04466068406810B1002064
:1045C000BDE8F0812A48216801600661291D41602B
:1045D00087606068FFF72BFB2549606802F0A3FC49
:1045E0006068016841F001010160A88A40F0800024
:1045F000A8820120E4E770B505460C4620460BF082
:104600009DFA82B221462846BDE87040CBE710B53E
:1046100004462046FFF768FF4068406808B1012063
:1046200010BD208840F3C010401C10BD10B5FFF72E
:104630005BFF4068BDE81040FFF718BB10B5FFF7FF
:1046400053FF4068BDE81040FFF742BB0010014037
:10465000E00000200044004000480040004C0040C2
:104660000050004000140140106402403038024005
:104670003C050020AC490844C0F38F2070472DE969
:10468000F04F0446DDE9099A88462046FFF7F2FF1D
:10469000C7B200204FF0030E0125854015EA080F30
:1046A00032D0A24E36F81710294326F81710D4F846
:1046B0000CC046000EFA06F12CEA010C09FA06FBC2
:1046C0004CEA0B0CC4F80CC0D4F800C002FA06FB8C
:1046D0002CEA010C4CEA0B0CC4F800C0012A01D0F2
:1046E000022A11D1D4F804C0ADB22CEA050C03FAA9
:1046F00000F5ADB24CEA050CC4F804C0A5688D43C2
:104700000AFA06F10D43A560401CC0B21028C3D3BD
:10471000BDE8F08F00B5FFF7ADFF0121814084486F
:1047200002681143016000BD2DE9FC410746DDE947
:1047300008650C469046002C09D03846FFF7EAFF82
:10474000CDE90065424621463846FFF798FFBDE8AF
:10475000FC812DE9FC4F0746DDE90BB80E46924679
:104760009946002E22D03846FFF7D4FF00230121BE
:104770000F2201FA03F030420DD0D80807EB800475
:10478000206A5D07ED0E02FA05FC20EA0C0008FA2B
:1047900005F5284320625B1C102BEAD3CDE9009B72
:1047A0005346022231463846FFF769FFBDE8FC8FC9
:1047B0002DE9F04105460F462846FFF75BFFC4B2DE
:1047C00000225A484FF0010C03210CFA02F33B423D
:1047D0000CD02E684FEA420801FA08F846EA0806AB
:1047E0002E6030F814609E4320F81460521CD2B240
:1047F000102AEAD3BDE8F081F0B500220125032696
:1048000005FA02F30B4205D00368570006FA07F4D5
:10481000A3430360521CD2B2102AF1D3F0BDF0B50D
:1048200000220127032507FA02F40C4209D006688A
:10483000530005FA03FC26EA0C0607FA03F42643A4
:104840000660521CD2B2102AEDD3F0BDF0B50022A2
:104850000125032605FA02F30B4205D00368570031
:1048600006FA07F423430360521CD2B2102AF1D394
:10487000F0BDF0B5002201270324022607FA02F357
:104880000B4209D00568530004FA03FC25EA0C0525
:1048900006FA03F31D430560521CD2B2102AEDD371
:1048A000F0BDF0B500230127032507FA03F40C42FD
:1048B00009D0C6685C0005FA04FC26EA0C0602FA78
:1048C00004F42643C6605B1CDBB2102BEDD3F0BDB5
:1048D00041F48032C261C161C261C169C06970477F
:1048E000002102E0491C89B240080128FAD8084694
:1048F000704700B5FFF7BEFE012181400C480268F9
:104900008A43026000BD00B5FFF7B4FE074931F8E5
:10491000100000BD00B5FFF7ADFE044931F81000EE
:10492000C04380B200BD00000000FEBF780500203B
:104930003038024070477CB5FFF7FCFF01210420AE
:1049400001F040FA042001F08FF94CF2037000905E
:1049500000208DF804008DF80700FB4D69462846BD
:1049600001F054FC00221146284601F0C7FC002249
:104970000121284601F0C2FC00220821284601F04E
:10498000BDFC00220921284601F0B8FC00220A21C2
:10499000284601F0B3FC00220E21284601F0AEFCAF
:1049A00000220F21284601F0A9FC4FF680700090EC
:1049B000E64C6946204601F029FC002207212046EA
:1049C00001F09CFC00220821204601F097FC002207
:1049D0000921204601F092FC00220A21204601F024
:1049E0008DFC00220B21204601F088FC00220C21C6
:1049F000204601F083FC00220D21204601F07EFCC0
:104A000000220E21204601F079FC00220F212046D1
:104A100001F074FC4FF23F010091CD4E69463046E3
:104A200001F0F4FB00221146304601F067FC002241
:104A30000121304601F062FC00220221304601F0E3
:104A40005DFC00220321304601F058FC00220421C5
:104A5000304601F053FC00220521304601F04EFCA7
:104A600000220C21304601F049FC00220D21304685
:104A700001F044FC00220E21304601F03FFC0022F0
:104A80000F21304601F03AFC3F210091B14E6946BA
:104A9000304601F0BBFB00221146304601F02EFCEF
:104AA00000220121304601F029FC0022022130467B
:104AB00001F024FC00220321304601F01FFC0022FB
:104AC0000421304601F01AFC00220521304601F095
:104AD00015FC4FF4605100916946284601F096FBA1
:104AE00000220B21284601F009FC00220C21284657
:104AF00001F004FC00220D21284601F0FFFB3021CB
:104B000000916946284601F081FB002204212846D5
:104B100001F0F4FB00220521284601F0EFFB2115EE
:104B200000916946304601F071FB00220C213046AD
:104B300001F0E4FB032100916946204601F066FB89
:104B400000221146204601F0D9FB00220121204617
:104B500001F0D4FB7CBD2DE9FC4101213A2001F09C
:104B600020FD4CF23370009002208DF804008DF887
:104B7000050000248DF806408DF80740724F694605
:104B8000384601F043FB0C220021384601F0B6FB09
:104B90000C220121384601F0B1FB0C2204213846D9
:104BA00001F0ACFB0C220521384601F0A7FB0C22DA
:104BB0000821384601F0A2FB0C220921384601F0F9
:104BC0009DFB0C220A21384601F098FB0C220E2195
:104BD000384601F093FB0C220F21384601F08EFB82
:104BE0004FF680700090594E6946304601F00EFB3A
:104BF0000C220721304601F081FB0C2208213046AF
:104C000001F07CFB0C220921304601F077FB0C22DD
:104C10000A21304601F072FB0C220B21304601F0D4
:104C20006DFB0C221146304601F068FB0C220D2171
:104C3000304601F063FB0C220E21304601F05EFB92
:104C40000C220F21304601F059FB082500956946DA
:104C5000304601F0DBFA0C220321304601F04EFB16
:104C6000802000906946384601F0D0FA0C220A21D3
:104C7000384601F043FB009501258DF804508DF86E
:104C800005408DF806408DF807406946384601F02A
:104C9000BDFA6E0300968DF804508DF805508DF81E
:104CA00006408DF807406946384601F0AFFA3146B4
:104CB000384601F013FBBDE8FC8100B597B0012137
:104CC000084601F086FC0120019000200290092195
:104CD00003910490059006900790089009900A901F
:104CE00010210B910C900D900E900F9010900902D6
:104CF000119112901390149001A81590169008A885
:104D000000F0CAFF0121002001F05CF817B000BDDF
:104D10001149486070471149088070474FF0C04200
:104D200010800E480180704701B581B042F21071C9
:104D300001984843009002E00098401E00900098BF
:104D40000028F9D10CBD0000000C02400010024008
:104D50000014024000180240100100200000106002
:104D600010B5FFF7F8FEFFF7A8FF0520FFF7DCFFFF
:104D7000FE4C0821204601F0B3FA0A20FFF7D4FFC9
:104D80000821204601F0AAFA01211020FFF7C6FFF2
:104D9000B2211E20FFF7C2FF06212820FFF7BEFF29
:104DA00001210020FFF7BAFF43F2EF010120FFF7D6
:104DB000B5FF4FF4C0610220FFF7B0FF00211020C3
:104DC000FFF7ACFF0520FFF7AFFF46F630011120DB
:104DD000FFF7A4FF40F699111220FFF79FFF4FF451
:104DE00060512620FFF79AFF33210720FFF796FF37
:104DF00005210C20FFF792FF00213020FFF78EFFE6
:104E000040F203313120FFF789FF40F207413220A1
:104E1000FFF784FF40F2013319463320FFF77EFF8E
:104E200019463420FFF77AFF40F203413520FFF79F
:104E300075FF40F207713620FFF770FF211537200C
:104E4000FFF76CFF4FF420613A20FFF767FFA114D2
:104E50003B20FFF763FF0A210D20FFF75FFF4FF4B0
:104E600038510E20FFF75AFF4FF46F414420FFF7EF
:104E700055FF00214520FFF751FF40F23F1146202A
:104E8000FFF74CFF00214E20FFF748FF00214F2085
:104E9000FFF744FF00212220FFF740FF00224FF4DC
:104EA00096330020FFF737FF521C9A42F9D3BDE832
:104EB0001040AF482CE700B50B4601464E20FFF7E7
:104EC0002DFF19464F205DF804EB27E74FF0C04156
:104ED0000880A848008870474FF0C0412220088011
:104EE0007047A4480088704700B500210846FFF7C6
:104EF000E2FFFFF7F1FF00209E494FF478424FF4A4
:104F0000C8430A80401C9842FBD34FF4FC624FF424
:104F1000484301E00A80401C9842FBD31F224FF413
:104F2000963301E00A80401C9842FBD300BD03B5D4
:104F3000BDF800108E4808380180BDF8041041808B
:104F400000E78B4A083A138803805088088070472E
:104F500001B5BDF8000086490839088008BD01B5D3
:104F6000BDF8000082490839488008BD7047804874
:104F70000838406870472DE9F041054688461646D6
:104F8000002429464046FFF796FF794F083F29E065
:104F9000FFF7A2FF00231AE00C21B0FBF1F1C900DA
:104FA00080228A4036F814101A410A4201D10C2896
:104FB00005D901229A40114205D10C2803D97888DD
:104FC000FFF7A9FE02E03888FFF7A5FE5B1C7868B2
:104FD00080889842E0D86D1CADB229464046FFF764
:104FE0006AFF641C7868C088A042D1D8BDE8F0810F
:104FF00010B4203AD3B25E4A083A52681468D28894
:105000005A4304EB420210BCB5E7F0B50746002452
:10501000574D4FF4A076083D202221463846FFF731
:10502000E7FF68688188081984B2B442F4D3F0BD00
:1050300030B50546002400210846FFF73CFFFFF786
:105040004BFF4C494FF496300D80641C8442FBD3D7
:1050500030BD2DE9F04380460D46164699460024A2
:1050600029464046FFF727FF414F083FB9F1000F9F
:1050700016D1FFF731FF03E03888FFF74CFE641CC0
:10508000B442F9D3BDE8F083FFF726FF3888FFF775
:1050900042FE6D1CADB229464046FFF70CFF641C72
:1050A000B442F1D3EEE7B0F5A07F08D2002906DBC9
:1050B000EF2904DC002389B280B20122C9E77047DE
:1050C0002DE9F04180460D460024294E4FF4A0778B
:1050D000083E0AE021464046FFF78AFF7068808854
:1050E000204484B2BC4281D26D1C2A78002AF1D1BE
:1050F0007CE770B504460D46164621464520FFF76D
:105100000DFEA219B2F5A07F05D340F23F11462053
:10511000FFF704FE03E091B24620FFF7FFFDEA1817
:10512000F02A02D34FF46F4200E01202224391B200
:105130004420FFF7F3FD29462046BDE87040BAE65B
:105140007047F0B504460F4615461E460123324609
:1051500039462046FFF77DFF6019401E80B20123CB
:1051600032463946FFF775FF002305E0000C024088
:1051700018010020000010602A4639462046FFF73B
:1051800068FFB81981B22A462046BDE8F0400023E6
:105190005FE72DE9FC4F804689460320A0EB4206DD
:1051A0000024154674E008EB040009EB050A0190A1
:1051B0001FFA8AF180B2FFF77EFEFFF78DFEFE4FE9
:1051C0003888FFF7A8FD0198A9EB050B1FFA8BF1B2
:1051D00080B2FFF770FEFFF77FFE3888FFF79BFD78
:1051E0001FFA8AF1A8EB040A1FFA8AF0FFF763FEA0
:1051F000FFF772FE3888FFF78EFD1FFA8BF11FFA5A
:105200008AF0FFF758FEFFF767FE3888FFF783FD47
:1052100009EB040081B208EB050A00901FFA8AF03E
:10522000FFF749FEFFF758FE3888FFF774FDA9EB3A
:10523000040B1FFA8BF11FFA8AF0FFF73CFEFFF711
:105240004BFE3888FFF767FD0098A8EB050A81B28E
:105250001FFA8AF0FFF72FFEFFF73EFE3888FFF7B0
:105260005AFD1FFA8BF11FFA8AF0FFF724FEFFF7B1
:1052700033FE3888FFF74FFD002E03DA06EB840675
:10528000B61D04E0601B06EB80060A366D1E641C2A
:10529000AC4288D9BDE8FC8FF0B50646002440F248
:1052A0003F110020FFF707FEFFF716FEC24D012356
:1052B0004FF41667002256F8241003FA02F0014258
:1052C00003D16888FFF727FD02E02888FFF723FD58
:1052D000521C202AEFD3641CBC42EBD3F0BD7047B4
:1052E0002DE9F0430746894690461C46B24E308869
:1052F000FFF72EFE0023424649463846FFF7A9FE37
:1053000009EB040081B2002342463846FFF7A1FEB4
:105310000123224649463846FFF79BFE07EB08006B
:10532000401E80B2012322464946FFF792FE641ECA
:10533000A5B209F101091FFA89F47088FFF708FE88
:1053400007E02146641CA4B2002342463846FFF71A
:1053500080FE6D1EADB2F4D23088BDE8F043F7E5B3
:105360002DE9F74F0746884602980321A1EB400636
:105370000024029D90484088FFF7EAFD4FF6FF7930
:1053800035E09DB109EA450208EB050A381B934652
:105390001FFA8AF180B20023FFF75BFE38195A46E4
:1053A0001FFA8AF180B20023FFF753FE9CB109EA8D
:1053B000440208EB040A781B93461FFA8AF180B274
:1053C0000023FFF746FE78195A461FFA8AF180B289
:1053D0000023FFF73EFE002E03DA06EB8406B61D1F
:1053E00004E0601B06EB80060A366D1E641CAC42AE
:1053F000C7D971480088FFF7ABFD029A03B0414658
:105400003846BDE8F04FC4E62DE9FC5F84460C4603
:105410000027A2EB0C00002801DCACEB020000B27C
:10542000191B002900DCE11A09B20FFA8CF526B22B
:105430004FF0FF3B624503D34FF00109CA4601E03C
:10544000D946DA46A34204D34FF0010B0122019260
:1054500001E0CDF804B088420ADB4FF000090022D9
:10546000019200EBD072521014B20091804623E0FA
:105470004FF0000AD34601EBD172521014B20090E3
:10548000884619E031462846FFF70DFE0098204473
:1054900004B2444508DBA4EB080004B205EB0900A4
:1054A00005B206EB0B0006B205EB0A0005B2019847
:1054B000304406B27F1C3FB24745E3DDBDE8FC9FA8
:1054C00070B504460D46022D0DD308E02088618892
:1054D000241D89B26388228880B2FFF795FF6D1E74
:1054E0002D042D0CF2D170BD2DE9F04704460F4676
:1054F0009146A046022F25D3B4F90050B4F90260BA
:1055000010E0241DB1B26088304483B22088284462
:1055100082B2A8B2FFF778FF2088284405B26088DD
:10552000304406B27F1E3F043F0CEAD1B9F1000FB0
:1055300008D0B3B2AAB2B8F80210B8F80000BDE8BB
:10554000F04761E7BDE8F08770B504460D4629468F
:105550002046FFF7B5FF04EB8500001F61884388F4
:1055600002882088BDE870404EE70022BCE7012297
:10557000BAE72DE9F34FE9B00446B4F800A0D346EA
:1055800065880195012013E004EB800149885145AD
:1055900000D28A46594500D98B4634F82020AA42C9
:1055A00000D2154601998A4200D90192401C80B26E
:1055B0006A998842E8D301E0100100205F484088E2
:1055C000FFF7C6FC0295AEE04FF000096A98401E56
:1055D0001FFA80F800254FE002980AF0F1FA06461B
:1055E000679168900F4634F925000AF0D8FA3246E0
:1055F0003B460AF0F3FA0AD234F92800679F689E06
:105600000AF0CDFA32463B460AF000FB15D934F9D0
:105610002800679F689E0AF0C2FA32463B460AF0AD
:10562000DDFA26D234F92500679F689E0AF0B7FAA2
:1056300032463B460AF0EAFA1BD804EB8800029B8C
:10564000B0F9021004EB8500B0F902000A1A34F92F
:1056500025105B1A5A4334F92830591A92FBF1F19C
:105660000144484603AA09F101091FFA89F922F801
:105670001010A8466D1CADB26A988542ACD30020CC
:10568000A9F1010503AF0FE0411C37F8102037F8EE
:1056900011309A4207D927F8103027F8112018B195
:1056A000401E80B200E088B2A842EDDB002534E065
:1056B00037F81500584532D26E1C37F81610514590
:1056C00029D9504501D227F815A037F816005845BA
:1056D00001D927F816B0DFF86480B8F80200FFF7A8
:1056E00037FC37F8161037F815000023081A82B275
:1056F0000298FFF7AEFCB8F80000FFF729FC02980B
:1057000037F9161000B20646FFF7CDFC37F9151031
:105710003046FFF7C8FCAD1CADB24D45C8D302986A
:10572000401C80B20290DDE901108842FFF44CAFCA
:10573000024800886BB0BDE8F04F09E4100100207A
:105740001CB50446FE48012150F8240000F029FF52
:10575000FB48203830F81400009001208DF8040038
:1057600000218DF806108DF8070002208DF8050045
:10577000F448694650F8240000F048FD1CBDF0498B
:10578000F04A203931F8101052F820000183704798
:10579000EB49EC4A203931F8101052F820004183CF
:1057A0007047E84951F820104A69E54B203B33F82F
:1057B000100042404A61704770B586B004460E46FC
:1057C000DF4801213C3850F8240000F0EAFE0121B6
:1057D000880300F016FF00258DF814508DF817503F
:1057E000D748403830F814000490D64804A91C3833
:1057F00050F8240000F00AFD012E25D1D04843388E
:10580000015D401E005D01F0A2F8CD483E3830F841
:10581000140002908DF80C5008208DF80D00012521
:105820008DF80E5002A800F0B7F9C5484238005D67
:105830008DF804000F208DF805008DF806008DF816
:10584000075001A801F08BFA06B070BDBC49BD4AF3
:1058500040391C3A31F8101052F8200000F02ABDEF
:105860002DE9FC4104460E46B548B54910380839C3
:1058700050F8240051F824100843012100F091FE53
:10588000AF480121183850F8240000F0BAFEAC48A7
:10589000AC4F2838103F10F81420083830F8141096
:1058A00057F8240000F02AFDA54807F1080824381D
:1058B00010F81420083830F8141058F8240000F0BC
:1058C0001DFD00208DF8060001208DF8070002253F
:1058D0008DF804509A48383830F8140000908DF84C
:1058E000055057F82400694600F090FC8DF80450EC
:1058F0009348343830F81400009058F82400694672
:1059000000F084FCA7F10805314655F8240001F0A9
:105910009BF855F82400012101F00FF9BDE8FC8146
:105920007CB5002000F04EFF002000F04EFF00F09C
:1059300021FF00214FF4006000F063FE824C002242
:105940000821204600F0DAFC00220921204600F060
:10595000D5FC00220A21204600F0D0FC00220B21B9
:10596000204600F0CBFC00220C21204600F0C6FCB3
:10597000764D00220221284600F0C0FC4FF47061F1
:10598000009100218DF804108DF80710694620461B
:1059900000F03CFC042100916946284600F036FCEA
:1059A000A11400916946204600F030FC7CBD2DE931
:1059B000FC4101210E2000F0F4FD634E0C22082171
:1059C000304600F09BFC0C220921304600F096FC8A
:1059D0000C220A21304600F091FC0C220B213046AB
:1059E00000F08CFC0C221146304600F087FC574F2B
:1059F0000C220221384600F081FC4FF470600090C8
:105A000001248DF8054002208DF8040000258DF852
:105A100006508DF807406946304600F0F7FB042138
:105A200000916946384600F0F1FB200300908DF8A4
:105A300007506946304600F0E9FBE00300908DF81E
:105A400004508DF807406946414800F0DFFB012112
:105A5000C80200F0D6FD0121880500F0A2FD5DE737
:105A600030B58FB004463B4D4FF0FA51284601F057
:105A700002FB0021284601F08FFA284601F0C8F900
:105A80004FF0006000903448019002944020039051
:105A9000002004900590291506918900079189003E
:105AA000089109904FF440300A9004200B90032095
:105AB0000C9048020D9080100E906946284601F027
:105AC00032FA01221021284601F0E6FA2021284668
:105AD00001F07AFA0121284601F05EFA0FB030BDDC
