:020000040800F2
:100000000802012041D80008610A0008630A0008BC
:10001000650A0008670A0008690A00080000000075
:100020000000000000000000000000009D0100082A
:100030006D0A000800000000CD010008710A0008E8
:100040005BD800085BD800085BD800085BD80008C4
:100050005BD800085BD80008AD0A0008D90A000880
:100060005BD800085BD800085BD80008391B000883
:100070003F1B0008451B00084B1B0008511B0008D4
:10008000571B00085D1B00085BD800085BD8000800
:100090005BD800085BD800085BD800085BD8000874
:1000A0005BD800085BD800085BD800085BD8000864
:1000B0005BD80008D30B00085BD800085BD80008A9
:1000C0005BD800085BD800085BD800085BD8000844
:1000D0005BD80008E7210008F92100081122000878
:1000E000050B00085BD800085BD800085BD8000847
:1000F0005BD800085BD800085BD80008631B0008C9
:100100005BD800085BD800085BD800085BD8000803
:1001100029220008412200085BD800085BD80008AB
:10012000691B00086D1B0008731B0008791B000881
:100130007F1B0008750A00085BD800085BD8000820
:100140005BD800085BD800085BD800085BD80008C3
:10015000851B00088B1B0008911B00085522000816
:100160005BD800085BD800085BD800085BD80008A3
:100170005BD800085BD800085BD800085BD8000893
:100180005BD800085BD80008DFF80CD00DF06AFEE1
:1001900000480047CF02000808020120194B1968E7
:1001A0000868B0E8F00F80F309884FF0000080F392
:1001B00011884EF00D0E70470000000002480068E4
:1001C000006880F3088800DF08ED00E0EFF30980A5
:1001D0000C4B1A6820E9F00F106008B54FF0BF0013
:1001E00080F311880DF02FF94FF0000080F3118893
:1001F000BDE8084019680868B0E8F00F80F3098886
:10020000704700BF2C02002001B44FF0BF0080F304
:10021000118801BC704701B44FF0000080F31188D1
:1002200001BC7047A2B0FE4F02AE2021384604F058
:1002300022FC0028F9D0384604F07FFB0A28F4D1CC
:100240008DF8080001240CE02021384604F013FC4E
:100250000028F9D0384604F070FB0D2807D030553F
:10026000641C301910F8010C0D28DED0ECE70D20CD
:100270003055EC4D601C286281B20022104607F018
:1002800022FEDFF8A483C8F80000406802A92A6AA9
:100290000DF0E8FAD8F80010288C4881E348009067
:1002A000E348E44A0388E448006807F0B0FAD8F865
:1002B000000007F0DFFD641CD3E7002003F041F9E4
:1002C000FA200CF03CFFF8E7002003F009B91FB555
:1002D000DA484FF4E131016000248480C480048155
:1002E00084810C214181FFF7EFFF01F09DF901F0BE
:1002F00042FAD249002001F031F9D049012001F041
:100300002DF9CE49022001F029F9C54801F0DBFFA3
:10031000CB4801F0D8FFCB4801F0D5FF00F076FEC6
:1003200000F00AFD01F027F8002101200CF03CFB51
:10033000BC4DE86020B100231A4619460CF0D3FBEF
:10034000002101200CF030FB286120B100231A4667
:1003500019460CF0C8FB002101200CF025FB686158
:1003600020B100231A4619460CF0BDFB00210120E4
:100370000CF01AFBA86120B100231A4619460CF0B4
:10038000B2FB002101200CF00FFBE86120B100233B
:100390001A4619460CF0A7FB0220CDE9000406021C
:1003A000029400233246A8A1AA4803940CF09EFDB3
:1003B0000125CDE90054002302948022A6A1AFF2CA
:1003C000051003940CF092FDCDE900540294002333
:1003D0003246A3A1AFF2B31003940CF087FD0CF0EA
:1003E0006CFFFEE72DE9F05F944E4FF0A6084FF04A
:1003F00010094FF0810A0024B03602274FF0860B17
:10040000884D0CF07DFF696A401AB0F55C6F3AD8F0
:1004100086F8008086F8019086F802A0C1B2F170DB
:10042000C0F307223271C0F307437371000EB0713D
:1004300095F800C0BCF11D0F1BD0F47134727472BA
:10044000B472F4723773747381311A4411440844DE
:10045000317A0844717A0844B17A0844801CB07338
:1004600086F80FB075491022B0316D4801F06BFF6E
:1004700039E0F4714FF0DF0C86F809C04FF0AB0C97
:1004800086F808C0DDE786F8008086F8019086F8D7
:1004900002A0C1B2F170C0F307223271C0F307436A
:1004A0007371000EB07195F800C0BCF11D0F27D01C
:1004B000F47134727472B472F4723773747381317C
:1004C0001A4411440844317A0844717A0844B17AD4
:1004D0000844801CB07386F80FB058491022B03120
:1004E0004F4801F030FF14200CF029FE00231A467B
:1004F000194668690CF0D0FB012882D1BDE8F09F55
:10050000F4714FF0010C86F809C04FF0C00C86F86A
:1005100008C0D1E72DE9FF41424D2878524E534C97
:10052000534F00287AD02878FF2877D028781D28C4
:1005300075D10021384604F04BFFF913304603F023
:100540009DFD0821204603F09BFD3321204603F04A
:1005500095FD00234FF0FF384246194668690CF0BC
:100560009BFB01285BD13549A620903108700D20F6
:100570004870AA20887001F11000C2780379407990
:100580001A4412FB00F3CB701C0A0C71180C487152
:100590001A0E8A710B26CE7100260E724E728E7262
:1005A000CE72AA332044184410440B3008738620BE
:1005B00048730D221A4801F0C6FE00234246194630
:1005C000E8680CF069FB01287DD10CF099FE6862A7
:1005D00005F10800CDE90106012100234A0200913E
:1005E000039624A1AFF203200CF080FC00213846D2
:1005F00004F0BAFD6421384604F0EAFE4FF4AF611E
:10060000384604F077FD01220221384605F001F951
:100610000A200CF094FD012138462FE03EE052E024
:100620000010014000000020480000205803002076
:100630005EEA0008440000204000002098020020EC
:10064000004400400048004044484350436C696502
:100650006E740000730D00084C4544340000000027
:100660005072696E74660000000002400010024083
:10067000000400404649454C4400000004F074FD6D
:1006800000234246194628690CF006FB68680028DA
:1006900019D004B0BDE8F0410CF090BC48F228112C
:1006A000304603F0EBFC4FF400617F4803F0E6FCBA
:1006B000FB21204603F0E2FC04B03846BDE8F041DF
:1006C000002104F085BEBDE8FF817FB51446002CF3
:1006D0007ED06289211D75480DF0C4F87348744DB1
:1006E000007828702878002871D02878FF286ED0EC
:1006F000287801286BD02878022868D02878032829
:1007000065D02878042862D0287805285FD028781A
:1007100006285CD02878072859D02878082856D091
:100720002878092853D028780A2850D028780B2810
:100730004DD028780C284AD028780D2847D0287822
:100740000E2844D028780F2841D0287810283ED091
:10075000287811283BD02878122838D028781328F8
:1007600035D02878142832D0287815282FD028782A
:1007700016282CD02878172829D02878182826D091
:100780002878192823D028781A2820D028781B28E0
:100790001DD028781D281AD028781F2817D028782F
:1007A000202814D02878212811D0287822280ED08B
:1007B000287823280BD02878242808D02878F028F7
:1007C00005D004B02046BDE8704007F053BB00E000
:1007D0001CE0A86808B10CF0F1FB686808B10CF0E7
:1007E000EDFB334A0020121DCDE9012001214A0210
:1007F0000091034603902FA1AFF2E7200CF076FBA7
:1008000004B02046BDE8704007F034BB7FBD70B532
:1008100004462C4DE1B2284604F08BF840212846CE
:1008200004F029F90028F9D0204670BD0FB410B5A6
:10083000C0B0044644AB4FF480716846439A0DF053
:10084000A3FB82B26946204601F07DFD40B010BC9A
:100850005DF814FB0FB430B5C1B045AB4FF48071F7
:1008600001A8449A0DF090FB05460022A9B210465B
:1008700007F029FB144C206040682A4601A90CF0BF
:10088000F1FF21684D81114800901148114A0388F9
:100890001148006806F0BBFF206807F0EBFA41B092
:1008A00030BC5DF814FB0000000C0240A8020020E0
:1008B0000000002050524F4345535320434F4D4DAD
:1008C000414E440000100140480000205803002021
:1008D0005EEA000844000020400000200CB5002221
:1008E000019200925549086840F4803008604FF446
:1008F000A043086800F4003000900198401C01906B
:10090000009810B901989842F3D10868800302D585
:100910000120009000E000920098012831D1474862
:100920004030026842F0805202604548026842F45A
:10093000404202604148083002680260026842F4A6
:1009400000420260026842F4A0520260021F3D4B66
:1009500013600A6842F080720A600A689201FCD54E
:10096000394A40F205611160016821F0030101601C
:10097000016841F0020101600168C1F381010229AF
:10098000FAD10CBD10B52D48016841F0010101609C
:100990002A4A00210832116002682C4B1A4002607A
:1009A000031D2B4A1A60026822F480220260234849
:1009B0000C300160FFF792FF26494FF0006008609D
:1009C00010BD70B51D4E0836306800F00C00224B8B
:1009D000224900280FD05D1004280ED008280ED020
:1009E0000B6030681D4AC0F30310121D105C0A68CA
:1009F000C2400A6070BD0B60F3E70D60F1E70F4A7B
:100A0000121D1068C0F38054106800F03F0034B12C
:100A1000B5FBF0F01368C3F38813584305E0B3FB4C
:100A2000F0F01368C3F3881358431268C2F301420D
:100A3000521C5200B0FBF2F00860D2E700380240CE
:100A40000070004008484006003C0240FFFFF6FEF0
:100A50001030002408ED00E00024F40028000020FD
:100A60007047FEE7FEE7FEE7FEE770477047704716
:100A70000CF056BE08B500200090402005F02EFC7A
:100A8000012806D1A34800236A46194600680CF0E5
:100A9000B9F8402005F040FC4FF4803005F03CFCF4
:100AA0000098002801D00CF024FE08BD10B50120EC
:100AB00002F093FF00280ED0012002F09CFF0121DC
:100AC000954803F0C7FAC1439448426922F02002D6
:100AD00042EA4111416110BD10B5022002F07DFFD4
:100AE00000280ED0022002F086FF02218A4803F07F
:100AF000B1FAC1438948426922F0080242EAC101C1
:100B0000416110BDF8B54FF48066304602F065FFD4
:100B1000834C844D68B1304602F06DFF3146284663
:100B200003F098FA6169C04321F0800141EAC010E6
:100B300060614FF40066304602F04FFF78B13046F6
:100B400002F059FF3146284603F084FAC243724846
:100B50001430016821F4006141EAC22101604FF4C0
:100B60008056304602F039FF70B1304602F043FF44
:100B70003146284603F06EFAC1436848426922F4C0
:100B8000807242EA012141614FF40056304602F082
:100B900024FF00281CD000200090304602F02BFFDC
:100BA0003146284603F056FA6169C04321F04001FE
:100BB00041EA801060613146284603F04BFA012873
:100BC00006D1594800236A46194600680CF01AF805
:100BD000F8BD38B5554D0221284604F030FE0028F6
:100BE0001AD00221284604F036FE514C226840F209
:100BF000E65140F242430E2A0ED2DFE802F0070E21
:100C00001720273039424B545D666E76284604F033
:100C100071FA2068401C206038BD4FF4C861284636
:100C200004F068FA2068401C206038BD40F2226160
:100C3000284604F05FFA2068401C206038BD284632
:100C400004F058FA2068401C206038BD40F2BE51C4
:100C5000284604F04FFA2068401C206038BD40F25E
:100C60006451284604F046FA2068401C206038BDD4
:100C700040F21451284604F03DFA2068401C2060E0
:100C800038BD40F2BA41284604F034FA2068401CCE
:100C9000206038BD4FF49161284604F02BFA20689B
:100CA000401C206038BD40F26A41284604F022FA18
:100CB0002068401C206038BD40F29241284604F074
:100CC00019FA2068401C206038BD1946284604F0F7
:100CD00011FA2068401C206038BD1946284604F0EF
:100CE00009FA2068401C206038BD40F23551284682
:100CF00004F000FA0021216000220221284604F0BD
:100D000088FD0C4800236A46194600680BF07AFFFC
:100D100038BD000020020020000C0240000002400C
:100D200000100240000802400C00002000040040B7
:100D30003C0000201000002000B587B000210846CC
:100D400006F030FC00200690059004903849394A9E
:100D5000CDE90121009004AB05AA06A9364807F0A9
:100D600009F8354807F029F8334807F061F807B06B
:100D700000BD0EB50024324E2F4FDFF8C080351F66
:100D800043F2390914B1012C4ED104E02A480AF08B
:100D900054FA012448E07868B8B1022426480AF0E1
:100DA00080F940460AF0CEFD306006F0E8FD28608C
:100DB0004A46244906F0FCFC00222349286806F034
:100DC000C7FD00200CF0FAF82EE0386AC07C052838
:100DD0002AD9032418480AF064F9184872300AF036
:100DE000B1FD02906FF0FF000AF0ACFD01901748D2
:100DF0000AF0A8FD00906B4601AA02A90E4806F071
:100E0000A9FF40460AF09EFD306006F0B8FD28605C
:100E10004A460C4906F0CCFC00220B49286806F033
:100E200097FD00200CF0CAF8FA200CF088F9A9E729
:100E300055740008BFC60008580300206101A8C00F
:100E400044000020ECAC0108CB0600080100A8C05B
:100E500000B5AFB001214FF0606003F072FA04F00A
:100E6000B7FD05F02EFA05F032FA0128FBD06846EE
:100E700004F0BAFD01200090002007904FF40071AB
:100E80000A910B900E9011901390149015904900B8
:100E900009912090C90321910A112392259026904F
:100EA00004202890299180032A9080012B904012E1
:100EB0002C9040002E900021684604F032FE6649D6
:100EC00008600121654805F014FA2FB000BD08B58F
:100ED0004FF4A06003F00EFE3D208DF800000220CC
:100EE0008DF8010000208DF8020001208DF803002C
:100EF000684603F004FE08BDFEB50121072003F09B
:100F000020FA0121880303F04CFA012003F002FCCF
:100F10008620009003208DF8050002248DF80440FF
:100F200000258DF806508DF807504D4E6946304625
:100F300003F03CF80B220121304603F0AFF80B22FE
:100F40000221304603F0AAF80B220721304603F0B5
:100F5000A5F84FF470500090424E6946304603F0B9
:100F600025F80B220A21304603F098F80B2211468F
:100F7000304603F093F80B220C21304603F08EF834
:100F80000B220D21304603F089F832200090364EB6
:100F90006946304603F00AF80B220121304603F07F
:100FA0007DF80B220421304603F078F80B2205214E
:100FB000304603F073F80420009001208DF80400FF
:100FC0008DF806508DF807008DF80540274E6946CC
:100FD000304602F0EBFF0421304603F051F8029551
:100FE00044F6206402E00299491C02910299A14250
:100FF000F9D30421304603F041F8029502E002984B
:10100000401C02900298A042F9D3FEBD10B5FFF734
:1010100073FFFFF75CFFFFF71BFF0F480068002816
:1010200019D14FF4784001F063FE01F070FEC088E2
:101030000FA100EB800080B201F012FF01F067FE0B
:10104000C0884FF6FF7100EB400001EA40000DA19F
:1010500001F006FFFEE710BD4C000020400001003B
:10106000000002400004024000080240001002405C
:1010700020202045746865726E657420496E69741D
:10108000202020002020202020206661696C6564DB
:1010900020202020202000000020344900EB4002C6
:1010A00001EBC202127D22B1401C0A28F6DB0020AF
:1010B000704700EB400001EBC00001220275704751
:1010C00000212A4A01EB410302EBC303834206D10C
:1010D00001EB410102EBC101002008757047491C7A
:1010E0000A29EFDB704770B50646FFF7D5FF0546C6
:1010F000280001D01E4C07E0002070BD304661681A
:101100000CF0F3FB38B12468002CF7D12846FFF728
:10111000D7FF002070BDA0682860E0686860E068C4
:10112000A8600020E860207C2874284670BDC7E7CE
:1011300070B505460B46D5E90110884202D14FF043
:10114000FF3070BD0C1A944200DD14462968224617
:10115000014418460CF086FBA8682044A86020468D
:1011600070BDD0E90110081A7047000090030020FC
:10117000C093010810B5ADF5047D04460020019030
:10118000029003904FF4007104A80CF084FB7F4898
:101190000268521C02607EA101A80CF0E1FE01A9C8
:1011A00004A80CF083FB7BA104A80CF07FFB86A1B4
:1011B00004A80CF07BFB04A80CF090FB04A90844E5
:1011C0000CF0EBF88EA104A80CF070FB9AA104A817
:1011D0000CF06CFBA7480CF081FB02460123A549EB
:1011E000204605F0FBFA04A80CF078FB0246012328
:1011F00004A9204605F0F2FA0DF5047D10BD7CB57A
:101200000646304605F05EFA0546280049D0307A99
:10121000002846D16A4601A9284606F03CF8BDF8E8
:10122000000005283DD3052293A101980CF078FB1E
:10123000002836D11B2292A101980CF071FB0028E6
:1012400036D01E2295A101980CF06AFB00283DD0F3
:101250001D229AA101980CF063FB002844D01822AB
:101260009EA101980CF05CFB00284BD01322A2A198
:1012700001980CF055FB002848D00622A3A1019844
:101280000CF04EFB002841D0A2A0FFF72CFF044633
:101290000023D4E90012304605F0A0FA2046FFF7FB
:1012A00046FF304605F0B5FA284605F08AFF7CBDBA
:1012B00074A0FFF718FF04460023D4E9001230465B
:1012C00005F08CFA2046FFF732FFEAE774A0FFF73B
:1012D0000AFF04460023D4E90012304605F07EFAE6
:1012E0002046FFF724FFDCE775A0FFF7FCFE04466D
:1012F0000023D4E90012304605F070FA2046FFF7CB
:1013000016FFCEE73046FFF735FFCAE77BA0FFF7B1
:10131000EAFE04460023D4E90012304605F05EFAE6
:101320002046FFF704FFBCE770B5002211461020ED
:1013300005F01AF90446CCB150220021204605F0F0
:1013400061F920B1BDE8704075A00CF0F9BDFF2136
:10135000204605F090F9204605F09EF905462846FE
:10136000FFF74DFF284605F020F9F4E7BDE870408F
:1013700071A00CF0E5BD08B5032000904FF4FA739E
:101380000022734973A00BF094FA08BD50000020AE
:10139000256400003C7072653E3C62723E4E616D99
:1013A0006520202020202020202020537461746597
:1013B00020205072696F72697479202053746163C0
:1013C0006B2020204E756D003C62723E2D2D2D2D20
:1013D0002D2D2D2D2D2D2D2D2D2D2D2D2D2D2D2D3D
:1013E0002D2D2D2D2D2D2D2D2D2D2D2D2D2D2D2D2D
:1013F0002D2D2D2D2D2D2D2D2D3C62723E0000000A
:101400003C62723E3C62723E2D2D2D2D2D2D2D2DD8
:101410002D2D2D2D2D2D2D2D2D2D2D2D2D2D2D2DFC
:101420002D2D2D2D2D2D2D2D2D2D2D2D2D2D2D2DEC
:101430002D2D2D2D2D0000003C62723E42203A20C1
:10144000426C6F636B65642C2052203A20526561B8
:1014500064792C2044203A2044656C657465642CC2
:101460002053203A2053757370656E6465643C6246
:10147000723E0000D4930108474554202F0000001D
:10148000474554202F53544D3332463478375F66E6
:10149000696C65732F53542E676966004745542065
:1014A0002F53544D3332463478375F66696C657319
:1014B0002F73746D33322E6A7067000047455420D5
:1014C0002F53544D3332463478375F66696C6573F9
:1014D0002F6C6F676F2E6A706700000047455420BD
:1014E0002F53544D3332463478375441534B532E97
:1014F00068746D6C00000000474554202F53544D14
:101500003332463478372E68746D6C00474554206A
:101510002F2000002F3430342E68746D6C000000D2
:1015200063616E206E6F742062696E64206E6574F4
:10153000636F6E6E0000000063616E206E6F74203A
:10154000637265617465206E6574636F6E6E000012
:101550002913000848545450000000002DE9FC41B4
:1015600004460E46FE49FE48103150F8240051F85A
:1015700024100843012102F0E4FEF9481038ECB3CE
:1015800050F82400012102F000FFF548F54F203803
:1015900010F81420103830F8141057F8240002F016
:1015A0007DFDEF4807F11008183810F814201038A6
:1015B00030F8141058F8240002F070FD00208DF867
:1015C000060001208DF8070002258DF80450E4483C
:1015D000403830F8140000908DF8055057F824007A
:1015E000694602F0E3FC8DF80450DD48383830F8E5
:1015F0001400009058F82400694600E00FE002F063
:10160000D5FCA7F11005314655F8240003F0ECF89D
:1016100055F82400012103F060F9BDE8FC81006861
:10162000012102F0BEFEB0E72DE9F04186B00121B4
:10163000084602F086FE0121042002F082FE01210C
:10164000082002F07EFE0121102002F07AFE48F20E
:101650002817049701258DF8145000248DF81640A2
:101660008DF8175002268DF81560DFF8FC8204A96A
:10167000404602F09BFC3946404602F0FFFCEF0278
:1016800004978DF814508DF816408DF817508DF88A
:101690001560DFF8D88204A9404602F087FC39467D
:1016A000404602F0EBFCFB2004908DF814508DF8BE
:1016B00016408DF817508DF81560AD4E04A93046D0
:1016C00002F074FCFB21304602F0D8FC4FF470505D
:1016D00004908DF814408DF8174004A9A54802F035
:1016E00065FC032004908DF814408DF8174004A980
:1016F000404602F05BFC0A21022002F0F8FF0B21B9
:10170000022002F0F4FF0C21022002F0F0FF0D2174
:10171000022002F0ECFF0021032002F0E8FF01218B
:10172000032002F0E4FF43F6034002908DF80C40E2
:1017300010208DF80D008DF80E5002A802F0FCF874
:101740008DF805408DF806408DF8075006208DF87D
:10175000040001A803F0D3F907208DF8040001A8C4
:1017600003F0CDF928208DF8040001A803F0C7F993
:1017700006B0BDE8F081F0B58BB00121022002F087
:10178000E0FD1020099002268DF8286003208DF8D6
:10179000290000248DF82A4001258DF82B50764F22
:1017A00009A9384602F002FC02220421384602F060
:1017B00075FC0121022002F0E8FD06A803F086FC7A
:1017C0006E4844F620610068B0FBF1F0401EADF8B1
:1017D0001800ADF81A4040F234500790ADF82040A0
:1017E000674F06A9384603F041FC0121384603F053
:1017F0009FFC6021ADF80410ADF806500394ADF8DD
:10180000106001A9384603F0BBFC0821384603F0FC
:1018100007FE0121384603F0A7FC1D208DF80000CB
:101820008DF801408DF802408DF80350684603F0B2
:1018300066F90BB0F0BD30B585B00121042002F08F
:1018400080FD0121082002F07CFD0121880302F0C7
:10185000A8FD00248DF810408DF812404FF4705010
:1018600003908DF8134003258DF8115003A94148CA
:1018700002F09CFB8DF810408DF8124003958DF816
:1018800013408DF8115003A9384802F08FFB0A214C
:10189000022002F02CFF0B21022002F028FF0C2175
:1018A000022002F024FF0D21022002F020FF00217F
:1018B000032002F01CFF0121032002F018FF012584
:1018C0008DF80A508DF8084010208DF8090080012D
:1018D000019001A802F030F8E802019001A802F09E
:1018E0002BF82803019001A802F026F86803019064
:1018F00001A802F021F8019501A802F01DF80220CC
:10190000019001A802F018F88DF801408DF802400E
:101910008DF8035028208DF80000684603F0EFF89A
:1019200006208DF80000684603F0E9F807208DF8DE
:101930000000684603F0E3F805B030BD08B50122A9
:1019400040F225510F4803F07BF825208DF8000068
:1019500000208DF801008DF80200012014E0000045
:10196000509A01086400002000000240000C024070
:10197000001002400008024000040240280000203D
:1019800000040040001001408DF80300684603F099
:10199000B6F808BD10B5804A1823904205D27F4A98
:1019A0007F4C2044B0FBF3F006E07B4A083A7A4CC7
:1019B00064422044B0FBF3F0042801D3121D001F41
:1019C000784B01F03D01185C8140116010BD3D2154
:1019D000E0E771491822884206D270490839704BF5
:1019E0001844B0FBF2F006E06B4910396A4B5B42D9
:1019F0001844B0FBF2F0042801D3091D001F096848
:101A0000684A105CC14001F03D00704738B504469B
:101A10003D212046FFF7BEFF624A5F4B1820121D92
:101A200001219C4209D25E4B2344B3FBF0F08DF8B8
:101A30000110125C8DF800200AE0574B5B422344F2
:101A4000B3FBF0F08DF801100244127A8DF80020FB
:101A50008DF803108DF80200684603F050F82068F6
:101A600040F01E002060606940F08000606138BD79
:101A700010B504463D212046FFF78CFF4949464AF0
:101A80001820091D944205D2454A2244B2FBF0F0C9
:101A9000085605E0404A52422244B2FBF0F0085694
:101AA000012100F01F0291404009800000F1E02078
:101AB000C0F88011206820F01E002060606900F0EE
:101AC0008000606110BD7047704770477047704775
:101AD00070B505463D212846FFF77BFF84B23D21C6
:101AE0002846FFF757FFA00605D52868C00602D58F
:101AF0002846FFF7E8FFE00605D52868000702D56D
:101B00002846FFF7E1FF200705D52868400702D5E2
:101B10002846FFF7DAFF600705D52868800702D559
:101B20002846FFF7D3FFE00705D06869000602D515
:101B30002846FFF7CCFF70BD18480830C8E71748A3
:101B40002030C5E715483830C2E714485030BFE7A9
:101B500012486830BCE711488030B9E70F48983028
:101B6000B6E70E48B030B3E70B48B1E70A48183083
:101B7000AEE709483030ABE707484830A8E70648E9
:101B80006030A5E704487830A2E7034890309FE72B
:101B90000148A8309CE70000106402400860024041
:101BA000F09FFDBF709A01080146F64A914200D1AC
:101BB0000020F54A914200D10120F44A914200D11F
:101BC0000220F34A914200D10420F24A914200D10E
:101BD0000520F14A914200D10620704770477CB53C
:101BE000044608260325002C07D1CDE90056012321
:101BF0000022C021E94800F07CFC012C08D1CDE98D
:101C00000056012300224FF48441E54800F071FCA6
:101C1000032C03D10821E048FFF7E0FF7CBD7CB531
:101C20000446002C11D108250326CDE900650123C7
:101C300000221903D94800F05CFCCDE900650123BE
:101C400000220421D74800F054FC032C03D10821C2
:101C5000D048FFF7C3FF7CBD7CB5044608260325AA
:101C6000002C07D1CDE90056012300220321CE48E4
:101C700000F03FFC012C08D1CDE9005601230022E1
:101C80004FF44061C54800F034FC032C03D1082117
:101C9000BF48FFF7A3FF7CBD2DE9FC4104460726A2
:101CA00003254FF44067002C07D1CDE900560123EE
:101CB00000223946BD4800F01CFC012C07D1CDE9BB
:101CC0000056012300223946B44800F012FC022CD1
:101CD00008D1CDE90056012300224FF44071B148EC
:101CE00000F007FC032C03D10721A848FFF776FF7B
:101CF000BDE8FC817CB5044607260325002C07D1EE
:101D0000CDE90056012300220C21A74800F0F1FB89
:101D1000012C07D1CDE90056012300226021A14802
:101D200000F0E7FB032C03D107219748FFF756FF8C
:101D30007CBD7CB5044607260325002C07D1CDE9E0
:101D40000056012300226902974800F0D2FB012CC3
:101D500007D1CDE9005601230022C021934800F0AD
:101D6000C8FB032C03D107218648FFF737FF7CBD52
:101D70000146844A914200D18D48834A914201D163
:101D80008B481030814A914201D189482030804AE5
:101D9000914201D1864830307E4A914201D1844837
:101DA00040307D4A914201D18148503070472DE941
:101DB000FF4F87B00446DDE9159ADDF850801646DE
:101DC0001F462046FFF7D4FF054603966D48DFF80F
:101DD000E4B184420BD1DBF8000040F01000CBF8F6
:101DE00000000898FFF7A5FF25208DF80800714E28
:101DF0006548361F844209D1306840F400303060B5
:101E00000898FFF777FF26208DF808005F48844286
:101E100009D1306840F4802030600898FFF73CFF1B
:101E200027208DF808005A48844209D1306840F4D0
:101E3000002030600898FFF70FFF34208DF808006D
:101E40005448844209D1306840F4801030600898CA
:101E5000FFF7E5FE35208DF808004F4884420BD18E
:101E6000DBF8000040F02000CBF800000898FFF7F6
:101E7000B6FE47208DF80800204602F061FC0126DE
:101E80008DF80B6006208DF809002046FFF78CFEC8
:101E90008DF80A0002A802F032FEADF81870ADF815
:101EA0001680ADF81490ADF812A01798ADF8100098
:101EB0000020287340F6FF7001900198411E0191A7
:101EC000FBD203A9204602F08FFCA08940F020003D
:101ED000A0812E73A08940F40050A0810BB0BDE812
:101EE000F08F2DE9FF4104460F4690462548002516
:101EF0000C26844208D1CDE90065029500234246B4
:101F000039460395FFF753FF1F48844208D1CDE9B6
:101F1000006502950023424639460395FFF747FFC7
:101F20001A48844208D1CDE9006502950023424653
:101F300039460395FFF73BFF1548844208D1CDE9A8
:101F4000006502950023424639460395FFF72FFFAF
:101F50001048844208D1CDE900650295002342462D
:101F600039460395FFF723FF0B48844208D1CDE99A
:101F7000006502950023424639460395FFF717FF97
:101F8000BDE8FF81001001400044004000480040CF
:101F9000004C004000500040001401400008024086
:101FA00000180240000C0240000002400004024001
:101FB00084000020443802402DE9FF4704460F46C4
:101FC00090469946A94800250C26844208D1CDE9BF
:101FD000006502954B46424639460395FFF7E7FEFA
:101FE000A348844208D1CDE9006502954B4642469C
:101FF00039460395FFF7DBFE9E48844208D1CDE9C0
:10200000006502954B46424639460395FFF7CFFEE1
:102010009948844208D1CDE9006502954B46424675
:1020200039460395FFF7C3FE9448844208D1CDE9B1
:10203000006502954B46424639460395FFF7B7FEC9
:102040008F48844208D1CDE9006502954B4642464F
:1020500039460395FFF7ABFEBDE8FF8710B50023B7
:10206000FFF786FEC18819B902894489A2420DD0C2
:10207000428983889A4201D10022428103684289C1
:102080009B56521C428109B1491EC180D8B210BD75
:1020900010B50C46FFF76CFEC38842890DE08188BD
:1020A000914200D100220168895CA14201D1012046
:1020B00010BD521C92B25B1E9BB2002BEFD10020D0
:1020C00010BD2DE9F04180460F46164600244046DB
:1020D000FFF74EFE0546E88840B1697B4046FFF7B2
:1020E000D7FF30B9E888A988884202D00020BDE82F
:1020F000F081761E08E04046FFF7B0FF3855697B57
:10210000884203D0641CA4B2B442F4DB0021641CF6
:10211000A0B23954EBE700B5FFF72AFEC18829B910
:1021200001894089814201D1012000BD002000BD0C
:1021300000B5FFF71DFEC1888088814201D10120D2
:1021400000BD002000BD00B5FFF712FE0021C180D8
:102150000181418100BD00B50B46FFF709FE4373C5
:1021600000BD10B503460C461846FFF701FE007B84
:1021700000280BD007E019880906FCD59880641C5C
:1021800018880006FCD520780028F4D110BD70B561
:1021900004460D4616462046FFF7EAFD007B002860
:1021A0000DD0002309E020880006FCD5E85CA08063
:1021B00020880006FCD55B1C9BB2B342F3D370BDF4
:1021C000C388828893420DD20389934201D10022B1
:1021D000028103890268D1540189491C0181C188A7
:1021E000491CC180704721480188890603D5808831
:1021F000C1B22448E4E770471D480088800606D530
:102200001B48001D0088C1B21E481030D8E7704737
:1022100018480088800606D51648001D0088C1B2FF
:1022200018482030CCE7704713480088800606D550
:102230001148001D0088C1B212483030C0E7704715
:102240000E480188890604D58088C1B20D48403007
:10225000B6E770470A480088800606D50848001D82
:102260000088C1B207485030AAE77047001001400B
:102270000044004000480040004C00400050004036
:1022800000140140840000200146584A914200D1C8
:102290005748584A914201D155480830564A914210
:1022A00001D153481030554A914201D1504818305D
:1022B000534A914201D14E482030524A914201D1B5
:1022C0004B482830704710B5FFF7DEFF4E4B426891
:1022D0004E499A4204D30A6842F480020A6003E03D
:1022E0000A6842F400120A604068FFF770FB484831
:1022F0004021C160002141614FF480628261C1616F
:10230000016241628162C1620322026341638163AF
:1023100010BD70B506460C4615463046FFF7B4FFB3
:10232000446005603046BDE87040CCE710B5FFF76B
:10233000ABFF406810BD10B5FFF7A6FF4068BDE8D1
:10234000104002F035BC2DE9F04105460F46164617
:102350002846FFF799FF04466068406810B10020E6
:10236000BDE8F0812A48216801600661291D4160AD
:1023700087606068FFF72BFB2549606802F0A3FCCB
:102380006068016841F001010160A88A40F08000A6
:10239000A8820120E4E770B505460C4620460BF004
:1023A0009DFA82B221462846BDE87040CBE710B5C1
:1023B00004462046FFF768FF4068406808B10120E6
:1023C00010BD208840F3C010401C10BD10B5FFF7B1
:1023D0005BFF4068BDE81040FFF718BB10B5FFF782
:1023E00053FF4068BDE81040FFF742BB00100140BA
:1023F000E40000200044004000480040004C004041
:102400000050004000140140106402403038024087
:1024100040050020AC490844C0F38F2070472DE9E7
:10242000F04F0446DDE9099A88462046FFF7F2FF9F
:10243000C7B200204FF0030E0125854015EA080FB2
:1024400032D0A24E36F81710294326F81710D4F8C8
:102450000CC046000EFA06F12CEA010C09FA06FB44
:102460004CEA0B0CC4F80CC0D4F800C002FA06FB0E
:102470002CEA010C4CEA0B0CC4F800C0012A01D074
:10248000022A11D1D4F804C0ADB22CEA050C03FA2B
:1024900000F5ADB24CEA050CC4F804C0A5688D4344
:1024A0000AFA06F10D43A560401CC0B21028C3D340
:1024B000BDE8F08F00B5FFF7ADFF012181408448F2
:1024C00002681143016000BD2DE9FC410746DDE9CA
:1024D00008650C469046002C09D03846FFF7EAFF05
:1024E000CDE90065424621463846FFF798FFBDE832
:1024F000FC812DE9FC4F0746DDE90BB80E469246FC
:102500009946002E22D03846FFF7D4FF0023012140
:102510000F2201FA03F030420DD0D80807EB8004F7
:10252000206A5D07ED0E02FA05FC20EA0C0008FAAD
:1025300005F5284320625B1C102BEAD3CDE9009BF4
:102540005346022231463846FFF769FFBDE8FC8F4B
:102550002DE9F04105460F462846FFF75BFFC4B260
:1025600000225A484FF0010C03210CFA02F33B42BF
:102570000CD02E684FEA420801FA08F846EA08062D
:102580002E6030F814609E4320F81460521CD2B2C2
:10259000102AEAD3BDE8F081F0B500220125032618
:1025A00005FA02F30B4205D00368570006FA07F458
:1025B000A3430360521CD2B2102AF1D3F0BDF0B590
:1025C00000220127032507FA02F40C4209D006680D
:1025D000530005FA03FC26EA0C0607FA03F4264327
:1025E0000660521CD2B2102AEDD3F0BDF0B5002225
:1025F0000125032605FA02F30B4205D003685700B4
:1026000006FA07F423430360521CD2B2102AF1D316
:10261000F0BDF0B5002201270324022607FA02F3D9
:102620000B4209D00568530004FA03FC25EA0C05A7
:1026300006FA03F31D430560521CD2B2102AEDD3F3
:10264000F0BDF0B500230127032507FA03F40C427F
:1026500009D0C6685C0005FA04FC26EA0C0602FAFA
:1026600004F42643C6605B1CDBB2102BEDD3F0BD37
:1026700041F48032C261C161C261C169C069704701
:10268000002102E0491C89B240080128FAD8084616
:10269000704700B5FFF7BEFE012181400C4802687B
:1026A0008A43026000BD00B5FFF7B4FE074931F868
:1026B000100000BD00B5FFF7ADFE044931F8100071
:1026C000C04380B200BD00000000FEBF7C050020BA
:1026D0003038024070477CB5FFF7FCFF0121042031
:1026E00001F040FA042001F08FF94CF203700090E1
:1026F00000208DF804008DF80700FB4D6946284640
:1027000001F054FC00221146284601F0C7FC0022CB
:102710000121284601F0C2FC00220821284601F0D0
:10272000BDFC00220921284601F0B8FC00220A2144
:10273000284601F0B3FC00220E21284601F0AEFC31
:1027400000220F21284601F0A9FC4FF6807000906E
:10275000E64C6946204601F029FC0022072120466C
:1027600001F09CFC00220821204601F097FC002289
:102770000921204601F092FC00220A21204601F0A6
:102780008DFC00220B21204601F088FC00220C2148
:10279000204601F083FC00220D21204601F07EFC42
:1027A00000220E21204601F079FC00220F21204654
:1027B00001F074FC4FF23F010091CD4E6946304666
:1027C00001F0F4FB00221146304601F067FC0022C4
:1027D0000121304601F062FC00220221304601F066
:1027E0005DFC00220321304601F058FC0022042148
:1027F000304601F053FC00220521304601F04EFC2A
:1028000000220C21304601F049FC00220D21304607
:1028100001F044FC00220E21304601F03FFC002272
:102820000F21304601F03AFC3F210091B14E69463C
:10283000304601F0BBFB00221146304601F02EFC71
:1028400000220121304601F029FC002202213046FD
:1028500001F024FC00220321304601F01FFC00227D
:102860000421304601F01AFC00220521304601F017
:1028700015FC4FF4605100916946284601F096FB23
:1028800000220B21284601F009FC00220C212846D9
:1028900001F004FC00220D21284601F0FFFB30214D
:1028A00000916946284601F081FB00220421284658
:1028B00001F0F4FB00220521284601F0EFFB211571
:1028C00000916946304601F071FB00220C21304630
:1028D00001F0E4FB032100916946204601F066FB0C
:1028E00000221146204601F0D9FB0022012120469A
:1028F00001F0D4FB7CBD2DE9FC4101213A2001F01F
:1029000020FD4CF23370009002208DF804008DF809
:10291000050000248DF806408DF80740724F694687
:10292000384601F043FB0C220021384601F0B6FB8B
:102930000C220121384601F0B1FB0C22042138465B
:1029400001F0ACFB0C220521384601F0A7FB0C225C
:102950000821384601F0A2FB0C220921384601F07B
:102960009DFB0C220A21384601F098FB0C220E2117
:10297000384601F093FB0C220F21384601F08EFB04
:102980004FF680700090594E6946304601F00EFBBC
:102990000C220721304601F081FB0C220821304631
:1029A00001F07CFB0C220921304601F077FB0C2260
:1029B0000A21304601F072FB0C220B21304601F057
:1029C0006DFB0C221146304601F068FB0C220D21F4
:1029D000304601F063FB0C220E21304601F05EFB15
:1029E0000C220F21304601F059FB0825009569465D
:1029F000304601F0DBFA0C220321304601F04EFB99
:102A0000802000906946384601F0D0FA0C220A2155
:102A1000384601F043FB009501258DF804508DF8F0
:102A200005408DF806408DF807406946384601F0AC
:102A3000BDFA6E0300968DF804508DF805508DF8A0
:102A400006408DF807406946384601F0AFFA314636
:102A5000384601F013FBBDE8FC8100B597B00121B9
:102A6000084601F086FC0120019000200290092117
:102A700003910490059006900790089009900A90A1
:102A800010210B910C900D900E900F901090090258
:102A9000119112901390149001A81590169008A807
:102AA00000F0CAFF0121002001F05CF817B000BD62
:102AB0001149486070471149088070474FF0C04283
:102AC00010800E480180704701B581B042F210714C
:102AD00001984843009002E00098401E0090009842
:102AE0000028F9D10CBD0000000C0240001002408B
:102AF0000014024000180240140100200000106081
:102B000010B5FFF7F8FEFFF7A8FF0520FFF7DCFF81
:102B1000FE4C0821204601F0B3FA0A20FFF7D4FF4B
:102B20000821204601F0AAFA01211020FFF7C6FF74
:102B3000B2211E20FFF7C2FF06212820FFF7BEFFAB
:102B400001210020FFF7BAFF43F2EF010120FFF758
:102B5000B5FF4FF4C0610220FFF7B0FF0021102045
:102B6000FFF7ACFF0520FFF7AFFF46F6300111205D
:102B7000FFF7A4FF40F699111220FFF79FFF4FF4D3
:102B800060512620FFF79AFF33210720FFF796FFB9
:102B900005210C20FFF792FF00213020FFF78EFF68
:102BA00040F203313120FFF789FF40F20741322024
:102BB000FFF784FF40F2013319463320FFF77EFF11
:102BC00019463420FFF77AFF40F203413520FFF722
:102BD00075FF40F207713620FFF770FF211537208F
:102BE000FFF76CFF4FF420613A20FFF767FFA11455
:102BF0003B20FFF763FF0A210D20FFF75FFF4FF433
:102C000038510E20FFF75AFF4FF46F414420FFF771
:102C100055FF00214520FFF751FF40F23F114620AC
:102C2000FFF74CFF00214E20FFF748FF00214F2007
:102C3000FFF744FF00212220FFF740FF00224FF45E
:102C400096330020FFF737FF521C9A42F9D3BDE8B4
:102C50001040AF482CE700B50B4601464E20FFF769
:102C60002DFF19464F205DF804EB27E74FF0C041D8
:102C70000880A848008870474FF0C0412220088093
:102C80007047A4480088704700B500210846FFF748
:102C9000E2FFFFF7F1FF00209E494FF478424FF426
:102CA000C8430A80401C9842FBD34FF4FC624FF4A7
:102CB000484301E00A80401C9842FBD31F224FF496
:102CC000963301E00A80401C9842FBD300BD03B557
:102CD000BDF800108E4808380180BDF8041041800E
:102CE00000E78B4A083A13880380508808807047B1
:102CF00001B5BDF8000086490839088008BD01B556
:102D0000BDF8000082490839488008BD70478048F6
:102D10000838406870472DE9F04105468846164658
:102D2000002429464046FFF796FF794F083F29E0E7
:102D3000FFF7A2FF00231AE00C21B0FBF1F1C9005C
:102D400080228A4036F814101A410A4201D10C2818
:102D500005D901229A40114205D10C2803D978885F
:102D6000FFF7A9FE02E03888FFF7A5FE5B1C786834
:102D700080889842E0D86D1CADB229464046FFF7E6
:102D80006AFF641C7868C088A042D1D8BDE8F08191
:102D900010B4203AD3B25E4A083A52681468D28816
:102DA0005A4304EB420210BCB5E7F0B507460024D5
:102DB000574D4FF4A076083D202221463846FFF7B4
:102DC000E7FF68688188081984B2B442F4D3F0BD83
:102DD00030B50546002400210846FFF73CFFFFF709
:102DE0004BFF4C494FF496300D80641C8442FBD35A
:102DF00030BD2DE9F04380460D4616469946002425
:102E000029464046FFF727FF414F083FB9F1000F21
:102E100016D1FFF731FF03E03888FFF74CFE641C42
:102E2000B442F9D3BDE8F083FFF726FF3888FFF7F7
:102E300042FE6D1CADB229464046FFF70CFF641CF4
:102E4000B442F1D3EEE7B0F5A07F08D2002906DB4B
:102E5000EF2904DC002389B280B20122C9E7704760
:102E60002DE9F04180460D460024294E4FF4A0770D
:102E7000083E0AE021464046FFF78AFF70688088D6
:102E8000204484B2BC4281D26D1C2A78002AF1D140
:102E90007CE770B504460D46164621464520FFF7EF
:102EA0000DFEA219B2F5A07F05D340F23F114620D6
:102EB000FFF704FE03E091B24620FFF7FFFDEA189A
:102EC000F02A02D34FF46F4200E01202224391B283
:102ED0004420FFF7F3FD29462046BDE87040BAE6DE
:102EE0007047F0B504460F4615461E46012332468C
:102EF00039462046FFF77DFF6019401E80B201234E
:102F000032463946FFF775FF002305E0000C02400A
:102F10001C010020000010602A4639462046FFF7B9
:102F200068FFB81981B22A462046BDE8F040002368
:102F30005FE72DE9FC4F804689460320A0EB42065F
:102F40000024154674E008EB040009EB050A019023
:102F50001FFA8AF180B2FFF77EFEFFF78DFEFE4F6B
:102F60003888FFF7A8FD0198A9EB050B1FFA8BF134
:102F700080B2FFF770FEFFF77FFE3888FFF79BFDFA
:102F80001FFA8AF1A8EB040A1FFA8AF0FFF763FE22
:102F9000FFF772FE3888FFF78EFD1FFA8BF11FFADC
:102FA0008AF0FFF758FEFFF767FE3888FFF783FDCA
:102FB00009EB040081B208EB050A00901FFA8AF0C1
:102FC000FFF749FEFFF758FE3888FFF774FDA9EBBD
:102FD000040B1FFA8BF11FFA8AF0FFF73CFEFFF794
:102FE0004BFE3888FFF767FD0098A8EB050A81B211
:102FF0001FFA8AF0FFF72FFEFFF73EFE3888FFF733
:103000005AFD1FFA8BF11FFA8AF0FFF724FEFFF733
:1030100033FE3888FFF74FFD002E03DA06EB8406F7
:10302000B61D04E0601B06EB80060A366D1E641CAC
:10303000AC4288D9BDE8FC8FF0B50646002440F2CA
:103040003F110020FFF707FEFFF716FEC24D0123D8
:103050004FF41667002256F8241003FA02F00142DA
:1030600003D16888FFF727FD02E02888FFF723FDDA
:10307000521C202AEFD3641CBC42EBD3F0BD704736
:103080002DE9F0430746894690461C46B24E3088EB
:10309000FFF72EFE0023424649463846FFF7A9FEB9
:1030A00009EB040081B2002342463846FFF7A1FE37
:1030B0000123224649463846FFF79BFE07EB0800EE
:1030C000401E80B2012322464946FFF792FE641E4D
:1030D000A5B209F101091FFA89F47088FFF708FE0B
:1030E00007E02146641CA4B2002342463846FFF79D
:1030F00080FE6D1EADB2F4D23088BDE8F043F7E536
:103100002DE9F74F0746884602980321A1EB4006B8
:103110000024029D90484088FFF7EAFD4FF6FF79B2
:1031200035E09DB109EA450208EB050A381B9346D4
:103130001FFA8AF180B20023FFF75BFE38195A4666
:103140001FFA8AF180B20023FFF753FE9CB109EA0F
:10315000440208EB040A781B93461FFA8AF180B2F6
:103160000023FFF746FE78195A461FFA8AF180B20B
:103170000023FFF73EFE002E03DA06EB8406B61DA1
:1031800004E0601B06EB80060A366D1E641CAC4230
:10319000C7D971480088FFF7ABFD029A03B04146DA
:1031A0003846BDE8F04FC4E62DE9FC5F84460C4686
:1031B0000027A2EB0C00002801DCACEB020000B2FF
:1031C000191B002900DCE11A09B20FFA8CF526B2AE
:1031D0004FF0FF3B624503D34FF00109CA4601E0BF
:1031E000D946DA46A34204D34FF0010B01220192E3
:1031F00001E0CDF804B088420ADB4FF0000900225C
:10320000019200EBD072521014B20091804623E07C
:103210004FF0000AD34601EBD172521014B2009065
:10322000884619E031462846FFF70DFE00982044F5
:1032300004B2444508DBA4EB080004B205EB090026
:1032400005B206EB0B0006B205EB0A0005B20198C9
:10325000304406B27F1C3FB24745E3DDBDE8FC9F2A
:1032600070B504460D46022D0DD308E02088618814
:10327000241D89B26388228880B2FFF795FF6D1EF6
:103280002D042D0CF2D170BD2DE9F04704460F46F8
:103290009146A046022F25D3B4F90050B4F902603C
:1032A00010E0241DB1B26088304483B220882844E5
:1032B00082B2A8B2FFF778FF2088284405B2608860
:1032C000304406B27F1E3F043F0CEAD1B9F1000F33
:1032D00008D0B3B2AAB2B8F80210B8F80000BDE83E
:1032E000F04761E7BDE8F08770B504460D46294612
:1032F0002046FFF7B5FF04EB8500001F6188438877
:1033000002882088BDE870404EE70022BCE7012219
:10331000BAE72DE9F34FE9B00446B4F800A0D3466C
:1033200065880195012013E004EB8001498851452F
:1033300000D28A46594500D98B4634F82020AA424B
:1033400000D2154601998A4200D90192401C80B2F0
:103350006A998842E8D301E0140100205F48408860
:10336000FFF7C6FC0295AEE04FF000096A98401ED8
:103370001FFA80F800254FE002980AF0F1FA06469D
:10338000679168900F4634F925000AF0D8FA324662
:103390003B460AF0F3FA0AD234F92800679F689E88
:1033A0000AF0CDFA32463B460AF000FB15D934F953
:1033B0002800679F689E0AF0C2FA32463B460AF030
:1033C000DDFA26D234F92500679F689E0AF0B7FA25
:1033D00032463B460AF0EAFA1BD804EB8800029B0F
:1033E000B0F9021004EB8500B0F902000A1A34F9B2
:1033F00025105B1A5A4334F92830591A92FBF1F11F
:103400000144484603AA09F101091FFA89F922F883
:103410001010A8466D1CADB26A988542ACD300204E
:10342000A9F1010503AF0FE0411C37F8102037F870
:1034300011309A4207D927F8103027F8112018B117
:10344000401E80B200E088B2A842EDDB002534E0E7
:1034500037F81500584532D26E1C37F81610514512
:1034600029D9504501D227F815A037F8160058453C
:1034700001D927F816B0DFF86480B8F80200FFF72A
:1034800037FC37F8161037F815000023081A82B2F7
:103490000298FFF7AEFCB8F80000FFF729FC02988D
:1034A00037F9161000B20646FFF7CDFC37F91510B4
:1034B0003046FFF7C8FCAD1CADB24D45C8D30298ED
:1034C000401C80B20290DDE901108842FFF44CAF4D
:1034D000024800886BB0BDE8F04F09E414010020F9
:1034E0001CB50446FE48012150F8240000F029FFD5
:1034F000FB48203830F81400009001208DF80400BB
:1035000000218DF806108DF8070002208DF80500C7
:10351000F448694650F8240000F048FD1CBDF0490D
:10352000F04A203931F8101052F82000018370471A
:10353000EB49EC4A203931F8101052F82000418351
:103540007047E84951F820104A69E54B203B33F8B1
:10355000100042404A61704770B586B004460E467E
:10356000DF4801213C3850F8240000F0EAFE012138
:10357000880300F016FF00258DF814508DF81750C1
:10358000D748403830F814000490D64804A91C38B5
:1035900050F8240000F00AFD012E25D1D048433810
:1035A000015D401E005D01F0A2F8CD483E3830F8C4
:1035B000140002908DF80C5008208DF80D000125A4
:1035C0008DF80E5002A800F0B7F9C5484238005DEA
:1035D0008DF804000F208DF805008DF806008DF899
:1035E000075001A801F08BFA06B070BDBC49BD4A76
:1035F00040391C3A31F8101052F8200000F02ABD72
:103600002DE9FC4104460E46B548B5491038083945
:1036100050F8240051F824100843012100F091FED5
:10362000AF480121183850F8240000F0BAFEAC4829
:10363000AC4F2838103F10F81420083830F8141018
:1036400057F8240000F02AFDA54807F1080824389F
:1036500010F81420083830F8141058F8240000F03E
:103660001DFD00208DF8060001208DF807000225C1
:103670008DF804509A48383830F8140000908DF8CE
:10368000055057F82400694600F090FC8DF804506E
:103690009348343830F81400009058F824006946F4
:1036A00000F084FCA7F10805314655F8240001F02C
:1036B0009BF855F82400012101F00FF9BDE8FC81C9
:1036C0007CB5002000F04EFF002000F04EFF00F01F
:1036D00021FF00214FF4006000F063FE824C0022C5
:1036E0000821204600F0DAFC00220921204600F0E3
:1036F000D5FC00220A21204600F0D0FC00220B213C
:10370000204600F0CBFC00220C21204600F0C6FC35
:10371000764D00220221284600F0C0FC4FF4706173
:10372000009100218DF804108DF80710694620469D
:1037300000F03CFC042100916946284600F036FC6C
:10374000A11400916946204600F030FC7CBD2DE9B3
:10375000FC4101210E2000F0F4FD634E0C220821F3
:10376000304600F09BFC0C220921304600F096FC0C
:103770000C220A21304600F091FC0C220B2130462D
:1037800000F08CFC0C221146304600F087FC574FAD
:103790000C220221384600F081FC4FF4706000904A
:1037A00001248DF8054002208DF8040000258DF8D5
:1037B00006508DF807406946304600F0F7FB0421BB
:1037C00000916946384600F0F1FB200300908DF827
:1037D00007506946304600F0E9FBE00300908DF8A1
:1037E00004508DF807406946414800F0DFFB012195
:1037F000C80200F0D6FD0121880500F0A2FD5DE7BA
:1038000030B58FB004463B4D4FF0FA51284601F0D9
:1038100002FB0021284601F08FFA284601F0C8F982
:103820004FF00060009034480190029440200390D3
:1038300000200490059029150691890007918900C0
:10384000089109904FF440300A9004200B90032017
:103850000C9048020D9080100E906946284601F0A9
:1038600032FA01221021284601F0E6FA20212846EA
:1038700001F07AFA0121284601F05EFA0FB030BD5E
:1038800030B58FB004461B4D4FF0FA51284601F079
:10389000C2FA0021284601F04FFA284601F088F9C3
:1038A0004FF00060009014480190029400200390B3
:1038B00004900590291506918900079189000891C7
:1038C00009904FF440300A9004200B9003200C9094
:1038D00048020D9080100E90694628460EE00000C8
:1038E00098AC01084001002000080240000C024092
:1038F0000004024058640240802C014001F0E3F9CA
:1039000001221021284601F097FA2021284601F0D3
:103910002BFA0121284601F00FFAAFE738490020C1
:103920000860091D0860091D0860091D0860344908
:10393000344814310860704730B5314A83790168E2
:10394000002B2AD013688B431360111D0B68046889
:10395000A3430B60017911440B68046823430B6097
:10396000274C08342168036899432160231D196896
:103970000568A94319604179102905D011440A68E6
:10398000006802430A6030BD21680268114321606B
:10399000196800680143196030BD0079104402685D
:1039A0008A43026030BD0021016001710C22427126
:1039B00081717047124910310A6802430A607047EA
:1039C000014600200E4A143212680A4200D001203B
:1039D00070470B4914310860704701460020084ABF
:1039E00012680A40064B14331B680B4202D0002AAF
:1039F00000D0012070470249143108607047000070
:103A0000003C0140FFFF7F008100A1F1C041002880
:103A10000CD043F2D2020A60401C8000A0F1C040EA
:103A20006FF070420260C1F8042170474FF02043EC
:103A300043F2DB021A60EFE710B5D0E9011211433F
:103A4000D0E903231A4311434269114382691143A8
:103A5000C2691143026A1143426A1143826A1143E7
:103A6000C26A1143026B114302689200A2F1C04284
:103A700011608168082907D101688900A1F1C0415E
:103A80000A6842F040020A60416BD1E9002342EA31
:103A900003128B688C891B0243EA04431A430B8A86
:103AA00042EA03520B7D896942EA03620A430168D4
:103AB000491C8900A1F1C0410A60C16AB1F5804F7B
:103AC00008D000686FF070418000A0F1C040C0F8DD
:103AD000041110BD816BD1E9002342EA03128B6807
:103AE0000C8A1B0243EA04531A430B7D896942EA9C
:103AF000036200680A438000A0F1C040C0F80421BE
:103B000010BD10B500210160022242608160C160D9
:103B1000016141618161C1610162D2024262520070
:103B20008262C1620163436B0F221A60436B5A6069
:103B3000446BFF23A360446BE260446B2261446BDF
:103B40006261446BA161846B2260846B6260846BF0
:103B5000A360836BDA60836B1A61836B5A61806B3D
:103B6000816110BD8000A0F1C040002904D001682F
:103B700041F00101016070470168CE4A11400160C7
:103B8000704710B5182440234FF020414FF0FC320D
:103B9000102805D041F8804F4B608A60CA6010BD84
:103BA0000C664B668A66CA6610BD30B5D0E9011254
:103BB0001143D0E903231A431143426941EA4221E8
:103BC000826941EA423141F00804C169D1E9002328
:103BD00042EA03220B89097B1B0443EA01610A4381
:103BE000016AD1E9003543EA05230D89097B2D04DB
:103BF00045EA01610B4301684FF02040102904D0D1
:103C000040F8804F8260C36030BD04668266C36640
:103C100030BD10210160002141608160C1600161FF
:103C200041618161C269FC211160C2695160C26950
:103C30009160C269D160026A1160026A5160026AD1
:103C40009160006AC16070474FF0204200290CD09B
:103C5000102805D052F8800F40F004001060704723
:103C6000106E40F00400106670479249C91E10287B
:103C700004D052F8800F084010607047106E084062
:103C8000106670474FF0204200290CD0102805D054
:103C900052F8800F40F0400010607047106E40F006
:103CA00040001066704783493F39102804D052F80D
:103CB000800F084010607047106E08401066704713
:103CC0004FF02041102802D0D1F894007047486F7F
:103CD0007047794818210160002141604FF0FC31A4
:103CE0008160C1600161704710B5D0E9001241EAFE
:103CF00042218268102343EA423211436E4A116026
:103D0000C168D1E9003443EA04230C89097B240407
:103D100044EA01610B4393600169D1E9003443EA4D
:103D200004230C89097B240444EA01610B43D3601A
:103D30004069D0E9001341EA03210389007B1B0499
:103D400043EA00600143116110BD00210160416040
:103D50008160C268FC211160C2685160C2689160D4
:103D6000C268D160026911600269516002699160A4
:103D70000269D16042691160426951604269916093
:103D80004069C16070474FF02041002805D051F8CC
:103D9000A00F40F004000860704751F8A00F454A9A
:103DA000D21E10400860704710B54FF480744FF079
:103DB0002043002A11D0102806D0A04208D153F881
:103DC000840F0843186010BD586E0843586610BD34
:103DD00053F8A40F0843186010BD102806D0A04265
:103DE00008D153F8840F8843186010BD586E88437B
:103DF000586610BD53F8A40F8843186010BD0346E1
:103E000000204FF02042102B08D0B3F5807F07D060
:103E1000D2F8A4200A4200D001207047526EF9E780
:103E2000D2F88420F6E74FF02042102807D0B0F5F2
:103E3000807F08D052F8A40F884310607047506EFE
:103E400088435066704752F8840F8843106070476B
:103E5000034600204FF02042102B0ED0B3F5807F98
:103E60000DD0D2F8A42002EA010302EAD101002B0E
:103E700002D0002900D001207047526EF3E7D2F83B
:103E80008420F0E74FF02042102808D0B0F5807F62
:103E90000AD052F8A40F20EAD10010607047506E8B
:103EA00020EAD1005066704752F8840F20EAD10012
:103EB00010607047FEFF0F00A00000A010B57F4902
:103EC000884209D10121084600F077FA0021BDE8B7
:103ED0001040012000F071BA7949884209D10121CE
:103EE000022000F06AFA0021BDE81040022000F034
:103EF00064BA7449884209D10121042000F05DFAB6
:103F00000021BDE81040042000F057BA6E498842F5
:103F100009D10121082000F050FA0021BDE810402D
:103F2000082000F04ABA6949884209D101211020CD
:103F300000F043FA0021BDE81040102000F03DBA27
:103F40006349884209D10121202000F036FA00217E
:103F5000BDE81040202000F030BA5E49884209D107
:103F60000121402000F029FA0021BDE81040402046
:103F700000F023BA5849884209D10121802000F07D
:103F80001CFA0021BDE81040802000F016BA534909
:103F900088420AD184150121204600F00EFA2046FD
:103FA000BDE81040002100F008BA10BD2DE9F04135
:103FB000002201274FF0030C07FA02F50B682B4093
:103FC000AB422CD1066853000CFA03F4A6430660FA
:103FD0000E79D0F800809E4046EA080606600E7909
:103FE000012E01D0022E12D18668A64386604E793A
:103FF000D0F808809E4046EA080686604668AE43D0
:10400000466045688E799640B6B235434560C568CE
:10401000A543C560CC799C40C3681C43C460521C56
:10402000102AC9D3BDE8F0814FF6FF71016000216D
:10403000017141718171C171704708B541F48032DD
:104040000092009AC261C1610099C161C169C069F1
:10405000009008BD0246002012690A4200D00120EB
:104060007047006980B270470246002052690A42D8
:1040700000D001207047406980B2704701837047CB
:1040800041837047002A01D0018370474183704704
:104090004161704742694A404261704710B54B0721
:1040A000DB0E9A40C90800EB8100016A0F249C4096
:1040B000A1430162016A1143016210BD0000024088
:1040C0000004024000080240000C024000100240C0
:1040D0000014024000180240001C02400020024070
:1040E000F848016841F001010160F64A00210832F8
:1040F00011600268F44B1A400260031DF34A1A6013
:10410000026822F480220260EE480C3001607047A1
:10411000EC490022891C0A70087070470246002092
:10412000510901290CD002290DD0E64974310968E2
:1041300002F01F02012393400B4200D00120704780
:10414000E0490968F4E7DF4970310968F0E718B51C
:10415000002000904FF4A0443120FFF7DFFF0099CA
:10416000491C00910099A14201D00028F4D03120CF
:10417000FFF7D4FF08B1012018BD002018BDD14AB7
:10418000116821F0F80141EAC00010607047D04981
:1041900008607047CB49002270310A700A7001280C
:1041A00004D0042801D10520087070470120087050
:1041B0007047C8490860704710B5029C41EA8211F7
:1041C0004FF0FF3202EB530241EA0241014341EA60
:1041D0000460BC49091D086010BDBD4908667047F0
:1041E000800140EA0170B749843108607047B849DE
:1041F00088667047B649C8647047B24B08331A687E
:1042000022F0EC620843104318607047AD4B08334E
:104210001A6822F078420843104318607047A94A90
:104220000832116821F00301014311607047A5486D
:104230000830006800F00C007047A24A083211688C
:1042400021F0F0010143116070479E4A0832116865
:1042500021F4E0510143116070479A4A0832116815
:1042600021F4604141EAC0001060704770B5954B81
:104270000833196801F00C01974C00291ED0661014
:1042800004291DD008291DD00460196801F0F0012F
:104290000909924A545C0168E14041601C6804F4D9
:1042A000E054A40A145D21FA04F484601B6803F44A
:1042B00060435B0BD25CD140C16070BD0460E4E739
:1042C0000660E2E77F4A121D1168C1F3805511684C
:1042D00001F03F0135B1B6FBF1F11468C4F3881465
:1042E000614305E0B4FBF1F11468C4F38814614341
:1042F0001268C2F30142521C5200B1FBF2F101609C
:10430000C3E7C0F30121032908D16E4B08331968B4
:1043100021F4F8127249014011431960694A703260
:104320001168C0F30B0001431160704769494439BB
:1043300008607047674940390860704769490860FC
:104340007047604A3032002903D011680143116080
:10435000704711688143116070475A4A343200290E
:1043600003D01168014311607047116881431160E7
:104370007047544A3832002903D011680143116054
:10438000704711688143116070474E4A40320029DE
:1043900003D01168014311607047116881431160B7
:1043A0007047484A4432002903D011680143116024
:1043B00070471168814311607047424A10320029EA
:1043C00003D0116801431160704711688143116087
:1043D00070473C4A1432002903D011680143116030
:1043E00070471168814311607047364A18320029BE
:1043F00003D0116801431160704711688143116057
:104400007047304A2032002903D0116801431160FF
:10441000704711688143116070472A4A243200298D
:1044200003D0116801431160704711688143116026
:104430007047244A5032002903D0116801431160AB
:10444000704711688143116070471E4A5432002939
:1044500003D01168014311607047116881431160F6
:104460007047184A5832002903D01168014311607F
:1044700070471168814311607047124A6032002909
:1044800003D01168014311607047116881431160C6
:1044900070470C4A6432002903D01168014311604F
:1044A00070471168814311607047064A0D32002938
:1044B00003D0117801431170704711788143117056
:1044C0007047000000380240FFFFF6FE1030002465
:1044D00000004742800E47420024F40050010020B3
:1044E000FFFCFF0F5C0147420948016841F0807101
:1044F0000160E5E701460020054A683A12680A4271
:10450000DED00120DCE7024966390870D8E70000F8
:104510007438024010B50121CC022046FFF77DFF20
:104520002046BDE810400021FFF777BF30B5644B4F
:10453000196847F6FF629143027D8468C56822438B
:1045400044682C43224304680069224302430A431F
:104550001A6030BD00210175016041608160C16059
:10456000016170475749086070475549091F086045
:1045700070475348001F006800F00300704710B5F3
:104580004F4A0168121D1160141D21686FF30A0162
:10459000D0E901231A43D0E9033003431A430A4305
:1045A000226010BD0021016041608160C160016135
:1045B000704743480C300068C0B2704708B54049A6
:1045C0001031084400900098006808BD10B53C4ABE
:1045D000016820321160121D41681160141D2168AC
:1045E00021F0F701D0E902231A43D0E90430034354
:1045F0001A430A43226010BD4FF0FF3101600021D1
:1046000041608160C1600161416170472C482C307C
:10461000006870472A487C300068704728497C3120
:104620000860704726484430006870472649086093
:1046300070472549091D0860704723490831086003
:10464000704721490C310860704720490860704765
:104650001E49091D08607047012181431B4808302D
:104660000160704719490C310860704716491439C8
:1046700008607047124A3832002903D0116801439C
:104680001160704711688143116070470146002036
:104690000B4A303212680A4200D0012070470849A4
:1046A00034310860704701460020054A30321268F4
:1046B0000A4200D001207047014934310860704738
:1046C000042C0140A0802542A0852542AC812542D2
:1046D00010B501218C032046FFF79FFE2046BDE860
:1046E00010400021FFF799BE11490860704710B5CE
:1046F0008A07120F0F23934021F003040D49214430
:1047000001F608010C689C430C600B689040034361
:104710000B6010BD08490860704708490860704781
:104720000020034920310968C90500D501207047E0
:104730000038014000300140DC00274200042742DD
:1047400010B5E649884209D101211020FFF765FE26
:104750000021BDE810401020FFF75FBEE04988420D
:104760000AD101214C042046FFF74BFE2046BDE84C
:1047700010400021FFF745BEDA4988420AD10121E5
:104780008C042046FFF73DFE2046BDE81040002186
:10479000FFF737BED44988420AD10121CC04204614
:1047A000FFF72FFE2046BDE810400021FFF729BE8D
:1047B000CE4988420AD101210C052046FFF721FE8F
:1047C0002046BDE810400021FFF71BBEC8498842C3
:1047D00009D101212020FFF720FE0021BDE8104073
:1047E0002020FFF71ABE10BD7FB504460D46208A73
:1047F00020F44051E88808432082A08941F20C61EE
:104800008843A9882A8911436A8902431143A181F7
:10481000A08A20F44071A8890843A0826846FFF767
:1048200025FDAE48844202D0B148844201D10398AC
:1048300000E00298A189090408D500EBC00101EB52
:10484000001029684900B0FBF1F007E000EBC0015F
:1048500001EB001029688900B0FBF1F06422B0FB85
:10486000F2F109010B096FF018056B4300EB8300AF
:10487000A3891D044FF0320307D503EBC000B0FB42
:10488000F2F000F00700084306E003EB0010B0FB75
:10489000F2F000F00F00084320817FBD4FF4165165
:1048A000016000218180C18001810C2242818181CF
:1048B000704710B5028A22F470630A884C8822433C
:1048C0008C88C9880C4322431A43028210BD002100
:1048D000018041808180C1807047002904D0818996
:1048E00041F4005181817047818921F40051818117
:1048F0007047028B02F47F420283028B0A430283D9
:104900007047002904D0818941F4004181817047BA
:104910008189C1F30E0181817047002904D0818A09
:1049200041F4006181827047818A21F400618182B3
:104930007047C1F30801818070478088C0F3080088
:104940007047028A22F00F020282028A0A43028220
:104950007047002904D0818941F0020181817047AC
:10496000818921F0020181817047828922F40062ED
:10497000828182890A4382817047028A22F0200262
:104980000282028A0A4302827047002904D0018A07
:1049900041F4804101827047018A21F48041018203
:1049A0007047818941F0010181817047002904D05D
:1049B000818A41F0080181827047818A21F00801D3
:1049C00081827047028BD2B20283028B42EA0121BC
:1049D00001837047002904D0818A41F0200181823F
:1049E0007047818A21F0200181827047002904D01C
:1049F000818A41F0100181827047818A21F0100183
:104A000081827047828A22F004028282828A0A436B
:104A100082827047002904D0818A41F0020181829C
:104A20007047818A21F0020181827047002A03D0F9
:104A3000828A0A4382827047828A8A4382827047CE
:104A400010B540F66A13C1F3421301F01F040121AF
:104A5000A140012B07D0022B07D014303AB10268D5
:104A60000A43026010BD0C30F8E71030F6E7026828
:104A70008A43026010BD0246002012880A4200D01C
:104A8000012070478A05C9430180704770B5002432
:104A900040F66A12C1F3421301F01F05012606FA1F
:104AA00005F2012B0CD0022B0DD0838A1340090A8A
:104AB0008E40008830400BB100B10124204670BD0B
:104AC00083891340F3E7038A1340F0E740F66A1244
:104AD0000A0A01219140C94301807047001001403A
:104AE0000044004000480040004C0040005000409E
:104AF000001401402B4908432B490860704730B52A
:104B00000F23C27801250178002A1FD0264A126897
:104B100002F4E062C2F5E062C2F30722C2F10404CB
:104B2000D3404278A24084781C401443220101F112
:104B3000E02181F80024007800F01F018D40400939
:104B4000800000F1E020C0F8005130BD01F01F00EE
:104B500085404809800000F1E020C0F8805130BD58
:104B6000124A114001431048001F016070470E4A6D
:104B7000121D002903D011680143116070471168AC
:104B80008143116070474FF0E021042804D0086988
:104B900020F0040008617047086940F004000861D3
:104BA000704700000000FA050CED00E080FFFF1FD9
:104BB0002DE9F043016821F001010160002101604D
:104BC00041608160C160016121214161C149C14AE7
:104BD00010394FF03D08904203D1C1F80880BDE87C
:104BE000F083BC4A4FF474651832904201D18D6055
:104BF000F5E7B84A4FF474163032904201D18E6016
:104C0000EDE7B44A4FF074674832904201D18F60AB
:104C1000E5E7B04BB04A6033984201D1CA60DEE7A5
:104C2000AC4CAE4B7834A04201D1CB60D7E7DFF873
:104C3000A4C2AB4C0CF1900C604501D1CC60CEE726
:104C4000DFF890924FF03D5C09F1A809484502D188
:104C5000C1F80CC0C3E7A349DFF88892083948457A
:104C600002D1C1F80080BAE7DFF8788208F11808AD
:104C7000404501D10D60B2E79A4D3035A84201D1CF
:104C80000E60ACE7974D4835A84201D10F60A6E70A
:104C9000944D94496035091FA84201D10A609EE7EE
:104CA000904A7832904201D10B6098E78D4A903259
:104CB000904201D10C6092E78A4AA83290428ED18C
:104CC000C1F800C08BE730B50368874A1340CC6851
:104CD0000A682243D1E905452C432243CC6922438B
:104CE0000C6A22434C6A22438C6A22434C6B224357
:104CF0008C6B22431A430260426922F00703D1E918
:104D00000B2422431A4342610A6942604A68826066
:104D10008968C16030BD0021016041608160C1606F
:104D2000016141618161C161016241628162C1626F
:104D30000163416381637047002904D0016841F039
:104D4000010101607047016821F0010101607047B5
:104D5000002904D0016841F40041016070470168F6
:104D600021F4004101607047002904D0016841F03E
:104D7000200101607047016821F020010160704747
:104D800041607047406880B27047002A04D00268D2
:104D900042F40022026003E0026822F40022026072
:104DA00001617047002904D0016841F4802101604D
:104DB0007047016821F4802101607047002A01D00A
:104DC00001617047C160704701460020096809030E
:104DD00000D501207047014600200968C90700D0AE
:104DE00001207047406900F03800704702460020FB
:104DF0003C4B9A4202D2374A103A01E0394A103A03
:104E00008B0001D5526800E01268384B1A400A4204
:104E100000D001207047334A904202D22D4810380A
:104E200001E030481038314A8B0001EA020101D517
:104E3000C1607047816070470B0609D522B1436994
:104E400043F08003436103E0436923F0800343613F
:104E5000802905D001F01E011AB102680A430260E0
:104E6000704702688A430260704730B500241D4ACB
:104E7000904202D2174A103A01E01A4A103A1C4BEB
:104E8000194205D01E2303EAD12503682B4002E016
:104E9000406900F08003880001D5506800E0106888
:104EA000124A1040084201D003B10124204630BD0F
:104EB0000C4A904202D20748103801E009481038E5
:104EC0000A4A8B0001EA020101D5C1607047816086
:104ED00070470000106002403D000020400F00209D
:104EE00000003D20106402403F801CF07D0F7D0FCC
:104EF0003C0F3C0F10B5F949884209D10121084601
:104F0000FFF78BFA0021BDE810400120FFF785BABA
:104F1000B0F1804F0CD0F249884213D10121022018
:104F2000FFF76FFA0021BDE810400220FFF769BAD1
:104F300001210846FFF765FA0021BDE81040012075
:104F4000FFF75FBAE749884209D101210420FFF742
:104F500058FA0021BDE810400420FFF752BAE24998
:104F6000884209D101210820FFF74BFA0021BDE852
:104F700010400820FFF745BADC49884209D10121D9
:104F80001020FFF73EFA0021BDE810401020FFF787
:104F900038BAD749884209D101212020FFF731FAD8
:104FA0000021BDE810402020FFF72BBAD1498842EC
:104FB00009D101210220FFF730FA0021BDE810409D
:104FC0000220FFF72ABACC4988420AD101210C04F9
:104FD0002046FFF722FA2046BDE810400021FFF7E7
:104FE0001CBAC64988420AD101214C042046FFF769
:104FF00014FA2046BDE810400021FFF70EBAC04960
:1050000088420AD101218C042046FFF706FA204687
:10501000BDE810400021FFF700BABA49884209D123
:1050200001214020FFF7EDF90021BDE810404020AC
:10503000FFF7E7B9B449884209D101218020FFF781
:10504000E0F90021BDE810408020FFF7DAB9AF4950
:1050500088420AD1841501212046FFF7D2F9204663
:10506000BDE810400021FFF7CCB910BD30B5028873
:105070009A4CA04DA0420DD0A8420BD0B0F1804F69
:1050800008D0974B984205D0964B984202D0964B49
:10509000984203D122F070034A881A43934B9842F6
:1050A00006D0934B984203D022F440730A891A43E6
:1050B00002804A68C2620A880285A04201D0A842E2
:1050C00001D1897A01860121818230BD4FF0FF3103
:1050D000416000210180018141808172704701851A
:1050E00082827047028822F070020A430280704771
:1050F00041627047C1627047406A7047008D7047D7
:10510000002904D0018841F0020101807047018824
:1051100021F0020101807047002904D0018841F08C
:10512000040101807047018821F00401018070476B
:10513000002904D0018841F0800101807047018876
:1051400021F0800101807047028822F0080202806D
:1051500002880A4302807047028822F4407202806B
:1051600002880A4302807047002904D0018841F078
:10517000010101807047018821F001010180704721
:1051800030B5028C22F001020284058C8388028BE8
:1051900022F0700222F003020C88144325F0020270
:1051A0008D8915434A882A434C4DA84202D0514D5F
:1051B000A8420FD122F00805CA892A4322F004052B
:1051C0008A882A4323F4807323F400730D8A1D43D5
:1051D0004B8A2B438380048389684163028430BDFA
:1051E00070B5028C22F010020284028C8388048B3A
:1051F00024F4E04424F440760D884FF6FF7404EA6A
:105200000525354322F020028E8904EA061616434E
:105210004A8804EA02123243304EB04202D0354E80
:10522000B04217D122F08002CE8904EA0616164356
:1052300026F040068A8804EA0212324323F480638F
:1052400023F400630E8A04EA86061E434B8A04EAAE
:10525000830333438380058389688163028470BD3F
:1052600070B5028C22F480720284028C8388848B55
:1052700024F0700424F003040D88254322F4007206
:105280008E894FF6FF7404EA062616434A8804EA1C
:1052900002223243114EB04202D0164EB04217D114
:1052A00022F40066CA8904EA0222324322F48066AC
:1052B0008A8804EA0222324323F4805323F4005301
:1052C0000E8A04EA06161E434B8A04EA031333438C
:1052D000838085838968C163028470BD00000140BA
:1052E0000004004000080040000C00400010004096
:1052F000001400400004014000400140004401400F
:105300000048014000180040001C00400020004000
:1053100070B5028C22F480520284058C8288838BC3
:1053200023F4E04323F440760C884FF6FF7303EA3E
:105330000424344325F400558E8903EA06362E43AF
:105340004D8803EA05353543FE4EB04202D0FE4E8D
:10535000B04205D122F480460A8A03EA821232431F
:1053600082808483896801640584B6E70021018016
:105370004180818081608181C18101824182704749
:1053800030B500F1180301248C40058CA543058439
:10539000002912D0082910D0091FC1F34E0018446B
:1053A000016848F6FF731940016001684FF6FF730A
:1053B00003EA02221143016030BD03EB5100016892
:1053C0004FF68F731940016001681143016030BDD1
:1053D0004163704781637047C163704701647047E0
:1053E000028B22F070020A4302837047028B22F480
:1053F000E0424FF6FF7303EA012111430183704736
:10540000828B22F070020A4382837047828B22F4DF
:10541000E0424FF6FF7303EA012111438183704795
:10542000028B22F008020A4302837047028B22F4A7
:1054300000624FF6FF7303EA0121114301837047B5
:10544000828B22F008020A4382837047828B22F407
:1054500000624FF6FF7303EA012111438183704715
:10546000028B22F004020A4302837047028B22F46B
:1054700080624FF6FF7303EA0121114301837047F5
:10548000828B22F004020A4382837047828B22F4CB
:1054900080624FF6FF7303EA012111438183704755
:1054A000028B22F080020A4302837047028BC2F310
:1054B0000E024FF6FF7303EA012111430183704787
:1054C000828B22F080020A4382837047828BC2F370
:1054D0000E024FF6FF7303EA0121114381837047E7
:1054E000028C22F002020A4302847047028C22F0EE
:1054F00008020A4302847047028C22F020024FF611
:10550000FF7303EA0111114301847047028C22F0FA
:1055100080024FF6FF7303EA0111114301847047C3
:10552000028C22F400724FF6FF7303EA012111434B
:1055300001847047028C22F400624FF6FF7303EA85
:105540000121114301847047028C22F400524FF66E
:10555000FF7303EA013111430184704710B5012341
:105560008B40048C9C430484038C8A401343038443
:1055700010BD10B504238B40048C9C430484038C21
:105580008A401343038410BD828B22F440628283DD
:10559000828B4FF6FF7303EA01210A43828370472F
:1055A00070B5048C24F480540484858B068C4FF6EB
:1055B000FF7404EA013125F4734504EA02222A4308
:1055C00004EA0333134326F420420A4342F4805191
:1055D0008383018481E6828B22F00C028283828B9A
:1055E0000A4382837047F0B5048C24F480740484E9
:1055F000868B058C4FF6FF7707EA012426F0F30629
:1056000007EA03111143314325F42062224342F497
:10561000807281830284F0BD028B22F44062028397
:10562000028B4FF6FF7303EA01210A43028370479E
:1056300070B5048C24F010040484058B068C4FF69E
:10564000FF7404EA011125F4734504EA03332B4384
:1056500004EA02221A4326F0A0030B4343F0100190
:105660000283018439E6028B22F00C020283028B52
:105670000A430283704770B5048C24F0010404844B
:10568000058B048C25F0F3054FF6FF7606EA03132D
:1056900013432B4324F00A020A4342F0010103831F
:1056A00001841AE670B506460C4625886188A288F2
:1056B0002389002D0BD0042D11D0082D17D0304692
:1056C000FFF76EFFE1883046BDE870405CE730468A
:1056D000FFF7D1FFE1883046BDE87040C3E73046B0
:1056E000FFF7A6FFE1883046BDE8704094E73046FA
:1056F000FFF779FFE1883046BDE870406BE7002195
:105700000180418001228280C180018170472DE9A2
:10571000F04107460C46002501266188002900D18A
:105720000225A288012A00D1022620882389B0B14F
:105730003846FFF77DFFE1883846FFF76DFF238984
:10574000324603E00000014000040140294638468B
:10575000FFF791FFE1883846BDE8F04183E738461E
:10576000FFF789FFE1883846FFF77DFF238932463E
:1057700029463846FFF75CFFE1883846BDE8F0412E
:105780004AE7406B7047806B7047C06B7047006C96
:10579000704710B50A884B88CC881A438B882343FE
:1057A0001A430B891A434B8989891A430A43A0F883
:1057B000442010BD0021018041808180C180018191
:1057C000418181817047002905D030F8441F41F4A0
:1057D00000410180704730F8441FC1F30E01018081
:1057E0007047002904D0818841F00401818070470E
:1057F000818821F0040181807047002904D08188CC
:1058000041F0010181807047818821F00101818090
:105810007047002A03D082890A43828170478289B7
:105820008A43828170478182704702460020128A33
:105830000A4200D001207047C943018270470246E6
:105840000020138A0B4092890A40002B02D0002AC4
:1058500000D001207047C943018270471143A0F86E
:1058600048107047002A03D082890A43828170471A
:1058700082898A4382817047002904D0818841F05F
:10588000080181807047818821F00801818070477C
:10589000018921F0070101817047028922F070021D
:1058A0000A430281704700B503461846FFF7F5FF2B
:1058B000188940F00700188100BD70B50D460446F8
:1058C0001146602D0CD001222046FFF7D4FE294658
:1058D0002046FFF7E2FF208940F007002081FCE42A
:1058E00001222046FFF7A4FEF1E730B50489E4B2B7
:1058F0004FF6FF7505EA032313430B43234303814C
:1059000030BD10B504462046FFF7EFFF208920F098
:10591000070040F0070020F0700040F07000208188
:1059200010BD10B504462046FFF7DFFF208940F484
:105930008040208110BD828822F07002828082889F
:105940000A4382807047028922F00702028102899D
:105950000A4302817047028922F080020281028993
:105960000A430281704770B50589048B068C25F0C7
:1059700007050D434FF6FC410C4040F201110C436A
:1059800026F022064FF6FF7101EA0311114331435D
:10599000058104830184A0E4002904D0818841F0BA
:1059A000800181807047818821F08001818070476B
:1059B000A0F850107047000001B581B00198009028
:1059C00002E00098401E009000980028F9D10CBD1C
:1059D00010B501214C062046FEF7EFFC2046BDE83D
:1059E00010400021FEF7E9BC012101600021416067
:1059F0008160C16001614FF4804242618161C16197
:105A0000D210026241628162C162016341638163BB
:105A1000C16340220264202242648164C164016542
:105A200041658165C1650166802242668166C16605
:105A3000016741678167C167D204C0F880205210B6
:105A4000C0F88420C0F888101311C0F88C30C0F85A
:105A50009010C0F89410C0F89810C0F89C10C0F8CE
:105A6000A010C0F8A4205212C0F8A8209201C0F8DB
:105A7000AC205212C0F8B020C0F8B410C0F8B81072
:105A8000704738B500230093FB4B1C6904F01C05DC
:105A90004FF6FF7404EAC0242C434FF4F86000EA88
:105AA0008110204340F0020040F001005A6118616B
:105AB000F2490098401C00901869C00702D0009875
:105AC0008842F6D30098884201D1002038BD0120D9
:105AD00038BD18B500220092E74A136903F01C0490
