:020000040800F2
:100000000002012089FA0008292D00082B2D000884
:100010002D2D00082F2D0008312D000800000000B4
:100020000000000000000000000000009D0100082A
:10003000352D000800000000CD010008392D000812
:10004000A3FA0008A3FA0008A3FA0008A3FA00081C
:10005000A3FA0008A3FA0008752D0008A12D0008D6
:10006000A3FA0008A3FA0008A3FA0008813D0008DB
:10007000873D00088D3D0008933D0008993D00082C
:100080009F3D0008A53D0008A3FA0008A3FA000858
:10009000A3FA0008A3FA0008A3FA0008A3FA0008CC
:1000A000A3FA0008A3FA0008A3FA0008A3FA0008BC
:1000B000A3FA00089B2E0008A3FA0008A3FA000880
:1000C000A3FA0008A3FA0008A3FA0008A3FA00089C
:1000D000A3FA00082F4400084144000859440008CE
:1000E000CD2D0008A3FA0008A3FA0008A3FA00081F
:1000F000A3FA0008A3FA0008A3FA0008AB3D000821
:10010000A3FA0008A3FA0008A3FA0008A3FA00085B
:100110007144000889440008A3FA0008A3FA000803
:10012000B13D0008B53D0008BB3D0008C13D0008D9
:10013000C73D00083D2D0008A3FA0008A3FA0008F7
:10014000A3FA0008A3FA0008A3FA0008A3FA00081B
:10015000CD3D0008D33D0008D93D00089D4400086E
:10016000A3FA0008A3FA0008A3FA0008A3FA0008FB
:10017000A3FA0008A3FA0008A3FA0008A3FA0008EB
:10018000A3FA0008A3FA0008DFF80CD00FF08EFFE6
:1001900000480047BF02000800020120194B1968FF
:1001A0000868B0E8F00F80F309884FF0000080F392
:1001B00011884EF00D0E70470000000002480068E4
:1001C000006880F3088800DF08ED00E0EFF30980A5
:1001D0000C4B1A6820E9F00F106008B54FF0BF0013
:1001E00080F311880FF053FA4FF0000080F311886C
:1001F000BDE8084019680868B0E8F00F80F3098886
:10020000704700BF2802002001B44FF0BF0080F308
:10021000118801BC704701B44FF0000080F31188D1
:1002200001BC704708B5FD4EFD4D2021304606F05B
:1002300046FD0028F9D0304606F0A3FCA628F4D1EC
:100240002870012409E02021304606F038FD0028FE
:10025000F9D0304606F095FC28550C2CF3DD287BB0
:100260008628E2D1A878552803D07128DDD1E87915
:10027000DBE7EC4800236A46194640690EF0E6FDCC
:10028000D3E7002005F081FAFA200FF07CF8F8E7B8
:100290000FB410B5C0B0044644AB4FF4807168464B
:1002A000439A0FF095FF82B26946204604F06FF939
:1002B00040B010BC5DF814FB002005F035BA1FB546
:1002C000D7484FF4E131A038016000248480C48015
:1002D000048184810C214181FFF7EEFF03F0C8FA0D
:1002E00003F06DFBCE490020A03903F05BFACC4946
:1002F0000120A03903F056FAC9490220A03903F0C1
:1003000051FAC64D284604F002F9C74804F0FFF838
:10031000C64804F0FCF8C6A12846FFF7B9FF02F072
:1003200099FF02F06DFE03F04AF9002101200EF062
:100330005FFCBC4DE86020B100231A4619460EF060
:10034000F6FC002101200EF053FC286120B10023AF
:100350001A4619460EF0EBFC002101200EF048FC75
:10036000686120B100231A4619460EF0E0FC002116
:1003700001200EF03DFCA86120B100231A46194669
:100380000EF0D5FC002101200EF032FCE86120B116
:1003900000231A4619460EF0CAFC0125CDE9005487
:1003A000002302948022ABA1AFF2291003940EF037
:1003B000C1FECDE90054002302946A02A7A1AFF266
:1003C0009B1003940EF0B6FE0FF09BF8FEE72DE9AC
:1003D000F05F934DCA274FF006084FF036094FF0F3
:1003E000F90A002410350FF0AFF88E4E316A401A2A
:1003F000B0F55C6F6FD8A62129701021697081213A
:10040000A970C1B2E970C0F307222A71C0F3074393
:100410006B71000EA87196F800C0BCF1250F71D267
:10042000DFE80CF0701D1D292E3338434E5A6571DC
:100430007C8792979CA1A6ADB3B9C0C7CDD3DAEBA8
:100440007013701E1D1D1D1D1D00EC712C724FF0D0
:10045000DF0C85F809C04FF0AB0C85F80AC005E148
:10046000EC712C724FF0DF0C85F809C04FF0AB0C2B
:1004700085F80AC0FAE0EC712C726C72AC72F5E08F
:10048000EC712C726C72AC72F0E0EC712C726C72CC
:10049000AC72EBE04FF0620C85F807C04FF0280C0F
:1004A00085F808C06C72AC72E0E04FF0BF0C85F8C4
:1004B00007C04FF02B0C85F808C06C72AC72D5E009
:1004C0004FF0350C85F807C04FF0390C85F808C09F
:1004D0006C72AC72CAE0E5E04FF0920C85F807C090
:1004E0004FF03C0C85F808C06C72AC72BEE04FF067
:1004F000620C85F807C04FF0280C85F808C06C72B4
:10050000AC72B3E0AEE04FF0BF0C85F807C04FF01F
:100510002B0C85F808C06C72AC72A7E04FF0CB0CC6
:1005200085F807C04FF0300C85F808C06C72AC72CB
:100530009CE04FF0290C85F807C04FF0340C85F88B
:1005400008C06C72AC7291E0EC712C726C72AC727F
:100550008CE0EC712C726C72AC7287E0EC712C72D6
:100560006C72AC7282E0EC712C726C72AC727DE0D9
:1005700085F8079085F808A06C72AC7276E0EF7190
:1005800085F808806C72AC7270E0EC712C726F723E
:1005900085F80A806AE0EC712C7285F8099085F87C
:1005A0000AA063E085F8079085F808A06C72AC7229
:1005B0005CE0EF7185F808806C72AC7256E0EC710B
:1005C0002C726F7285F80A8050E0EC712C7285F8FD
:1005D000099085F80AA049E04FF0210C85F807C082
:1005E0004FF0540C85F808C04FF0940C85F809C002
:1005F0004FF0FF0C85F80AC038E04FF0210C85F869
:1006000007C04FF0540C85F808C04FF0940C85F8E3
:1006100009C04FF0FF0C85F80AC027E00010014028
:100620003403002000000020004400400048004047
:100630000A0D53657269616C20636F6D6D756E692B
:10064000636174696F6E20636F6D706C6574652192
:100650000A0D00004C45443400000000554152543E
:1006600000000000EC712C726C72AC72EC724FF0F6
:10067000020C85F80CC06C7381311A441144084493
:10068000E9790844297A0844697A0844A97A08442F
:10069000801CA8738620E8731022FE49FE4803F0F0
:1006A00076FF53E1A6212970102169708121A9707C
:1006B000C2B2EA70C0F307232B71C0F3074169711E
:1006C000000EA87196F800C0BCF1250F70D2DFE8CB
:1006D0000CF06F1D1D292E3338434E5964707B86F4
:1006E00091969BA0A5B0BBC6D1DCE7F5F3F26F13E2
:1006F0006F1E1D1D1D1D1D00EC712C724FF0010C95
:1007000085F809C04FF0C00C85F80AC003E1EC7110
:100710002C724FF0010C85F809C04FF0C00C85F821
:100720000AC0F8E0EC712C726C72AC72F3E0EC7100
:100730002C726C72AC72EEE0EC712C726C72AC725A
:10074000E9E04FF0B80C85F807C04FF01E0C85F8B3
:1007500008C06C72AC72DEE04FF0470C85F807C041
:100760004FF0210C85F808C06C72AC72D3E04FF0EA
:10077000840C85F807C04FF02B0C85F808C06C720C
:10078000AC72C8E04FF0140C85F807C04FF02E0C87
:1007900085F808C06C72AC72BDE04FF0B80C85F8FB
:1007A00007C04FF01E0C85F808C06C72AC72B2E046
:1007B000ADE04FF0AB0C85F807C04FF0210C85F889
:1007C00008C06C72AC72A6E04FF01E0C85F807C032
:1007D0004FF0250C85F808C06C72AC729BE04FF0AE
:1007E000AE0C85F807C04FF0270C85F808C06C7276
:1007F000AC7290E0EC712C726C72AC728BE0EC71AC
:100800002C726C72AC7286E0EC712C726C72AC72F1
:1008100081E0EC712C726C72AC727CE04FF0D60C03
:1008200085F807C04FF0FA0C85F808C06C72AC72FE
:1008300071E04FF02A0C85F807C04FF0050C85F8E1
:1008400008C06C72AC7266E0EC712C724FF02A0C2E
:1008500085F809C04FF0050C85F80AC05BE0EC7123
:100860002C724FF0D60C85F809C04FF0FA0C85F8C1
:100870000AC050E04FF0D60C85F807C04FF0FA0CD4
:1008800085F808C06C72AC7245E04FF02A0C85F810
:1008900007C04FF0050C85F808C06C72AC723AE0E6
:1008A000EC712C724FF02A0C85F809C04FF0050C42
:1008B00085F80AC02FE01BE00BE0FFE7EC712C721B
:1008C0004FF0D60C85F809C04FF0FA0C85F80AC035
:1008D00021E04FF0FF0B85F807B04FF03F0C85F893
:1008E00008C04FF0AF0C85F809C085F80AB012E0D7
:1008F0004FF0FF0B85F807B04FF03F0C85F808C0AC
:100900004FF0AF0C85F809C085F80AB003E0EC7130
:100910002C726C72AC72EC724FF0020C85F80CC049
:100920006C738132194411440844E9790844297AE6
:100930000844697A0844A97A0844801CA873862070
:10094000E87310225349544803F021FE14200EF09E
:100950001AFD00231A46194670690EF0C1FA0128E3
:100960007FF441ADBDE8F09F2DE9FF5F4B4C20784F
:100970004B4D002838D02078FF2835D02078454EC0
:10098000DFF820A1203E4FF0A60B4FF0AA0806F199
:1009900010074FF00B0925287AD2DFE810F0790014
:1009A0007001DD014802D6024D03C6033C04C104B8
:1009B0003705AD051F068E060D077C07F30768088F
:1009C000D7085609CC09440AB90A3F0BAE0B1E0CD6
:1009D0008C0CFB0C810D79003F007900E200F00DDA
:1009E0005B0EBE0E270F9B0F48F228112E4805F014
:1009F00069FC4FF400612D4805F064FCFB212C4894
:100A000005F060FC00220221284607F026F804B019
:100A10002846BDE8F05F002106F0FEBD204D002213
:100A20000221284607F019F80021284606F0F4FDB7
:100A30000025CAF800504FF400411B4805F042FC65
:100A4000DFF86CA00821504605F03EFC132150460B
:100A500005F038FC2021504605F036FC00234FF00D
:100A6000FF3A5246194660690EF03AFA01280FD152
:100A700086F800B00D20707086F80280F878397919
:100A80000844797910FB01F0F070010A317111E02E
:100A9000E0E00000440300200010014000000020BE
:100AA000000400403800002000000240000C02401A
:100AB00000100240020C7271030EB37186F80790A9
:100AC00035727572B572F572AA3011440844184433
:100AD0000B303073862070730D22FE49FE4803F000
:100AE00056FD002352461946E0680EF0F9F9012838
:100AF000BDD10EF029FD2062F848CDE901050121A4
:100B000000234A0200910395F5A1AFF23D700EF06B
:100B100011FBF54D0021284606F04AFC4FF4AF6169
:100B2000284606F00BFC6421284606F075FD0122DC
:100B30000221284606F091FF0A200EF024FC012134
:100B4000284606F035FC00235246194620690EF06F
:100B5000C7F9606800287DD004B0BDE8F05F0EF0F2
:100B600051BBE14D00220221284606F076FF00210C
:100B7000284606F051FD0025CAF800504FF4004108
:100B8000DA4805F09FFBDFF868A31B21504605F00B
:100B900099FB2021504605F097FB00234FF0FF3AC8
:100BA0005246194660690EF09BF90128A0D186F8DB
:100BB00000B00D20707086F80280F878397908440A
:100BC000797910FB01F0F070020A3271010C717139
:100BD000030EB37186F8079035727572B572F572AF
:100BE000AA301144084418440B30307386207073C7
:100BF0000D22B849B84803F0CAFC002352461946F2
:100C0000E0680EF06DF90128D0D10EF09DFC206255
:100C1000B248CDE90105012100234A020091039564
:100C2000AFA1AFF655000EF085FAAF4D0021284672
:100C300006F0BEFB4FF4AF61284606F07FFB64214F
:100C4000284606F0E9FC01220221284606F005FFAD
:100C50000A2000E08CE00EF096FB0121284606F009
:100C6000A7FB00235246194620690EF039F9606847
:100C700000287DD004B0BDE8F05F0EF0C3BA9DA19E
:100C80009548FFF705FB984D00220221284606F003
:100C9000E4FE0021284606F0BFFC0025CAF80050FB
:100CA0004FF40041914805F00DFBDFF844A21A21F2
:100CB000504605F007FB2121504605F005FB0023B7
:100CC0004FF0FF3A5246194660690EF009F90128C3
:100CD0009AD186F800B00D20707086F80280F878FE
:100CE00039790844797910FB01F0F070020A327109
:100CF000010C7171030EB37186F80790357275722D
:100D0000B572F572AA301144084418440B303073A0
:100D1000862070730D226F496F4803F038FC002362
:100D200052461946E0680EF0DBF80128D0D10EF0EB
:100D30000BFC20626C4D40F23551284606F0FEFA5D
:100D40000021284606F068FC6068002891D004B0B5
:100D5000BDE8F05F0EF056BA634D0022022128462E
:100D600006F07BFE0021284606F056FC002500E038
:100D700064E1CAF800504FF400415C4805F0A2FA63
:100D8000DFF86CA11B21504605F09CFA202150464B
:100D900005F09AFA00234FF0FF3A5246194660696F
:100DA0000EF09EF8012893D186F800B00D207070E7
:100DB00086F80280F87839790844797910FB01F0D7
:100DC000F070010A3171020C7271030EB37186F872
:100DD000079035727572B572F572AA3011440844E5
:100DE00018440B303073862070730D2239493A480D
:100DF00003F0CDFB002352461946E0680EF070F870
:100E0000012893D10EF0A0FB2062374D40F2325101
:100E1000284606F093FA6421284606F0FDFB606838
:100E2000002893D004B0BDE8F05F0EF0EBB92E4D72
:100E300000220221284606F010FE0021284606F076
:100E4000EBFB0025CAF800504FF40041274805F09D
:100E500039FADFF89CA01321504605F033FA282117
:100E6000504605F031FA00234FF0FF3A524619463A
:100E700060690EF035F8012895D186F800B00D2094
:100E8000707086F80280F87839790844797910FB17
:100E900001F0F070010A3171020C7271030EB3712E
:100EA00086F8079035727572B572F572AA301144E2
:100EB000084418440B303073862070730D220549A6
:100EC000054803F064FB002352461946E0680EF023
:100ED00007F815E02403002000100140080000205E
:100EE0004649454C44000000000400400000024018
:100EF000001002400A0D474F4F440A0D0000000049
:100F00000128B9D10EF020FB2062FE48CDE9010591
:100F1000012100234A0203950091AFF23C01AFF694
:100F200051300EF007F9F84D40F23551284606F0E1
:100F300005FA6421284606F06FFB606800287DD022
:100F400004B0BDE8F05F0EF05DB9EF4D0022022164
:100F5000284606F082FD0021284606F05DFB0025AC
:100F6000CAF800504FF40041E84805F0ABF9DFF84B
:100F7000A0A31B21504605F0A5F92021504605F0FD
:100F8000A3F900234FF0FF3A5246194660690DF06D
:100F9000A7FF0128B5D186F800B00D20707086F843
:100FA0000280F87839790844797910FB01F0F07003
:100FB000010A3171020C7271030EB37186F8079049
:100FC00035727572B572F572AA301144084418442E
:100FD0000B303073862070730D22CE49CE4803F05B
:100FE000D6FA002352461946E0680DF079FF012831
:100FF00087D10EF0A9FA2062C248CDE9010501218E
:1010000000234A0203950091AFF22C11AFF6414044
:101010000EF090F8BC4D40F23551284606F08EF99E
:101020006421284606F0F8FA6068002887D004B0EA
:10103000BDE8F05F0EF0E6B8002200E060E2B24DDD
:101040000221284606F009FD0021284606F0E4FAB0
:101050000025CAF800504FF40041AC4805F032F9C1
:10106000DFF8ACA20B21504605F02CF93021504698
:1010700005F02AF900234FF0FF3A524619466069FD
:101080000DF02EFF012885D186F800B00D2070707C
:1010900086F80280F87839790844797910FB01F0F4
:1010A000F070020A3271010C7171030EB37186F88F
:1010B000079035727572B572F572AA301144084402
:1010C00018440B303073862070730D22914992487A
:1010D00003F05DFA002352461946E0680DF000FF68
:1010E000012885D10EF030FA20628648CDE901054D
:1010F000012100234A0203950091AFF21C21AFF6B3
:1011000031500EF017F8804D40F23551284606F068
:1011100015F96421284606F07FFA6068002885D01A
:1011200004B0BDE8F05F0EF06DB8774D00220221EB
:10113000284606F092FC0021284606F06DFA0025AC
:10114000CAF800504FF40041704805F0BBF8DFF8D2
:10115000C0A11321504605F0B5F82821504605F0EE
:10116000B3F800234FF0FF3A5246194660690DF07C
:10117000B7FE012887D186F800B00D20707086F880
:101180000280F87839790844797910FB01F0F07021
:10119000010A3171020C7271030EB37186F8079067
:1011A00035727572B572F572AA301144084418444C
:1011B0000B303073862070730D225649564803F069
:1011C000E6F9002352461946E0680DF089FE012831
:1011D00087D10EF0B9F9206201204A498DE8230039
:1011E00000234202AFF20831AFF61D6003950DF007
:1011F000A1FF454D40F2DC51284606F09FF86421DE
:10120000284606F009FA6068002888D004B0BDE8D6
:10121000F05F0DF0F7BF3C4D00220221284606F09A
:101220001CFC0021284606F0F7F90025CAF80050FA
:101230004FF40041354805F045F8DFF8D4A01321FC
:10124000504605F03FF82821504605F03DF80023B0
:101250004FF0FF3A5246194660690DF041FE0128F1
:1012600088D186F800B00D20707086F80280F8787A
:1012700039790844797910FB01F0F070010A317175
:10128000020C7271030EB37186F807903572757295
:10129000B572F572AA301144084418440B3030730B
:1012A000862070730D221B491B4803F070F9002340
:1012B00052461946E0680DF013FE012888D10EF061
:1012C00043F920620F48CDE90105012100234A02BC
:1012D00003950091AFF2F831AFF60D700DF02AFFD3
:1012E000094D40F2DC51284606F028F864212846D2
:1012F00006F092F96068002887D004B0BDE8F05F7E
:101300000CE0000008000020000400400000024043
:101310000010024024030020001001400DF072BFB5
:10132000FF4D00220221284606F097FB00212846A7
:1013300006F072F90025CAF800504FF40041F94850
:1013400004F0C0FFDFF8E0A33321504604F0BAFFF9
:101350000821504604F0B8FF00234FF0FF3A5246F0
:10136000194660690DF0BCFD0128A7D186F800B0D0
:101370000D20707086F80280F87839790844797900
:1013800010FB01F0F070010A3171020C7271030E52
:10139000B37186F8079035727572B572F572AA301E
:1013A0001144084418440B303073862070730D22AA
:1013B000DE49DF4803F0EBF8002352461946E068A7
:1013C0000DF08EFD0128D0D10EF0BEF82062D94874
:1013D000CDE90105012100234A0203950091AFF2F6
:1013E0000051D5480DF0A6FECD4D40F2DC51284607
:1013F00005F0A4FF6421284606F00EF96068002875
:101400007ED004B0BDE8F05F0DF0FCBEC44D0022FC
:101410000221284606F021FB0021284606F0FCF8B0
:101420000025CAF800504FF40041BE4804F04AFFBE
:10143000DFF8F4A23321504604F044FF082150465F
:1014400004F042FF00234FF0FF3A5246194660690C
:101450000DF046FD012888D186F800B00D2070708F
:1014600086F80280F87839790844797910FB01F020
:10147000F070010A3171020C7271030EB37186F8BB
:10148000079035727572B572F572AA30114408442E
:1014900018440B303073862070730D22A349A44882
:1014A00003F075F8002352461946E0680DF018FD68
:1014B000012888D10EF048F820629E48CDE9010548
:1014C000012100234A0203950091AFF2EC519A48A2
:1014D0000DF030FE924D40F2DC51284605F02EFF13
:1014E0006421284606F098F86068002888D004B087
:1014F000BDE8F05F0DF086BE00220221884D00E0BD
:10150000D4E1284606F0A9FA0021284606F084F81E
:101510000025CAF800504FF40041824804F0D2FE82
:101520003B21814804F0CEFE00234FF0FF3A5246A3
:10153000194660690DF0D4FC01288CD186F800B002
:101540000D20707086F80280F8783979084479792E
:1015500010FB01F0F070020A3271010C7171030E80
:10156000B37186F8079035727572B572F572AA304C
:101570001144084418440B303073862070730D22D8
:101580006A496B4803F003F8002352461946E068A5
:101590000DF0A6FC01288CD10DF0D6FF2062654825
:1015A000CDE90105012100234A0203950091AFF224
:1015B000D06161480DF0BEFD594D4FF4AF61284632
:1015C00005F0BCFE6421284606F026F86068002875
:1015D0008CD004B0BDE8F05F0DF014BE504D002279
:1015E0000221284606F039FA0021284606F014F8B0
:1015F0000025CAF800504FF400414A4804F062FE4A
:101600003B21494804F05EFE00234FF0FF3A52466A
:10161000194660690DF064FC01288ED186F800B08F
:101620000D20707086F80280F8783979084479794D
:1016300010FB01F0F070020A3271010C7171030E9F
:10164000B37186F8079035727572B572F572AA306B
:101650001144084418440B303073862070730D22F7
:101660003249334802F093FF002352461946E0689E
:101670000DF036FC01288ED10DF066FF20620120AE
:101680002C498DE8230000234202AFF2AC712A48B6
:1016900003950DF04FFD224D4FF4AF61284605F044
:1016A0004DFE6421284605F0B7FF606800288FD002
:1016B00004B0BDE8F05F0DF0A5BD194D0022022178
:1016C000284606F0CAF90021284605F0A5FF0025A6
:1016D000CAF800504FF40041124804F0F3FD3B21DA
:1016E000114804F0EFFD00234FF0FF3A524619462F
:1016F00060690DF0F5FB01288FD186F800B00D2050
:10170000707086F80280F87839790844797910FB8E
:1017100001F0F070010A3171020C7271030E0DE0DC
:10172000000400400000024000100240240300209A
:101730000010014008000020CF030008B37186F8B4
:10174000079035727572B572F572AA30114408446B
:1017500018440B303073862070730D22FD49FE480B
:1017600002F015FF002352461946E0680DF0B8FB61
:101770000128C1D10DF0E8FE2062F848CDE901054D
:10178000012100234A0203950091AFF6AC01F44811
:101790000DF0D0FCF34D4FF4AF61284605F0CEFDBF
:1017A0006421284605F038FF606800287ED004B028
:1017B000BDE8F05F0DF026BDEA4D0022022128466B
:1017C00006F04BF90021284605F026FF0025CAF84F
:1017D00000504FF40041E44804F074FD3B21E3481D
:1017E00004F070FD00234FF0FF3A5246194660693D
:1017F0000DF076FB0128BCD186F800B00D2070708A
:1018000086F80280F87839790844797910FB01F07C
:10181000F070010A3171020C7271030EB37186F817
:10182000079035727572B572F572AA30114408448A
:1018300018440B303073862070730D22C549C6489A
:1018400002F0A5FE002352461946E0680DF048FB61
:1018500001288ED10DF078FE20620120BF498DE86D
:10186000230000234202AFF68811BD4803950DF016
:1018700061FCBC4D4FF4AF61284605F05FFD64216B
:10188000284605F0C9FE606800288FD004B0BDE886
:10189000F05F0DF0B7BCB34D00220221284606F0E0
:1018A000DCF80021284605F0B7FE00E046E20025FE
:1018B000CAF800504FF40041AB4804F003FDDFF8D4
:1018C000ACA23321504604F0FDFC0821504604F040
:1018D000FBFC00234FF0FF3A5246194660690DF0B9
:1018E000FFFA012887D186F800B00D20707086F8C5
:1018F0000280F87839790844797910FB01F0F070AA
:10190000010A3171020C7271030EB37186F80790EF
:1019100035727572B572F572AA30114408441844D4
:101920000B303073862070730D228A498A4802F08A
:101930002EFE002352461946E0680DF0D1FA012828
:1019400087D10DF001FE2062012084498DE823003B
:1019500000234202AFF67821814803950DF0EAFB9F
:10196000804D4FF47A71284605F0E8FC6421284642
:1019700005F052FE6068002887D004B0BDE8F05F33
:101980000DF040BC774D00220221284606F065F894
:101990000021284605F040FE0025CAF800504FF40B
:1019A0000041714804F08EFCDFF8C0A1332150469D
:1019B00004F088FC0821504604F086FC00234FF018
:1019C000FF3A5246194660690DF08AFA012889D11A
:1019D00086F800B00D20707086F80280F8783979AA
:1019E0000844797910FB01F0F070010A3171020CA2
:1019F0007271030EB37186F8079035727572B57205
:101A0000F572AA301144084418440B303073862014
:101A100070730D224F49504802F0B9FD0023524621
:101A20001946E0680DF05CFA012889D10DF08CFDB3
:101A30002062012049498DE8230000234202AFF6CD
:101A40006031474803950DF075FB464D4FF4FA6140
:101A5000284605F073FC6421284605F0DDFD60682A
:101A6000002889D004B0BDE8F05F0DF0CBBB3D4D40
:101A700000220221284605F0F0FF0021284605F04B
:101A8000CBFD0025CAF800504FF40041364804F061
:101A900019FC3B21354804F015FC00234FF0FF3AB8
:101AA0005246194660690DF01BFA01288FD186F85D
:101AB00000B00D20707086F80280F87839790844FB
:101AC000797910FB01F0F070010A3171020C72712A
:101AD000030EB37186F8079035727572B572F572A0
:101AE000AA301144084418440B30307386207073B8
:101AF0000D221849184802F04AFD002352461946A3
:101B0000E0680DF0EDF901288FD10DF01DFD206288
:101B1000012012498DE8230000234202AFF6404124
:101B20000F4803950DF006FB0E4D4FF47A712846D1
:101B300005F004FC6421284605F06EFD606800286D
:101B40008FD004B0BDE8F05F0DF05CBB0022022135
:101B5000044D0DE024030020001001400800002087
:101B6000CF030008000400400000024000100240C3
:101B7000284605F072FF0021284605F04DFD00259E
:101B8000CAF800504FF40041FE4804F09BFB3B2193
:101B9000FD4804F097FB00234FF0FF3A52461946E8
:101BA00060690DF09DF90128AED186F800B00D20D6
:101BB000707086F80280F87839790844797910FBDA
:101BC00001F0F070010A3171020C7271030EB371F1
:101BD00086F8079035727572B572F572AA301144A5
:101BE000084418440B303073862070730D22E74987
:101BF000E74802F0CCFC002352461946E0680DF09D
:101C00006FF90128D0D10DF09FFC2062E148CDE9A9
:101C10000105012100234A0203950091AFF64051CE
:101C2000DD480DF087FADD4D4FF4FA61284605F0E6
:101C300085FB6421284605F0EFFC606800287DD014
:101C400004B0BDE8F05F0DF0DDBAD44D00220221F2
:101C5000284605F002FF0021284605F0DDFC00259E
:101C6000CAF800504FF40041C64804F02BFBDFF8DF
:101C700018A33321504604F025FB0821504604F0F8
:101C800023FB00234FF0FF3A5246194660690DF0DE
:101C900027F9012888D186F800B00D20707086F8E9
:101CA0000280F87839790844797910FB01F0F070F6
:101CB000010A3171020C7271030EB37186F807903C
:101CC00035727572B572F572AA3011440844184421
:101CD0000B303073862070730D22AC49AC4802F093
:101CE00056FC002352461946E0680DF0F9F8012829
:101CF00088D10DF029FC2062A648CDE9010501211B
:101D000000234A0203950091AFF62C61A2480DF022
:101D100011FAA24D40F23551284605F00FFB64211F
:101D2000284605F079FC6068002888D004B0BDE83A
:101D3000F05F0DF067BA0022022100E0E8E1974D64
:101D4000284605F08AFE0021284605F065FC00259E
:101D5000CAF800504FF400418A4804F0B3FADFF8A3
:101D600028A23321504604F0ADFA0821504604F071
:101D7000ABFA00234FF0FF3A5246194660690DF066
:101D8000AFF8012886D186F800B00D20707086F873
:101D90000280F87839790844797910FB01F0F07005
:101DA000020A3271010C7171030EB37186F807904B
:101DB00035727572B572F572AA3011440844184430
:101DC0000B303073862070730D227049704802F01A
:101DD000DEFB002352461946E0680DF081F8012829
:101DE00086D10DF0B1FB20626A48CDE901050121E1
:101DF00000234A0203950091AFF61C7166480DF06E
:101E000099F9664D40F23551284605F097FA64215C
:101E1000284605F001FC6068002886D004B0BDE8C3
:101E2000F05F0DF0EFB95D4D00220221284605F06C
:101E300014FE0021284605F0EFFB0025CAF80050EB
:101E40004FF400414F4804F03DFADFF83CA1332144
:101E5000504604F037FA0821504604F035FA0023C2
:101E60004FF0FF3A5246194660690DF039F80128E3
:101E700088D186F800B00D20707086F80280F8785E
:101E800039790844797910FB01F0F070010A317159
:101E9000020C7271030EB37186F807903572757279
:101EA000B572F572AA301144084418440B303073EF
:101EB000862070730D223549354802F068FB0023F7
:101EC00052461946E0680DF00BF8012888D10DF054
:101ED0003BFB20622F48CDE9010501214A02009118
:101EE000002303952E492C480DF024F92B4D40F288
:101EF0003551284605F022FA6421284605F08CFB6E
:101F00006068002889D004B0BDE8F05F0DF07AB9B0
:101F1000224D00220221284605F09FFD002128467F
:101F200005F07AFB0025CAF800504FF4004115482F
:101F300004F0C8F9DFF850A03321504604F0C2F98C
:101F40000821504604F0C0F900234FF0FF3A5246F2
:101F5000194660690CF0C4FF012889D186F800B0E9
:101F60000D20707086F80280F87839790844797904
:101F700010FB01F0F070010A3171020C7271030E56
:101F8000B3710FE000000240001002402403002063
:101F90000010014008000020CF03000800040040AA
:101FA000E00E000886F8079035727572B572F5720A
:101FB000AA301144084418440B30307386207073E3
:101FC0000D22FE49FE4802F0E2FA0023524619466D
:101FD000E0680CF085FF0128BFD10DF0B5FA206252
:101FE000F848CDE9010501214A020091002303953B
:101FF000F549F6480DF09EF8F54D40F2355128466A
:1020000005F09CF96421284605F006FB606800286D
:102010007ED004B0BDE8F05F0DF0F4B8EC4D0022C6
:102020000221284605F019FD0021284605F0F4FAA2
:102030000025CAF800504FF40041E64804F042F988
:102040003B21E54804F03EF900234FF0FF3A5246A9
:10205000194660690CF044FF0128BDD186F800B034
:102060000D20707086F80280F87839790844797903
:1020700010FB01F0F070020A3271010C7171030E55
:10208000B37186F8079035727572B572F572AA3021
:102090001144084418440B303073862070730D22AD
:1020A000C649C74802F073FA002352461946E06851
:1020B0000CF016FF01288FD10DF046FA2062C148BE
:1020C000CDE9010501214A02009100230395BE4993
:1020D000BE480DF02FF8BE4D40F23551284605F0B0
:1020E0002DF96421284605F097FA606800288FD002
:1020F00004B0BDE8F05F0DF085B8B54D00220221B7
:10210000284605F0AAFC0021284605F085FA00E0E3
:1021100040E20025CAF800504FF40041AD4804F0F9
:10212000D1F83B21AC4804F0CDF800234FF0FF3A42
:102130005246194660690CF0D3FE01288DD186F80D
:1021400000B00D20707086F80280F8783979084464
:10215000797910FB01F0F070020A3271010C717193
:10216000030EB37186F8079035727572B572F57209
:10217000AA301144084418440B3030738620707321
:102180000D228E498E4802F002FA0023524619466B
:10219000E0680CF0A5FE01288DD10DF0D5F9206284
:1021A000012088498DE823004202002386498748A0
:1021B00003950CF0BFFF864D40F23551284605F0DF
:1021C000BDF86421284605F027FA606800288ED003
:1021D00004B0BDE8F05F0DF015B87D4D002202217E
:1021E000284605F03AFC0021284605F015FA00259E
:1021F000CAF800504FF40041764804F063F83B21E0
:10220000754804F05FF800234FF0FF3A5246194634
:1022100060690CF065FE012890D186F800B00D20B1
:10222000707086F80280F87839790844797910FB63
:1022300001F0F070010A3171020C7271030EB3717A
:1022400086F8079035727572B572F572AA3011442E
:10225000084418440B303073862070730D225749A0
:10226000574802F094F9002352461946E0680CF0F2
:1022700037FE012890D10DF067F920620120514905
:102280008DE82300420200234F49504803950CF08B
:1022900051FF4F4D40F23551284605F04FF864216B
:1022A000284605F0B9F96068002890D004B0BDE870
:1022B000F05F0CF0A7BF464D00220221284605F032
:1022C000CCFB0021284605F0A7F90025CAF80050EC
:1022D0004FF400413F4803F0F5FF3B213E4803F037
:1022E000F1FF00234FF0FF3A5246194660690CF0A7
:1022F000F7FD012890D186F800B00D20707086F8A7
:102300000280F87839790844797910FB01F0F0708F
:10231000010A3171020C7271030EB37186F80790D5
:1023200035727572B572F572AA30114408441844BA
:102330000B303073862070730D222049204802F044
:1023400026F9002352461946E0680CF0C9FD012821
:1023500090D10DF0F9F820621A48CDE9010501216C
:102360004A02009100230395174918480CF0E2FE39
:10237000174D40F23551284604F0E0FF642128460D
:1023800005F04AF9606800288FD004B0BDE8F05F1E
:102390000CF038BF0E4D00220221284605F05DFBEF
:1023A0000021284605F038F90025CAF800504FF4FE
:1023B0000041084803F086FF33210FE0240300208A
:1023C0000010014008000020E00E0008CF030008C4
:1023D000000400400000024000100240DFF85CA44E
:1023E000504603F06FFF0821504603F06DFF0023B5
:1023F0004FF0FF3A5246194660690CF071FD012812
:10240000A6D186F800B00D20707086F80280F878AA
:1024100039790844797910FB01F0F070010A3171C3
:10242000020C7271030EB37186F8079035727572E3
:10243000B572F572AA301144084418440B30307359
:10244000862070730D22FE49FE4802F0A0F800239A
:1024500052461946E0680CF043FD0128D0D10DF03A
:1024600073F82062F848CDE9010501214A02009184
:1024700000230395F549F6480CF05CFEF54D40F25B
:102480003551284604F05AFF6421284605F0C4F867
:10249000606800287ED004B0BDE8F05F0CF0B2BEEA
:1024A000EC4D00220221284605F0D7FA00212846EB
:1024B00005F0B2F80025CAF800504FF40041E64894
:1024C00003F000FF3B21DD4803F0FCFE00234FF04A
:1024D000FF3A5246194660690CF002FD01288FD17F
:1024E00086F800B00D20707086F80280F87839798F
:1024F0000844797910FB01F0F070020A3271010C86
:102500007171030EB37186F8079035727572B572EA
:10251000F572AA301144084418440B3030738620F9
:1025200070730D22C649C74802F031F800235246A5
:102530001946E0680CF0D4FC01288FD10DF004F8A6
:102540002062C148CDE9010501214A020091002322
:102550000395BE49BE480CF0EDFDBE4D40F235512D
:10256000284604F0EBFE6421284605F055F8606823
:1025700000288FD004B0BDE8F05F0CF043BEB54D2D
:1025800000220221284605F068FA0021284605F0BD
:1025900043F800E007E20025CAF800504FF400417C
:1025A000AD4803F091FEDFF894A20821504603F0F5
:1025B0008BFE3321504603F085FE00234FF0FF3A97
:1025C0005246194660690CF08BFC012887D186F8C9
:1025D00000B00D20707086F80280F87839790844D0
:1025E000797910FB01F0F070020A3271030C7371FB
:1025F000010EB17186F8079035727572B572F57279
:10260000AA301A44104408440B303073862070738B
:102610000D228B498B4801F0BAFF00235246194620
:10262000E0680CF05DFC012887D10CF08DFF206282
:10263000884D40F23551284604F080FE002128469E
:1026400004F0EAFF6068002893D004B0BDE8F05FB2
:102650000CF0D8BD7F4D00220221284605F0FDF97F
:102660000021284604F0D8FF0025CAF800504FF496
:102670000041794803F028FE3B21704803F022FE18
:1026800000234FF0FF3A5246194660690CF028FCCF
:1026900001289BD186F800B00D20707086F802806A
:1026A000F87839790844797910FB01F0F070020A62
:1026B0003271030C7371010EB17186F80790357297
:1026C0007572B572F572AA301A44104408440B3082
:1026D0003073862070730D2259495A4801F057FF14
:1026E000002352461946E0680CF0FAFB01289BD102
:1026F0000CF02AFF2062574D40F23551284604F075
:102700001DFE0021284604F087FF606800289BD04A
:1027100004B0BDE8F05F0CF075BD4E4D0022022103
:10272000284605F09AF90021284604F075FF002597
:10273000CAF800504FF40041474803F0C3FDDFF8EA
:10274000FCA00821504603F0BFFD3321504603F0A2
:10275000B9FD00234FF0FF3A5246194660690CF06C
:10276000BFFB012895D186F800B00D20707086F867
:102770000280F87839790844797910FB01F0F0701B
:10278000010A3171020C7271030EB37186F8079061
:1027900035727572B572F572AA3011440844184446
:1027A0000B303073862070730D222549254801F0C7
:1027B000EEFE002352461946E0680CF091FB01281A
:1027C00095D10CF0C1FE2062224D40F235512846D1
:1027D00004F0B4FD6421284604F01EFF6068002860
:1027E00095D004B0BDE8F05F0CF00CBD194D00228F
:1027F0000221284605F031F90021284604F00CFF9B
:102800000025CAF800504FF40041134803F05AFD68
:102810003B210A4803F056FD00234FF0FF3A524691
:10282000194660690CF05CFB01289BD186F800B06A
:102830000D20707086F80280F8780FE000100240DA
:10284000240300200010014008000020E00E0008D2
:10285000CF0300080004004000000240397908441A
:10286000797910FB01F0F070010A3171020C72717C
:10287000030EB37186F8079035727572B572F572F2
:10288000AA301144084418440B303073862070730A
:102890000D22B449B44801F07AFE0023524619468D
:1028A000E0680CF01DFB01287DD10CF04DFE20628C
:1028B000AE4D40F23551284604F040FD64212846D3
:1028C00004F0AAFE606800286DD004B0BDE8F05F97
:1028D0000CF098BCA54D00220221284605F0BDF859
:1028E0000021284604F098FE0025CAF800504FF455
:1028F00000419F4803F0E6FCDFF878A20221504631
:1029000003F0E2FC3921504603F0DCFC00234FF0D9
:10291000FF3A5246194660690CF0E2FA012842D1AA
:1029200086F800B00D20707086F80280F87839794A
:102930000844797910FB01F0F070020A3271010C41
:102940007171030EB37186F8079035727572B572A6
:10295000F572AA301144084418440B3030738620B5
:1029600070730D227F49804801F011FE002352460A
:102970001946E0680CF0B4FA012814D10CF0E4FD1B
:1029800020627A4D40F23551284604F0D7FC0021F0
:10299000284604F041FE6068002804D004B0BDE879
:1029A000F05F0CF02FBCBDE8FF9F7FB51446002CF4
:1029B0007ED06C486289803861680DF077F869488C
:1029C0006D4D8038007828702878002874D02878D9
:1029D000FF2871D0287801286ED0287802286BD083
:1029E0002878032868D02878042865D02878052816
:1029F00062D0287806285FD0287807285CD028780D
:102A0000082859D02878092856D028780A2853D081
:102A100028780B2850D028780C284DD028780D28FD
:102A20004AD028780E2847D028780F2844D0287814
:102A3000102841D0287811283ED0287812283BD081
:102A40002878132838D02878142835D028781528E5
:102A500032D0287816282FD0287817282CD028781C
:102A6000182829D02878192826D028781A2823D081
:102A700028781B2820D028781D281DD028781F28CA
:102A80001AD02878202817D02878212814D0287820
:102A9000222811D0287823280ED0287824280BD07B
:102AA0002878F02808D004B02046BDE8704001E046
:102AB0001EE001E007F002BBA86808B10CF0A2FB21
:102AC000686808B10CF09EFB2B490020091DCDE978
:102AD00001100122034600920390520227A12B48C5
:102AE0000CF028FB04B02046BDE8704007F0E6BAC1
:102AF0007FBD70B504461C4DE1B2284604F03DF898
:102B00004021284604F0DBF80028F9D0204670BDAB
:102B10000FB430B5C1B045AB4FF4807101A8449AF1
:102B20000DF056FB05460022A9B2104607F0EFFA59
:102B3000174C206040682A4601A90CF0B7FF2168B5
:102B40004D81144800901448144A038814480068C2
:102B500006F081FF206807F0B1FA41B030BC5DF8A3
:102B600014FB00002403002000100140000400407A
:102B700000000240001002400000002050524F436D
:102B800045535320434F4D4D414E440069090008C1
:102B90004400002054030020A60C0108400000203F
:102BA0003C0000200CB500220192009255490868B3
:102BB00040F4803008604FF4A043086800F400300F
:102BC00000900198401C0190009810B9019898421B
:102BD000F3D10868800302D50120009000E0009244
:102BE0000098012831D147484030026842F08052B5
:102BF00002604548026842F44042026041480830A1
:102C000002680260026842F400420260026842F414
:102C1000A0520260021F3D4B13600A6842F08072AE
:102C20000A600A689201FCD5394A40F205611160D8
:102C3000016821F003010160016841F002010160B7
:102C40000168C1F381010229FAD10CBD10B52D48EC
:102C5000016841F0010101602A4A00210832116037
:102C600002682C4B1A400260031D2B4A1A6002684E
:102C700022F48022026023480C300160FFF792FFAB
:102C800026494FF00060086010BD70B51D4E083633
:102C9000306800F00C00224B224900280FD05D1054
:102CA00004280ED008280ED00B6030681D4AC0F3EF
:102CB0000310121D105C0A68C2400A6070BD0B60F0
:102CC000F3E70D60F1E70F4A121D1068C0F380545E
:102CD000106800F03F0034B1B5FBF0F01368C3F3A7
:102CE0008813584305E0B3FBF0F01368C3F388136F
:102CF00058431268C2F30142521C5200B0FBF2F07A
:102D00000860D2E7003802400070004008484006E2
:102D1000003C0240FFFFF6FE1030002408ED00E00A
:102D20000024F400240000207047FEE7FEE7FEE7E1
:102D3000FEE77047704770470CF016BE08B50020DC
:102D40000090402005F0EEFB012806D1A3480023A7
:102D50006A46194600680CF079F8402005F000FC3E
:102D60004FF4803005F0FCFB0098002801D00CF0F7
:102D7000E4FD08BD10B5012002F053FF00280ED07D
:102D8000012002F05CFF0121954803F087FAC1435E
:102D90009448426922F0200242EA4111416110BD8B
:102DA00010B5022002F03DFF00280ED0022002F0F4
:102DB00046FF02218A4803F071FAC14389484269FB
:102DC00022F0080242EAC101416110BDF8B54FF49A
:102DD0008066304602F025FF834C844D68B1304652
:102DE00002F02DFF3146284603F058FA6169C043CE
:102DF00021F0800141EAC01060614FF40066304666
:102E000002F00FFF78B1304602F019FF3146284634
:102E100003F044FAC24372481430016821F400619F
:102E200041EAC22101604FF48056304602F0F9FEBB
:102E300070B1304602F003FF3146284603F02EFA07
:102E4000C1436848426922F4807242EA012141612B
:102E50004FF40056304602F0E4FE00281CD000205B
:102E60000090304602F0EBFE3146284603F016FA99
:102E70006169C04321F0400141EA80106061314640
:102E8000284603F00BFA012806D1594800236A4668
:102E9000194600680BF0DAFFF8BD38B5554D022130
:102EA000284604F0F0FD00281AD00221284604F03C
:102EB000F6FD514C226840F2E65140F242430E2AA0
:102EC0000ED2DFE802F0070E1720273039424B54AC
:102ED0005D666E76284604F031FA2068401C20605A
:102EE00038BD4FF4C861284604F028FA2068401C19
:102EF000206038BD40F22261284604F01FFA2068A5
:102F0000401C206038BD284604F018FA2068401C98
:102F1000206038BD40F2BE51284604F00FFA206808
:102F2000401C206038BD40F26451284604F006FA87
:102F30002068401C206038BD40F21451284604F03F
:102F4000FDF92068401C206038BD40F2BA41284697
:102F500004F0F4F92068401C206038BD4FF4916102
:102F6000284604F0EBF92068401C206038BD40F290
:102F70006A41284604F0E2F92068401C206038BD10
:102F800040F29241284604F0D9F92068401C2060A4
:102F900038BD1946284604F0D1F92068401C20604D
:102FA00038BD1946284604F0C9F92068401C206045
:102FB00038BD40F23551284604F0C0F900212160A7
:102FC00000220221284604F048FD0C4800236A46EE
:102FD000194600680BF03AFF38BD00001C020020C3
:102FE000000C0240000002400010024000080240B5
:102FF0000C000020000400403800002010000020D9
:1030000010B586B00021084606F0F0FB1B480AF018
:10301000BDFD05906FF0FF000AF0B8FD0490174861
:10302000801E0AF0B3FD039016490022CDE900216D
:103030001348029003AB04AA05A9134806F0BEFF8B
:10304000114806F0DEFF104807F016F80B48401E46
:103050000AF09CFD0D49086006F0B5FD0B4C241FDD
:10306000206043F239020A4906F0C6FC00220949F1
:10307000206806F091FD06B010BD00000301A8C055
:103080009D96000807E90008540300204000002036
:1030900034CF0108AB29000800B5AFB001214FF0D3
:1030A000606003F072FA04F0B7FD05F02EFA05F047
:1030B00032FA0128FBD0684604F0BAFD01200090E6
:1030C000002007904FF400710A910B900E90119020
:1030D000139014901590490009912090C9032191F3
:1030E0000A1123922590269004202890299180038C
:1030F0002A9080012B9040122C9040002E900021AD
:10310000684604F032FE664908600121654805F012
:1031100014FA2FB000BD08B54FF4A06003F00EFE06
:103120003D208DF8000002208DF8010000208DF870
:10313000020001208DF80300684603F004FE08BD7C
:10314000FEB50121072003F020FA0121880303F0D6
:103150004CFA012003F002FC8620009003208DF839
:10316000050002248DF8044000258DF806508DF8E6
:1031700007504D4E6946304603F03CF80B220121C2
:10318000304603F0AFF80B220221304603F0AAF8D4
:103190000B220721304603F0A5F84FF47050009041
:1031A000424E6946304603F025F80B220A2130468C
:1031B00003F098F80B221146304603F093F80B22E7
:1031C0000C21304603F08EF80B220D21304603F01F
:1031D00089F832200090364E6946304603F00AF8EE
:1031E0000B220121304603F07DF80B2204213046EA
:1031F00003F078F80B220521304603F073F8042021
:10320000009001208DF804008DF806508DF807001D
:103210008DF80540274E6946304602F0EBFF042149
:10322000304603F051F8029544F6206402E002991A
:10323000491C02910299A142F9D30421304603F0BE
:1032400041F8029502E00298401C02900298A042C8
:10325000F9D3FEBD10B5FFF773FFFFF75CFFFFF773
:103260001BFF0F480068002819D14FF4784001F087
:1032700063FE01F070FEC0880FA100EB800080B2F9
:1032800001F012FF01F067FEC0884FF6FF7100EBFE
:10329000400001EA40000DA101F006FFFEE710BD6D
:1032A00048000020400001000000024000040240ED
:1032B000000802400010024020202045746865721A
:1032C0006E657420496E6974202020002020202023
:1032D00020206661696C6564202020202020000089
:1032E0000020344900EB400201EBC202127D22B102
:1032F000401C0A28F6DB0020704700EB400001EB81
:10330000C00001220275704700212A4A01EB4103E7
:1033100002EBC303834206D101EB410102EBC10181
:10332000002008757047491C0A29EFDB704770B50B
:103330000646FFF7D5FF0546280001D01E4C07E0E2
:10334000002070BD304661680CF0F3FB38B1246892
:10335000002CF7D12846FFF7D7FF002070BDA068EA
:103360002860E0686860E068A8600020E860207C71
:103370002874284670BDC7E770B505460B46D5E9E9
:103380000110884202D14FF0FF3070BD0C1A9442F8
:1033900000DD144629682246014418460CF086FBDD
:1033A000A8682044A860204670BDD0E90110081A22
:1033B000704700008C03002008B6010810B5ADF579
:1033C000047D044600200190029003904FF40071A8
:1033D00004A80CF084FB7F480268521C02607EA1A6
:1033E00001A80CF0E1FE01A904A80CF083FB7BA16D
:1033F00004A80CF07FFB86A104A80CF07BFB04A8BA
:103400000CF090FB04A908440CF0EBF88EA104A882
:103410000CF070FB9AA104A80CF06CFBA7480CF010
:1034200081FB02460123A549204605F0FBFA04A8CA
:103430000CF078FB0246012304A9204605F0F2FABD
:103440000DF5047D10BD7CB50646304605F05EFAEC
:103450000546280049D0307A002846D16A4601A99D
:10346000284606F03CF8BDF8000005283DD30522AB
:1034700093A101980CF078FB002836D11B2292A171
:1034800001980CF071FB002836D01E2295A10198FE
:103490000CF06AFB00283DD01D229AA101980CF087
:1034A00063FB002844D018229EA101980CF05CFB1D
:1034B00000284BD01322A2A101980CF055FB002844
:1034C00048D00622A3A101980CF04EFB002841D061
:1034D000A2A0FFF72CFF04460023D4E900123046D7
:1034E00005F0A0FA2046FFF746FF304605F0B5FA92
:1034F000284605F08AFF7CBD74A0FFF718FF04463C
:103500000023D4E90012304605F08CFA2046FFF77C
:1035100032FFEAE774A0FFF70AFF04460023D4E96C
:103520000012304605F07EFA2046FFF724FFDCE764
:1035300075A0FFF7FCFE04460023D4E900123046D4
:1035400005F070FA2046FFF716FFCEE73046FFF78A
:1035500035FFCAE77BA0FFF7EAFE04460023D4E963
:103560000012304605F05EFA2046FFF704FFBCE784
:1035700070B500221146102005F01AF90446CCB1AE
:1035800050220021204605F061F920B1BDE87040CD
:1035900075A00CF0F9BDFF21204605F090F92046FA
:1035A00005F09EF905462846FFF74DFF284605F031
:1035B00020F9F4E7BDE8704071A00CF0E5BD08B556
:1035C000032000904FF4FA730022734973A00BF0AC
:1035D00094FA08BD4C000020256400003C70726520
:1035E0003E3C62723E4E616D6520202020202020EE
:1035F000202020537461746520205072696F7269B5
:1036000074792020537461636B2020204E756D0007
:103610003C62723E2D2D2D2D2D2D2D2D2D2D2D2D40
:103620002D2D2D2D2D2D2D2D2D2D2D2D2D2D2D2DCA
:103630002D2D2D2D2D2D2D2D2D2D2D2D2D2D2D2DBA
:103640002D3C62723E0000003C62723E3C62723E63
:103650002D2D2D2D2D2D2D2D2D2D2D2D2D2D2D2D9A
:103660002D2D2D2D2D2D2D2D2D2D2D2D2D2D2D2D8A
:103670002D2D2D2D2D2D2D2D2D2D2D2D2D00000001
:103680003C62723E42203A20426C6F636B65642C50
:103690002052203A2052656164792C2044203A203F
:1036A00044656C657465642C2053203A205375730F
:1036B00070656E6465643C62723E00001CB6010871
:1036C000474554202F000000474554202F53544DA8
:1036D0003332463478375F66696C65732F53542EE6
:1036E00067696600474554202F53544D33324634A2
:1036F00078375F66696C65732F73746D33322E6A29
:1037000070670000474554202F53544D33324634E0
:1037100078375F66696C65732F6C6F676F2E6A70A0
:1037200067000000474554202F53544D3332463430
:1037300078375441534B532E68746D6C0000000071
:10374000474554202F53544D3332463478372E6832
:10375000746D6C00474554202F2000002F34303406
:103760002E68746D6C00000063616E206E6F7420B3
:1037700062696E64206E6574636F6E6E0000000097
:1037800063616E206E6F7420637265617465206E74
:103790006574636F6E6E00007135000848545450B4
:1037A000000000002DE9FC4104460E46FE49FE489B
:1037B000103150F8240051F824100843012102F080
:1037C000E4FEF9481038ECB350F82400012102F06F
:1037D00000FFF548F54F203810F81420103830F865
:1037E000141057F8240002F07DFDEF4807F110088F
:1037F000183810F81420103830F8141058F8240035
:1038000002F070FD00208DF8060001208DF8070001
:1038100002258DF80450E448403830F81400009038
:103820008DF8055057F82400694602F0E3FC8DF846
:103830000450DD48383830F81400009058F824005F
:10384000694600E00FE002F0D5FCA7F11005314613
:1038500055F8240003F0ECF855F82400012103F09A
:1038600060F9BDE8FC810068012102F0BEFEB0E70E
:103870002DE9F04186B00121084602F086FE0121C3
:10388000042002F082FE0121082002F07EFE0121C8
:10389000102002F07AFE48F22817049701258DF8CF
:1038A000145000248DF816408DF8175002268DF81C
:1038B0001560DFF8FC8204A9404602F09BFC394603
:1038C000404602F0FFFCEF0204978DF814508DF88B
:1038D00016408DF817508DF81560DFF8D88204A9CE
:1038E000404602F087FC3946404602F0EBFCFB20E4
:1038F00004908DF814508DF816408DF817508DF8FF
:103900001560AD4E04A9304602F074FCFB21304630
:1039100002F0D8FC4FF4705004908DF814408DF8EC
:10392000174004A9A54802F065FC032004908DF817
:1039300014408DF8174004A9404602F05BFC0A21B0
:10394000022002F0F8FF0B21022002F0F4FF0C210C
:10395000022002F0F0FF0D21022002F0ECFF002116
:10396000032002F0E8FF0121032002F0E4FF43F608
:10397000034002908DF80C4010208DF80D008DF85A
:103980000E5002A802F0FCF88DF805408DF80640B4
:103990008DF8075006208DF8040001A803F0D3F934
:1039A00007208DF8040001A803F0CDF928208DF838
:1039B000040001A803F0C7F906B0BDE8F081F0B536
:1039C0008BB00121022002F0E0FD102009900226B8
:1039D0008DF8286003208DF8290000248DF82A40F6
:1039E00001258DF82B50764F09A9384602F002FCCC
:1039F00002220421384602F075FC0121022002F067
:103A0000E8FD06A803F086FC6E4844F620610068D5
:103A1000B0FBF1F0401EADF81800ADF81A4040F2CE
:103A200034500790ADF82040674F06A9384603F0A0
:103A300041FC0121384603F09FFC6021ADF80410E1
:103A4000ADF806500394ADF8106001A9384603F0B4
:103A5000BBFC0821384603F007FE0121384603F07D
:103A6000A7FC1D208DF800008DF801408DF8024064
:103A70008DF80350684603F066F90BB0F0BD30B521
:103A800085B00121042002F080FD0121082002F010
:103A90007CFD0121880302F0A8FD00248DF8104070
:103AA0008DF812404FF4705003908DF813400325A9
:103AB0008DF8115003A9414802F09CFB8DF810408D
:103AC0008DF8124003958DF813408DF8115003A91D
:103AD000384802F08FFB0A21022002F02CFF0B2154
:103AE000022002F028FF0C21022002F024FF0D2109
:103AF000022002F020FF0021032002F01CFF012120
:103B0000032002F018FF01258DF80A508DF80840B7
:103B100010208DF809008001019001A802F030F812
:103B2000E802019001A802F02BF82803019001A8F7
:103B300002F026F86803019001A802F021F801952F
:103B400001A802F01DF80220019001A802F018F867
:103B50008DF801408DF802408DF8035028208DF833
:103B60000000684603F0EFF806208DF80000684674
:103B700003F0E9F807208DF80000684603F0E3F849
:103B800005B030BD08B5012240F225510F4803F0C1
:103B90007BF825208DF8000000208DF801008DF8BD
:103BA0000200012014E0000098BC01086000002021
:103BB00000000240000C02400010024000080240D9
:103BC00000040240240000200004004000100140D6
:103BD0008DF80300684603F0B6F808BD10B5804ABA
:103BE0001823904205D27F4A7F4C2044B0FBF3F06B
:103BF00006E07B4A083A7A4C64422044B0FBF3F07A
:103C0000042801D3121D001F784B01F03D01185C00
:103C10008140116010BD3D21E0E7714918228842C2
:103C200006D270490839704B1844B0FBF2F006E038
:103C30006B4910396A4B5B421844B0FBF2F0042820
:103C400001D3091D001F0968684A105CC14001F0DA
:103C50003D00704738B504463D212046FFF7BEFFC2
:103C6000624A5F4B1820121D01219C4209D25E4B13
:103C70002344B3FBF0F08DF80110125C8DF80020A6
:103C80000AE0574B5B422344B3FBF0F08DF8011080
:103C90000244127A8DF800208DF803108DF802008E
:103CA000684603F050F8206840F01E00206060690C
:103CB00040F08000606138BD10B504463D212046CB
:103CC000FFF78CFF4949464A1820091D944205D246
:103CD000454A2244B2FBF0F0085605E0404A524201
:103CE0002244B2FBF0F00856012100F01F0291407F
:103CF0004009800000F1E020C0F88011206820F029
:103D00001E002060606900F08000606110BD704797
:103D1000704770477047704770B505463D2128468B
:103D2000FFF77BFF84B23D212846FFF757FFA0062F
:103D300005D52868C00602D52846FFF7E8FFE0064B
:103D400005D52868000702D52846FFF7E1FF2007C0
:103D500005D52868400702D52846FFF7DAFF600737
:103D600005D52868800702D52846FFF7D3FFE0076E
:103D700005D06869000602D52846FFF7CCFF70BD64
:103D800018480830C8E717482030C5E715483830CC
:103D9000C2E714485030BFE712486830BCE711480A
:103DA0008030B9E70F489830B6E70E48B030B3E737
:103DB0000B48B1E70A481830AEE709483030ABE7A6
:103DC00007484830A8E706486030A5E7044878303F
:103DD000A2E7034890309FE70148A8309CE7000025
:103DE0001064024008600240F09FFDBFB8BC0108AB
:103DF0000146F64A914200D10020F54A914200D195
:103E00000120F44A914200D10220F34A914200D1AC
:103E10000420F24A914200D10520F14A914200D19A
:103E20000620704770477CB5044608260325002C01
:103E300007D1CDE9005601230022C021E94800F056
:103E40007CFC012C08D1CDE90056012300224FF45F
:103E50008441E54800F071FC032C03D10821E048BF
:103E6000FFF7E0FF7CBD7CB50446002C11D108258E
:103E70000326CDE90065012300221903D94800F08B
:103E80005CFCCDE90065012300220421D74800F045
:103E900054FC032C03D10821D048FFF7C3FF7CBD9D
:103EA0007CB5044608260325002C07D1CDE9005631
:103EB000012300220321CE4800F03FFC012C08D151
:103EC000CDE90056012300224FF44061C54800F0BF
:103ED00034FC032C03D10821BF48FFF7A3FF7CBDAE
:103EE0002DE9FC410446072603254FF44067002CCA
:103EF00007D1CDE90056012300223946BD4800F024
:103F00001CFC012C07D1CDE90056012300223946C3
:103F1000B44800F012FC022C08D1CDE90056012370
:103F200000224FF44071B14800F007FC032C03D18C
:103F30000721A848FFF776FFBDE8FC817CB5044661
:103F400007260325002C07D1CDE9005601230022C6
:103F50000C21A74800F0F1FB012C07D1CDE9005658
:103F6000012300226021A14800F0E7FB032C03D1CC
:103F700007219748FFF756FF7CBD7CB5044607260E
:103F80000325002C07D1CDE9005601230022690248
:103F9000974800F0D2FB012C07D1CDE90056012350
:103FA0000022C021934800F0C8FB032C03D1072155
:103FB0008648FFF737FF7CBD0146844A914200D115
:103FC0008D48834A914201D18B481030814A9142F9
:103FD00001D189482030804A914201D18648303051
:103FE0007E4A914201D1844840307D4A914201D1BC
:103FF0008148503070472DE9FF4F87B00446DDE916
:10400000159ADDF8508016461F462046FFF7D4FF6C
:10401000054603966D48DFF8E4B184420BD1DBF826
:10402000000040F01000CBF800000898FFF7A5FF53
:1040300025208DF80800714E6548361F844209D14D
:10404000306840F4003030600898FFF777FF262092
:104050008DF808005F48844209D1306840F4802020
:1040600030600898FFF73CFF27208DF808005A4879
:10407000844209D1306840F4002030600898FFF78E
:104080000FFF34208DF808005448844209D130686D
:1040900040F4801030600898FFF7E5FE35208DF879
:1040A00008004F4884420BD1DBF8000040F02000AC
:1040B000CBF800000898FFF7B6FE47208DF80800FF
:1040C000204602F061FC01268DF80B6006208DF879
:1040D00009002046FFF78CFE8DF80A0002A802F0C6
:1040E00032FEADF81870ADF81680ADF81490ADF84A
:1040F00012A01798ADF810000020287340F6FF704A
:1041000001900198411E0191FBD203A9204602F0C3
:104110008FFCA08940F02000A0812E73A08940F47C
:104120000050A0810BB0BDE8F08F2DE9FF4104469F
:104130000F469046254800250C26844208D1CDE93B
:10414000006502950023424639460395FFF753FF69
:104150001F48844208D1CDE90065029500234246FC
:1041600039460395FFF747FF1A48844208D1CDE945
:10417000006502950023424639460395FFF73BFF51
:104180001548844208D1CDE90065029500234246D6
:1041900039460395FFF72FFF1048844208D1CDE937
:1041A000006502950023424639460395FFF723FF39
:1041B0000B48844208D1CDE90065029500234246B0
:1041C00039460395FFF717FFBDE8FF810010014056
:1041D0000044004000480040004C004000500040B7
:1041E000001401400008024000180240000C024088
:1041F00000000240000402408000002044380240D9
:104200002DE9FF4704460F4690469946A9480025E8
:104210000C26844208D1CDE9006502954B46424602
:1042200039460395FFF7E7FEA348844208D1CDE95C
:10423000006502954B46424639460395FFF7DBFE83
:104240009E48844208D1CDE9006502954B4642461E
:1042500039460395FFF7CFFE9948844208D1CDE94E
:10426000006502954B46424639460395FFF7C3FE6B
:104270009448844208D1CDE9006502954B464246F8
:1042800039460395FFF7B7FE8F48844208D1CDE940
:10429000006502954B46424639460395FFF7ABFE53
:1042A000BDE8FF8710B50023FFF786FEC18819B966
:1042B00002894489A2420DD0428983889A4201D161
:1042C00000224281036842899B56521C428109B1F7
:1042D000491EC180D8B210BD10B50C46FFF76CFE68
:1042E000C38842890DE08188914200D10022016893
:1042F000895CA14201D1012010BD521C92B25B1E0B
:104300009BB2002BEFD1002010BD2DE9F04180467B
:104310000F46164600244046FFF74EFE0546E88845
:1043200040B1697B4046FFF7D7FF30B9E888A988DC
:10433000884202D00020BDE8F081761E08E04046A9
:10434000FFF7B0FF3855697B884203D0641CA4B2E4
:10435000B442F4DB0021641CA0B23954EBE700B591
:10436000FFF72AFEC18829B901894089814201D11C
:10437000012000BD002000BD00B5FFF71DFEC18873
:104380008088814201D1012000BD002000BD00B520
:10439000FFF712FE0021C1800181418100BD00B5FF
:1043A0000B46FFF709FE437300BD10B503460C46EC
:1043B0001846FFF701FE007B00280BD007E01988A4
:1043C0000906FCD59880641C18880006FCD5207866
:1043D0000028F4D110BD70B504460D46164620469F
:1043E000FFF7EAFD007B00280DD0002309E02088BC
:1043F0000006FCD5E85CA08020880006FCD55B1C8C
:104400009BB2B342F3D370BDC388828893420DD26E
:104410000389934201D10022028103890268D154A9
:104420000189491C0181C188491CC180704721480C
:104430000188890603D58088C1B22448E4E7704723
:104440001D480088800606D51B48001D0088C1B2A3
:104450001E481030D8E7704718480088800606D5F7
:104460001648001D0088C1B218482030CCE77047BC
:1044700013480088800606D51148001D0088C1B287
:1044800012483030C0E770470E480188890604D5CD
:104490008088C1B20D484030B6E770470A480088AE
:1044A000800606D50848001D0088C1B20748503074
:1044B000AAE7704700100140004400400048004057
:1044C000004C0040005000400014014080000020DB
:1044D0000146584A914200D15748584A914201D169
:1044E00055480830564A914201D153481030554A38
:1044F000914201D150481830534A914201D14E485F
:104500002030524A914201D14B482830704710B5B3
:10451000FFF7DEFF4E4B42684E499A4204D30A68C9
:1045200042F480020A6003E00A6842F400120A6062
:104530004068FFF770FB48484021C160002141619D
:104540004FF480628261C161016241628162C16235
:10455000032202634163816310BD70B506460C46B9
:1045600015463046FFF7B4FF446005603046BDE8AD
:104570007040CCE710B5FFF7ABFF406810BD10B539
:10458000FFF7A6FF4068BDE8104002F035BC2DE9FA
:10459000F04105460F4616462846FFF799FF0446A8
:1045A0006068406810B10020BDE8F0812A482168A9
:1045B00001600661291D416087606068FFF72BFB81
:1045C0002549606802F0A3FC6068016841F00101C0
:1045D0000160A88A40F08000A8820120E4E770B55D
:1045E00005460C4620460BF09DFA82B2214628462D
:1045F000BDE87040CBE710B504462046FFF768FFE2
:104600004068406808B1012010BD208840F3C01008
:10461000401C10BD10B5FFF75BFF4068BDE81040BF
:10462000FFF718BB10B5FFF753FF4068BDE8104017
:10463000FFF742BB00100140E000002000440040B2
:1046400000480040004C0040005000400014014071
:1046500010640240303802403C050020AC49084458
:10466000C0F38F2070472DE9F04F0446DDE9099A29
:1046700088462046FFF7F2FFC7B200204FF0030E36
:104680000125854015EA080F32D0A24E36F81710E2
:10469000294326F81710D4F80CC046000EFA06F18C
:1046A0002CEA010C09FA06FB4CEA0B0CC4F80CC00E
:1046B000D4F800C002FA06FB2CEA010C4CEA0B0C01
:1046C000C4F800C0012A01D0022A11D1D4F804C0D4
:1046D000ADB22CEA050C03FA00F5ADB24CEA050CBC
:1046E000C4F804C0A5688D430AFA06F10D43A5601D
:1046F000401CC0B21028C3D3BDE8F08F00B5FFF74F
:10470000ADFF01218140844802681143016000BD72
:104710002DE9FC410746DDE908650C469046002C72
:1047200009D03846FFF7EAFFCDE900654246214649
:104730003846FFF798FFBDE8FC812DE9FC4F07469E
:10474000DDE90BB80E4692469946002E22D0384637
:10475000FFF7D4FF002301210F2201FA03F03042BA
:104760000DD0D80807EB8004206A5D07ED0E02FA31
:1047700005FC20EA0C0008FA05F5284320625B1CC2
:10478000102BEAD3CDE9009B53460222314638462E
:10479000FFF769FFBDE8FC8F2DE9F04105460F46A4
:1047A0002846FFF75BFFC4B200225A484FF0010CC5
:1047B00003210CFA02F33B420CD02E684FEA420868
:1047C00001FA08F846EA08062E6030F814609E43A5
:1047D00020F81460521CD2B2102AEAD3BDE8F0814E
:1047E000F0B500220125032605FA02F30B4205D09D
:1047F0000368570006FA07F4A3430360521CD2B2C1
:10480000102AF1D3F0BDF0B500220127032507FAE5
:1048100002F40C4209D00668530005FA03FC26EAAC
:104820000C0607FA03F426430660521CD2B2102A83
:10483000EDD3F0BDF0B500220125032605FA02F301
:104840000B4205D00368570006FA07F423430360C0
:10485000521CD2B2102AF1D3F0BDF0B500220127CC
:104860000324022607FA02F30B4209D0056853001D
:1048700004FA03FC25EA0C0506FA03F31D43056060
:10488000521CD2B2102AEDD3F0BDF0B5002301279F
:10489000032507FA03F40C4209D0C6685C0005FA48
:1048A00004FC26EA0C0602FA04F42643C6605B1CEC
:1048B000DBB2102BEDD3F0BD41F48032C261C16197
:1048C000C261C169C0697047002102E0491C89B218
:1048D00040080128FAD80846704700B5FFF7BEFE29
:1048E000012181400C4802688A43026000BD00B586
:1048F000FFF7B4FE074931F8100000BD00B5FFF71F
:10490000ADFE044931F81000C04380B200BD000084
:104910000000FEBF780500203038024070477CB5AB
:10492000FFF7FCFF0121042001F040FA042001F010
:104930008FF94CF20370009000208DF804008DF880
:104940000700FB4D6946284601F054FC0022114641
:10495000284601F0C7FC00220121284601F0C2FCD4
:1049600000220821284601F0BDFC0022092128462A
:1049700001F0B8FC00220A21284601F0B3FC002215
:104980000E21284601F0AEFC00220F21284601F03E
:10499000A9FC4FF680700090E64C6946204601F075
:1049A00029FC00220721204601F09CFC002208215E
:1049B000204601F097FC00220921204601F092FCDC
:1049C00000220A21204601F08DFC00220B21204606
:1049D00001F088FC00220C21204601F083FC00221B
:1049E0000D21204601F07EFC00220E21204601F020
:1049F00079FC00220F21204601F074FC4FF23F01A8
:104A00000091CD4E6946304601F0F4FB002211467C
:104A1000304601F067FC00220121304601F062FCC3
:104A200000220221304601F05DFC002203213046C5
:104A300001F058FC00220421304601F053FC002212
:104A40000521304601F04EFC00220C21304601F0D9
:104A500049FC00220D21304601F044FC00220E21C9
:104A6000304601F03FFC00220F21304601F03AFCB5
:104A70003F210091B14E6946304601F0BBFB002258
:104A80001146304601F02EFC00220121304601F093
:104A900029FC00220221304601F024FC00220321DF
:104AA000304601F01FFC00220421304601F01AFCC0
:104AB00000220521304601F015FC4FF460510091B1
:104AC0006946284601F096FB00220B21284601F09A
:104AD00009FC00220C21284601F004FC00220D21D3
:104AE000284601F0FFFB302100916946284601F07D
:104AF00081FB00220421284601F0F4FB002205215D
:104B0000284601F0EFFB211500916946304601F07F
:104B100071FB00220C21304601F0E4FB03210091DF
:104B20006946204601F066FB00221146204601F04E
:104B3000D9FB00220121204601F0D4FB7CBD2DE9E8
:104B4000FC4101213A2001F020FD4CF2337000902D
:104B500002208DF804008DF8050000248DF8064031
:104B60008DF80740724F6946384601F043FB0C222E
:104B70000021384601F0B6FB0C220121384601F035
:104B8000B1FB0C220421384601F0ACFB0C220521BC
:104B9000384601F0A7FB0C220821384601F0A2FBA1
:104BA0000C220921384601F09DFB0C220A213846CF
:104BB00001F098FB0C220E21384601F093FB0C22E9
:104BC0000F21384601F08EFB4FF680700090594E51
:104BD0006946304601F00EFB0C220721304601F0F9
:104BE00081FB0C220821304601F07CFB0C220921BC
:104BF000304601F077FB0C220A21304601F072FBAF
:104C00000C220B21304601F06DFB0C221146304680
:104C100001F068FB0C220D21304601F063FB0C22F1
:104C20000E21304601F05EFB0C220F21304601F0D0
:104C300059FB082500956946304601F0DBFA0C2245
:104C40000321304601F04EFB802000906946384633
:104C500001F0D0FA0C220A21384601F043FB0095FE
:104C600001258DF804508DF805408DF806408DF82B
:104C700007406946384601F0BDFA6E0300968DF88C
:104C800004508DF805508DF806408DF807406946B0
:104C9000384601F0AFFA3146384601F013FBBDE863
:104CA000FC8100B597B00121084601F086FC012087
:104CB0000190002002900921039104900590069034
:104CC0000790089009900A9010210B910C900D907C
:104CD0000E900F9010900902119112901390149061
:104CE00001A81590169008A800F0CAFF0121002025
:104CF00001F05CF817B000BD1149486070471149D8
:104D0000088070474FF0C04210800E480180704705
:104D100001B581B042F2107101984843009002E061
:104D20000098401E009000980028F9D10CBD0000AA
:104D3000000C024000100240001402400018024023
:104D4000100100200000106010B5FFF7F8FEFFF71B
:104D5000A8FF0520FFF7DCFFFE4C0821204601F0EC
:104D6000B3FA0A20FFF7D4FF0821204601F0AAFA7F
:104D700001211020FFF7C6FFB2211E20FFF7C2FF5E
:104D800006212820FFF7BEFF01210020FFF7BAFF10
:104D900043F2EF010120FFF7B5FF4FF4C06102209D
:104DA000FFF7B0FF00211020FFF7ACFF0520FFF751
:104DB000AFFF46F630011120FFF7A4FF40F699112E
:104DC0001220FFF79FFF4FF460512620FFF79AFF54
:104DD00033210720FFF796FF05210C20FFF792FFF4
:104DE00000213020FFF78EFF40F203313120FFF722
:104DF00089FF40F207413220FFF784FF40F2013380
:104E000019463320FFF77EFF19463420FFF77AFF5B
:104E100040F203413520FFF775FF40F2077136205D
:104E2000FFF770FF21153720FFF76CFF4FF420616B
:104E30003A20FFF767FFA1143B20FFF763FF0A2129
:104E40000D20FFF75FFF4FF438510E20FFF75AFF98
:104E50004FF46F414420FFF755FF00214520FFF735
:104E600051FF40F23F114620FFF74CFF00214E203A
:104E7000FFF748FF00214F20FFF744FF00212220C9
:104E8000FFF740FF00224FF496330020FFF737FF73
:104E9000521C9A42F9D3BDE81040AF482CE700B548
:104EA0000B4601464E20FFF72DFF19464F205DF8B7
:104EB00004EB27E74FF0C0410880A84800887047FE
:104EC0004FF0C041222008807047A44800887047F6
:104ED00000B500210846FFF7E2FFFFF7F1FF0020D1
:104EE0009E494FF478424FF4C8430A80401C9842D0
:104EF000FBD34FF4FC624FF4484301E00A80401CAE
:104F00009842FBD31F224FF4963301E00A80401CE5
:104F10009842FBD300BD03B5BDF800108E48083899
:104F20000180BDF80410418000E78B4A083A1388DD
:104F3000038050880880704701B5BDF8000086499D
:104F40000839088008BD01B5BDF80000824908395C
:104F5000488008BD704780480838406870472DE990
:104F6000F041054688461646002429464046FFF78C
:104F700096FF794F083F29E0FFF7A2FF00231AE0D0
:104F80000C21B0FBF1F1C90080228A4036F81410E0
:104F90001A410A4201D10C2805D901229A40114236
:104FA00005D10C2803D97888FFF7A9FE02E03888DC
:104FB000FFF7A5FE5B1C786880889842E0D86D1CDE
:104FC000ADB229464046FFF76AFF641C7868C08886
:104FD000A042D1D8BDE8F08110B4203AD3B25E4AE5
:104FE000083A52681468D2885A4304EB420210BC53
:104FF000B5E7F0B507460024574D4FF4A076083DBD
:10500000202221463846FFF7E7FF686881880819A3
:1050100084B2B442F4D3F0BD30B50546002400217B
:105020000846FFF73CFFFFF74BFF4C494FF4963023
:105030000D80641C8442FBD330BD2DE9F0438046D3
:105040000D4616469946002429464046FFF727FF9D
:10505000414F083FB9F1000F16D1FFF731FF03E0D0
:105060003888FFF74CFE641CB442F9D3BDE8F083E6
:10507000FFF726FF3888FFF742FE6D1CADB22946C8
:105080004046FFF70CFF641CB442F1D3EEE7B0F5E5
:10509000A07F08D2002906DBEF2904DC002389B2B7
:1050A00080B20122C9E770472DE9F04180460D46E4
:1050B0000024294E4FF4A077083E0AE021464046DE
:1050C000FFF78AFF70688088204484B2BC4281D296
:1050D0006D1C2A78002AF1D17CE770B504460D4694
:1050E000164621464520FFF70DFEA219B2F5A07F16
:1050F00005D340F23F114620FFF704FE03E091B2D2
:105100004620FFF7FFFDEA18F02A02D34FF46F4262
:1051100000E01202224391B24420FFF7F3FD29463A
:105120002046BDE87040BAE67047F0B504460F4629
:1051300015461E460123324639462046FFF77DFFBD
:105140006019401E80B2012332463946FFF775FFD1
:10515000002305E0000C0240180100200000106050
:105160002A4639462046FFF768FFB81981B22A4619
:105170002046BDE8F04000235FE72DE9FC4F804664
:1051800089460320A0EB42060024154674E008EB94
:10519000040009EB050A01901FFA8AF180B2FFF7BB
:1051A0007EFEFFF78DFEFE4F3888FFF7A8FD0198C1
:1051B000A9EB050B1FFA8BF180B2FFF770FEFFF72A
:1051C0007FFE3888FFF79BFD1FFA8AF1A8EB040ADF
:1051D0001FFA8AF0FFF763FEFFF772FE3888FFF7C9
:1051E0008EFD1FFA8BF11FFA8AF0FFF758FEFFF7CA
:1051F00067FE3888FFF783FD09EB040081B208EBF6
:10520000050A00901FFA8AF0FFF749FEFFF758FEE3
:105210003888FFF774FDA9EB040B1FFA8BF11FFA16
:105220008AF0FFF73CFEFFF74BFE3888FFF767FD7B
:105230000098A8EB050A81B21FFA8AF0FFF72FFE4B
:10524000FFF73EFE3888FFF75AFD1FFA8BF11FFA71
:105250008AF0FFF724FEFFF733FE3888FFF74FFD93
:10526000002E03DA06EB8406B61D04E0601B06EB95
:1052700080060A366D1E641CAC4288D9BDE8FC8FDE
:10528000F0B50646002440F23F110020FFF707FE6C
:10529000FFF716FEC24D01234FF41667002256F8A1
:1052A000241003FA02F0014203D16888FFF727FDBA
:1052B00002E02888FFF723FD521C202AEFD3641C4C
:1052C000BC42EBD3F0BD70472DE9F0430746894659
:1052D00090461C46B24E3088FFF72EFE0023424611
:1052E00049463846FFF7A9FE09EB040081B20023C6
:1052F00042463846FFF7A1FE01232246494638467A
:10530000FFF79BFE07EB0800401E80B201232246F8
:105310004946FFF792FE641EA5B209F101091FFA82
:1053200089F47088FFF708FE07E02146641CA4B2E8
:10533000002342463846FFF780FE6D1EADB2F4D220
:105340003088BDE8F043F7E52DE9F74F074688467A
:1053500002980321A1EB40060024029D904840885A
:10536000FFF7EAFD4FF6FF7935E09DB109EA450206
:1053700008EB050A381B93461FFA8AF180B2002316
:10538000FFF75BFE38195A461FFA8AF180B20023F4
:10539000FFF753FE9CB109EA440208EB040A781BAC
:1053A00093461FFA8AF180B20023FFF746FE781970
:1053B0005A461FFA8AF180B20023FFF73EFE002E04
:1053C00003DA06EB8406B61D04E0601B06EB8006DC
:1053D0000A366D1E641CAC42C7D971480088FFF7BD
:1053E000ABFD029A03B041463846BDE8F04FC4E633
:1053F0002DE9FC5F84460C460027A2EB0C00002838
:1054000001DCACEB020000B2191B002900DCE11A40
:1054100009B20FFA8CF526B24FF0FF3B624503D379
:105420004FF00109CA4601E0D946DA46A34204D347
:105430004FF0010B0122019201E0CDF804B0884247
:105440000ADB4FF000090022019200EBD0725210EB
:1054500014B20091804623E04FF0000AD34601EBDE
:10546000D172521014B20090884619E03146284695
:10547000FFF70DFE0098204404B2444508DBA4EB7E
:10548000080004B205EB090005B206EB0B0006B2FA
:1054900005EB0A0005B20198304406B27F1C3FB20A
:1054A0004745E3DDBDE8FC9F70B504460D46022D7F
:1054B0000DD308E020886188241D89B26388228882
:1054C00080B2FFF795FF6D1E2D042D0CF2D170BD3B
:1054D0002DE9F04704460F469146A046022F25D3FA
:1054E000B4F90050B4F9026010E0241DB1B2608834
:1054F000304483B22088284482B2A8B2FFF778FFF4
:105500002088284405B26088304406B27F1E3F04DC
:105510003F0CEAD1B9F1000F08D0B3B2AAB2B8F883
:105520000210B8F80000BDE8F04761E7BDE8F08779
:1055300070B504460D4629462046FFF7B5FF04EB3B
:105540008500001F6188438802882088BDE870407C
:105550004EE70022BCE70122BAE72DE9F34FE9B09C
:105560000446B4F800A0D34665880195012013E0F5
:1055700004EB80014988514500D28A46594500D93B
:105580008B4634F82020AA4200D2154601998A425F
:1055900000D90192401C80B26A998842E8D301E0A8
:1055A000100100205F484088FFF7C6FC0295AEE07E
:1055B0004FF000096A98401E1FFA80F800254FE05E
:1055C00002980AF0F1FA0646679168900F4634F99E
:1055D00025000AF0D8FA32463B460AF0F3FA0AD21E
:1055E00034F92800679F689E0AF0CDFA32463B46A0
:1055F0000AF000FB15D934F92800679F689E0AF06D
:10560000C2FA32463B460AF0DDFA26D234F92500CA
:10561000679F689E0AF0B7FA32463B460AF0EAFAFC
:105620001BD804EB8800029BB0F9021004EB850044
:10563000B0F902000A1A34F925105B1A5A4334F9FA
:105640002830591A92FBF1F10144484603AA09F1A6
:1056500001091FFA89F922F81010A8466D1CADB295
:105660006A988542ACD30020A9F1010503AF0FE091
:10567000411C37F8102037F811309A4207D927F823
:10568000103027F8112018B1401E80B200E088B217
:10569000A842EDDB002534E037F81500584532D23A
:1056A0006E1C37F81610514529D9504501D227F8FC
:1056B00015A037F81600584501D927F816B0DFF8BD
:1056C0006480B8F80200FFF737FC37F8161037F897
:1056D00015000023081A82B20298FFF7AEFCB8F852
:1056E0000000FFF729FC029837F9161000B20646B1
:1056F000FFF7CDFC37F915103046FFF7C8FCAD1C9D
:10570000ADB24D45C8D30298401C80B20290DDE98D
:1057100001108842FFF44CAF024800886BB0BDE82E
:10572000F04F09E4100100201CB50446FE48012199
:1057300050F8240000F029FFFB48203830F814000E
:10574000009001208DF8040000218DF806108DF8DE
:10575000070002208DF80500F448694650F824003F
:1057600000F048FD1CBDF049F04A203931F8101016
:1057700052F8200001837047EB49EC4A203931F898
:10578000101052F8200041837047E84951F820106A
:105790004A69E54B203B33F8100042404A617047AC
:1057A00070B586B004460E46DF4801213C3850F8FB
:1057B000240000F0EAFE0121880300F016FF002516
:1057C0008DF814508DF81750D748403830F8140031
:1057D0000490D64804A91C3850F8240000F00AFDB3
:1057E000012E25D1D0484338015D401E005D01F0F7
:1057F000A2F8CD483E3830F8140002908DF80C50D5
:1058000008208DF80D0001258DF80E5002A800F03B
:10581000B7F9C5484238005D8DF804000F208DF8B7
:1058200005008DF806008DF8075001A801F08BFAED
:1058300006B070BDBC49BD4A40391C3A31F8101061
:1058400052F8200000F02ABD2DE9FC4104460E4626
:10585000B548B5491038083950F8240051F82410DB
:105860000843012100F091FEAF480121183850F89B
:10587000240000F0BAFEAC48AC4F2838103F10F8B6
:105880001420083830F8141057F8240000F02AFDCE
:10589000A54807F10808243810F81420083830F813
:1058A000141058F8240000F01DFD00208DF80600AB
:1058B00001208DF8070002258DF804509A483838E9
:1058C00030F8140000908DF8055057F82400694610
:1058D00000F090FC8DF804509348343830F81400F0
:1058E000009058F82400694600F084FCA7F10805F0
:1058F000314655F8240001F09BF855F824000121A9
:1059000001F00FF9BDE8FC817CB5002000F04EFFEE
:10591000002000F04EFF00F021FF00214FF4006056
:1059200000F063FE824C00220821204600F0DAFCE1
:1059300000220921204600F0D5FC00220A21204641
:1059400000F0D0FC00220B21204600F0CBFC00220E
:105950000C21204600F0C6FC764D0022022128468C
:1059600000F0C0FC4FF47061009100218DF804102C
:105970008DF807106946204600F03CFC0421009198
:105980006946284600F036FCA1140091694620467D
:1059900000F030FC7CBD2DE9FC4101210E2000F01F
:1059A000F4FD634E0C220821304600F09BFC0C22D3
:1059B0000921304600F096FC0C220A21304600F006
:1059C00091FC0C220B21304600F08CFC0C2211467D
:1059D000304600F087FC574F0C220221384600F079
:1059E00081FC4FF47060009001248DF80540022086
:1059F0008DF8040000258DF806508DF807406946A3
:105A0000304600F0F7FB042100916946384600F06B
:105A1000F1FB200300908DF807506946304600F0F6
:105A2000E9FBE00300908DF804508DF807406946CB
:105A3000414800F0DFFB0121C80200F0D6FD012142
:105A4000880500F0A2FD5DE730B58FB004463B4D00
:105A50004FF0FA51284601F002FB0021284601F0E0
:105A60008FFA284601F0C8F94FF0006000903448E2
:105A70000190029440200390002004900590291585
:105A80000691890007918900089109904FF44030F0
:105A90000A9004200B9003200C9048020D90801077
:105AA0000E906946284601F032FA0122102128465C
:105AB00001F0E6FA2021284601F07AFA0121284671
:105AC00001F05EFA0FB030BD30B58FB004461B4D0B
:105AD0004FF0FA51284601F0C2FA0021284601F0A1
